{
	"contracts/Homework5.sol": {
		"Homework": {
			"abi": [
				{
					"inputs": [
						{
							"internalType": "string",
							"name": "_id",
							"type": "string"
						},
						{
							"internalType": "string",
							"name": "_name",
							"type": "string"
						},
						{
							"internalType": "string",
							"name": "_description",
							"type": "string"
						},
						{
							"internalType": "uint256",
							"name": "_fundrasingGoal",
							"type": "uint256"
						}
					],
					"stateMutability": "nonpayable",
					"type": "constructor"
				},
				{
					"anonymous": false,
					"inputs": [
						{
							"indexed": false,
							"internalType": "string",
							"name": "Id",
							"type": "string"
						},
						{
							"indexed": false,
							"internalType": "uint256",
							"name": "Estado",
							"type": "uint256"
						}
					],
					"name": "CProject",
					"type": "event"
				},
				{
					"anonymous": false,
					"inputs": [
						{
							"indexed": false,
							"internalType": "string",
							"name": "ProjectId",
							"type": "string"
						},
						{
							"indexed": false,
							"internalType": "uint256",
							"name": "valor",
							"type": "uint256"
						}
					],
					"name": "FProject",
					"type": "event"
				},
				{
					"inputs": [],
					"name": "FundProject",
					"outputs": [],
					"stateMutability": "payable",
					"type": "function"
				},
				{
					"inputs": [
						{
							"internalType": "uint256",
							"name": "newState",
							"type": "uint256"
						},
						{
							"internalType": "string",
							"name": "",
							"type": "string"
						}
					],
					"name": "changeProjectState",
					"outputs": [],
					"stateMutability": "nonpayable",
					"type": "function"
				},
				{
					"inputs": [],
					"name": "crowfunding",
					"outputs": [
						{
							"internalType": "string",
							"name": "id",
							"type": "string"
						},
						{
							"internalType": "string",
							"name": "name",
							"type": "string"
						},
						{
							"internalType": "string",
							"name": "description",
							"type": "string"
						},
						{
							"internalType": "address payable",
							"name": "owner",
							"type": "address"
						},
						{
							"internalType": "uint256",
							"name": "state",
							"type": "uint256"
						},
						{
							"internalType": "uint256",
							"name": "fund",
							"type": "uint256"
						},
						{
							"internalType": "uint256",
							"name": "fundrasingGoal",
							"type": "uint256"
						}
					],
					"stateMutability": "view",
					"type": "function"
				}
			],
			"devdoc": {
				"kind": "dev",
				"methods": {},
				"version": 1
			},
			"evm": {
				"assembly": "    /* \"contracts/Homework5.sol\":74:1685  contract Homework {... */\n  mstore(0x40, 0x80)\n    /* \"contracts/Homework5.sol\":456:672  constructor (string memory _id, string memory _name, string memory _description, uint _fundrasingGoal){... */\n  callvalue\n  dup1\n  iszero\n  tag_1\n  jumpi\n  0x00\n  dup1\n  revert\ntag_1:\n  pop\n  mload(0x40)\n  sub(codesize, bytecodeSize)\n  dup1\n  bytecodeSize\n  dup4\n  codecopy\n  dup2\n  dup2\n  add\n  0x40\n  mstore\n  dup2\n  add\n  swap1\n  tag_2\n  swap2\n  swap1\n  tag_3\n  jump\t// in\ntag_2:\n    /* \"contracts/Homework5.sol\":583:664  Crowfunding(_id, _name, _description, payable(msg.sender), 0, 0, _fundrasingGoal) */\n  mload(0x40)\n  dup1\n  0xe0\n  add\n  0x40\n  mstore\n  dup1\n    /* \"contracts/Homework5.sol\":595:598  _id */\n  dup6\n    /* \"contracts/Homework5.sol\":583:664  Crowfunding(_id, _name, _description, payable(msg.sender), 0, 0, _fundrasingGoal) */\n  dup2\n  mstore\n  0x20\n  add\n    /* \"contracts/Homework5.sol\":600:605  _name */\n  dup5\n    /* \"contracts/Homework5.sol\":583:664  Crowfunding(_id, _name, _description, payable(msg.sender), 0, 0, _fundrasingGoal) */\n  dup2\n  mstore\n  0x20\n  add\n    /* \"contracts/Homework5.sol\":607:619  _description */\n  dup4\n    /* \"contracts/Homework5.sol\":583:664  Crowfunding(_id, _name, _description, payable(msg.sender), 0, 0, _fundrasingGoal) */\n  dup2\n  mstore\n  0x20\n  add\n    /* \"contracts/Homework5.sol\":629:639  msg.sender */\n  caller\n    /* \"contracts/Homework5.sol\":583:664  Crowfunding(_id, _name, _description, payable(msg.sender), 0, 0, _fundrasingGoal) */\n  0xffffffffffffffffffffffffffffffffffffffff\n  and\n  dup2\n  mstore\n  0x20\n  add\n    /* \"contracts/Homework5.sol\":642:643  0 */\n  0x00\n    /* \"contracts/Homework5.sol\":583:664  Crowfunding(_id, _name, _description, payable(msg.sender), 0, 0, _fundrasingGoal) */\n  dup2\n  mstore\n  0x20\n  add\n    /* \"contracts/Homework5.sol\":645:646  0 */\n  0x00\n    /* \"contracts/Homework5.sol\":583:664  Crowfunding(_id, _name, _description, payable(msg.sender), 0, 0, _fundrasingGoal) */\n  dup2\n  mstore\n  0x20\n  add\n    /* \"contracts/Homework5.sol\":648:663  _fundrasingGoal */\n  dup3\n    /* \"contracts/Homework5.sol\":583:664  Crowfunding(_id, _name, _description, payable(msg.sender), 0, 0, _fundrasingGoal) */\n  dup2\n  mstore\n  pop\n    /* \"contracts/Homework5.sol\":569:580  crowfunding */\n  0x00\n    /* \"contracts/Homework5.sol\":569:664  crowfunding = Crowfunding(_id, _name, _description, payable(msg.sender), 0, 0, _fundrasingGoal) */\n  dup1\n  dup3\n  add\n  mload\n  dup2\n  0x00\n  add\n  swap1\n  dup2\n  tag_6\n  swap2\n  swap1\n  tag_7\n  jump\t// in\ntag_6:\n  pop\n  0x20\n  dup3\n  add\n  mload\n  dup2\n  0x01\n  add\n  swap1\n  dup2\n  tag_8\n  swap2\n  swap1\n  tag_7\n  jump\t// in\ntag_8:\n  pop\n  0x40\n  dup3\n  add\n  mload\n  dup2\n  0x02\n  add\n  swap1\n  dup2\n  tag_9\n  swap2\n  swap1\n  tag_7\n  jump\t// in\ntag_9:\n  pop\n  0x60\n  dup3\n  add\n  mload\n  dup2\n  0x03\n  add\n  exp(0x0100, 0x00)\n  dup2\n  sload\n  dup2\n  0xffffffffffffffffffffffffffffffffffffffff\n  mul\n  not\n  and\n  swap1\n  dup4\n  0xffffffffffffffffffffffffffffffffffffffff\n  and\n  mul\n  or\n  swap1\n  sstore\n  pop\n  0x80\n  dup3\n  add\n  mload\n  dup2\n  0x04\n  add\n  sstore\n  0xa0\n  dup3\n  add\n  mload\n  dup2\n  0x05\n  add\n  sstore\n  0xc0\n  dup3\n  add\n  mload\n  dup2\n  0x06\n  add\n  sstore\n  swap1\n  pop\n  pop\n    /* \"contracts/Homework5.sol\":456:672  constructor (string memory _id, string memory _name, string memory _description, uint _fundrasingGoal){... */\n  pop\n  pop\n  pop\n  pop\n    /* \"contracts/Homework5.sol\":74:1685  contract Homework {... */\n  jump(tag_10)\n    /* \"#utility.yul\":7:82   */\ntag_11:\n    /* \"#utility.yul\":40:46   */\n  0x00\n    /* \"#utility.yul\":73:75   */\n  0x40\n    /* \"#utility.yul\":67:76   */\n  mload\n    /* \"#utility.yul\":57:76   */\n  swap1\n  pop\n    /* \"#utility.yul\":7:82   */\n  swap1\n  jump\t// out\n    /* \"#utility.yul\":88:205   */\ntag_12:\n    /* \"#utility.yul\":197:198   */\n  0x00\n    /* \"#utility.yul\":194:195   */\n  dup1\n    /* \"#utility.yul\":187:199   */\n  revert\n    /* \"#utility.yul\":211:328   */\ntag_13:\n    /* \"#utility.yul\":320:321   */\n  0x00\n    /* \"#utility.yul\":317:318   */\n  dup1\n    /* \"#utility.yul\":310:322   */\n  revert\n    /* \"#utility.yul\":334:451   */\ntag_14:\n    /* \"#utility.yul\":443:444   */\n  0x00\n    /* \"#utility.yul\":440:441   */\n  dup1\n    /* \"#utility.yul\":433:445   */\n  revert\n    /* \"#utility.yul\":457:574   */\ntag_15:\n    /* \"#utility.yul\":566:567   */\n  0x00\n    /* \"#utility.yul\":563:564   */\n  dup1\n    /* \"#utility.yul\":556:568   */\n  revert\n    /* \"#utility.yul\":580:682   */\ntag_16:\n    /* \"#utility.yul\":621:627   */\n  0x00\n    /* \"#utility.yul\":672:674   */\n  0x1f\n    /* \"#utility.yul\":668:675   */\n  not\n    /* \"#utility.yul\":663:665   */\n  0x1f\n    /* \"#utility.yul\":656:661   */\n  dup4\n    /* \"#utility.yul\":652:666   */\n  add\n    /* \"#utility.yul\":648:676   */\n  and\n    /* \"#utility.yul\":638:676   */\n  swap1\n  pop\n    /* \"#utility.yul\":580:682   */\n  swap2\n  swap1\n  pop\n  jump\t// out\n    /* \"#utility.yul\":688:868   */\ntag_17:\n    /* \"#utility.yul\":736:813   */\n  0x4e487b7100000000000000000000000000000000000000000000000000000000\n    /* \"#utility.yul\":733:734   */\n  0x00\n    /* \"#utility.yul\":726:814   */\n  mstore\n    /* \"#utility.yul\":833:837   */\n  0x41\n    /* \"#utility.yul\":830:831   */\n  0x04\n    /* \"#utility.yul\":823:838   */\n  mstore\n    /* \"#utility.yul\":857:861   */\n  0x24\n    /* \"#utility.yul\":854:855   */\n  0x00\n    /* \"#utility.yul\":847:862   */\n  revert\n    /* \"#utility.yul\":874:1155   */\ntag_18:\n    /* \"#utility.yul\":957:984   */\n  tag_54\n    /* \"#utility.yul\":979:983   */\n  dup3\n    /* \"#utility.yul\":957:984   */\n  tag_16\n  jump\t// in\ntag_54:\n    /* \"#utility.yul\":949:955   */\n  dup2\n    /* \"#utility.yul\":945:985   */\n  add\n    /* \"#utility.yul\":1087:1093   */\n  dup2\n    /* \"#utility.yul\":1075:1085   */\n  dup2\n    /* \"#utility.yul\":1072:1094   */\n  lt\n    /* \"#utility.yul\":1051:1069   */\n  0xffffffffffffffff\n    /* \"#utility.yul\":1039:1049   */\n  dup3\n    /* \"#utility.yul\":1036:1070   */\n  gt\n    /* \"#utility.yul\":1033:1095   */\n  or\n    /* \"#utility.yul\":1030:1118   */\n  iszero\n  tag_55\n  jumpi\n    /* \"#utility.yul\":1098:1116   */\n  tag_56\n  tag_17\n  jump\t// in\ntag_56:\n    /* \"#utility.yul\":1030:1118   */\ntag_55:\n    /* \"#utility.yul\":1138:1148   */\n  dup1\n    /* \"#utility.yul\":1134:1136   */\n  0x40\n    /* \"#utility.yul\":1127:1149   */\n  mstore\n    /* \"#utility.yul\":917:1155   */\n  pop\n    /* \"#utility.yul\":874:1155   */\n  pop\n  pop\n  jump\t// out\n    /* \"#utility.yul\":1161:1290   */\ntag_19:\n    /* \"#utility.yul\":1195:1201   */\n  0x00\n    /* \"#utility.yul\":1222:1242   */\n  tag_58\n  tag_11\n  jump\t// in\ntag_58:\n    /* \"#utility.yul\":1212:1242   */\n  swap1\n  pop\n    /* \"#utility.yul\":1251:1284   */\n  tag_59\n    /* \"#utility.yul\":1279:1283   */\n  dup3\n    /* \"#utility.yul\":1271:1277   */\n  dup3\n    /* \"#utility.yul\":1251:1284   */\n  tag_18\n  jump\t// in\ntag_59:\n    /* \"#utility.yul\":1161:1290   */\n  swap2\n  swap1\n  pop\n  jump\t// out\n    /* \"#utility.yul\":1296:1604   */\ntag_20:\n    /* \"#utility.yul\":1358:1362   */\n  0x00\n    /* \"#utility.yul\":1448:1466   */\n  0xffffffffffffffff\n    /* \"#utility.yul\":1440:1446   */\n  dup3\n    /* \"#utility.yul\":1437:1467   */\n  gt\n    /* \"#utility.yul\":1434:1490   */\n  iszero\n  tag_61\n  jumpi\n    /* \"#utility.yul\":1470:1488   */\n  tag_62\n  tag_17\n  jump\t// in\ntag_62:\n    /* \"#utility.yul\":1434:1490   */\ntag_61:\n    /* \"#utility.yul\":1508:1537   */\n  tag_63\n    /* \"#utility.yul\":1530:1536   */\n  dup3\n    /* \"#utility.yul\":1508:1537   */\n  tag_16\n  jump\t// in\ntag_63:\n    /* \"#utility.yul\":1500:1537   */\n  swap1\n  pop\n    /* \"#utility.yul\":1592:1596   */\n  0x20\n    /* \"#utility.yul\":1586:1590   */\n  dup2\n    /* \"#utility.yul\":1582:1597   */\n  add\n    /* \"#utility.yul\":1574:1597   */\n  swap1\n  pop\n    /* \"#utility.yul\":1296:1604   */\n  swap2\n  swap1\n  pop\n  jump\t// out\n    /* \"#utility.yul\":1610:1749   */\ntag_21:\n    /* \"#utility.yul\":1699:1705   */\n  dup3\n    /* \"#utility.yul\":1694:1697   */\n  dup2\n    /* \"#utility.yul\":1689:1692   */\n  dup4\n    /* \"#utility.yul\":1683:1706   */\n  mcopy\n    /* \"#utility.yul\":1740:1741   */\n  0x00\n    /* \"#utility.yul\":1731:1737   */\n  dup4\n    /* \"#utility.yul\":1726:1729   */\n  dup4\n    /* \"#utility.yul\":1722:1738   */\n  add\n    /* \"#utility.yul\":1715:1742   */\n  mstore\n    /* \"#utility.yul\":1610:1749   */\n  pop\n  pop\n  pop\n  jump\t// out\n    /* \"#utility.yul\":1755:2189   */\ntag_22:\n    /* \"#utility.yul\":1844:1849   */\n  0x00\n    /* \"#utility.yul\":1869:1935   */\n  tag_66\n    /* \"#utility.yul\":1885:1934   */\n  tag_67\n    /* \"#utility.yul\":1927:1933   */\n  dup5\n    /* \"#utility.yul\":1885:1934   */\n  tag_20\n  jump\t// in\ntag_67:\n    /* \"#utility.yul\":1869:1935   */\n  tag_19\n  jump\t// in\ntag_66:\n    /* \"#utility.yul\":1860:1935   */\n  swap1\n  pop\n    /* \"#utility.yul\":1958:1964   */\n  dup3\n    /* \"#utility.yul\":1951:1956   */\n  dup2\n    /* \"#utility.yul\":1944:1965   */\n  mstore\n    /* \"#utility.yul\":1996:2000   */\n  0x20\n    /* \"#utility.yul\":1989:1994   */\n  dup2\n    /* \"#utility.yul\":1985:2001   */\n  add\n    /* \"#utility.yul\":2034:2037   */\n  dup5\n    /* \"#utility.yul\":2025:2031   */\n  dup5\n    /* \"#utility.yul\":2020:2023   */\n  dup5\n    /* \"#utility.yul\":2016:2032   */\n  add\n    /* \"#utility.yul\":2013:2038   */\n  gt\n    /* \"#utility.yul\":2010:2122   */\n  iszero\n  tag_68\n  jumpi\n    /* \"#utility.yul\":2041:2120   */\n  tag_69\n  tag_15\n  jump\t// in\ntag_69:\n    /* \"#utility.yul\":2010:2122   */\ntag_68:\n    /* \"#utility.yul\":2131:2183   */\n  tag_70\n    /* \"#utility.yul\":2176:2182   */\n  dup5\n    /* \"#utility.yul\":2171:2174   */\n  dup3\n    /* \"#utility.yul\":2166:2169   */\n  dup6\n    /* \"#utility.yul\":2131:2183   */\n  tag_21\n  jump\t// in\ntag_70:\n    /* \"#utility.yul\":1850:2189   */\n  pop\n    /* \"#utility.yul\":1755:2189   */\n  swap4\n  swap3\n  pop\n  pop\n  pop\n  jump\t// out\n    /* \"#utility.yul\":2209:2564   */\ntag_23:\n    /* \"#utility.yul\":2276:2281   */\n  0x00\n    /* \"#utility.yul\":2325:2328   */\n  dup3\n    /* \"#utility.yul\":2318:2322   */\n  0x1f\n    /* \"#utility.yul\":2310:2316   */\n  dup4\n    /* \"#utility.yul\":2306:2323   */\n  add\n    /* \"#utility.yul\":2302:2329   */\n  slt\n    /* \"#utility.yul\":2292:2414   */\n  tag_72\n  jumpi\n    /* \"#utility.yul\":2333:2412   */\n  tag_73\n  tag_14\n  jump\t// in\ntag_73:\n    /* \"#utility.yul\":2292:2414   */\ntag_72:\n    /* \"#utility.yul\":2443:2449   */\n  dup2\n    /* \"#utility.yul\":2437:2450   */\n  mload\n    /* \"#utility.yul\":2468:2558   */\n  tag_74\n    /* \"#utility.yul\":2554:2557   */\n  dup5\n    /* \"#utility.yul\":2546:2552   */\n  dup3\n    /* \"#utility.yul\":2539:2543   */\n  0x20\n    /* \"#utility.yul\":2531:2537   */\n  dup7\n    /* \"#utility.yul\":2527:2544   */\n  add\n    /* \"#utility.yul\":2468:2558   */\n  tag_22\n  jump\t// in\ntag_74:\n    /* \"#utility.yul\":2459:2558   */\n  swap2\n  pop\n    /* \"#utility.yul\":2282:2564   */\n  pop\n    /* \"#utility.yul\":2209:2564   */\n  swap3\n  swap2\n  pop\n  pop\n  jump\t// out\n    /* \"#utility.yul\":2570:2647   */\ntag_24:\n    /* \"#utility.yul\":2607:2614   */\n  0x00\n    /* \"#utility.yul\":2636:2641   */\n  dup2\n    /* \"#utility.yul\":2625:2641   */\n  swap1\n  pop\n    /* \"#utility.yul\":2570:2647   */\n  swap2\n  swap1\n  pop\n  jump\t// out\n    /* \"#utility.yul\":2653:2775   */\ntag_25:\n    /* \"#utility.yul\":2726:2750   */\n  tag_77\n    /* \"#utility.yul\":2744:2749   */\n  dup2\n    /* \"#utility.yul\":2726:2750   */\n  tag_24\n  jump\t// in\ntag_77:\n    /* \"#utility.yul\":2719:2724   */\n  dup2\n    /* \"#utility.yul\":2716:2751   */\n  eq\n    /* \"#utility.yul\":2706:2769   */\n  tag_78\n  jumpi\n    /* \"#utility.yul\":2765:2766   */\n  0x00\n    /* \"#utility.yul\":2762:2763   */\n  dup1\n    /* \"#utility.yul\":2755:2767   */\n  revert\n    /* \"#utility.yul\":2706:2769   */\ntag_78:\n    /* \"#utility.yul\":2653:2775   */\n  pop\n  jump\t// out\n    /* \"#utility.yul\":2781:2924   */\ntag_26:\n    /* \"#utility.yul\":2838:2843   */\n  0x00\n    /* \"#utility.yul\":2869:2875   */\n  dup2\n    /* \"#utility.yul\":2863:2876   */\n  mload\n    /* \"#utility.yul\":2854:2876   */\n  swap1\n  pop\n    /* \"#utility.yul\":2885:2918   */\n  tag_80\n    /* \"#utility.yul\":2912:2917   */\n  dup2\n    /* \"#utility.yul\":2885:2918   */\n  tag_25\n  jump\t// in\ntag_80:\n    /* \"#utility.yul\":2781:2924   */\n  swap3\n  swap2\n  pop\n  pop\n  jump\t// out\n    /* \"#utility.yul\":2930:4269   */\ntag_3:\n    /* \"#utility.yul\":3057:3063   */\n  0x00\n    /* \"#utility.yul\":3065:3071   */\n  dup1\n    /* \"#utility.yul\":3073:3079   */\n  0x00\n    /* \"#utility.yul\":3081:3087   */\n  dup1\n    /* \"#utility.yul\":3130:3133   */\n  0x80\n    /* \"#utility.yul\":3118:3127   */\n  dup6\n    /* \"#utility.yul\":3109:3116   */\n  dup8\n    /* \"#utility.yul\":3105:3128   */\n  sub\n    /* \"#utility.yul\":3101:3134   */\n  slt\n    /* \"#utility.yul\":3098:3218   */\n  iszero\n  tag_82\n  jumpi\n    /* \"#utility.yul\":3137:3216   */\n  tag_83\n  tag_12\n  jump\t// in\ntag_83:\n    /* \"#utility.yul\":3098:3218   */\ntag_82:\n    /* \"#utility.yul\":3278:3279   */\n  0x00\n    /* \"#utility.yul\":3267:3276   */\n  dup6\n    /* \"#utility.yul\":3263:3280   */\n  add\n    /* \"#utility.yul\":3257:3281   */\n  mload\n    /* \"#utility.yul\":3308:3326   */\n  0xffffffffffffffff\n    /* \"#utility.yul\":3300:3306   */\n  dup2\n    /* \"#utility.yul\":3297:3327   */\n  gt\n    /* \"#utility.yul\":3294:3411   */\n  iszero\n  tag_84\n  jumpi\n    /* \"#utility.yul\":3330:3409   */\n  tag_85\n  tag_13\n  jump\t// in\ntag_85:\n    /* \"#utility.yul\":3294:3411   */\ntag_84:\n    /* \"#utility.yul\":3435:3509   */\n  tag_86\n    /* \"#utility.yul\":3501:3508   */\n  dup8\n    /* \"#utility.yul\":3492:3498   */\n  dup3\n    /* \"#utility.yul\":3481:3490   */\n  dup9\n    /* \"#utility.yul\":3477:3499   */\n  add\n    /* \"#utility.yul\":3435:3509   */\n  tag_23\n  jump\t// in\ntag_86:\n    /* \"#utility.yul\":3425:3509   */\n  swap5\n  pop\n    /* \"#utility.yul\":3228:3519   */\n  pop\n    /* \"#utility.yul\":3579:3581   */\n  0x20\n    /* \"#utility.yul\":3568:3577   */\n  dup6\n    /* \"#utility.yul\":3564:3582   */\n  add\n    /* \"#utility.yul\":3558:3583   */\n  mload\n    /* \"#utility.yul\":3610:3628   */\n  0xffffffffffffffff\n    /* \"#utility.yul\":3602:3608   */\n  dup2\n    /* \"#utility.yul\":3599:3629   */\n  gt\n    /* \"#utility.yul\":3596:3713   */\n  iszero\n  tag_87\n  jumpi\n    /* \"#utility.yul\":3632:3711   */\n  tag_88\n  tag_13\n  jump\t// in\ntag_88:\n    /* \"#utility.yul\":3596:3713   */\ntag_87:\n    /* \"#utility.yul\":3737:3811   */\n  tag_89\n    /* \"#utility.yul\":3803:3810   */\n  dup8\n    /* \"#utility.yul\":3794:3800   */\n  dup3\n    /* \"#utility.yul\":3783:3792   */\n  dup9\n    /* \"#utility.yul\":3779:3801   */\n  add\n    /* \"#utility.yul\":3737:3811   */\n  tag_23\n  jump\t// in\ntag_89:\n    /* \"#utility.yul\":3727:3811   */\n  swap4\n  pop\n    /* \"#utility.yul\":3529:3821   */\n  pop\n    /* \"#utility.yul\":3881:3883   */\n  0x40\n    /* \"#utility.yul\":3870:3879   */\n  dup6\n    /* \"#utility.yul\":3866:3884   */\n  add\n    /* \"#utility.yul\":3860:3885   */\n  mload\n    /* \"#utility.yul\":3912:3930   */\n  0xffffffffffffffff\n    /* \"#utility.yul\":3904:3910   */\n  dup2\n    /* \"#utility.yul\":3901:3931   */\n  gt\n    /* \"#utility.yul\":3898:4015   */\n  iszero\n  tag_90\n  jumpi\n    /* \"#utility.yul\":3934:4013   */\n  tag_91\n  tag_13\n  jump\t// in\ntag_91:\n    /* \"#utility.yul\":3898:4015   */\ntag_90:\n    /* \"#utility.yul\":4039:4113   */\n  tag_92\n    /* \"#utility.yul\":4105:4112   */\n  dup8\n    /* \"#utility.yul\":4096:4102   */\n  dup3\n    /* \"#utility.yul\":4085:4094   */\n  dup9\n    /* \"#utility.yul\":4081:4103   */\n  add\n    /* \"#utility.yul\":4039:4113   */\n  tag_23\n  jump\t// in\ntag_92:\n    /* \"#utility.yul\":4029:4113   */\n  swap3\n  pop\n    /* \"#utility.yul\":3831:4123   */\n  pop\n    /* \"#utility.yul\":4162:4164   */\n  0x60\n    /* \"#utility.yul\":4188:4252   */\n  tag_93\n    /* \"#utility.yul\":4244:4251   */\n  dup8\n    /* \"#utility.yul\":4235:4241   */\n  dup3\n    /* \"#utility.yul\":4224:4233   */\n  dup9\n    /* \"#utility.yul\":4220:4242   */\n  add\n    /* \"#utility.yul\":4188:4252   */\n  tag_26\n  jump\t// in\ntag_93:\n    /* \"#utility.yul\":4178:4252   */\n  swap2\n  pop\n    /* \"#utility.yul\":4133:4262   */\n  pop\n    /* \"#utility.yul\":2930:4269   */\n  swap3\n  swap6\n  swap2\n  swap5\n  pop\n  swap3\n  pop\n  jump\t// out\n    /* \"#utility.yul\":4275:4374   */\ntag_27:\n    /* \"#utility.yul\":4327:4333   */\n  0x00\n    /* \"#utility.yul\":4361:4366   */\n  dup2\n    /* \"#utility.yul\":4355:4367   */\n  mload\n    /* \"#utility.yul\":4345:4367   */\n  swap1\n  pop\n    /* \"#utility.yul\":4275:4374   */\n  swap2\n  swap1\n  pop\n  jump\t// out\n    /* \"#utility.yul\":4380:4560   */\ntag_28:\n    /* \"#utility.yul\":4428:4505   */\n  0x4e487b7100000000000000000000000000000000000000000000000000000000\n    /* \"#utility.yul\":4425:4426   */\n  0x00\n    /* \"#utility.yul\":4418:4506   */\n  mstore\n    /* \"#utility.yul\":4525:4529   */\n  0x22\n    /* \"#utility.yul\":4522:4523   */\n  0x04\n    /* \"#utility.yul\":4515:4530   */\n  mstore\n    /* \"#utility.yul\":4549:4553   */\n  0x24\n    /* \"#utility.yul\":4546:4547   */\n  0x00\n    /* \"#utility.yul\":4539:4554   */\n  revert\n    /* \"#utility.yul\":4566:4886   */\ntag_29:\n    /* \"#utility.yul\":4610:4616   */\n  0x00\n    /* \"#utility.yul\":4647:4648   */\n  0x02\n    /* \"#utility.yul\":4641:4645   */\n  dup3\n    /* \"#utility.yul\":4637:4649   */\n  div\n    /* \"#utility.yul\":4627:4649   */\n  swap1\n  pop\n    /* \"#utility.yul\":4694:4695   */\n  0x01\n    /* \"#utility.yul\":4688:4692   */\n  dup3\n    /* \"#utility.yul\":4684:4696   */\n  and\n    /* \"#utility.yul\":4715:4733   */\n  dup1\n    /* \"#utility.yul\":4705:4786   */\n  tag_97\n  jumpi\n    /* \"#utility.yul\":4771:4775   */\n  0x7f\n    /* \"#utility.yul\":4763:4769   */\n  dup3\n    /* \"#utility.yul\":4759:4776   */\n  and\n    /* \"#utility.yul\":4749:4776   */\n  swap2\n  pop\n    /* \"#utility.yul\":4705:4786   */\ntag_97:\n    /* \"#utility.yul\":4833:4835   */\n  0x20\n    /* \"#utility.yul\":4825:4831   */\n  dup3\n    /* \"#utility.yul\":4822:4836   */\n  lt\n    /* \"#utility.yul\":4802:4820   */\n  dup2\n    /* \"#utility.yul\":4799:4837   */\n  sub\n    /* \"#utility.yul\":4796:4880   */\n  tag_98\n  jumpi\n    /* \"#utility.yul\":4852:4870   */\n  tag_99\n  tag_28\n  jump\t// in\ntag_99:\n    /* \"#utility.yul\":4796:4880   */\ntag_98:\n    /* \"#utility.yul\":4617:4886   */\n  pop\n    /* \"#utility.yul\":4566:4886   */\n  swap2\n  swap1\n  pop\n  jump\t// out\n    /* \"#utility.yul\":4892:5033   */\ntag_30:\n    /* \"#utility.yul\":4941:4945   */\n  0x00\n    /* \"#utility.yul\":4964:4967   */\n  dup2\n    /* \"#utility.yul\":4956:4967   */\n  swap1\n  pop\n    /* \"#utility.yul\":4987:4990   */\n  dup2\n    /* \"#utility.yul\":4984:4985   */\n  0x00\n    /* \"#utility.yul\":4977:4991   */\n  mstore\n    /* \"#utility.yul\":5021:5025   */\n  0x20\n    /* \"#utility.yul\":5018:5019   */\n  0x00\n    /* \"#utility.yul\":5008:5026   */\n  keccak256\n    /* \"#utility.yul\":5000:5026   */\n  swap1\n  pop\n    /* \"#utility.yul\":4892:5033   */\n  swap2\n  swap1\n  pop\n  jump\t// out\n    /* \"#utility.yul\":5039:5132   */\ntag_31:\n    /* \"#utility.yul\":5076:5082   */\n  0x00\n    /* \"#utility.yul\":5123:5125   */\n  0x20\n    /* \"#utility.yul\":5118:5120   */\n  0x1f\n    /* \"#utility.yul\":5111:5116   */\n  dup4\n    /* \"#utility.yul\":5107:5121   */\n  add\n    /* \"#utility.yul\":5103:5126   */\n  div\n    /* \"#utility.yul\":5093:5126   */\n  swap1\n  pop\n    /* \"#utility.yul\":5039:5132   */\n  swap2\n  swap1\n  pop\n  jump\t// out\n    /* \"#utility.yul\":5138:5245   */\ntag_32:\n    /* \"#utility.yul\":5182:5190   */\n  0x00\n    /* \"#utility.yul\":5232:5237   */\n  dup3\n    /* \"#utility.yul\":5226:5230   */\n  dup3\n    /* \"#utility.yul\":5222:5238   */\n  shl\n    /* \"#utility.yul\":5201:5238   */\n  swap1\n  pop\n    /* \"#utility.yul\":5138:5245   */\n  swap3\n  swap2\n  pop\n  pop\n  jump\t// out\n    /* \"#utility.yul\":5251:5644   */\ntag_33:\n    /* \"#utility.yul\":5320:5326   */\n  0x00\n    /* \"#utility.yul\":5370:5371   */\n  0x08\n    /* \"#utility.yul\":5358:5368   */\n  dup4\n    /* \"#utility.yul\":5354:5372   */\n  mul\n    /* \"#utility.yul\":5393:5490   */\n  tag_104\n    /* \"#utility.yul\":5423:5489   */\n  0xffffffffffffffffffffffffffffffffffffffffffffffffffffffffffffffff\n    /* \"#utility.yul\":5412:5421   */\n  dup3\n    /* \"#utility.yul\":5393:5490   */\n  tag_32\n  jump\t// in\ntag_104:\n    /* \"#utility.yul\":5511:5550   */\n  tag_105\n    /* \"#utility.yul\":5541:5549   */\n  dup7\n    /* \"#utility.yul\":5530:5539   */\n  dup4\n    /* \"#utility.yul\":5511:5550   */\n  tag_32\n  jump\t// in\ntag_105:\n    /* \"#utility.yul\":5499:5550   */\n  swap6\n  pop\n    /* \"#utility.yul\":5583:5587   */\n  dup1\n    /* \"#utility.yul\":5579:5588   */\n  not\n    /* \"#utility.yul\":5572:5577   */\n  dup5\n    /* \"#utility.yul\":5568:5589   */\n  and\n    /* \"#utility.yul\":5559:5589   */\n  swap4\n  pop\n    /* \"#utility.yul\":5632:5636   */\n  dup1\n    /* \"#utility.yul\":5622:5630   */\n  dup7\n    /* \"#utility.yul\":5618:5637   */\n  and\n    /* \"#utility.yul\":5611:5616   */\n  dup5\n    /* \"#utility.yul\":5608:5638   */\n  or\n    /* \"#utility.yul\":5598:5638   */\n  swap3\n  pop\n    /* \"#utility.yul\":5327:5644   */\n  pop\n  pop\n    /* \"#utility.yul\":5251:5644   */\n  swap4\n  swap3\n  pop\n  pop\n  pop\n  jump\t// out\n    /* \"#utility.yul\":5650:5710   */\ntag_34:\n    /* \"#utility.yul\":5678:5681   */\n  0x00\n    /* \"#utility.yul\":5699:5704   */\n  dup2\n    /* \"#utility.yul\":5692:5704   */\n  swap1\n  pop\n    /* \"#utility.yul\":5650:5710   */\n  swap2\n  swap1\n  pop\n  jump\t// out\n    /* \"#utility.yul\":5716:5858   */\ntag_35:\n    /* \"#utility.yul\":5766:5775   */\n  0x00\n    /* \"#utility.yul\":5799:5852   */\n  tag_108\n    /* \"#utility.yul\":5817:5851   */\n  tag_109\n    /* \"#utility.yul\":5826:5850   */\n  tag_110\n    /* \"#utility.yul\":5844:5849   */\n  dup5\n    /* \"#utility.yul\":5826:5850   */\n  tag_24\n  jump\t// in\ntag_110:\n    /* \"#utility.yul\":5817:5851   */\n  tag_34\n  jump\t// in\ntag_109:\n    /* \"#utility.yul\":5799:5852   */\n  tag_24\n  jump\t// in\ntag_108:\n    /* \"#utility.yul\":5786:5852   */\n  swap1\n  pop\n    /* \"#utility.yul\":5716:5858   */\n  swap2\n  swap1\n  pop\n  jump\t// out\n    /* \"#utility.yul\":5864:5939   */\ntag_36:\n    /* \"#utility.yul\":5907:5910   */\n  0x00\n    /* \"#utility.yul\":5928:5933   */\n  dup2\n    /* \"#utility.yul\":5921:5933   */\n  swap1\n  pop\n    /* \"#utility.yul\":5864:5939   */\n  swap2\n  swap1\n  pop\n  jump\t// out\n    /* \"#utility.yul\":5945:6214   */\ntag_37:\n    /* \"#utility.yul\":6055:6094   */\n  tag_113\n    /* \"#utility.yul\":6086:6093   */\n  dup4\n    /* \"#utility.yul\":6055:6094   */\n  tag_35\n  jump\t// in\ntag_113:\n    /* \"#utility.yul\":6116:6207   */\n  tag_114\n    /* \"#utility.yul\":6165:6206   */\n  tag_115\n    /* \"#utility.yul\":6189:6205   */\n  dup3\n    /* \"#utility.yul\":6165:6206   */\n  tag_36\n  jump\t// in\ntag_115:\n    /* \"#utility.yul\":6157:6163   */\n  dup5\n    /* \"#utility.yul\":6150:6154   */\n  dup5\n    /* \"#utility.yul\":6144:6155   */\n  sload\n    /* \"#utility.yul\":6116:6207   */\n  tag_33\n  jump\t// in\ntag_114:\n    /* \"#utility.yul\":6110:6114   */\n  dup3\n    /* \"#utility.yul\":6103:6208   */\n  sstore\n    /* \"#utility.yul\":6021:6214   */\n  pop\n    /* \"#utility.yul\":5945:6214   */\n  pop\n  pop\n  pop\n  jump\t// out\n    /* \"#utility.yul\":6220:6293   */\ntag_38:\n    /* \"#utility.yul\":6265:6268   */\n  0x00\n    /* \"#utility.yul\":6220:6293   */\n  swap1\n  jump\t// out\n    /* \"#utility.yul\":6299:6488   */\ntag_39:\n    /* \"#utility.yul\":6376:6408   */\n  tag_118\n  tag_38\n  jump\t// in\ntag_118:\n    /* \"#utility.yul\":6417:6482   */\n  tag_119\n    /* \"#utility.yul\":6475:6481   */\n  dup2\n    /* \"#utility.yul\":6467:6473   */\n  dup5\n    /* \"#utility.yul\":6461:6465   */\n  dup5\n    /* \"#utility.yul\":6417:6482   */\n  tag_37\n  jump\t// in\ntag_119:\n    /* \"#utility.yul\":6352:6488   */\n  pop\n    /* \"#utility.yul\":6299:6488   */\n  pop\n  pop\n  jump\t// out\n    /* \"#utility.yul\":6494:6680   */\ntag_40:\n    /* \"#utility.yul\":6554:6674   */\ntag_121:\n    /* \"#utility.yul\":6571:6574   */\n  dup2\n    /* \"#utility.yul\":6564:6569   */\n  dup2\n    /* \"#utility.yul\":6561:6575   */\n  lt\n    /* \"#utility.yul\":6554:6674   */\n  iszero\n  tag_123\n  jumpi\n    /* \"#utility.yul\":6625:6664   */\n  tag_124\n    /* \"#utility.yul\":6662:6663   */\n  0x00\n    /* \"#utility.yul\":6655:6660   */\n  dup3\n    /* \"#utility.yul\":6625:6664   */\n  tag_39\n  jump\t// in\ntag_124:\n    /* \"#utility.yul\":6598:6599   */\n  0x01\n    /* \"#utility.yul\":6591:6596   */\n  dup2\n    /* \"#utility.yul\":6587:6600   */\n  add\n    /* \"#utility.yul\":6578:6600   */\n  swap1\n  pop\n    /* \"#utility.yul\":6554:6674   */\n  jump(tag_121)\ntag_123:\n    /* \"#utility.yul\":6494:6680   */\n  pop\n  pop\n  jump\t// out\n    /* \"#utility.yul\":6686:7229   */\ntag_41:\n    /* \"#utility.yul\":6787:6789   */\n  0x1f\n    /* \"#utility.yul\":6782:6785   */\n  dup3\n    /* \"#utility.yul\":6779:6790   */\n  gt\n    /* \"#utility.yul\":6776:7222   */\n  iszero\n  tag_126\n  jumpi\n    /* \"#utility.yul\":6821:6859   */\n  tag_127\n    /* \"#utility.yul\":6853:6858   */\n  dup2\n    /* \"#utility.yul\":6821:6859   */\n  tag_30\n  jump\t// in\ntag_127:\n    /* \"#utility.yul\":6905:6934   */\n  tag_128\n    /* \"#utility.yul\":6923:6933   */\n  dup5\n    /* \"#utility.yul\":6905:6934   */\n  tag_31\n  jump\t// in\ntag_128:\n    /* \"#utility.yul\":6895:6903   */\n  dup2\n    /* \"#utility.yul\":6891:6935   */\n  add\n    /* \"#utility.yul\":7088:7090   */\n  0x20\n    /* \"#utility.yul\":7076:7086   */\n  dup6\n    /* \"#utility.yul\":7073:7091   */\n  lt\n    /* \"#utility.yul\":7070:7119   */\n  iszero\n  tag_129\n  jumpi\n    /* \"#utility.yul\":7109:7117   */\n  dup2\n    /* \"#utility.yul\":7094:7117   */\n  swap1\n  pop\n    /* \"#utility.yul\":7070:7119   */\ntag_129:\n    /* \"#utility.yul\":7132:7212   */\n  tag_130\n    /* \"#utility.yul\":7188:7210   */\n  tag_131\n    /* \"#utility.yul\":7206:7209   */\n  dup6\n    /* \"#utility.yul\":7188:7210   */\n  tag_31\n  jump\t// in\ntag_131:\n    /* \"#utility.yul\":7178:7186   */\n  dup4\n    /* \"#utility.yul\":7174:7211   */\n  add\n    /* \"#utility.yul\":7161:7172   */\n  dup3\n    /* \"#utility.yul\":7132:7212   */\n  tag_40\n  jump\t// in\ntag_130:\n    /* \"#utility.yul\":6791:7222   */\n  pop\n  pop\n    /* \"#utility.yul\":6776:7222   */\ntag_126:\n    /* \"#utility.yul\":6686:7229   */\n  pop\n  pop\n  pop\n  jump\t// out\n    /* \"#utility.yul\":7235:7352   */\ntag_42:\n    /* \"#utility.yul\":7289:7297   */\n  0x00\n    /* \"#utility.yul\":7339:7344   */\n  dup3\n    /* \"#utility.yul\":7333:7337   */\n  dup3\n    /* \"#utility.yul\":7329:7345   */\n  shr\n    /* \"#utility.yul\":7308:7345   */\n  swap1\n  pop\n    /* \"#utility.yul\":7235:7352   */\n  swap3\n  swap2\n  pop\n  pop\n  jump\t// out\n    /* \"#utility.yul\":7358:7527   */\ntag_43:\n    /* \"#utility.yul\":7402:7408   */\n  0x00\n    /* \"#utility.yul\":7435:7486   */\n  tag_134\n    /* \"#utility.yul\":7483:7484   */\n  0x00\n    /* \"#utility.yul\":7479:7485   */\n  not\n    /* \"#utility.yul\":7471:7476   */\n  dup5\n    /* \"#utility.yul\":7468:7469   */\n  0x08\n    /* \"#utility.yul\":7464:7477   */\n  mul\n    /* \"#utility.yul\":7435:7486   */\n  tag_42\n  jump\t// in\ntag_134:\n    /* \"#utility.yul\":7431:7487   */\n  not\n    /* \"#utility.yul\":7516:7520   */\n  dup1\n    /* \"#utility.yul\":7510:7514   */\n  dup4\n    /* \"#utility.yul\":7506:7521   */\n  and\n    /* \"#utility.yul\":7496:7521   */\n  swap2\n  pop\n    /* \"#utility.yul\":7409:7527   */\n  pop\n    /* \"#utility.yul\":7358:7527   */\n  swap3\n  swap2\n  pop\n  pop\n  jump\t// out\n    /* \"#utility.yul\":7532:7827   */\ntag_44:\n    /* \"#utility.yul\":7608:7612   */\n  0x00\n    /* \"#utility.yul\":7754:7783   */\n  tag_136\n    /* \"#utility.yul\":7779:7782   */\n  dup4\n    /* \"#utility.yul\":7773:7777   */\n  dup4\n    /* \"#utility.yul\":7754:7783   */\n  tag_43\n  jump\t// in\ntag_136:\n    /* \"#utility.yul\":7746:7783   */\n  swap2\n  pop\n    /* \"#utility.yul\":7816:7819   */\n  dup3\n    /* \"#utility.yul\":7813:7814   */\n  0x02\n    /* \"#utility.yul\":7809:7820   */\n  mul\n    /* \"#utility.yul\":7803:7807   */\n  dup3\n    /* \"#utility.yul\":7800:7821   */\n  or\n    /* \"#utility.yul\":7792:7821   */\n  swap1\n  pop\n    /* \"#utility.yul\":7532:7827   */\n  swap3\n  swap2\n  pop\n  pop\n  jump\t// out\n    /* \"#utility.yul\":7832:9227   */\ntag_7:\n    /* \"#utility.yul\":7949:7986   */\n  tag_138\n    /* \"#utility.yul\":7982:7985   */\n  dup3\n    /* \"#utility.yul\":7949:7986   */\n  tag_27\n  jump\t// in\ntag_138:\n    /* \"#utility.yul\":8051:8069   */\n  0xffffffffffffffff\n    /* \"#utility.yul\":8043:8049   */\n  dup2\n    /* \"#utility.yul\":8040:8070   */\n  gt\n    /* \"#utility.yul\":8037:8093   */\n  iszero\n  tag_139\n  jumpi\n    /* \"#utility.yul\":8073:8091   */\n  tag_140\n  tag_17\n  jump\t// in\ntag_140:\n    /* \"#utility.yul\":8037:8093   */\ntag_139:\n    /* \"#utility.yul\":8117:8155   */\n  tag_141\n    /* \"#utility.yul\":8149:8153   */\n  dup3\n    /* \"#utility.yul\":8143:8154   */\n  sload\n    /* \"#utility.yul\":8117:8155   */\n  tag_29\n  jump\t// in\ntag_141:\n    /* \"#utility.yul\":8202:8269   */\n  tag_142\n    /* \"#utility.yul\":8262:8268   */\n  dup3\n    /* \"#utility.yul\":8254:8260   */\n  dup3\n    /* \"#utility.yul\":8248:8252   */\n  dup6\n    /* \"#utility.yul\":8202:8269   */\n  tag_41\n  jump\t// in\ntag_142:\n    /* \"#utility.yul\":8296:8297   */\n  0x00\n    /* \"#utility.yul\":8320:8324   */\n  0x20\n    /* \"#utility.yul\":8307:8324   */\n  swap1\n  pop\n    /* \"#utility.yul\":8352:8354   */\n  0x1f\n    /* \"#utility.yul\":8344:8350   */\n  dup4\n    /* \"#utility.yul\":8341:8355   */\n  gt\n    /* \"#utility.yul\":8369:8370   */\n  0x01\n    /* \"#utility.yul\":8364:8982   */\n  dup2\n  eq\n  tag_144\n  jumpi\n    /* \"#utility.yul\":9026:9027   */\n  0x00\n    /* \"#utility.yul\":9043:9049   */\n  dup5\n    /* \"#utility.yul\":9040:9117   */\n  iszero\n  tag_145\n  jumpi\n    /* \"#utility.yul\":9092:9101   */\n  dup3\n    /* \"#utility.yul\":9087:9090   */\n  dup8\n    /* \"#utility.yul\":9083:9102   */\n  add\n    /* \"#utility.yul\":9077:9103   */\n  mload\n    /* \"#utility.yul\":9068:9103   */\n  swap1\n  pop\n    /* \"#utility.yul\":9040:9117   */\ntag_145:\n    /* \"#utility.yul\":9143:9210   */\n  tag_146\n    /* \"#utility.yul\":9203:9209   */\n  dup6\n    /* \"#utility.yul\":9196:9201   */\n  dup3\n    /* \"#utility.yul\":9143:9210   */\n  tag_44\n  jump\t// in\ntag_146:\n    /* \"#utility.yul\":9137:9141   */\n  dup7\n    /* \"#utility.yul\":9130:9211   */\n  sstore\n    /* \"#utility.yul\":8999:9221   */\n  pop\n    /* \"#utility.yul\":8334:9221   */\n  jump(tag_143)\n    /* \"#utility.yul\":8364:8982   */\ntag_144:\n    /* \"#utility.yul\":8416:8420   */\n  0x1f\n    /* \"#utility.yul\":8412:8421   */\n  not\n    /* \"#utility.yul\":8404:8410   */\n  dup5\n    /* \"#utility.yul\":8400:8422   */\n  and\n    /* \"#utility.yul\":8450:8487   */\n  tag_147\n    /* \"#utility.yul\":8482:8486   */\n  dup7\n    /* \"#utility.yul\":8450:8487   */\n  tag_30\n  jump\t// in\ntag_147:\n    /* \"#utility.yul\":8509:8510   */\n  0x00\n    /* \"#utility.yul\":8523:8731   */\ntag_148:\n    /* \"#utility.yul\":8537:8544   */\n  dup3\n    /* \"#utility.yul\":8534:8535   */\n  dup2\n    /* \"#utility.yul\":8531:8545   */\n  lt\n    /* \"#utility.yul\":8523:8731   */\n  iszero\n  tag_150\n  jumpi\n    /* \"#utility.yul\":8616:8625   */\n  dup5\n    /* \"#utility.yul\":8611:8614   */\n  dup10\n    /* \"#utility.yul\":8607:8626   */\n  add\n    /* \"#utility.yul\":8601:8627   */\n  mload\n    /* \"#utility.yul\":8593:8599   */\n  dup3\n    /* \"#utility.yul\":8586:8628   */\n  sstore\n    /* \"#utility.yul\":8667:8668   */\n  0x01\n    /* \"#utility.yul\":8659:8665   */\n  dup3\n    /* \"#utility.yul\":8655:8669   */\n  add\n    /* \"#utility.yul\":8645:8669   */\n  swap2\n  pop\n    /* \"#utility.yul\":8714:8716   */\n  0x20\n    /* \"#utility.yul\":8703:8712   */\n  dup6\n    /* \"#utility.yul\":8699:8717   */\n  add\n    /* \"#utility.yul\":8686:8717   */\n  swap5\n  pop\n    /* \"#utility.yul\":8560:8564   */\n  0x20\n    /* \"#utility.yul\":8557:8558   */\n  dup2\n    /* \"#utility.yul\":8553:8565   */\n  add\n    /* \"#utility.yul\":8548:8565   */\n  swap1\n  pop\n    /* \"#utility.yul\":8523:8731   */\n  jump(tag_148)\ntag_150:\n    /* \"#utility.yul\":8759:8765   */\n  dup7\n    /* \"#utility.yul\":8750:8757   */\n  dup4\n    /* \"#utility.yul\":8747:8766   */\n  lt\n    /* \"#utility.yul\":8744:8923   */\n  iszero\n  tag_151\n  jumpi\n    /* \"#utility.yul\":8817:8826   */\n  dup5\n    /* \"#utility.yul\":8812:8815   */\n  dup10\n    /* \"#utility.yul\":8808:8827   */\n  add\n    /* \"#utility.yul\":8802:8828   */\n  mload\n    /* \"#utility.yul\":8860:8908   */\n  tag_152\n    /* \"#utility.yul\":8902:8906   */\n  0x1f\n    /* \"#utility.yul\":8894:8900   */\n  dup10\n    /* \"#utility.yul\":8890:8907   */\n  and\n    /* \"#utility.yul\":8879:8888   */\n  dup3\n    /* \"#utility.yul\":8860:8908   */\n  tag_43\n  jump\t// in\ntag_152:\n    /* \"#utility.yul\":8852:8858   */\n  dup4\n    /* \"#utility.yul\":8845:8909   */\n  sstore\n    /* \"#utility.yul\":8767:8923   */\n  pop\n    /* \"#utility.yul\":8744:8923   */\ntag_151:\n    /* \"#utility.yul\":8969:8970   */\n  0x01\n    /* \"#utility.yul\":8965:8966   */\n  0x02\n    /* \"#utility.yul\":8957:8963   */\n  dup9\n    /* \"#utility.yul\":8953:8967   */\n  mul\n    /* \"#utility.yul\":8949:8971   */\n  add\n    /* \"#utility.yul\":8943:8947   */\n  dup9\n    /* \"#utility.yul\":8936:8972   */\n  sstore\n    /* \"#utility.yul\":8371:8982   */\n  pop\n  pop\n  pop\n    /* \"#utility.yul\":8334:9221   */\ntag_143:\n  pop\n    /* \"#utility.yul\":7924:9227   */\n  pop\n  pop\n  pop\n    /* \"#utility.yul\":7832:9227   */\n  pop\n  pop\n  jump\t// out\n    /* \"contracts/Homework5.sol\":74:1685  contract Homework {... */\ntag_10:\n  dataSize(sub_0)\n  dup1\n  dataOffset(sub_0)\n  0x00\n  codecopy\n  0x00\n  return\nstop\n\nsub_0: assembly {\n        /* \"contracts/Homework5.sol\":74:1685  contract Homework {... */\n      mstore(0x40, 0x80)\n      jumpi(tag_1, lt(calldatasize, 0x04))\n      shr(0xe0, calldataload(0x00))\n      dup1\n      0x9073adb4\n      eq\n      tag_2\n      jumpi\n      dup1\n      0xd8288aba\n      eq\n      tag_3\n      jumpi\n      dup1\n      0xe8dc41ad\n      eq\n      tag_4\n      jumpi\n    tag_1:\n      0x00\n      dup1\n      revert\n        /* \"contracts/Homework5.sol\":1079:1418  function FundProject() public payable NoOwnerFund{... */\n    tag_2:\n      tag_5\n      tag_6\n      jump\t// in\n    tag_5:\n      stop\n        /* \"contracts/Homework5.sol\":1426:1678  function changeProjectState(uint newState, string memory) public onlyOwner{... */\n    tag_3:\n      callvalue\n      dup1\n      iszero\n      tag_7\n      jumpi\n      0x00\n      dup1\n      revert\n    tag_7:\n      pop\n      tag_8\n      0x04\n      dup1\n      calldatasize\n      sub\n      dup2\n      add\n      swap1\n      tag_9\n      swap2\n      swap1\n      tag_10\n      jump\t// in\n    tag_9:\n      tag_11\n      jump\t// in\n    tag_8:\n      stop\n        /* \"contracts/Homework5.sol\":319:349  Crowfunding public crowfunding */\n    tag_4:\n      callvalue\n      dup1\n      iszero\n      tag_12\n      jumpi\n      0x00\n      dup1\n      revert\n    tag_12:\n      pop\n      tag_13\n      tag_14\n      jump\t// in\n    tag_13:\n      mload(0x40)\n      tag_15\n      swap8\n      swap7\n      swap6\n      swap5\n      swap4\n      swap3\n      swap2\n      swap1\n      tag_16\n      jump\t// in\n    tag_15:\n      mload(0x40)\n      dup1\n      swap2\n      sub\n      swap1\n      return\n        /* \"contracts/Homework5.sol\":1079:1418  function FundProject() public payable NoOwnerFund{... */\n    tag_6:\n        /* \"contracts/Homework5.sol\":942:952  msg.sender */\n      caller\n        /* \"contracts/Homework5.sol\":921:952  crowfunding.owner != msg.sender */\n      0xffffffffffffffffffffffffffffffffffffffff\n      and\n        /* \"contracts/Homework5.sol\":921:932  crowfunding */\n      0x00\n        /* \"contracts/Homework5.sol\":921:938  crowfunding.owner */\n      0x03\n      add\n      0x00\n      swap1\n      sload\n      swap1\n      0x0100\n      exp\n      swap1\n      div\n      0xffffffffffffffffffffffffffffffffffffffff\n      and\n        /* \"contracts/Homework5.sol\":921:952  crowfunding.owner != msg.sender */\n      0xffffffffffffffffffffffffffffffffffffffff\n      and\n      sub\n        /* \"contracts/Homework5.sol\":913:988  require(crowfunding.owner != msg.sender , \"As Owner can't fund ur account\") */\n      tag_18\n      jumpi\n      mload(0x40)\n      0x08c379a000000000000000000000000000000000000000000000000000000000\n      dup2\n      mstore\n      0x04\n      add\n      tag_19\n      swap1\n      tag_20\n      jump\t// in\n    tag_19:\n      mload(0x40)\n      dup1\n      swap2\n      sub\n      swap1\n      revert\n    tag_18:\n        /* \"contracts/Homework5.sol\":1169:1170  1 */\n      0x01\n        /* \"contracts/Homework5.sol\":1148:1159  crowfunding */\n      0x00\n        /* \"contracts/Homework5.sol\":1148:1165  crowfunding.state */\n      0x04\n      add\n      sload\n        /* \"contracts/Homework5.sol\":1148:1170  crowfunding.state != 1 */\n      sub\n        /* \"contracts/Homework5.sol\":1139:1203  require (crowfunding.state != 1, \"Te project cant recive funds\") */\n      tag_22\n      jumpi\n      mload(0x40)\n      0x08c379a000000000000000000000000000000000000000000000000000000000\n      dup2\n      mstore\n      0x04\n      add\n      tag_23\n      swap1\n      tag_24\n      jump\t// in\n    tag_23:\n      mload(0x40)\n      dup1\n      swap2\n      sub\n      swap1\n      revert\n    tag_22:\n        /* \"contracts/Homework5.sol\":1235:1236  0 */\n      0x00\n        /* \"contracts/Homework5.sol\":1223:1232  msg.value */\n      callvalue\n        /* \"contracts/Homework5.sol\":1223:1236  msg.value > 0 */\n      gt\n        /* \"contracts/Homework5.sol\":1214:1271  require (msg.value > 0, \"Fund value must be more than 0\") */\n      tag_25\n      jumpi\n      mload(0x40)\n      0x08c379a000000000000000000000000000000000000000000000000000000000\n      dup2\n      mstore\n      0x04\n      add\n      tag_26\n      swap1\n      tag_27\n      jump\t// in\n    tag_26:\n      mload(0x40)\n      dup1\n      swap2\n      sub\n      swap1\n      revert\n    tag_25:\n        /* \"contracts/Homework5.sol\":1282:1293  crowfunding */\n      0x00\n        /* \"contracts/Homework5.sol\":1282:1299  crowfunding.owner */\n      0x03\n      add\n      0x00\n      swap1\n      sload\n      swap1\n      0x0100\n      exp\n      swap1\n      div\n      0xffffffffffffffffffffffffffffffffffffffff\n      and\n        /* \"contracts/Homework5.sol\":1282:1308  crowfunding.owner.transfer */\n      0xffffffffffffffffffffffffffffffffffffffff\n      and\n        /* \"contracts/Homework5.sol\":1282:1319  crowfunding.owner.transfer(msg.value) */\n      0x08fc\n        /* \"contracts/Homework5.sol\":1309:1318  msg.value */\n      callvalue\n        /* \"contracts/Homework5.sol\":1282:1319  crowfunding.owner.transfer(msg.value) */\n      swap1\n      dup2\n      iszero\n      mul\n      swap1\n      mload(0x40)\n      0x00\n      mload(0x40)\n      dup1\n      dup4\n      sub\n      dup2\n      dup6\n      dup9\n      dup9\n      call\n      swap4\n      pop\n      pop\n      pop\n      pop\n      iszero\n      dup1\n      iszero\n      tag_29\n      jumpi\n      returndatasize\n      0x00\n      dup1\n      returndatacopy\n      revert(0x00, returndatasize)\n    tag_29:\n      pop\n        /* \"contracts/Homework5.sol\":1350:1359  msg.value */\n      callvalue\n        /* \"contracts/Homework5.sol\":1330:1341  crowfunding */\n      0x00\n        /* \"contracts/Homework5.sol\":1330:1346  crowfunding.fund */\n      0x05\n      add\n      0x00\n        /* \"contracts/Homework5.sol\":1330:1359  crowfunding.fund += msg.value */\n      dup3\n      dup3\n      sload\n      tag_30\n      swap2\n      swap1\n      tag_31\n      jump\t// in\n    tag_30:\n      swap3\n      pop\n      pop\n      dup2\n      swap1\n      sstore\n      pop\n        /* \"contracts/Homework5.sol\":1375:1410  FProject(crowfunding.id, msg.value) */\n      0x601a31682b808e0416479a182f80fd9f081c273ed67c10174341a615756c1e00\n        /* \"contracts/Homework5.sol\":1384:1395  crowfunding */\n      0x00\n        /* \"contracts/Homework5.sol\":1384:1398  crowfunding.id */\n      dup1\n      add\n        /* \"contracts/Homework5.sol\":1400:1409  msg.value */\n      callvalue\n        /* \"contracts/Homework5.sol\":1375:1410  FProject(crowfunding.id, msg.value) */\n      mload(0x40)\n      tag_32\n      swap3\n      swap2\n      swap1\n      tag_33\n      jump\t// in\n    tag_32:\n      mload(0x40)\n      dup1\n      swap2\n      sub\n      swap1\n      log1\n        /* \"contracts/Homework5.sol\":1079:1418  function FundProject() public payable NoOwnerFund{... */\n      jump\t// out\n        /* \"contracts/Homework5.sol\":1426:1678  function changeProjectState(uint newState, string memory) public onlyOwner{... */\n    tag_11:\n        /* \"contracts/Homework5.sol\":741:751  msg.sender */\n      caller\n        /* \"contracts/Homework5.sol\":720:751  crowfunding.owner == msg.sender */\n      0xffffffffffffffffffffffffffffffffffffffff\n      and\n        /* \"contracts/Homework5.sol\":720:731  crowfunding */\n      0x00\n        /* \"contracts/Homework5.sol\":720:737  crowfunding.owner */\n      0x03\n      add\n      0x00\n      swap1\n      sload\n      swap1\n      0x0100\n      exp\n      swap1\n      div\n      0xffffffffffffffffffffffffffffffffffffffff\n      and\n        /* \"contracts/Homework5.sol\":720:751  crowfunding.owner == msg.sender */\n      0xffffffffffffffffffffffffffffffffffffffff\n      and\n      eq\n        /* \"contracts/Homework5.sol\":712:788  require(crowfunding.owner == msg.sender , \"Only owner can change the state\") */\n      tag_35\n      jumpi\n      mload(0x40)\n      0x08c379a000000000000000000000000000000000000000000000000000000000\n      dup2\n      mstore\n      0x04\n      add\n      tag_36\n      swap1\n      tag_37\n      jump\t// in\n    tag_36:\n      mload(0x40)\n      dup1\n      swap2\n      sub\n      swap1\n      revert\n    tag_35:\n        /* \"contracts/Homework5.sol\":1541:1549  newState */\n      dup2\n        /* \"contracts/Homework5.sol\":1520:1531  crowfunding */\n      0x00\n        /* \"contracts/Homework5.sol\":1520:1537  crowfunding.state */\n      0x04\n      add\n      sload\n        /* \"contracts/Homework5.sol\":1520:1549  crowfunding.state != newState */\n      sub\n        /* \"contracts/Homework5.sol\":1511:1581  require (crowfunding.state != newState, \"New state must be different\") */\n      tag_39\n      jumpi\n      mload(0x40)\n      0x08c379a000000000000000000000000000000000000000000000000000000000\n      dup2\n      mstore\n      0x04\n      add\n      tag_40\n      swap1\n      tag_41\n      jump\t// in\n    tag_40:\n      mload(0x40)\n      dup1\n      swap2\n      sub\n      swap1\n      revert\n    tag_39:\n        /* \"contracts/Homework5.sol\":1612:1620  newState */\n      dup2\n        /* \"contracts/Homework5.sol\":1592:1603  crowfunding */\n      0x00\n        /* \"contracts/Homework5.sol\":1592:1609  crowfunding.state */\n      0x04\n      add\n        /* \"contracts/Homework5.sol\":1592:1620  crowfunding.state = newState */\n      dup2\n      swap1\n      sstore\n      pop\n        /* \"contracts/Homework5.sol\":1636:1670  CProject(crowfunding.id, newState) */\n      0xb2bb03151d63a0cb5bbebe0b19f8dd0e89598d6911f720d1cfcfd085b950548f\n        /* \"contracts/Homework5.sol\":1645:1656  crowfunding */\n      0x00\n        /* \"contracts/Homework5.sol\":1645:1659  crowfunding.id */\n      dup1\n      add\n        /* \"contracts/Homework5.sol\":1661:1669  newState */\n      dup4\n        /* \"contracts/Homework5.sol\":1636:1670  CProject(crowfunding.id, newState) */\n      mload(0x40)\n      tag_42\n      swap3\n      swap2\n      swap1\n      tag_33\n      jump\t// in\n    tag_42:\n      mload(0x40)\n      dup1\n      swap2\n      sub\n      swap1\n      log1\n        /* \"contracts/Homework5.sol\":1426:1678  function changeProjectState(uint newState, string memory) public onlyOwner{... */\n      pop\n      pop\n      jump\t// out\n        /* \"contracts/Homework5.sol\":319:349  Crowfunding public crowfunding */\n    tag_14:\n      0x00\n      dup1\n      0x00\n      add\n      dup1\n      sload\n      tag_43\n      swap1\n      tag_44\n      jump\t// in\n    tag_43:\n      dup1\n      0x1f\n      add\n      0x20\n      dup1\n      swap2\n      div\n      mul\n      0x20\n      add\n      mload(0x40)\n      swap1\n      dup2\n      add\n      0x40\n      mstore\n      dup1\n      swap3\n      swap2\n      swap1\n      dup2\n      dup2\n      mstore\n      0x20\n      add\n      dup3\n      dup1\n      sload\n      tag_45\n      swap1\n      tag_44\n      jump\t// in\n    tag_45:\n      dup1\n      iszero\n      tag_46\n      jumpi\n      dup1\n      0x1f\n      lt\n      tag_47\n      jumpi\n      0x0100\n      dup1\n      dup4\n      sload\n      div\n      mul\n      dup4\n      mstore\n      swap2\n      0x20\n      add\n      swap2\n      jump(tag_46)\n    tag_47:\n      dup3\n      add\n      swap2\n      swap1\n      0x00\n      mstore\n      keccak256(0x00, 0x20)\n      swap1\n    tag_48:\n      dup2\n      sload\n      dup2\n      mstore\n      swap1\n      0x01\n      add\n      swap1\n      0x20\n      add\n      dup1\n      dup4\n      gt\n      tag_48\n      jumpi\n      dup3\n      swap1\n      sub\n      0x1f\n      and\n      dup3\n      add\n      swap2\n    tag_46:\n      pop\n      pop\n      pop\n      pop\n      pop\n      swap1\n      dup1\n      0x01\n      add\n      dup1\n      sload\n      tag_49\n      swap1\n      tag_44\n      jump\t// in\n    tag_49:\n      dup1\n      0x1f\n      add\n      0x20\n      dup1\n      swap2\n      div\n      mul\n      0x20\n      add\n      mload(0x40)\n      swap1\n      dup2\n      add\n      0x40\n      mstore\n      dup1\n      swap3\n      swap2\n      swap1\n      dup2\n      dup2\n      mstore\n      0x20\n      add\n      dup3\n      dup1\n      sload\n      tag_50\n      swap1\n      tag_44\n      jump\t// in\n    tag_50:\n      dup1\n      iszero\n      tag_51\n      jumpi\n      dup1\n      0x1f\n      lt\n      tag_52\n      jumpi\n      0x0100\n      dup1\n      dup4\n      sload\n      div\n      mul\n      dup4\n      mstore\n      swap2\n      0x20\n      add\n      swap2\n      jump(tag_51)\n    tag_52:\n      dup3\n      add\n      swap2\n      swap1\n      0x00\n      mstore\n      keccak256(0x00, 0x20)\n      swap1\n    tag_53:\n      dup2\n      sload\n      dup2\n      mstore\n      swap1\n      0x01\n      add\n      swap1\n      0x20\n      add\n      dup1\n      dup4\n      gt\n      tag_53\n      jumpi\n      dup3\n      swap1\n      sub\n      0x1f\n      and\n      dup3\n      add\n      swap2\n    tag_51:\n      pop\n      pop\n      pop\n      pop\n      pop\n      swap1\n      dup1\n      0x02\n      add\n      dup1\n      sload\n      tag_54\n      swap1\n      tag_44\n      jump\t// in\n    tag_54:\n      dup1\n      0x1f\n      add\n      0x20\n      dup1\n      swap2\n      div\n      mul\n      0x20\n      add\n      mload(0x40)\n      swap1\n      dup2\n      add\n      0x40\n      mstore\n      dup1\n      swap3\n      swap2\n      swap1\n      dup2\n      dup2\n      mstore\n      0x20\n      add\n      dup3\n      dup1\n      sload\n      tag_55\n      swap1\n      tag_44\n      jump\t// in\n    tag_55:\n      dup1\n      iszero\n      tag_56\n      jumpi\n      dup1\n      0x1f\n      lt\n      tag_57\n      jumpi\n      0x0100\n      dup1\n      dup4\n      sload\n      div\n      mul\n      dup4\n      mstore\n      swap2\n      0x20\n      add\n      swap2\n      jump(tag_56)\n    tag_57:\n      dup3\n      add\n      swap2\n      swap1\n      0x00\n      mstore\n      keccak256(0x00, 0x20)\n      swap1\n    tag_58:\n      dup2\n      sload\n      dup2\n      mstore\n      swap1\n      0x01\n      add\n      swap1\n      0x20\n      add\n      dup1\n      dup4\n      gt\n      tag_58\n      jumpi\n      dup3\n      swap1\n      sub\n      0x1f\n      and\n      dup3\n      add\n      swap2\n    tag_56:\n      pop\n      pop\n      pop\n      pop\n      pop\n      swap1\n      dup1\n      0x03\n      add\n      0x00\n      swap1\n      sload\n      swap1\n      0x0100\n      exp\n      swap1\n      div\n      0xffffffffffffffffffffffffffffffffffffffff\n      and\n      swap1\n      dup1\n      0x04\n      add\n      sload\n      swap1\n      dup1\n      0x05\n      add\n      sload\n      swap1\n      dup1\n      0x06\n      add\n      sload\n      swap1\n      pop\n      dup8\n      jump\t// out\n        /* \"#utility.yul\":7:82   */\n    tag_59:\n        /* \"#utility.yul\":40:46   */\n      0x00\n        /* \"#utility.yul\":73:75   */\n      0x40\n        /* \"#utility.yul\":67:76   */\n      mload\n        /* \"#utility.yul\":57:76   */\n      swap1\n      pop\n        /* \"#utility.yul\":7:82   */\n      swap1\n      jump\t// out\n        /* \"#utility.yul\":88:205   */\n    tag_60:\n        /* \"#utility.yul\":197:198   */\n      0x00\n        /* \"#utility.yul\":194:195   */\n      dup1\n        /* \"#utility.yul\":187:199   */\n      revert\n        /* \"#utility.yul\":211:328   */\n    tag_61:\n        /* \"#utility.yul\":320:321   */\n      0x00\n        /* \"#utility.yul\":317:318   */\n      dup1\n        /* \"#utility.yul\":310:322   */\n      revert\n        /* \"#utility.yul\":334:411   */\n    tag_62:\n        /* \"#utility.yul\":371:378   */\n      0x00\n        /* \"#utility.yul\":400:405   */\n      dup2\n        /* \"#utility.yul\":389:405   */\n      swap1\n      pop\n        /* \"#utility.yul\":334:411   */\n      swap2\n      swap1\n      pop\n      jump\t// out\n        /* \"#utility.yul\":417:539   */\n    tag_63:\n        /* \"#utility.yul\":490:514   */\n      tag_103\n        /* \"#utility.yul\":508:513   */\n      dup2\n        /* \"#utility.yul\":490:514   */\n      tag_62\n      jump\t// in\n    tag_103:\n        /* \"#utility.yul\":483:488   */\n      dup2\n        /* \"#utility.yul\":480:515   */\n      eq\n        /* \"#utility.yul\":470:533   */\n      tag_104\n      jumpi\n        /* \"#utility.yul\":529:530   */\n      0x00\n        /* \"#utility.yul\":526:527   */\n      dup1\n        /* \"#utility.yul\":519:531   */\n      revert\n        /* \"#utility.yul\":470:533   */\n    tag_104:\n        /* \"#utility.yul\":417:539   */\n      pop\n      jump\t// out\n        /* \"#utility.yul\":545:684   */\n    tag_64:\n        /* \"#utility.yul\":591:596   */\n      0x00\n        /* \"#utility.yul\":629:635   */\n      dup2\n        /* \"#utility.yul\":616:636   */\n      calldataload\n        /* \"#utility.yul\":607:636   */\n      swap1\n      pop\n        /* \"#utility.yul\":645:678   */\n      tag_106\n        /* \"#utility.yul\":672:677   */\n      dup2\n        /* \"#utility.yul\":645:678   */\n      tag_63\n      jump\t// in\n    tag_106:\n        /* \"#utility.yul\":545:684   */\n      swap3\n      swap2\n      pop\n      pop\n      jump\t// out\n        /* \"#utility.yul\":690:807   */\n    tag_65:\n        /* \"#utility.yul\":799:800   */\n      0x00\n        /* \"#utility.yul\":796:797   */\n      dup1\n        /* \"#utility.yul\":789:801   */\n      revert\n        /* \"#utility.yul\":813:930   */\n    tag_66:\n        /* \"#utility.yul\":922:923   */\n      0x00\n        /* \"#utility.yul\":919:920   */\n      dup1\n        /* \"#utility.yul\":912:924   */\n      revert\n        /* \"#utility.yul\":936:1038   */\n    tag_67:\n        /* \"#utility.yul\":977:983   */\n      0x00\n        /* \"#utility.yul\":1028:1030   */\n      0x1f\n        /* \"#utility.yul\":1024:1031   */\n      not\n        /* \"#utility.yul\":1019:1021   */\n      0x1f\n        /* \"#utility.yul\":1012:1017   */\n      dup4\n        /* \"#utility.yul\":1008:1022   */\n      add\n        /* \"#utility.yul\":1004:1032   */\n      and\n        /* \"#utility.yul\":994:1032   */\n      swap1\n      pop\n        /* \"#utility.yul\":936:1038   */\n      swap2\n      swap1\n      pop\n      jump\t// out\n        /* \"#utility.yul\":1044:1224   */\n    tag_68:\n        /* \"#utility.yul\":1092:1169   */\n      0x4e487b7100000000000000000000000000000000000000000000000000000000\n        /* \"#utility.yul\":1089:1090   */\n      0x00\n        /* \"#utility.yul\":1082:1170   */\n      mstore\n        /* \"#utility.yul\":1189:1193   */\n      0x41\n        /* \"#utility.yul\":1186:1187   */\n      0x04\n        /* \"#utility.yul\":1179:1194   */\n      mstore\n        /* \"#utility.yul\":1213:1217   */\n      0x24\n        /* \"#utility.yul\":1210:1211   */\n      0x00\n        /* \"#utility.yul\":1203:1218   */\n      revert\n        /* \"#utility.yul\":1230:1511   */\n    tag_69:\n        /* \"#utility.yul\":1313:1340   */\n      tag_112\n        /* \"#utility.yul\":1335:1339   */\n      dup3\n        /* \"#utility.yul\":1313:1340   */\n      tag_67\n      jump\t// in\n    tag_112:\n        /* \"#utility.yul\":1305:1311   */\n      dup2\n        /* \"#utility.yul\":1301:1341   */\n      add\n        /* \"#utility.yul\":1443:1449   */\n      dup2\n        /* \"#utility.yul\":1431:1441   */\n      dup2\n        /* \"#utility.yul\":1428:1450   */\n      lt\n        /* \"#utility.yul\":1407:1425   */\n      0xffffffffffffffff\n        /* \"#utility.yul\":1395:1405   */\n      dup3\n        /* \"#utility.yul\":1392:1426   */\n      gt\n        /* \"#utility.yul\":1389:1451   */\n      or\n        /* \"#utility.yul\":1386:1474   */\n      iszero\n      tag_113\n      jumpi\n        /* \"#utility.yul\":1454:1472   */\n      tag_114\n      tag_68\n      jump\t// in\n    tag_114:\n        /* \"#utility.yul\":1386:1474   */\n    tag_113:\n        /* \"#utility.yul\":1494:1504   */\n      dup1\n        /* \"#utility.yul\":1490:1492   */\n      0x40\n        /* \"#utility.yul\":1483:1505   */\n      mstore\n        /* \"#utility.yul\":1273:1511   */\n      pop\n        /* \"#utility.yul\":1230:1511   */\n      pop\n      pop\n      jump\t// out\n        /* \"#utility.yul\":1517:1646   */\n    tag_70:\n        /* \"#utility.yul\":1551:1557   */\n      0x00\n        /* \"#utility.yul\":1578:1598   */\n      tag_116\n      tag_59\n      jump\t// in\n    tag_116:\n        /* \"#utility.yul\":1568:1598   */\n      swap1\n      pop\n        /* \"#utility.yul\":1607:1640   */\n      tag_117\n        /* \"#utility.yul\":1635:1639   */\n      dup3\n        /* \"#utility.yul\":1627:1633   */\n      dup3\n        /* \"#utility.yul\":1607:1640   */\n      tag_69\n      jump\t// in\n    tag_117:\n        /* \"#utility.yul\":1517:1646   */\n      swap2\n      swap1\n      pop\n      jump\t// out\n        /* \"#utility.yul\":1652:1960   */\n    tag_71:\n        /* \"#utility.yul\":1714:1718   */\n      0x00\n        /* \"#utility.yul\":1804:1822   */\n      0xffffffffffffffff\n        /* \"#utility.yul\":1796:1802   */\n      dup3\n        /* \"#utility.yul\":1793:1823   */\n      gt\n        /* \"#utility.yul\":1790:1846   */\n      iszero\n      tag_119\n      jumpi\n        /* \"#utility.yul\":1826:1844   */\n      tag_120\n      tag_68\n      jump\t// in\n    tag_120:\n        /* \"#utility.yul\":1790:1846   */\n    tag_119:\n        /* \"#utility.yul\":1864:1893   */\n      tag_121\n        /* \"#utility.yul\":1886:1892   */\n      dup3\n        /* \"#utility.yul\":1864:1893   */\n      tag_67\n      jump\t// in\n    tag_121:\n        /* \"#utility.yul\":1856:1893   */\n      swap1\n      pop\n        /* \"#utility.yul\":1948:1952   */\n      0x20\n        /* \"#utility.yul\":1942:1946   */\n      dup2\n        /* \"#utility.yul\":1938:1953   */\n      add\n        /* \"#utility.yul\":1930:1953   */\n      swap1\n      pop\n        /* \"#utility.yul\":1652:1960   */\n      swap2\n      swap1\n      pop\n      jump\t// out\n        /* \"#utility.yul\":1966:2114   */\n    tag_72:\n        /* \"#utility.yul\":2064:2070   */\n      dup3\n        /* \"#utility.yul\":2059:2062   */\n      dup2\n        /* \"#utility.yul\":2054:2057   */\n      dup4\n        /* \"#utility.yul\":2041:2071   */\n      calldatacopy\n        /* \"#utility.yul\":2105:2106   */\n      0x00\n        /* \"#utility.yul\":2096:2102   */\n      dup4\n        /* \"#utility.yul\":2091:2094   */\n      dup4\n        /* \"#utility.yul\":2087:2103   */\n      add\n        /* \"#utility.yul\":2080:2107   */\n      mstore\n        /* \"#utility.yul\":1966:2114   */\n      pop\n      pop\n      pop\n      jump\t// out\n        /* \"#utility.yul\":2120:2545   */\n    tag_73:\n        /* \"#utility.yul\":2198:2203   */\n      0x00\n        /* \"#utility.yul\":2223:2289   */\n      tag_124\n        /* \"#utility.yul\":2239:2288   */\n      tag_125\n        /* \"#utility.yul\":2281:2287   */\n      dup5\n        /* \"#utility.yul\":2239:2288   */\n      tag_71\n      jump\t// in\n    tag_125:\n        /* \"#utility.yul\":2223:2289   */\n      tag_70\n      jump\t// in\n    tag_124:\n        /* \"#utility.yul\":2214:2289   */\n      swap1\n      pop\n        /* \"#utility.yul\":2312:2318   */\n      dup3\n        /* \"#utility.yul\":2305:2310   */\n      dup2\n        /* \"#utility.yul\":2298:2319   */\n      mstore\n        /* \"#utility.yul\":2350:2354   */\n      0x20\n        /* \"#utility.yul\":2343:2348   */\n      dup2\n        /* \"#utility.yul\":2339:2355   */\n      add\n        /* \"#utility.yul\":2388:2391   */\n      dup5\n        /* \"#utility.yul\":2379:2385   */\n      dup5\n        /* \"#utility.yul\":2374:2377   */\n      dup5\n        /* \"#utility.yul\":2370:2386   */\n      add\n        /* \"#utility.yul\":2367:2392   */\n      gt\n        /* \"#utility.yul\":2364:2476   */\n      iszero\n      tag_126\n      jumpi\n        /* \"#utility.yul\":2395:2474   */\n      tag_127\n      tag_66\n      jump\t// in\n    tag_127:\n        /* \"#utility.yul\":2364:2476   */\n    tag_126:\n        /* \"#utility.yul\":2485:2539   */\n      tag_128\n        /* \"#utility.yul\":2532:2538   */\n      dup5\n        /* \"#utility.yul\":2527:2530   */\n      dup3\n        /* \"#utility.yul\":2522:2525   */\n      dup6\n        /* \"#utility.yul\":2485:2539   */\n      tag_72\n      jump\t// in\n    tag_128:\n        /* \"#utility.yul\":2204:2545   */\n      pop\n        /* \"#utility.yul\":2120:2545   */\n      swap4\n      swap3\n      pop\n      pop\n      pop\n      jump\t// out\n        /* \"#utility.yul\":2565:2905   */\n    tag_74:\n        /* \"#utility.yul\":2621:2626   */\n      0x00\n        /* \"#utility.yul\":2670:2673   */\n      dup3\n        /* \"#utility.yul\":2663:2667   */\n      0x1f\n        /* \"#utility.yul\":2655:2661   */\n      dup4\n        /* \"#utility.yul\":2651:2668   */\n      add\n        /* \"#utility.yul\":2647:2674   */\n      slt\n        /* \"#utility.yul\":2637:2759   */\n      tag_130\n      jumpi\n        /* \"#utility.yul\":2678:2757   */\n      tag_131\n      tag_65\n      jump\t// in\n    tag_131:\n        /* \"#utility.yul\":2637:2759   */\n    tag_130:\n        /* \"#utility.yul\":2795:2801   */\n      dup2\n        /* \"#utility.yul\":2782:2802   */\n      calldataload\n        /* \"#utility.yul\":2820:2899   */\n      tag_132\n        /* \"#utility.yul\":2895:2898   */\n      dup5\n        /* \"#utility.yul\":2887:2893   */\n      dup3\n        /* \"#utility.yul\":2880:2884   */\n      0x20\n        /* \"#utility.yul\":2872:2878   */\n      dup7\n        /* \"#utility.yul\":2868:2885   */\n      add\n        /* \"#utility.yul\":2820:2899   */\n      tag_73\n      jump\t// in\n    tag_132:\n        /* \"#utility.yul\":2811:2899   */\n      swap2\n      pop\n        /* \"#utility.yul\":2627:2905   */\n      pop\n        /* \"#utility.yul\":2565:2905   */\n      swap3\n      swap2\n      pop\n      pop\n      jump\t// out\n        /* \"#utility.yul\":2911:3565   */\n    tag_10:\n        /* \"#utility.yul\":2989:2995   */\n      0x00\n        /* \"#utility.yul\":2997:3003   */\n      dup1\n        /* \"#utility.yul\":3046:3048   */\n      0x40\n        /* \"#utility.yul\":3034:3043   */\n      dup4\n        /* \"#utility.yul\":3025:3032   */\n      dup6\n        /* \"#utility.yul\":3021:3044   */\n      sub\n        /* \"#utility.yul\":3017:3049   */\n      slt\n        /* \"#utility.yul\":3014:3133   */\n      iszero\n      tag_134\n      jumpi\n        /* \"#utility.yul\":3052:3131   */\n      tag_135\n      tag_60\n      jump\t// in\n    tag_135:\n        /* \"#utility.yul\":3014:3133   */\n    tag_134:\n        /* \"#utility.yul\":3172:3173   */\n      0x00\n        /* \"#utility.yul\":3197:3250   */\n      tag_136\n        /* \"#utility.yul\":3242:3249   */\n      dup6\n        /* \"#utility.yul\":3233:3239   */\n      dup3\n        /* \"#utility.yul\":3222:3231   */\n      dup7\n        /* \"#utility.yul\":3218:3240   */\n      add\n        /* \"#utility.yul\":3197:3250   */\n      tag_64\n      jump\t// in\n    tag_136:\n        /* \"#utility.yul\":3187:3250   */\n      swap3\n      pop\n        /* \"#utility.yul\":3143:3260   */\n      pop\n        /* \"#utility.yul\":3327:3329   */\n      0x20\n        /* \"#utility.yul\":3316:3325   */\n      dup4\n        /* \"#utility.yul\":3312:3330   */\n      add\n        /* \"#utility.yul\":3299:3331   */\n      calldataload\n        /* \"#utility.yul\":3358:3376   */\n      0xffffffffffffffff\n        /* \"#utility.yul\":3350:3356   */\n      dup2\n        /* \"#utility.yul\":3347:3377   */\n      gt\n        /* \"#utility.yul\":3344:3461   */\n      iszero\n      tag_137\n      jumpi\n        /* \"#utility.yul\":3380:3459   */\n      tag_138\n      tag_61\n      jump\t// in\n    tag_138:\n        /* \"#utility.yul\":3344:3461   */\n    tag_137:\n        /* \"#utility.yul\":3485:3548   */\n      tag_139\n        /* \"#utility.yul\":3540:3547   */\n      dup6\n        /* \"#utility.yul\":3531:3537   */\n      dup3\n        /* \"#utility.yul\":3520:3529   */\n      dup7\n        /* \"#utility.yul\":3516:3538   */\n      add\n        /* \"#utility.yul\":3485:3548   */\n      tag_74\n      jump\t// in\n    tag_139:\n        /* \"#utility.yul\":3475:3548   */\n      swap2\n      pop\n        /* \"#utility.yul\":3270:3558   */\n      pop\n        /* \"#utility.yul\":2911:3565   */\n      swap3\n      pop\n      swap3\n      swap1\n      pop\n      jump\t// out\n        /* \"#utility.yul\":3571:3670   */\n    tag_75:\n        /* \"#utility.yul\":3623:3629   */\n      0x00\n        /* \"#utility.yul\":3657:3662   */\n      dup2\n        /* \"#utility.yul\":3651:3663   */\n      mload\n        /* \"#utility.yul\":3641:3663   */\n      swap1\n      pop\n        /* \"#utility.yul\":3571:3670   */\n      swap2\n      swap1\n      pop\n      jump\t// out\n        /* \"#utility.yul\":3676:3845   */\n    tag_76:\n        /* \"#utility.yul\":3760:3771   */\n      0x00\n        /* \"#utility.yul\":3794:3800   */\n      dup3\n        /* \"#utility.yul\":3789:3792   */\n      dup3\n        /* \"#utility.yul\":3782:3801   */\n      mstore\n        /* \"#utility.yul\":3834:3838   */\n      0x20\n        /* \"#utility.yul\":3829:3832   */\n      dup3\n        /* \"#utility.yul\":3825:3839   */\n      add\n        /* \"#utility.yul\":3810:3839   */\n      swap1\n      pop\n        /* \"#utility.yul\":3676:3845   */\n      swap3\n      swap2\n      pop\n      pop\n      jump\t// out\n        /* \"#utility.yul\":3851:3990   */\n    tag_77:\n        /* \"#utility.yul\":3940:3946   */\n      dup3\n        /* \"#utility.yul\":3935:3938   */\n      dup2\n        /* \"#utility.yul\":3930:3933   */\n      dup4\n        /* \"#utility.yul\":3924:3947   */\n      mcopy\n        /* \"#utility.yul\":3981:3982   */\n      0x00\n        /* \"#utility.yul\":3972:3978   */\n      dup4\n        /* \"#utility.yul\":3967:3970   */\n      dup4\n        /* \"#utility.yul\":3963:3979   */\n      add\n        /* \"#utility.yul\":3956:3983   */\n      mstore\n        /* \"#utility.yul\":3851:3990   */\n      pop\n      pop\n      pop\n      jump\t// out\n        /* \"#utility.yul\":3996:4373   */\n    tag_78:\n        /* \"#utility.yul\":4084:4087   */\n      0x00\n        /* \"#utility.yul\":4112:4151   */\n      tag_144\n        /* \"#utility.yul\":4145:4150   */\n      dup3\n        /* \"#utility.yul\":4112:4151   */\n      tag_75\n      jump\t// in\n    tag_144:\n        /* \"#utility.yul\":4167:4238   */\n      tag_145\n        /* \"#utility.yul\":4231:4237   */\n      dup2\n        /* \"#utility.yul\":4226:4229   */\n      dup6\n        /* \"#utility.yul\":4167:4238   */\n      tag_76\n      jump\t// in\n    tag_145:\n        /* \"#utility.yul\":4160:4238   */\n      swap4\n      pop\n        /* \"#utility.yul\":4247:4312   */\n      tag_146\n        /* \"#utility.yul\":4305:4311   */\n      dup2\n        /* \"#utility.yul\":4300:4303   */\n      dup6\n        /* \"#utility.yul\":4293:4297   */\n      0x20\n        /* \"#utility.yul\":4286:4291   */\n      dup7\n        /* \"#utility.yul\":4282:4298   */\n      add\n        /* \"#utility.yul\":4247:4312   */\n      tag_77\n      jump\t// in\n    tag_146:\n        /* \"#utility.yul\":4337:4366   */\n      tag_147\n        /* \"#utility.yul\":4359:4365   */\n      dup2\n        /* \"#utility.yul\":4337:4366   */\n      tag_67\n      jump\t// in\n    tag_147:\n        /* \"#utility.yul\":4332:4335   */\n      dup5\n        /* \"#utility.yul\":4328:4367   */\n      add\n        /* \"#utility.yul\":4321:4367   */\n      swap2\n      pop\n        /* \"#utility.yul\":4088:4373   */\n      pop\n        /* \"#utility.yul\":3996:4373   */\n      swap3\n      swap2\n      pop\n      pop\n      jump\t// out\n        /* \"#utility.yul\":4379:4505   */\n    tag_79:\n        /* \"#utility.yul\":4416:4423   */\n      0x00\n        /* \"#utility.yul\":4456:4498   */\n      0xffffffffffffffffffffffffffffffffffffffff\n        /* \"#utility.yul\":4449:4454   */\n      dup3\n        /* \"#utility.yul\":4445:4499   */\n      and\n        /* \"#utility.yul\":4434:4499   */\n      swap1\n      pop\n        /* \"#utility.yul\":4379:4505   */\n      swap2\n      swap1\n      pop\n      jump\t// out\n        /* \"#utility.yul\":4511:4615   */\n    tag_80:\n        /* \"#utility.yul\":4556:4563   */\n      0x00\n        /* \"#utility.yul\":4585:4609   */\n      tag_150\n        /* \"#utility.yul\":4603:4608   */\n      dup3\n        /* \"#utility.yul\":4585:4609   */\n      tag_79\n      jump\t// in\n    tag_150:\n        /* \"#utility.yul\":4574:4609   */\n      swap1\n      pop\n        /* \"#utility.yul\":4511:4615   */\n      swap2\n      swap1\n      pop\n      jump\t// out\n        /* \"#utility.yul\":4621:4763   */\n    tag_81:\n        /* \"#utility.yul\":4724:4756   */\n      tag_152\n        /* \"#utility.yul\":4750:4755   */\n      dup2\n        /* \"#utility.yul\":4724:4756   */\n      tag_80\n      jump\t// in\n    tag_152:\n        /* \"#utility.yul\":4719:4722   */\n      dup3\n        /* \"#utility.yul\":4712:4757   */\n      mstore\n        /* \"#utility.yul\":4621:4763   */\n      pop\n      pop\n      jump\t// out\n        /* \"#utility.yul\":4769:4887   */\n    tag_82:\n        /* \"#utility.yul\":4856:4880   */\n      tag_154\n        /* \"#utility.yul\":4874:4879   */\n      dup2\n        /* \"#utility.yul\":4856:4880   */\n      tag_62\n      jump\t// in\n    tag_154:\n        /* \"#utility.yul\":4851:4854   */\n      dup3\n        /* \"#utility.yul\":4844:4881   */\n      mstore\n        /* \"#utility.yul\":4769:4887   */\n      pop\n      pop\n      jump\t// out\n        /* \"#utility.yul\":4893:6084   */\n    tag_16:\n        /* \"#utility.yul\":5230:5234   */\n      0x00\n        /* \"#utility.yul\":5268:5271   */\n      0xe0\n        /* \"#utility.yul\":5257:5266   */\n      dup3\n        /* \"#utility.yul\":5253:5272   */\n      add\n        /* \"#utility.yul\":5245:5272   */\n      swap1\n      pop\n        /* \"#utility.yul\":5318:5327   */\n      dup2\n        /* \"#utility.yul\":5312:5316   */\n      dup2\n        /* \"#utility.yul\":5308:5328   */\n      sub\n        /* \"#utility.yul\":5304:5305   */\n      0x00\n        /* \"#utility.yul\":5293:5302   */\n      dup4\n        /* \"#utility.yul\":5289:5306   */\n      add\n        /* \"#utility.yul\":5282:5329   */\n      mstore\n        /* \"#utility.yul\":5346:5424   */\n      tag_156\n        /* \"#utility.yul\":5419:5423   */\n      dup2\n        /* \"#utility.yul\":5410:5416   */\n      dup11\n        /* \"#utility.yul\":5346:5424   */\n      tag_78\n      jump\t// in\n    tag_156:\n        /* \"#utility.yul\":5338:5424   */\n      swap1\n      pop\n        /* \"#utility.yul\":5471:5480   */\n      dup2\n        /* \"#utility.yul\":5465:5469   */\n      dup2\n        /* \"#utility.yul\":5461:5481   */\n      sub\n        /* \"#utility.yul\":5456:5458   */\n      0x20\n        /* \"#utility.yul\":5445:5454   */\n      dup4\n        /* \"#utility.yul\":5441:5459   */\n      add\n        /* \"#utility.yul\":5434:5482   */\n      mstore\n        /* \"#utility.yul\":5499:5577   */\n      tag_157\n        /* \"#utility.yul\":5572:5576   */\n      dup2\n        /* \"#utility.yul\":5563:5569   */\n      dup10\n        /* \"#utility.yul\":5499:5577   */\n      tag_78\n      jump\t// in\n    tag_157:\n        /* \"#utility.yul\":5491:5577   */\n      swap1\n      pop\n        /* \"#utility.yul\":5624:5633   */\n      dup2\n        /* \"#utility.yul\":5618:5622   */\n      dup2\n        /* \"#utility.yul\":5614:5634   */\n      sub\n        /* \"#utility.yul\":5609:5611   */\n      0x40\n        /* \"#utility.yul\":5598:5607   */\n      dup4\n        /* \"#utility.yul\":5594:5612   */\n      add\n        /* \"#utility.yul\":5587:5635   */\n      mstore\n        /* \"#utility.yul\":5652:5730   */\n      tag_158\n        /* \"#utility.yul\":5725:5729   */\n      dup2\n        /* \"#utility.yul\":5716:5722   */\n      dup9\n        /* \"#utility.yul\":5652:5730   */\n      tag_78\n      jump\t// in\n    tag_158:\n        /* \"#utility.yul\":5644:5730   */\n      swap1\n      pop\n        /* \"#utility.yul\":5740:5828   */\n      tag_159\n        /* \"#utility.yul\":5824:5826   */\n      0x60\n        /* \"#utility.yul\":5813:5822   */\n      dup4\n        /* \"#utility.yul\":5809:5827   */\n      add\n        /* \"#utility.yul\":5800:5806   */\n      dup8\n        /* \"#utility.yul\":5740:5828   */\n      tag_81\n      jump\t// in\n    tag_159:\n        /* \"#utility.yul\":5838:5911   */\n      tag_160\n        /* \"#utility.yul\":5906:5909   */\n      0x80\n        /* \"#utility.yul\":5895:5904   */\n      dup4\n        /* \"#utility.yul\":5891:5910   */\n      add\n        /* \"#utility.yul\":5882:5888   */\n      dup7\n        /* \"#utility.yul\":5838:5911   */\n      tag_82\n      jump\t// in\n    tag_160:\n        /* \"#utility.yul\":5921:5994   */\n      tag_161\n        /* \"#utility.yul\":5989:5992   */\n      0xa0\n        /* \"#utility.yul\":5978:5987   */\n      dup4\n        /* \"#utility.yul\":5974:5993   */\n      add\n        /* \"#utility.yul\":5965:5971   */\n      dup6\n        /* \"#utility.yul\":5921:5994   */\n      tag_82\n      jump\t// in\n    tag_161:\n        /* \"#utility.yul\":6004:6077   */\n      tag_162\n        /* \"#utility.yul\":6072:6075   */\n      0xc0\n        /* \"#utility.yul\":6061:6070   */\n      dup4\n        /* \"#utility.yul\":6057:6076   */\n      add\n        /* \"#utility.yul\":6048:6054   */\n      dup5\n        /* \"#utility.yul\":6004:6077   */\n      tag_82\n      jump\t// in\n    tag_162:\n        /* \"#utility.yul\":4893:6084   */\n      swap9\n      swap8\n      pop\n      pop\n      pop\n      pop\n      pop\n      pop\n      pop\n      pop\n      jump\t// out\n        /* \"#utility.yul\":6090:6270   */\n    tag_83:\n        /* \"#utility.yul\":6230:6262   */\n      0x4173204f776e65722063616e27742066756e64207572206163636f756e740000\n        /* \"#utility.yul\":6226:6227   */\n      0x00\n        /* \"#utility.yul\":6218:6224   */\n      dup3\n        /* \"#utility.yul\":6214:6228   */\n      add\n        /* \"#utility.yul\":6207:6263   */\n      mstore\n        /* \"#utility.yul\":6090:6270   */\n      pop\n      jump\t// out\n        /* \"#utility.yul\":6276:6642   */\n    tag_84:\n        /* \"#utility.yul\":6418:6421   */\n      0x00\n        /* \"#utility.yul\":6439:6506   */\n      tag_165\n        /* \"#utility.yul\":6503:6505   */\n      0x1e\n        /* \"#utility.yul\":6498:6501   */\n      dup4\n        /* \"#utility.yul\":6439:6506   */\n      tag_76\n      jump\t// in\n    tag_165:\n        /* \"#utility.yul\":6432:6506   */\n      swap2\n      pop\n        /* \"#utility.yul\":6515:6608   */\n      tag_166\n        /* \"#utility.yul\":6604:6607   */\n      dup3\n        /* \"#utility.yul\":6515:6608   */\n      tag_83\n      jump\t// in\n    tag_166:\n        /* \"#utility.yul\":6633:6635   */\n      0x20\n        /* \"#utility.yul\":6628:6631   */\n      dup3\n        /* \"#utility.yul\":6624:6636   */\n      add\n        /* \"#utility.yul\":6617:6636   */\n      swap1\n      pop\n        /* \"#utility.yul\":6276:6642   */\n      swap2\n      swap1\n      pop\n      jump\t// out\n        /* \"#utility.yul\":6648:7067   */\n    tag_20:\n        /* \"#utility.yul\":6814:6818   */\n      0x00\n        /* \"#utility.yul\":6852:6854   */\n      0x20\n        /* \"#utility.yul\":6841:6850   */\n      dup3\n        /* \"#utility.yul\":6837:6855   */\n      add\n        /* \"#utility.yul\":6829:6855   */\n      swap1\n      pop\n        /* \"#utility.yul\":6901:6910   */\n      dup2\n        /* \"#utility.yul\":6895:6899   */\n      dup2\n        /* \"#utility.yul\":6891:6911   */\n      sub\n        /* \"#utility.yul\":6887:6888   */\n      0x00\n        /* \"#utility.yul\":6876:6885   */\n      dup4\n        /* \"#utility.yul\":6872:6889   */\n      add\n        /* \"#utility.yul\":6865:6912   */\n      mstore\n        /* \"#utility.yul\":6929:7060   */\n      tag_168\n        /* \"#utility.yul\":7055:7059   */\n      dup2\n        /* \"#utility.yul\":6929:7060   */\n      tag_84\n      jump\t// in\n    tag_168:\n        /* \"#utility.yul\":6921:7060   */\n      swap1\n      pop\n        /* \"#utility.yul\":6648:7067   */\n      swap2\n      swap1\n      pop\n      jump\t// out\n        /* \"#utility.yul\":7073:7251   */\n    tag_85:\n        /* \"#utility.yul\":7213:7243   */\n      0x54652070726f6a6563742063616e74207265636976652066756e647300000000\n        /* \"#utility.yul\":7209:7210   */\n      0x00\n        /* \"#utility.yul\":7201:7207   */\n      dup3\n        /* \"#utility.yul\":7197:7211   */\n      add\n        /* \"#utility.yul\":7190:7244   */\n      mstore\n        /* \"#utility.yul\":7073:7251   */\n      pop\n      jump\t// out\n        /* \"#utility.yul\":7257:7623   */\n    tag_86:\n        /* \"#utility.yul\":7399:7402   */\n      0x00\n        /* \"#utility.yul\":7420:7487   */\n      tag_171\n        /* \"#utility.yul\":7484:7486   */\n      0x1c\n        /* \"#utility.yul\":7479:7482   */\n      dup4\n        /* \"#utility.yul\":7420:7487   */\n      tag_76\n      jump\t// in\n    tag_171:\n        /* \"#utility.yul\":7413:7487   */\n      swap2\n      pop\n        /* \"#utility.yul\":7496:7589   */\n      tag_172\n        /* \"#utility.yul\":7585:7588   */\n      dup3\n        /* \"#utility.yul\":7496:7589   */\n      tag_85\n      jump\t// in\n    tag_172:\n        /* \"#utility.yul\":7614:7616   */\n      0x20\n        /* \"#utility.yul\":7609:7612   */\n      dup3\n        /* \"#utility.yul\":7605:7617   */\n      add\n        /* \"#utility.yul\":7598:7617   */\n      swap1\n      pop\n        /* \"#utility.yul\":7257:7623   */\n      swap2\n      swap1\n      pop\n      jump\t// out\n        /* \"#utility.yul\":7629:8048   */\n    tag_24:\n        /* \"#utility.yul\":7795:7799   */\n      0x00\n        /* \"#utility.yul\":7833:7835   */\n      0x20\n        /* \"#utility.yul\":7822:7831   */\n      dup3\n        /* \"#utility.yul\":7818:7836   */\n      add\n        /* \"#utility.yul\":7810:7836   */\n      swap1\n      pop\n        /* \"#utility.yul\":7882:7891   */\n      dup2\n        /* \"#utility.yul\":7876:7880   */\n      dup2\n        /* \"#utility.yul\":7872:7892   */\n      sub\n        /* \"#utility.yul\":7868:7869   */\n      0x00\n        /* \"#utility.yul\":7857:7866   */\n      dup4\n        /* \"#utility.yul\":7853:7870   */\n      add\n        /* \"#utility.yul\":7846:7893   */\n      mstore\n        /* \"#utility.yul\":7910:8041   */\n      tag_174\n        /* \"#utility.yul\":8036:8040   */\n      dup2\n        /* \"#utility.yul\":7910:8041   */\n      tag_86\n      jump\t// in\n    tag_174:\n        /* \"#utility.yul\":7902:8041   */\n      swap1\n      pop\n        /* \"#utility.yul\":7629:8048   */\n      swap2\n      swap1\n      pop\n      jump\t// out\n        /* \"#utility.yul\":8054:8234   */\n    tag_87:\n        /* \"#utility.yul\":8194:8226   */\n      0x46756e642076616c7565206d757374206265206d6f7265207468616e20300000\n        /* \"#utility.yul\":8190:8191   */\n      0x00\n        /* \"#utility.yul\":8182:8188   */\n      dup3\n        /* \"#utility.yul\":8178:8192   */\n      add\n        /* \"#utility.yul\":8171:8227   */\n      mstore\n        /* \"#utility.yul\":8054:8234   */\n      pop\n      jump\t// out\n        /* \"#utility.yul\":8240:8606   */\n    tag_88:\n        /* \"#utility.yul\":8382:8385   */\n      0x00\n        /* \"#utility.yul\":8403:8470   */\n      tag_177\n        /* \"#utility.yul\":8467:8469   */\n      0x1e\n        /* \"#utility.yul\":8462:8465   */\n      dup4\n        /* \"#utility.yul\":8403:8470   */\n      tag_76\n      jump\t// in\n    tag_177:\n        /* \"#utility.yul\":8396:8470   */\n      swap2\n      pop\n        /* \"#utility.yul\":8479:8572   */\n      tag_178\n        /* \"#utility.yul\":8568:8571   */\n      dup3\n        /* \"#utility.yul\":8479:8572   */\n      tag_87\n      jump\t// in\n    tag_178:\n        /* \"#utility.yul\":8597:8599   */\n      0x20\n        /* \"#utility.yul\":8592:8595   */\n      dup3\n        /* \"#utility.yul\":8588:8600   */\n      add\n        /* \"#utility.yul\":8581:8600   */\n      swap1\n      pop\n        /* \"#utility.yul\":8240:8606   */\n      swap2\n      swap1\n      pop\n      jump\t// out\n        /* \"#utility.yul\":8612:9031   */\n    tag_27:\n        /* \"#utility.yul\":8778:8782   */\n      0x00\n        /* \"#utility.yul\":8816:8818   */\n      0x20\n        /* \"#utility.yul\":8805:8814   */\n      dup3\n        /* \"#utility.yul\":8801:8819   */\n      add\n        /* \"#utility.yul\":8793:8819   */\n      swap1\n      pop\n        /* \"#utility.yul\":8865:8874   */\n      dup2\n        /* \"#utility.yul\":8859:8863   */\n      dup2\n        /* \"#utility.yul\":8855:8875   */\n      sub\n        /* \"#utility.yul\":8851:8852   */\n      0x00\n        /* \"#utility.yul\":8840:8849   */\n      dup4\n        /* \"#utility.yul\":8836:8853   */\n      add\n        /* \"#utility.yul\":8829:8876   */\n      mstore\n        /* \"#utility.yul\":8893:9024   */\n      tag_180\n        /* \"#utility.yul\":9019:9023   */\n      dup2\n        /* \"#utility.yul\":8893:9024   */\n      tag_88\n      jump\t// in\n    tag_180:\n        /* \"#utility.yul\":8885:9024   */\n      swap1\n      pop\n        /* \"#utility.yul\":8612:9031   */\n      swap2\n      swap1\n      pop\n      jump\t// out\n        /* \"#utility.yul\":9037:9217   */\n    tag_89:\n        /* \"#utility.yul\":9085:9162   */\n      0x4e487b7100000000000000000000000000000000000000000000000000000000\n        /* \"#utility.yul\":9082:9083   */\n      0x00\n        /* \"#utility.yul\":9075:9163   */\n      mstore\n        /* \"#utility.yul\":9182:9186   */\n      0x11\n        /* \"#utility.yul\":9179:9180   */\n      0x04\n        /* \"#utility.yul\":9172:9187   */\n      mstore\n        /* \"#utility.yul\":9206:9210   */\n      0x24\n        /* \"#utility.yul\":9203:9204   */\n      0x00\n        /* \"#utility.yul\":9196:9211   */\n      revert\n        /* \"#utility.yul\":9223:9414   */\n    tag_31:\n        /* \"#utility.yul\":9263:9266   */\n      0x00\n        /* \"#utility.yul\":9282:9302   */\n      tag_183\n        /* \"#utility.yul\":9300:9301   */\n      dup3\n        /* \"#utility.yul\":9282:9302   */\n      tag_62\n      jump\t// in\n    tag_183:\n        /* \"#utility.yul\":9277:9302   */\n      swap2\n      pop\n        /* \"#utility.yul\":9316:9336   */\n      tag_184\n        /* \"#utility.yul\":9334:9335   */\n      dup4\n        /* \"#utility.yul\":9316:9336   */\n      tag_62\n      jump\t// in\n    tag_184:\n        /* \"#utility.yul\":9311:9336   */\n      swap3\n      pop\n        /* \"#utility.yul\":9359:9360   */\n      dup3\n        /* \"#utility.yul\":9356:9357   */\n      dup3\n        /* \"#utility.yul\":9352:9361   */\n      add\n        /* \"#utility.yul\":9345:9361   */\n      swap1\n      pop\n        /* \"#utility.yul\":9380:9383   */\n      dup1\n        /* \"#utility.yul\":9377:9378   */\n      dup3\n        /* \"#utility.yul\":9374:9384   */\n      gt\n        /* \"#utility.yul\":9371:9407   */\n      iszero\n      tag_185\n      jumpi\n        /* \"#utility.yul\":9387:9405   */\n      tag_186\n      tag_89\n      jump\t// in\n    tag_186:\n        /* \"#utility.yul\":9371:9407   */\n    tag_185:\n        /* \"#utility.yul\":9223:9414   */\n      swap3\n      swap2\n      pop\n      pop\n      jump\t// out\n        /* \"#utility.yul\":9420:9600   */\n    tag_90:\n        /* \"#utility.yul\":9468:9545   */\n      0x4e487b7100000000000000000000000000000000000000000000000000000000\n        /* \"#utility.yul\":9465:9466   */\n      0x00\n        /* \"#utility.yul\":9458:9546   */\n      mstore\n        /* \"#utility.yul\":9565:9569   */\n      0x22\n        /* \"#utility.yul\":9562:9563   */\n      0x04\n        /* \"#utility.yul\":9555:9570   */\n      mstore\n        /* \"#utility.yul\":9589:9593   */\n      0x24\n        /* \"#utility.yul\":9586:9587   */\n      0x00\n        /* \"#utility.yul\":9579:9594   */\n      revert\n        /* \"#utility.yul\":9606:9926   */\n    tag_44:\n        /* \"#utility.yul\":9650:9656   */\n      0x00\n        /* \"#utility.yul\":9687:9688   */\n      0x02\n        /* \"#utility.yul\":9681:9685   */\n      dup3\n        /* \"#utility.yul\":9677:9689   */\n      div\n        /* \"#utility.yul\":9667:9689   */\n      swap1\n      pop\n        /* \"#utility.yul\":9734:9735   */\n      0x01\n        /* \"#utility.yul\":9728:9732   */\n      dup3\n        /* \"#utility.yul\":9724:9736   */\n      and\n        /* \"#utility.yul\":9755:9773   */\n      dup1\n        /* \"#utility.yul\":9745:9826   */\n      tag_189\n      jumpi\n        /* \"#utility.yul\":9811:9815   */\n      0x7f\n        /* \"#utility.yul\":9803:9809   */\n      dup3\n        /* \"#utility.yul\":9799:9816   */\n      and\n        /* \"#utility.yul\":9789:9816   */\n      swap2\n      pop\n        /* \"#utility.yul\":9745:9826   */\n    tag_189:\n        /* \"#utility.yul\":9873:9875   */\n      0x20\n        /* \"#utility.yul\":9865:9871   */\n      dup3\n        /* \"#utility.yul\":9862:9876   */\n      lt\n        /* \"#utility.yul\":9842:9860   */\n      dup2\n        /* \"#utility.yul\":9839:9877   */\n      sub\n        /* \"#utility.yul\":9836:9920   */\n      tag_190\n      jumpi\n        /* \"#utility.yul\":9892:9910   */\n      tag_191\n      tag_90\n      jump\t// in\n    tag_191:\n        /* \"#utility.yul\":9836:9920   */\n    tag_190:\n        /* \"#utility.yul\":9657:9926   */\n      pop\n        /* \"#utility.yul\":9606:9926   */\n      swap2\n      swap1\n      pop\n      jump\t// out\n        /* \"#utility.yul\":9932:10073   */\n    tag_91:\n        /* \"#utility.yul\":9981:9985   */\n      0x00\n        /* \"#utility.yul\":10004:10007   */\n      dup2\n        /* \"#utility.yul\":9996:10007   */\n      swap1\n      pop\n        /* \"#utility.yul\":10027:10030   */\n      dup2\n        /* \"#utility.yul\":10024:10025   */\n      0x00\n        /* \"#utility.yul\":10017:10031   */\n      mstore\n        /* \"#utility.yul\":10061:10065   */\n      0x20\n        /* \"#utility.yul\":10058:10059   */\n      0x00\n        /* \"#utility.yul\":10048:10066   */\n      keccak256\n        /* \"#utility.yul\":10040:10066   */\n      swap1\n      pop\n        /* \"#utility.yul\":9932:10073   */\n      swap2\n      swap1\n      pop\n      jump\t// out\n        /* \"#utility.yul\":10103:10934   */\n    tag_92:\n        /* \"#utility.yul\":10188:10191   */\n      0x00\n        /* \"#utility.yul\":10225:10230   */\n      dup2\n        /* \"#utility.yul\":10219:10231   */\n      sload\n        /* \"#utility.yul\":10254:10290   */\n      tag_194\n        /* \"#utility.yul\":10280:10289   */\n      dup2\n        /* \"#utility.yul\":10254:10290   */\n      tag_44\n      jump\t// in\n    tag_194:\n        /* \"#utility.yul\":10306:10377   */\n      tag_195\n        /* \"#utility.yul\":10370:10376   */\n      dup2\n        /* \"#utility.yul\":10365:10368   */\n      dup7\n        /* \"#utility.yul\":10306:10377   */\n      tag_76\n      jump\t// in\n    tag_195:\n        /* \"#utility.yul\":10299:10377   */\n      swap5\n      pop\n        /* \"#utility.yul\":10408:10409   */\n      0x01\n        /* \"#utility.yul\":10397:10406   */\n      dup3\n        /* \"#utility.yul\":10393:10410   */\n      and\n        /* \"#utility.yul\":10424:10425   */\n      0x00\n        /* \"#utility.yul\":10419:10583   */\n      dup2\n      eq\n      tag_197\n      jumpi\n        /* \"#utility.yul\":10597:10598   */\n      0x01\n        /* \"#utility.yul\":10592:10928   */\n      dup2\n      eq\n      tag_198\n      jumpi\n        /* \"#utility.yul\":10386:10928   */\n      jump(tag_196)\n        /* \"#utility.yul\":10419:10583   */\n    tag_197:\n        /* \"#utility.yul\":10503:10507   */\n      0xff\n        /* \"#utility.yul\":10499:10508   */\n      not\n        /* \"#utility.yul\":10488:10497   */\n      dup4\n        /* \"#utility.yul\":10484:10509   */\n      and\n        /* \"#utility.yul\":10479:10482   */\n      dup7\n        /* \"#utility.yul\":10472:10510   */\n      mstore\n        /* \"#utility.yul\":10563:10569   */\n      dup2\n        /* \"#utility.yul\":10556:10570   */\n      iszero\n        /* \"#utility.yul\":10549:10571   */\n      iszero\n        /* \"#utility.yul\":10543:10547   */\n      0x20\n        /* \"#utility.yul\":10539:10572   */\n      mul\n        /* \"#utility.yul\":10534:10537   */\n      dup7\n        /* \"#utility.yul\":10530:10573   */\n      add\n        /* \"#utility.yul\":10523:10573   */\n      swap4\n      pop\n        /* \"#utility.yul\":10419:10583   */\n      jump(tag_196)\n        /* \"#utility.yul\":10592:10928   */\n    tag_198:\n        /* \"#utility.yul\":10659:10697   */\n      tag_199\n        /* \"#utility.yul\":10691:10696   */\n      dup6\n        /* \"#utility.yul\":10659:10697   */\n      tag_91\n      jump\t// in\n    tag_199:\n        /* \"#utility.yul\":10719:10720   */\n      0x00\n        /* \"#utility.yul\":10733:10887   */\n    tag_200:\n        /* \"#utility.yul\":10747:10753   */\n      dup4\n        /* \"#utility.yul\":10744:10745   */\n      dup2\n        /* \"#utility.yul\":10741:10754   */\n      lt\n        /* \"#utility.yul\":10733:10887   */\n      iszero\n      tag_202\n      jumpi\n        /* \"#utility.yul\":10821:10828   */\n      dup2\n        /* \"#utility.yul\":10815:10829   */\n      sload\n        /* \"#utility.yul\":10811:10812   */\n      dup2\n        /* \"#utility.yul\":10806:10809   */\n      dup10\n        /* \"#utility.yul\":10802:10813   */\n      add\n        /* \"#utility.yul\":10795:10830   */\n      mstore\n        /* \"#utility.yul\":10871:10872   */\n      0x01\n        /* \"#utility.yul\":10862:10869   */\n      dup3\n        /* \"#utility.yul\":10858:10873   */\n      add\n        /* \"#utility.yul\":10847:10873   */\n      swap2\n      pop\n        /* \"#utility.yul\":10769:10773   */\n      0x20\n        /* \"#utility.yul\":10766:10767   */\n      dup2\n        /* \"#utility.yul\":10762:10774   */\n      add\n        /* \"#utility.yul\":10757:10774   */\n      swap1\n      pop\n        /* \"#utility.yul\":10733:10887   */\n      jump(tag_200)\n    tag_202:\n        /* \"#utility.yul\":10916:10917   */\n      dup1\n        /* \"#utility.yul\":10911:10914   */\n      dup9\n        /* \"#utility.yul\":10907:10918   */\n      add\n        /* \"#utility.yul\":10900:10918   */\n      swap6\n      pop\n        /* \"#utility.yul\":10599:10928   */\n      pop\n      pop\n        /* \"#utility.yul\":10386:10928   */\n    tag_196:\n      pop\n        /* \"#utility.yul\":10192:10934   */\n      pop\n      pop\n        /* \"#utility.yul\":10103:10934   */\n      swap3\n      swap2\n      pop\n      pop\n      jump\t// out\n        /* \"#utility.yul\":10940:11357   */\n    tag_33:\n        /* \"#utility.yul\":11078:11082   */\n      0x00\n        /* \"#utility.yul\":11116:11118   */\n      0x40\n        /* \"#utility.yul\":11105:11114   */\n      dup3\n        /* \"#utility.yul\":11101:11119   */\n      add\n        /* \"#utility.yul\":11093:11119   */\n      swap1\n      pop\n        /* \"#utility.yul\":11165:11174   */\n      dup2\n        /* \"#utility.yul\":11159:11163   */\n      dup2\n        /* \"#utility.yul\":11155:11175   */\n      sub\n        /* \"#utility.yul\":11151:11152   */\n      0x00\n        /* \"#utility.yul\":11140:11149   */\n      dup4\n        /* \"#utility.yul\":11136:11153   */\n      add\n        /* \"#utility.yul\":11129:11176   */\n      mstore\n        /* \"#utility.yul\":11193:11268   */\n      tag_204\n        /* \"#utility.yul\":11263:11267   */\n      dup2\n        /* \"#utility.yul\":11254:11260   */\n      dup6\n        /* \"#utility.yul\":11193:11268   */\n      tag_92\n      jump\t// in\n    tag_204:\n        /* \"#utility.yul\":11185:11268   */\n      swap1\n      pop\n        /* \"#utility.yul\":11278:11350   */\n      tag_205\n        /* \"#utility.yul\":11346:11348   */\n      0x20\n        /* \"#utility.yul\":11335:11344   */\n      dup4\n        /* \"#utility.yul\":11331:11349   */\n      add\n        /* \"#utility.yul\":11322:11328   */\n      dup5\n        /* \"#utility.yul\":11278:11350   */\n      tag_82\n      jump\t// in\n    tag_205:\n        /* \"#utility.yul\":10940:11357   */\n      swap4\n      swap3\n      pop\n      pop\n      pop\n      jump\t// out\n        /* \"#utility.yul\":11363:11544   */\n    tag_93:\n        /* \"#utility.yul\":11503:11536   */\n      0x4f6e6c79206f776e65722063616e206368616e67652074686520737461746500\n        /* \"#utility.yul\":11499:11500   */\n      0x00\n        /* \"#utility.yul\":11491:11497   */\n      dup3\n        /* \"#utility.yul\":11487:11501   */\n      add\n        /* \"#utility.yul\":11480:11537   */\n      mstore\n        /* \"#utility.yul\":11363:11544   */\n      pop\n      jump\t// out\n        /* \"#utility.yul\":11550:11916   */\n    tag_94:\n        /* \"#utility.yul\":11692:11695   */\n      0x00\n        /* \"#utility.yul\":11713:11780   */\n      tag_208\n        /* \"#utility.yul\":11777:11779   */\n      0x1f\n        /* \"#utility.yul\":11772:11775   */\n      dup4\n        /* \"#utility.yul\":11713:11780   */\n      tag_76\n      jump\t// in\n    tag_208:\n        /* \"#utility.yul\":11706:11780   */\n      swap2\n      pop\n        /* \"#utility.yul\":11789:11882   */\n      tag_209\n        /* \"#utility.yul\":11878:11881   */\n      dup3\n        /* \"#utility.yul\":11789:11882   */\n      tag_93\n      jump\t// in\n    tag_209:\n        /* \"#utility.yul\":11907:11909   */\n      0x20\n        /* \"#utility.yul\":11902:11905   */\n      dup3\n        /* \"#utility.yul\":11898:11910   */\n      add\n        /* \"#utility.yul\":11891:11910   */\n      swap1\n      pop\n        /* \"#utility.yul\":11550:11916   */\n      swap2\n      swap1\n      pop\n      jump\t// out\n        /* \"#utility.yul\":11922:12341   */\n    tag_37:\n        /* \"#utility.yul\":12088:12092   */\n      0x00\n        /* \"#utility.yul\":12126:12128   */\n      0x20\n        /* \"#utility.yul\":12115:12124   */\n      dup3\n        /* \"#utility.yul\":12111:12129   */\n      add\n        /* \"#utility.yul\":12103:12129   */\n      swap1\n      pop\n        /* \"#utility.yul\":12175:12184   */\n      dup2\n        /* \"#utility.yul\":12169:12173   */\n      dup2\n        /* \"#utility.yul\":12165:12185   */\n      sub\n        /* \"#utility.yul\":12161:12162   */\n      0x00\n        /* \"#utility.yul\":12150:12159   */\n      dup4\n        /* \"#utility.yul\":12146:12163   */\n      add\n        /* \"#utility.yul\":12139:12186   */\n      mstore\n        /* \"#utility.yul\":12203:12334   */\n      tag_211\n        /* \"#utility.yul\":12329:12333   */\n      dup2\n        /* \"#utility.yul\":12203:12334   */\n      tag_94\n      jump\t// in\n    tag_211:\n        /* \"#utility.yul\":12195:12334   */\n      swap1\n      pop\n        /* \"#utility.yul\":11922:12341   */\n      swap2\n      swap1\n      pop\n      jump\t// out\n        /* \"#utility.yul\":12347:12524   */\n    tag_95:\n        /* \"#utility.yul\":12487:12516   */\n      0x4e6577207374617465206d75737420626520646966666572656e740000000000\n        /* \"#utility.yul\":12483:12484   */\n      0x00\n        /* \"#utility.yul\":12475:12481   */\n      dup3\n        /* \"#utility.yul\":12471:12485   */\n      add\n        /* \"#utility.yul\":12464:12517   */\n      mstore\n        /* \"#utility.yul\":12347:12524   */\n      pop\n      jump\t// out\n        /* \"#utility.yul\":12530:12896   */\n    tag_96:\n        /* \"#utility.yul\":12672:12675   */\n      0x00\n        /* \"#utility.yul\":12693:12760   */\n      tag_214\n        /* \"#utility.yul\":12757:12759   */\n      0x1b\n        /* \"#utility.yul\":12752:12755   */\n      dup4\n        /* \"#utility.yul\":12693:12760   */\n      tag_76\n      jump\t// in\n    tag_214:\n        /* \"#utility.yul\":12686:12760   */\n      swap2\n      pop\n        /* \"#utility.yul\":12769:12862   */\n      tag_215\n        /* \"#utility.yul\":12858:12861   */\n      dup3\n        /* \"#utility.yul\":12769:12862   */\n      tag_95\n      jump\t// in\n    tag_215:\n        /* \"#utility.yul\":12887:12889   */\n      0x20\n        /* \"#utility.yul\":12882:12885   */\n      dup3\n        /* \"#utility.yul\":12878:12890   */\n      add\n        /* \"#utility.yul\":12871:12890   */\n      swap1\n      pop\n        /* \"#utility.yul\":12530:12896   */\n      swap2\n      swap1\n      pop\n      jump\t// out\n        /* \"#utility.yul\":12902:13321   */\n    tag_41:\n        /* \"#utility.yul\":13068:13072   */\n      0x00\n        /* \"#utility.yul\":13106:13108   */\n      0x20\n        /* \"#utility.yul\":13095:13104   */\n      dup3\n        /* \"#utility.yul\":13091:13109   */\n      add\n        /* \"#utility.yul\":13083:13109   */\n      swap1\n      pop\n        /* \"#utility.yul\":13155:13164   */\n      dup2\n        /* \"#utility.yul\":13149:13153   */\n      dup2\n        /* \"#utility.yul\":13145:13165   */\n      sub\n        /* \"#utility.yul\":13141:13142   */\n      0x00\n        /* \"#utility.yul\":13130:13139   */\n      dup4\n        /* \"#utility.yul\":13126:13143   */\n      add\n        /* \"#utility.yul\":13119:13166   */\n      mstore\n        /* \"#utility.yul\":13183:13314   */\n      tag_217\n        /* \"#utility.yul\":13309:13313   */\n      dup2\n        /* \"#utility.yul\":13183:13314   */\n      tag_96\n      jump\t// in\n    tag_217:\n        /* \"#utility.yul\":13175:13314   */\n      swap1\n      pop\n        /* \"#utility.yul\":12902:13321   */\n      swap2\n      swap1\n      pop\n      jump\t// out\n\n    auxdata: 0xa2646970667358221220ba32280fa6c30f0842faf641e68717d9c030b2510a36f2e50335fad154cec3d064736f6c63430008190033\n}\n",
				"bytecode": {
					"linkReferences": {},
					"object": "608060405234801561000f575f80fd5b50604051611278380380611278833981810160405281019061003191906102ab565b6040518060e001604052808581526020018481526020018381526020013373ffffffffffffffffffffffffffffffffffffffff1681526020015f81526020015f8152602001828152505f80820151815f01908161008e9190610567565b5060208201518160010190816100a49190610567565b5060408201518160020190816100ba9190610567565b506060820151816003015f6101000a81548173ffffffffffffffffffffffffffffffffffffffff021916908373ffffffffffffffffffffffffffffffffffffffff1602179055506080820151816004015560a0820151816005015560c0820151816006015590505050505050610636565b5f604051905090565b5f80fd5b5f80fd5b5f80fd5b5f80fd5b5f601f19601f8301169050919050565b7f4e487b71000000000000000000000000000000000000000000000000000000005f52604160045260245ffd5b61018a82610144565b810181811067ffffffffffffffff821117156101a9576101a8610154565b5b80604052505050565b5f6101bb61012b565b90506101c78282610181565b919050565b5f67ffffffffffffffff8211156101e6576101e5610154565b5b6101ef82610144565b9050602081019050919050565b8281835e5f83830152505050565b5f61021c610217846101cc565b6101b2565b90508281526020810184848401111561023857610237610140565b5b6102438482856101fc565b509392505050565b5f82601f83011261025f5761025e61013c565b5b815161026f84826020860161020a565b91505092915050565b5f819050919050565b61028a81610278565b8114610294575f80fd5b50565b5f815190506102a581610281565b92915050565b5f805f80608085870312156102c3576102c2610134565b5b5f85015167ffffffffffffffff8111156102e0576102df610138565b5b6102ec8782880161024b565b945050602085015167ffffffffffffffff81111561030d5761030c610138565b5b6103198782880161024b565b935050604085015167ffffffffffffffff81111561033a57610339610138565b5b6103468782880161024b565b925050606061035787828801610297565b91505092959194509250565b5f81519050919050565b7f4e487b71000000000000000000000000000000000000000000000000000000005f52602260045260245ffd5b5f60028204905060018216806103b157607f821691505b6020821081036103c4576103c361036d565b5b50919050565b5f819050815f5260205f209050919050565b5f6020601f8301049050919050565b5f82821b905092915050565b5f600883026104267fffffffffffffffffffffffffffffffffffffffffffffffffffffffffffffffff826103eb565b61043086836103eb565b95508019841693508086168417925050509392505050565b5f819050919050565b5f61046b61046661046184610278565b610448565b610278565b9050919050565b5f819050919050565b61048483610451565b61049861049082610472565b8484546103f7565b825550505050565b5f90565b6104ac6104a0565b6104b781848461047b565b505050565b5b818110156104da576104cf5f826104a4565b6001810190506104bd565b5050565b601f82111561051f576104f0816103ca565b6104f9846103dc565b81016020851015610508578190505b61051c610514856103dc565b8301826104bc565b50505b505050565b5f82821c905092915050565b5f61053f5f1984600802610524565b1980831691505092915050565b5f6105578383610530565b9150826002028217905092915050565b61057082610363565b67ffffffffffffffff81111561058957610588610154565b5b610593825461039a565b61059e8282856104de565b5f60209050601f8311600181146105cf575f84156105bd578287015190505b6105c7858261054c565b86555061062e565b601f1984166105dd866103ca565b5f5b82811015610604578489015182556001820191506020850194506020810190506105df565b86831015610621578489015161061d601f891682610530565b8355505b6001600288020188555050505b505050505050565b610c35806106435f395ff3fe608060405260043610610033575f3560e01c80639073adb414610037578063d8288aba14610041578063e8dc41ad14610069575b5f80fd5b61003f610099565b005b34801561004c575f80fd5b50610067600480360381019061006291906106ef565b610271565b005b348015610074575f80fd5b5061007d610390565b60405161009097969594939291906107f7565b60405180910390f35b3373ffffffffffffffffffffffffffffffffffffffff165f6003015f9054906101000a900473ffffffffffffffffffffffffffffffffffffffff1673ffffffffffffffffffffffffffffffffffffffff160361012a576040517f08c379a0000000000000000000000000000000000000000000000000000000008152600401610121906108c3565b60405180910390fd5b60015f6004015403610171576040517f08c379a00000000000000000000000000000000000000000000000000000000081526004016101689061092b565b60405180910390fd5b5f34116101b3576040517f08c379a00000000000000000000000000000000000000000000000000000000081526004016101aa90610993565b60405180910390fd5b5f6003015f9054906101000a900473ffffffffffffffffffffffffffffffffffffffff1673ffffffffffffffffffffffffffffffffffffffff166108fc3490811502906040515f60405180830381858888f19350505050158015610219573d5f803e3d5ffd5b50345f6005015f82825461022d91906109de565b925050819055507f601a31682b808e0416479a182f80fd9f081c273ed67c10174341a615756c1e005f800134604051610267929190610b01565b60405180910390a1565b3373ffffffffffffffffffffffffffffffffffffffff165f6003015f9054906101000a900473ffffffffffffffffffffffffffffffffffffffff1673ffffffffffffffffffffffffffffffffffffffff1614610302576040517f08c379a00000000000000000000000000000000000000000000000000000000081526004016102f990610b79565b60405180910390fd5b815f6004015403610348576040517f08c379a000000000000000000000000000000000000000000000000000000000815260040161033f90610be1565b60405180910390fd5b815f600401819055507fb2bb03151d63a0cb5bbebe0b19f8dd0e89598d6911f720d1cfcfd085b950548f5f800183604051610384929190610b01565b60405180910390a15050565b5f805f01805461039f90610a3e565b80601f01602080910402602001604051908101604052809291908181526020018280546103cb90610a3e565b80156104165780601f106103ed57610100808354040283529160200191610416565b820191905f5260205f20905b8154815290600101906020018083116103f957829003601f168201915b50505050509080600101805461042b90610a3e565b80601f016020809104026020016040519081016040528092919081815260200182805461045790610a3e565b80156104a25780601f10610479576101008083540402835291602001916104a2565b820191905f5260205f20905b81548152906001019060200180831161048557829003601f168201915b5050505050908060020180546104b790610a3e565b80601f01602080910402602001604051908101604052809291908181526020018280546104e390610a3e565b801561052e5780601f106105055761010080835404028352916020019161052e565b820191905f5260205f20905b81548152906001019060200180831161051157829003601f168201915b505050505090806003015f9054906101000a900473ffffffffffffffffffffffffffffffffffffffff16908060040154908060050154908060060154905087565b5f604051905090565b5f80fd5b5f80fd5b5f819050919050565b61059281610580565b811461059c575f80fd5b50565b5f813590506105ad81610589565b92915050565b5f80fd5b5f80fd5b5f601f19601f8301169050919050565b7f4e487b71000000000000000000000000000000000000000000000000000000005f52604160045260245ffd5b610601826105bb565b810181811067ffffffffffffffff821117156106205761061f6105cb565b5b80604052505050565b5f61063261056f565b905061063e82826105f8565b919050565b5f67ffffffffffffffff82111561065d5761065c6105cb565b5b610666826105bb565b9050602081019050919050565b828183375f83830152505050565b5f61069361068e84610643565b610629565b9050828152602081018484840111156106af576106ae6105b7565b5b6106ba848285610673565b509392505050565b5f82601f8301126106d6576106d56105b3565b5b81356106e6848260208601610681565b91505092915050565b5f806040838503121561070557610704610578565b5b5f6107128582860161059f565b925050602083013567ffffffffffffffff8111156107335761073261057c565b5b61073f858286016106c2565b9150509250929050565b5f81519050919050565b5f82825260208201905092915050565b8281835e5f83830152505050565b5f61077b82610749565b6107858185610753565b9350610795818560208601610763565b61079e816105bb565b840191505092915050565b5f73ffffffffffffffffffffffffffffffffffffffff82169050919050565b5f6107d2826107a9565b9050919050565b6107e2816107c8565b82525050565b6107f181610580565b82525050565b5f60e0820190508181035f83015261080f818a610771565b905081810360208301526108238189610771565b905081810360408301526108378188610771565b905061084660608301876107d9565b61085360808301866107e8565b61086060a08301856107e8565b61086d60c08301846107e8565b98975050505050505050565b7f4173204f776e65722063616e27742066756e64207572206163636f756e7400005f82015250565b5f6108ad601e83610753565b91506108b882610879565b602082019050919050565b5f6020820190508181035f8301526108da816108a1565b9050919050565b7f54652070726f6a6563742063616e74207265636976652066756e6473000000005f82015250565b5f610915601c83610753565b9150610920826108e1565b602082019050919050565b5f6020820190508181035f83015261094281610909565b9050919050565b7f46756e642076616c7565206d757374206265206d6f7265207468616e203000005f82015250565b5f61097d601e83610753565b915061098882610949565b602082019050919050565b5f6020820190508181035f8301526109aa81610971565b9050919050565b7f4e487b71000000000000000000000000000000000000000000000000000000005f52601160045260245ffd5b5f6109e882610580565b91506109f383610580565b9250828201905080821115610a0b57610a0a6109b1565b5b92915050565b7f4e487b71000000000000000000000000000000000000000000000000000000005f52602260045260245ffd5b5f6002820490506001821680610a5557607f821691505b602082108103610a6857610a67610a11565b5b50919050565b5f819050815f5260205f209050919050565b5f8154610a8c81610a3e565b610a968186610753565b9450600182165f8114610ab05760018114610ac657610af8565b60ff198316865281151560200286019350610af8565b610acf85610a6e565b5f5b83811015610af057815481890152600182019150602081019050610ad1565b808801955050505b50505092915050565b5f6040820190508181035f830152610b198185610a80565b9050610b2860208301846107e8565b9392505050565b7f4f6e6c79206f776e65722063616e206368616e676520746865207374617465005f82015250565b5f610b63601f83610753565b9150610b6e82610b2f565b602082019050919050565b5f6020820190508181035f830152610b9081610b57565b9050919050565b7f4e6577207374617465206d75737420626520646966666572656e7400000000005f82015250565b5f610bcb601b83610753565b9150610bd682610b97565b602082019050919050565b5f6020820190508181035f830152610bf881610bbf565b905091905056fea2646970667358221220ba32280fa6c30f0842faf641e68717d9c030b2510a36f2e50335fad154cec3d064736f6c63430008190033",
					"opcodes": "PUSH1 0x80 PUSH1 0x40 MSTORE CALLVALUE DUP1 ISZERO PUSH2 0xF JUMPI PUSH0 DUP1 REVERT JUMPDEST POP PUSH1 0x40 MLOAD PUSH2 0x1278 CODESIZE SUB DUP1 PUSH2 0x1278 DUP4 CODECOPY DUP2 DUP2 ADD PUSH1 0x40 MSTORE DUP2 ADD SWAP1 PUSH2 0x31 SWAP2 SWAP1 PUSH2 0x2AB JUMP JUMPDEST PUSH1 0x40 MLOAD DUP1 PUSH1 0xE0 ADD PUSH1 0x40 MSTORE DUP1 DUP6 DUP2 MSTORE PUSH1 0x20 ADD DUP5 DUP2 MSTORE PUSH1 0x20 ADD DUP4 DUP2 MSTORE PUSH1 0x20 ADD CALLER PUSH20 0xFFFFFFFFFFFFFFFFFFFFFFFFFFFFFFFFFFFFFFFF AND DUP2 MSTORE PUSH1 0x20 ADD PUSH0 DUP2 MSTORE PUSH1 0x20 ADD PUSH0 DUP2 MSTORE PUSH1 0x20 ADD DUP3 DUP2 MSTORE POP PUSH0 DUP1 DUP3 ADD MLOAD DUP2 PUSH0 ADD SWAP1 DUP2 PUSH2 0x8E SWAP2 SWAP1 PUSH2 0x567 JUMP JUMPDEST POP PUSH1 0x20 DUP3 ADD MLOAD DUP2 PUSH1 0x1 ADD SWAP1 DUP2 PUSH2 0xA4 SWAP2 SWAP1 PUSH2 0x567 JUMP JUMPDEST POP PUSH1 0x40 DUP3 ADD MLOAD DUP2 PUSH1 0x2 ADD SWAP1 DUP2 PUSH2 0xBA SWAP2 SWAP1 PUSH2 0x567 JUMP JUMPDEST POP PUSH1 0x60 DUP3 ADD MLOAD DUP2 PUSH1 0x3 ADD PUSH0 PUSH2 0x100 EXP DUP2 SLOAD DUP2 PUSH20 0xFFFFFFFFFFFFFFFFFFFFFFFFFFFFFFFFFFFFFFFF MUL NOT AND SWAP1 DUP4 PUSH20 0xFFFFFFFFFFFFFFFFFFFFFFFFFFFFFFFFFFFFFFFF AND MUL OR SWAP1 SSTORE POP PUSH1 0x80 DUP3 ADD MLOAD DUP2 PUSH1 0x4 ADD SSTORE PUSH1 0xA0 DUP3 ADD MLOAD DUP2 PUSH1 0x5 ADD SSTORE PUSH1 0xC0 DUP3 ADD MLOAD DUP2 PUSH1 0x6 ADD SSTORE SWAP1 POP POP POP POP POP POP PUSH2 0x636 JUMP JUMPDEST PUSH0 PUSH1 0x40 MLOAD SWAP1 POP SWAP1 JUMP JUMPDEST PUSH0 DUP1 REVERT JUMPDEST PUSH0 DUP1 REVERT JUMPDEST PUSH0 DUP1 REVERT JUMPDEST PUSH0 DUP1 REVERT JUMPDEST PUSH0 PUSH1 0x1F NOT PUSH1 0x1F DUP4 ADD AND SWAP1 POP SWAP2 SWAP1 POP JUMP JUMPDEST PUSH32 0x4E487B7100000000000000000000000000000000000000000000000000000000 PUSH0 MSTORE PUSH1 0x41 PUSH1 0x4 MSTORE PUSH1 0x24 PUSH0 REVERT JUMPDEST PUSH2 0x18A DUP3 PUSH2 0x144 JUMP JUMPDEST DUP2 ADD DUP2 DUP2 LT PUSH8 0xFFFFFFFFFFFFFFFF DUP3 GT OR ISZERO PUSH2 0x1A9 JUMPI PUSH2 0x1A8 PUSH2 0x154 JUMP JUMPDEST JUMPDEST DUP1 PUSH1 0x40 MSTORE POP POP POP JUMP JUMPDEST PUSH0 PUSH2 0x1BB PUSH2 0x12B JUMP JUMPDEST SWAP1 POP PUSH2 0x1C7 DUP3 DUP3 PUSH2 0x181 JUMP JUMPDEST SWAP2 SWAP1 POP JUMP JUMPDEST PUSH0 PUSH8 0xFFFFFFFFFFFFFFFF DUP3 GT ISZERO PUSH2 0x1E6 JUMPI PUSH2 0x1E5 PUSH2 0x154 JUMP JUMPDEST JUMPDEST PUSH2 0x1EF DUP3 PUSH2 0x144 JUMP JUMPDEST SWAP1 POP PUSH1 0x20 DUP2 ADD SWAP1 POP SWAP2 SWAP1 POP JUMP JUMPDEST DUP3 DUP2 DUP4 MCOPY PUSH0 DUP4 DUP4 ADD MSTORE POP POP POP JUMP JUMPDEST PUSH0 PUSH2 0x21C PUSH2 0x217 DUP5 PUSH2 0x1CC JUMP JUMPDEST PUSH2 0x1B2 JUMP JUMPDEST SWAP1 POP DUP3 DUP2 MSTORE PUSH1 0x20 DUP2 ADD DUP5 DUP5 DUP5 ADD GT ISZERO PUSH2 0x238 JUMPI PUSH2 0x237 PUSH2 0x140 JUMP JUMPDEST JUMPDEST PUSH2 0x243 DUP5 DUP3 DUP6 PUSH2 0x1FC JUMP JUMPDEST POP SWAP4 SWAP3 POP POP POP JUMP JUMPDEST PUSH0 DUP3 PUSH1 0x1F DUP4 ADD SLT PUSH2 0x25F JUMPI PUSH2 0x25E PUSH2 0x13C JUMP JUMPDEST JUMPDEST DUP2 MLOAD PUSH2 0x26F DUP5 DUP3 PUSH1 0x20 DUP7 ADD PUSH2 0x20A JUMP JUMPDEST SWAP2 POP POP SWAP3 SWAP2 POP POP JUMP JUMPDEST PUSH0 DUP2 SWAP1 POP SWAP2 SWAP1 POP JUMP JUMPDEST PUSH2 0x28A DUP2 PUSH2 0x278 JUMP JUMPDEST DUP2 EQ PUSH2 0x294 JUMPI PUSH0 DUP1 REVERT JUMPDEST POP JUMP JUMPDEST PUSH0 DUP2 MLOAD SWAP1 POP PUSH2 0x2A5 DUP2 PUSH2 0x281 JUMP JUMPDEST SWAP3 SWAP2 POP POP JUMP JUMPDEST PUSH0 DUP1 PUSH0 DUP1 PUSH1 0x80 DUP6 DUP8 SUB SLT ISZERO PUSH2 0x2C3 JUMPI PUSH2 0x2C2 PUSH2 0x134 JUMP JUMPDEST JUMPDEST PUSH0 DUP6 ADD MLOAD PUSH8 0xFFFFFFFFFFFFFFFF DUP2 GT ISZERO PUSH2 0x2E0 JUMPI PUSH2 0x2DF PUSH2 0x138 JUMP JUMPDEST JUMPDEST PUSH2 0x2EC DUP8 DUP3 DUP9 ADD PUSH2 0x24B JUMP JUMPDEST SWAP5 POP POP PUSH1 0x20 DUP6 ADD MLOAD PUSH8 0xFFFFFFFFFFFFFFFF DUP2 GT ISZERO PUSH2 0x30D JUMPI PUSH2 0x30C PUSH2 0x138 JUMP JUMPDEST JUMPDEST PUSH2 0x319 DUP8 DUP3 DUP9 ADD PUSH2 0x24B JUMP JUMPDEST SWAP4 POP POP PUSH1 0x40 DUP6 ADD MLOAD PUSH8 0xFFFFFFFFFFFFFFFF DUP2 GT ISZERO PUSH2 0x33A JUMPI PUSH2 0x339 PUSH2 0x138 JUMP JUMPDEST JUMPDEST PUSH2 0x346 DUP8 DUP3 DUP9 ADD PUSH2 0x24B JUMP JUMPDEST SWAP3 POP POP PUSH1 0x60 PUSH2 0x357 DUP8 DUP3 DUP9 ADD PUSH2 0x297 JUMP JUMPDEST SWAP2 POP POP SWAP3 SWAP6 SWAP2 SWAP5 POP SWAP3 POP JUMP JUMPDEST PUSH0 DUP2 MLOAD SWAP1 POP SWAP2 SWAP1 POP JUMP JUMPDEST PUSH32 0x4E487B7100000000000000000000000000000000000000000000000000000000 PUSH0 MSTORE PUSH1 0x22 PUSH1 0x4 MSTORE PUSH1 0x24 PUSH0 REVERT JUMPDEST PUSH0 PUSH1 0x2 DUP3 DIV SWAP1 POP PUSH1 0x1 DUP3 AND DUP1 PUSH2 0x3B1 JUMPI PUSH1 0x7F DUP3 AND SWAP2 POP JUMPDEST PUSH1 0x20 DUP3 LT DUP2 SUB PUSH2 0x3C4 JUMPI PUSH2 0x3C3 PUSH2 0x36D JUMP JUMPDEST JUMPDEST POP SWAP2 SWAP1 POP JUMP JUMPDEST PUSH0 DUP2 SWAP1 POP DUP2 PUSH0 MSTORE PUSH1 0x20 PUSH0 KECCAK256 SWAP1 POP SWAP2 SWAP1 POP JUMP JUMPDEST PUSH0 PUSH1 0x20 PUSH1 0x1F DUP4 ADD DIV SWAP1 POP SWAP2 SWAP1 POP JUMP JUMPDEST PUSH0 DUP3 DUP3 SHL SWAP1 POP SWAP3 SWAP2 POP POP JUMP JUMPDEST PUSH0 PUSH1 0x8 DUP4 MUL PUSH2 0x426 PUSH32 0xFFFFFFFFFFFFFFFFFFFFFFFFFFFFFFFFFFFFFFFFFFFFFFFFFFFFFFFFFFFFFFFF DUP3 PUSH2 0x3EB JUMP JUMPDEST PUSH2 0x430 DUP7 DUP4 PUSH2 0x3EB JUMP JUMPDEST SWAP6 POP DUP1 NOT DUP5 AND SWAP4 POP DUP1 DUP7 AND DUP5 OR SWAP3 POP POP POP SWAP4 SWAP3 POP POP POP JUMP JUMPDEST PUSH0 DUP2 SWAP1 POP SWAP2 SWAP1 POP JUMP JUMPDEST PUSH0 PUSH2 0x46B PUSH2 0x466 PUSH2 0x461 DUP5 PUSH2 0x278 JUMP JUMPDEST PUSH2 0x448 JUMP JUMPDEST PUSH2 0x278 JUMP JUMPDEST SWAP1 POP SWAP2 SWAP1 POP JUMP JUMPDEST PUSH0 DUP2 SWAP1 POP SWAP2 SWAP1 POP JUMP JUMPDEST PUSH2 0x484 DUP4 PUSH2 0x451 JUMP JUMPDEST PUSH2 0x498 PUSH2 0x490 DUP3 PUSH2 0x472 JUMP JUMPDEST DUP5 DUP5 SLOAD PUSH2 0x3F7 JUMP JUMPDEST DUP3 SSTORE POP POP POP POP JUMP JUMPDEST PUSH0 SWAP1 JUMP JUMPDEST PUSH2 0x4AC PUSH2 0x4A0 JUMP JUMPDEST PUSH2 0x4B7 DUP2 DUP5 DUP5 PUSH2 0x47B JUMP JUMPDEST POP POP POP JUMP JUMPDEST JUMPDEST DUP2 DUP2 LT ISZERO PUSH2 0x4DA JUMPI PUSH2 0x4CF PUSH0 DUP3 PUSH2 0x4A4 JUMP JUMPDEST PUSH1 0x1 DUP2 ADD SWAP1 POP PUSH2 0x4BD JUMP JUMPDEST POP POP JUMP JUMPDEST PUSH1 0x1F DUP3 GT ISZERO PUSH2 0x51F JUMPI PUSH2 0x4F0 DUP2 PUSH2 0x3CA JUMP JUMPDEST PUSH2 0x4F9 DUP5 PUSH2 0x3DC JUMP JUMPDEST DUP2 ADD PUSH1 0x20 DUP6 LT ISZERO PUSH2 0x508 JUMPI DUP2 SWAP1 POP JUMPDEST PUSH2 0x51C PUSH2 0x514 DUP6 PUSH2 0x3DC JUMP JUMPDEST DUP4 ADD DUP3 PUSH2 0x4BC JUMP JUMPDEST POP POP JUMPDEST POP POP POP JUMP JUMPDEST PUSH0 DUP3 DUP3 SHR SWAP1 POP SWAP3 SWAP2 POP POP JUMP JUMPDEST PUSH0 PUSH2 0x53F PUSH0 NOT DUP5 PUSH1 0x8 MUL PUSH2 0x524 JUMP JUMPDEST NOT DUP1 DUP4 AND SWAP2 POP POP SWAP3 SWAP2 POP POP JUMP JUMPDEST PUSH0 PUSH2 0x557 DUP4 DUP4 PUSH2 0x530 JUMP JUMPDEST SWAP2 POP DUP3 PUSH1 0x2 MUL DUP3 OR SWAP1 POP SWAP3 SWAP2 POP POP JUMP JUMPDEST PUSH2 0x570 DUP3 PUSH2 0x363 JUMP JUMPDEST PUSH8 0xFFFFFFFFFFFFFFFF DUP2 GT ISZERO PUSH2 0x589 JUMPI PUSH2 0x588 PUSH2 0x154 JUMP JUMPDEST JUMPDEST PUSH2 0x593 DUP3 SLOAD PUSH2 0x39A JUMP JUMPDEST PUSH2 0x59E DUP3 DUP3 DUP6 PUSH2 0x4DE JUMP JUMPDEST PUSH0 PUSH1 0x20 SWAP1 POP PUSH1 0x1F DUP4 GT PUSH1 0x1 DUP2 EQ PUSH2 0x5CF JUMPI PUSH0 DUP5 ISZERO PUSH2 0x5BD JUMPI DUP3 DUP8 ADD MLOAD SWAP1 POP JUMPDEST PUSH2 0x5C7 DUP6 DUP3 PUSH2 0x54C JUMP JUMPDEST DUP7 SSTORE POP PUSH2 0x62E JUMP JUMPDEST PUSH1 0x1F NOT DUP5 AND PUSH2 0x5DD DUP7 PUSH2 0x3CA JUMP JUMPDEST PUSH0 JUMPDEST DUP3 DUP2 LT ISZERO PUSH2 0x604 JUMPI DUP5 DUP10 ADD MLOAD DUP3 SSTORE PUSH1 0x1 DUP3 ADD SWAP2 POP PUSH1 0x20 DUP6 ADD SWAP5 POP PUSH1 0x20 DUP2 ADD SWAP1 POP PUSH2 0x5DF JUMP JUMPDEST DUP7 DUP4 LT ISZERO PUSH2 0x621 JUMPI DUP5 DUP10 ADD MLOAD PUSH2 0x61D PUSH1 0x1F DUP10 AND DUP3 PUSH2 0x530 JUMP JUMPDEST DUP4 SSTORE POP JUMPDEST PUSH1 0x1 PUSH1 0x2 DUP9 MUL ADD DUP9 SSTORE POP POP POP JUMPDEST POP POP POP POP POP POP JUMP JUMPDEST PUSH2 0xC35 DUP1 PUSH2 0x643 PUSH0 CODECOPY PUSH0 RETURN INVALID PUSH1 0x80 PUSH1 0x40 MSTORE PUSH1 0x4 CALLDATASIZE LT PUSH2 0x33 JUMPI PUSH0 CALLDATALOAD PUSH1 0xE0 SHR DUP1 PUSH4 0x9073ADB4 EQ PUSH2 0x37 JUMPI DUP1 PUSH4 0xD8288ABA EQ PUSH2 0x41 JUMPI DUP1 PUSH4 0xE8DC41AD EQ PUSH2 0x69 JUMPI JUMPDEST PUSH0 DUP1 REVERT JUMPDEST PUSH2 0x3F PUSH2 0x99 JUMP JUMPDEST STOP JUMPDEST CALLVALUE DUP1 ISZERO PUSH2 0x4C JUMPI PUSH0 DUP1 REVERT JUMPDEST POP PUSH2 0x67 PUSH1 0x4 DUP1 CALLDATASIZE SUB DUP2 ADD SWAP1 PUSH2 0x62 SWAP2 SWAP1 PUSH2 0x6EF JUMP JUMPDEST PUSH2 0x271 JUMP JUMPDEST STOP JUMPDEST CALLVALUE DUP1 ISZERO PUSH2 0x74 JUMPI PUSH0 DUP1 REVERT JUMPDEST POP PUSH2 0x7D PUSH2 0x390 JUMP JUMPDEST PUSH1 0x40 MLOAD PUSH2 0x90 SWAP8 SWAP7 SWAP6 SWAP5 SWAP4 SWAP3 SWAP2 SWAP1 PUSH2 0x7F7 JUMP JUMPDEST PUSH1 0x40 MLOAD DUP1 SWAP2 SUB SWAP1 RETURN JUMPDEST CALLER PUSH20 0xFFFFFFFFFFFFFFFFFFFFFFFFFFFFFFFFFFFFFFFF AND PUSH0 PUSH1 0x3 ADD PUSH0 SWAP1 SLOAD SWAP1 PUSH2 0x100 EXP SWAP1 DIV PUSH20 0xFFFFFFFFFFFFFFFFFFFFFFFFFFFFFFFFFFFFFFFF AND PUSH20 0xFFFFFFFFFFFFFFFFFFFFFFFFFFFFFFFFFFFFFFFF AND SUB PUSH2 0x12A JUMPI PUSH1 0x40 MLOAD PUSH32 0x8C379A000000000000000000000000000000000000000000000000000000000 DUP2 MSTORE PUSH1 0x4 ADD PUSH2 0x121 SWAP1 PUSH2 0x8C3 JUMP JUMPDEST PUSH1 0x40 MLOAD DUP1 SWAP2 SUB SWAP1 REVERT JUMPDEST PUSH1 0x1 PUSH0 PUSH1 0x4 ADD SLOAD SUB PUSH2 0x171 JUMPI PUSH1 0x40 MLOAD PUSH32 0x8C379A000000000000000000000000000000000000000000000000000000000 DUP2 MSTORE PUSH1 0x4 ADD PUSH2 0x168 SWAP1 PUSH2 0x92B JUMP JUMPDEST PUSH1 0x40 MLOAD DUP1 SWAP2 SUB SWAP1 REVERT JUMPDEST PUSH0 CALLVALUE GT PUSH2 0x1B3 JUMPI PUSH1 0x40 MLOAD PUSH32 0x8C379A000000000000000000000000000000000000000000000000000000000 DUP2 MSTORE PUSH1 0x4 ADD PUSH2 0x1AA SWAP1 PUSH2 0x993 JUMP JUMPDEST PUSH1 0x40 MLOAD DUP1 SWAP2 SUB SWAP1 REVERT JUMPDEST PUSH0 PUSH1 0x3 ADD PUSH0 SWAP1 SLOAD SWAP1 PUSH2 0x100 EXP SWAP1 DIV PUSH20 0xFFFFFFFFFFFFFFFFFFFFFFFFFFFFFFFFFFFFFFFF AND PUSH20 0xFFFFFFFFFFFFFFFFFFFFFFFFFFFFFFFFFFFFFFFF AND PUSH2 0x8FC CALLVALUE SWAP1 DUP2 ISZERO MUL SWAP1 PUSH1 0x40 MLOAD PUSH0 PUSH1 0x40 MLOAD DUP1 DUP4 SUB DUP2 DUP6 DUP9 DUP9 CALL SWAP4 POP POP POP POP ISZERO DUP1 ISZERO PUSH2 0x219 JUMPI RETURNDATASIZE PUSH0 DUP1 RETURNDATACOPY RETURNDATASIZE PUSH0 REVERT JUMPDEST POP CALLVALUE PUSH0 PUSH1 0x5 ADD PUSH0 DUP3 DUP3 SLOAD PUSH2 0x22D SWAP2 SWAP1 PUSH2 0x9DE JUMP JUMPDEST SWAP3 POP POP DUP2 SWAP1 SSTORE POP PUSH32 0x601A31682B808E0416479A182F80FD9F081C273ED67C10174341A615756C1E00 PUSH0 DUP1 ADD CALLVALUE PUSH1 0x40 MLOAD PUSH2 0x267 SWAP3 SWAP2 SWAP1 PUSH2 0xB01 JUMP JUMPDEST PUSH1 0x40 MLOAD DUP1 SWAP2 SUB SWAP1 LOG1 JUMP JUMPDEST CALLER PUSH20 0xFFFFFFFFFFFFFFFFFFFFFFFFFFFFFFFFFFFFFFFF AND PUSH0 PUSH1 0x3 ADD PUSH0 SWAP1 SLOAD SWAP1 PUSH2 0x100 EXP SWAP1 DIV PUSH20 0xFFFFFFFFFFFFFFFFFFFFFFFFFFFFFFFFFFFFFFFF AND PUSH20 0xFFFFFFFFFFFFFFFFFFFFFFFFFFFFFFFFFFFFFFFF AND EQ PUSH2 0x302 JUMPI PUSH1 0x40 MLOAD PUSH32 0x8C379A000000000000000000000000000000000000000000000000000000000 DUP2 MSTORE PUSH1 0x4 ADD PUSH2 0x2F9 SWAP1 PUSH2 0xB79 JUMP JUMPDEST PUSH1 0x40 MLOAD DUP1 SWAP2 SUB SWAP1 REVERT JUMPDEST DUP2 PUSH0 PUSH1 0x4 ADD SLOAD SUB PUSH2 0x348 JUMPI PUSH1 0x40 MLOAD PUSH32 0x8C379A000000000000000000000000000000000000000000000000000000000 DUP2 MSTORE PUSH1 0x4 ADD PUSH2 0x33F SWAP1 PUSH2 0xBE1 JUMP JUMPDEST PUSH1 0x40 MLOAD DUP1 SWAP2 SUB SWAP1 REVERT JUMPDEST DUP2 PUSH0 PUSH1 0x4 ADD DUP2 SWAP1 SSTORE POP PUSH32 0xB2BB03151D63A0CB5BBEBE0B19F8DD0E89598D6911F720D1CFCFD085B950548F PUSH0 DUP1 ADD DUP4 PUSH1 0x40 MLOAD PUSH2 0x384 SWAP3 SWAP2 SWAP1 PUSH2 0xB01 JUMP JUMPDEST PUSH1 0x40 MLOAD DUP1 SWAP2 SUB SWAP1 LOG1 POP POP JUMP JUMPDEST PUSH0 DUP1 PUSH0 ADD DUP1 SLOAD PUSH2 0x39F SWAP1 PUSH2 0xA3E JUMP JUMPDEST DUP1 PUSH1 0x1F ADD PUSH1 0x20 DUP1 SWAP2 DIV MUL PUSH1 0x20 ADD PUSH1 0x40 MLOAD SWAP1 DUP2 ADD PUSH1 0x40 MSTORE DUP1 SWAP3 SWAP2 SWAP1 DUP2 DUP2 MSTORE PUSH1 0x20 ADD DUP3 DUP1 SLOAD PUSH2 0x3CB SWAP1 PUSH2 0xA3E JUMP JUMPDEST DUP1 ISZERO PUSH2 0x416 JUMPI DUP1 PUSH1 0x1F LT PUSH2 0x3ED JUMPI PUSH2 0x100 DUP1 DUP4 SLOAD DIV MUL DUP4 MSTORE SWAP2 PUSH1 0x20 ADD SWAP2 PUSH2 0x416 JUMP JUMPDEST DUP3 ADD SWAP2 SWAP1 PUSH0 MSTORE PUSH1 0x20 PUSH0 KECCAK256 SWAP1 JUMPDEST DUP2 SLOAD DUP2 MSTORE SWAP1 PUSH1 0x1 ADD SWAP1 PUSH1 0x20 ADD DUP1 DUP4 GT PUSH2 0x3F9 JUMPI DUP3 SWAP1 SUB PUSH1 0x1F AND DUP3 ADD SWAP2 JUMPDEST POP POP POP POP POP SWAP1 DUP1 PUSH1 0x1 ADD DUP1 SLOAD PUSH2 0x42B SWAP1 PUSH2 0xA3E JUMP JUMPDEST DUP1 PUSH1 0x1F ADD PUSH1 0x20 DUP1 SWAP2 DIV MUL PUSH1 0x20 ADD PUSH1 0x40 MLOAD SWAP1 DUP2 ADD PUSH1 0x40 MSTORE DUP1 SWAP3 SWAP2 SWAP1 DUP2 DUP2 MSTORE PUSH1 0x20 ADD DUP3 DUP1 SLOAD PUSH2 0x457 SWAP1 PUSH2 0xA3E JUMP JUMPDEST DUP1 ISZERO PUSH2 0x4A2 JUMPI DUP1 PUSH1 0x1F LT PUSH2 0x479 JUMPI PUSH2 0x100 DUP1 DUP4 SLOAD DIV MUL DUP4 MSTORE SWAP2 PUSH1 0x20 ADD SWAP2 PUSH2 0x4A2 JUMP JUMPDEST DUP3 ADD SWAP2 SWAP1 PUSH0 MSTORE PUSH1 0x20 PUSH0 KECCAK256 SWAP1 JUMPDEST DUP2 SLOAD DUP2 MSTORE SWAP1 PUSH1 0x1 ADD SWAP1 PUSH1 0x20 ADD DUP1 DUP4 GT PUSH2 0x485 JUMPI DUP3 SWAP1 SUB PUSH1 0x1F AND DUP3 ADD SWAP2 JUMPDEST POP POP POP POP POP SWAP1 DUP1 PUSH1 0x2 ADD DUP1 SLOAD PUSH2 0x4B7 SWAP1 PUSH2 0xA3E JUMP JUMPDEST DUP1 PUSH1 0x1F ADD PUSH1 0x20 DUP1 SWAP2 DIV MUL PUSH1 0x20 ADD PUSH1 0x40 MLOAD SWAP1 DUP2 ADD PUSH1 0x40 MSTORE DUP1 SWAP3 SWAP2 SWAP1 DUP2 DUP2 MSTORE PUSH1 0x20 ADD DUP3 DUP1 SLOAD PUSH2 0x4E3 SWAP1 PUSH2 0xA3E JUMP JUMPDEST DUP1 ISZERO PUSH2 0x52E JUMPI DUP1 PUSH1 0x1F LT PUSH2 0x505 JUMPI PUSH2 0x100 DUP1 DUP4 SLOAD DIV MUL DUP4 MSTORE SWAP2 PUSH1 0x20 ADD SWAP2 PUSH2 0x52E JUMP JUMPDEST DUP3 ADD SWAP2 SWAP1 PUSH0 MSTORE PUSH1 0x20 PUSH0 KECCAK256 SWAP1 JUMPDEST DUP2 SLOAD DUP2 MSTORE SWAP1 PUSH1 0x1 ADD SWAP1 PUSH1 0x20 ADD DUP1 DUP4 GT PUSH2 0x511 JUMPI DUP3 SWAP1 SUB PUSH1 0x1F AND DUP3 ADD SWAP2 JUMPDEST POP POP POP POP POP SWAP1 DUP1 PUSH1 0x3 ADD PUSH0 SWAP1 SLOAD SWAP1 PUSH2 0x100 EXP SWAP1 DIV PUSH20 0xFFFFFFFFFFFFFFFFFFFFFFFFFFFFFFFFFFFFFFFF AND SWAP1 DUP1 PUSH1 0x4 ADD SLOAD SWAP1 DUP1 PUSH1 0x5 ADD SLOAD SWAP1 DUP1 PUSH1 0x6 ADD SLOAD SWAP1 POP DUP8 JUMP JUMPDEST PUSH0 PUSH1 0x40 MLOAD SWAP1 POP SWAP1 JUMP JUMPDEST PUSH0 DUP1 REVERT JUMPDEST PUSH0 DUP1 REVERT JUMPDEST PUSH0 DUP2 SWAP1 POP SWAP2 SWAP1 POP JUMP JUMPDEST PUSH2 0x592 DUP2 PUSH2 0x580 JUMP JUMPDEST DUP2 EQ PUSH2 0x59C JUMPI PUSH0 DUP1 REVERT JUMPDEST POP JUMP JUMPDEST PUSH0 DUP2 CALLDATALOAD SWAP1 POP PUSH2 0x5AD DUP2 PUSH2 0x589 JUMP JUMPDEST SWAP3 SWAP2 POP POP JUMP JUMPDEST PUSH0 DUP1 REVERT JUMPDEST PUSH0 DUP1 REVERT JUMPDEST PUSH0 PUSH1 0x1F NOT PUSH1 0x1F DUP4 ADD AND SWAP1 POP SWAP2 SWAP1 POP JUMP JUMPDEST PUSH32 0x4E487B7100000000000000000000000000000000000000000000000000000000 PUSH0 MSTORE PUSH1 0x41 PUSH1 0x4 MSTORE PUSH1 0x24 PUSH0 REVERT JUMPDEST PUSH2 0x601 DUP3 PUSH2 0x5BB JUMP JUMPDEST DUP2 ADD DUP2 DUP2 LT PUSH8 0xFFFFFFFFFFFFFFFF DUP3 GT OR ISZERO PUSH2 0x620 JUMPI PUSH2 0x61F PUSH2 0x5CB JUMP JUMPDEST JUMPDEST DUP1 PUSH1 0x40 MSTORE POP POP POP JUMP JUMPDEST PUSH0 PUSH2 0x632 PUSH2 0x56F JUMP JUMPDEST SWAP1 POP PUSH2 0x63E DUP3 DUP3 PUSH2 0x5F8 JUMP JUMPDEST SWAP2 SWAP1 POP JUMP JUMPDEST PUSH0 PUSH8 0xFFFFFFFFFFFFFFFF DUP3 GT ISZERO PUSH2 0x65D JUMPI PUSH2 0x65C PUSH2 0x5CB JUMP JUMPDEST JUMPDEST PUSH2 0x666 DUP3 PUSH2 0x5BB JUMP JUMPDEST SWAP1 POP PUSH1 0x20 DUP2 ADD SWAP1 POP SWAP2 SWAP1 POP JUMP JUMPDEST DUP3 DUP2 DUP4 CALLDATACOPY PUSH0 DUP4 DUP4 ADD MSTORE POP POP POP JUMP JUMPDEST PUSH0 PUSH2 0x693 PUSH2 0x68E DUP5 PUSH2 0x643 JUMP JUMPDEST PUSH2 0x629 JUMP JUMPDEST SWAP1 POP DUP3 DUP2 MSTORE PUSH1 0x20 DUP2 ADD DUP5 DUP5 DUP5 ADD GT ISZERO PUSH2 0x6AF JUMPI PUSH2 0x6AE PUSH2 0x5B7 JUMP JUMPDEST JUMPDEST PUSH2 0x6BA DUP5 DUP3 DUP6 PUSH2 0x673 JUMP JUMPDEST POP SWAP4 SWAP3 POP POP POP JUMP JUMPDEST PUSH0 DUP3 PUSH1 0x1F DUP4 ADD SLT PUSH2 0x6D6 JUMPI PUSH2 0x6D5 PUSH2 0x5B3 JUMP JUMPDEST JUMPDEST DUP2 CALLDATALOAD PUSH2 0x6E6 DUP5 DUP3 PUSH1 0x20 DUP7 ADD PUSH2 0x681 JUMP JUMPDEST SWAP2 POP POP SWAP3 SWAP2 POP POP JUMP JUMPDEST PUSH0 DUP1 PUSH1 0x40 DUP4 DUP6 SUB SLT ISZERO PUSH2 0x705 JUMPI PUSH2 0x704 PUSH2 0x578 JUMP JUMPDEST JUMPDEST PUSH0 PUSH2 0x712 DUP6 DUP3 DUP7 ADD PUSH2 0x59F JUMP JUMPDEST SWAP3 POP POP PUSH1 0x20 DUP4 ADD CALLDATALOAD PUSH8 0xFFFFFFFFFFFFFFFF DUP2 GT ISZERO PUSH2 0x733 JUMPI PUSH2 0x732 PUSH2 0x57C JUMP JUMPDEST JUMPDEST PUSH2 0x73F DUP6 DUP3 DUP7 ADD PUSH2 0x6C2 JUMP JUMPDEST SWAP2 POP POP SWAP3 POP SWAP3 SWAP1 POP JUMP JUMPDEST PUSH0 DUP2 MLOAD SWAP1 POP SWAP2 SWAP1 POP JUMP JUMPDEST PUSH0 DUP3 DUP3 MSTORE PUSH1 0x20 DUP3 ADD SWAP1 POP SWAP3 SWAP2 POP POP JUMP JUMPDEST DUP3 DUP2 DUP4 MCOPY PUSH0 DUP4 DUP4 ADD MSTORE POP POP POP JUMP JUMPDEST PUSH0 PUSH2 0x77B DUP3 PUSH2 0x749 JUMP JUMPDEST PUSH2 0x785 DUP2 DUP6 PUSH2 0x753 JUMP JUMPDEST SWAP4 POP PUSH2 0x795 DUP2 DUP6 PUSH1 0x20 DUP7 ADD PUSH2 0x763 JUMP JUMPDEST PUSH2 0x79E DUP2 PUSH2 0x5BB JUMP JUMPDEST DUP5 ADD SWAP2 POP POP SWAP3 SWAP2 POP POP JUMP JUMPDEST PUSH0 PUSH20 0xFFFFFFFFFFFFFFFFFFFFFFFFFFFFFFFFFFFFFFFF DUP3 AND SWAP1 POP SWAP2 SWAP1 POP JUMP JUMPDEST PUSH0 PUSH2 0x7D2 DUP3 PUSH2 0x7A9 JUMP JUMPDEST SWAP1 POP SWAP2 SWAP1 POP JUMP JUMPDEST PUSH2 0x7E2 DUP2 PUSH2 0x7C8 JUMP JUMPDEST DUP3 MSTORE POP POP JUMP JUMPDEST PUSH2 0x7F1 DUP2 PUSH2 0x580 JUMP JUMPDEST DUP3 MSTORE POP POP JUMP JUMPDEST PUSH0 PUSH1 0xE0 DUP3 ADD SWAP1 POP DUP2 DUP2 SUB PUSH0 DUP4 ADD MSTORE PUSH2 0x80F DUP2 DUP11 PUSH2 0x771 JUMP JUMPDEST SWAP1 POP DUP2 DUP2 SUB PUSH1 0x20 DUP4 ADD MSTORE PUSH2 0x823 DUP2 DUP10 PUSH2 0x771 JUMP JUMPDEST SWAP1 POP DUP2 DUP2 SUB PUSH1 0x40 DUP4 ADD MSTORE PUSH2 0x837 DUP2 DUP9 PUSH2 0x771 JUMP JUMPDEST SWAP1 POP PUSH2 0x846 PUSH1 0x60 DUP4 ADD DUP8 PUSH2 0x7D9 JUMP JUMPDEST PUSH2 0x853 PUSH1 0x80 DUP4 ADD DUP7 PUSH2 0x7E8 JUMP JUMPDEST PUSH2 0x860 PUSH1 0xA0 DUP4 ADD DUP6 PUSH2 0x7E8 JUMP JUMPDEST PUSH2 0x86D PUSH1 0xC0 DUP4 ADD DUP5 PUSH2 0x7E8 JUMP JUMPDEST SWAP9 SWAP8 POP POP POP POP POP POP POP POP JUMP JUMPDEST PUSH32 0x4173204F776E65722063616E27742066756E64207572206163636F756E740000 PUSH0 DUP3 ADD MSTORE POP JUMP JUMPDEST PUSH0 PUSH2 0x8AD PUSH1 0x1E DUP4 PUSH2 0x753 JUMP JUMPDEST SWAP2 POP PUSH2 0x8B8 DUP3 PUSH2 0x879 JUMP JUMPDEST PUSH1 0x20 DUP3 ADD SWAP1 POP SWAP2 SWAP1 POP JUMP JUMPDEST PUSH0 PUSH1 0x20 DUP3 ADD SWAP1 POP DUP2 DUP2 SUB PUSH0 DUP4 ADD MSTORE PUSH2 0x8DA DUP2 PUSH2 0x8A1 JUMP JUMPDEST SWAP1 POP SWAP2 SWAP1 POP JUMP JUMPDEST PUSH32 0x54652070726F6A6563742063616E74207265636976652066756E647300000000 PUSH0 DUP3 ADD MSTORE POP JUMP JUMPDEST PUSH0 PUSH2 0x915 PUSH1 0x1C DUP4 PUSH2 0x753 JUMP JUMPDEST SWAP2 POP PUSH2 0x920 DUP3 PUSH2 0x8E1 JUMP JUMPDEST PUSH1 0x20 DUP3 ADD SWAP1 POP SWAP2 SWAP1 POP JUMP JUMPDEST PUSH0 PUSH1 0x20 DUP3 ADD SWAP1 POP DUP2 DUP2 SUB PUSH0 DUP4 ADD MSTORE PUSH2 0x942 DUP2 PUSH2 0x909 JUMP JUMPDEST SWAP1 POP SWAP2 SWAP1 POP JUMP JUMPDEST PUSH32 0x46756E642076616C7565206D757374206265206D6F7265207468616E20300000 PUSH0 DUP3 ADD MSTORE POP JUMP JUMPDEST PUSH0 PUSH2 0x97D PUSH1 0x1E DUP4 PUSH2 0x753 JUMP JUMPDEST SWAP2 POP PUSH2 0x988 DUP3 PUSH2 0x949 JUMP JUMPDEST PUSH1 0x20 DUP3 ADD SWAP1 POP SWAP2 SWAP1 POP JUMP JUMPDEST PUSH0 PUSH1 0x20 DUP3 ADD SWAP1 POP DUP2 DUP2 SUB PUSH0 DUP4 ADD MSTORE PUSH2 0x9AA DUP2 PUSH2 0x971 JUMP JUMPDEST SWAP1 POP SWAP2 SWAP1 POP JUMP JUMPDEST PUSH32 0x4E487B7100000000000000000000000000000000000000000000000000000000 PUSH0 MSTORE PUSH1 0x11 PUSH1 0x4 MSTORE PUSH1 0x24 PUSH0 REVERT JUMPDEST PUSH0 PUSH2 0x9E8 DUP3 PUSH2 0x580 JUMP JUMPDEST SWAP2 POP PUSH2 0x9F3 DUP4 PUSH2 0x580 JUMP JUMPDEST SWAP3 POP DUP3 DUP3 ADD SWAP1 POP DUP1 DUP3 GT ISZERO PUSH2 0xA0B JUMPI PUSH2 0xA0A PUSH2 0x9B1 JUMP JUMPDEST JUMPDEST SWAP3 SWAP2 POP POP JUMP JUMPDEST PUSH32 0x4E487B7100000000000000000000000000000000000000000000000000000000 PUSH0 MSTORE PUSH1 0x22 PUSH1 0x4 MSTORE PUSH1 0x24 PUSH0 REVERT JUMPDEST PUSH0 PUSH1 0x2 DUP3 DIV SWAP1 POP PUSH1 0x1 DUP3 AND DUP1 PUSH2 0xA55 JUMPI PUSH1 0x7F DUP3 AND SWAP2 POP JUMPDEST PUSH1 0x20 DUP3 LT DUP2 SUB PUSH2 0xA68 JUMPI PUSH2 0xA67 PUSH2 0xA11 JUMP JUMPDEST JUMPDEST POP SWAP2 SWAP1 POP JUMP JUMPDEST PUSH0 DUP2 SWAP1 POP DUP2 PUSH0 MSTORE PUSH1 0x20 PUSH0 KECCAK256 SWAP1 POP SWAP2 SWAP1 POP JUMP JUMPDEST PUSH0 DUP2 SLOAD PUSH2 0xA8C DUP2 PUSH2 0xA3E JUMP JUMPDEST PUSH2 0xA96 DUP2 DUP7 PUSH2 0x753 JUMP JUMPDEST SWAP5 POP PUSH1 0x1 DUP3 AND PUSH0 DUP2 EQ PUSH2 0xAB0 JUMPI PUSH1 0x1 DUP2 EQ PUSH2 0xAC6 JUMPI PUSH2 0xAF8 JUMP JUMPDEST PUSH1 0xFF NOT DUP4 AND DUP7 MSTORE DUP2 ISZERO ISZERO PUSH1 0x20 MUL DUP7 ADD SWAP4 POP PUSH2 0xAF8 JUMP JUMPDEST PUSH2 0xACF DUP6 PUSH2 0xA6E JUMP JUMPDEST PUSH0 JUMPDEST DUP4 DUP2 LT ISZERO PUSH2 0xAF0 JUMPI DUP2 SLOAD DUP2 DUP10 ADD MSTORE PUSH1 0x1 DUP3 ADD SWAP2 POP PUSH1 0x20 DUP2 ADD SWAP1 POP PUSH2 0xAD1 JUMP JUMPDEST DUP1 DUP9 ADD SWAP6 POP POP POP JUMPDEST POP POP POP SWAP3 SWAP2 POP POP JUMP JUMPDEST PUSH0 PUSH1 0x40 DUP3 ADD SWAP1 POP DUP2 DUP2 SUB PUSH0 DUP4 ADD MSTORE PUSH2 0xB19 DUP2 DUP6 PUSH2 0xA80 JUMP JUMPDEST SWAP1 POP PUSH2 0xB28 PUSH1 0x20 DUP4 ADD DUP5 PUSH2 0x7E8 JUMP JUMPDEST SWAP4 SWAP3 POP POP POP JUMP JUMPDEST PUSH32 0x4F6E6C79206F776E65722063616E206368616E67652074686520737461746500 PUSH0 DUP3 ADD MSTORE POP JUMP JUMPDEST PUSH0 PUSH2 0xB63 PUSH1 0x1F DUP4 PUSH2 0x753 JUMP JUMPDEST SWAP2 POP PUSH2 0xB6E DUP3 PUSH2 0xB2F JUMP JUMPDEST PUSH1 0x20 DUP3 ADD SWAP1 POP SWAP2 SWAP1 POP JUMP JUMPDEST PUSH0 PUSH1 0x20 DUP3 ADD SWAP1 POP DUP2 DUP2 SUB PUSH0 DUP4 ADD MSTORE PUSH2 0xB90 DUP2 PUSH2 0xB57 JUMP JUMPDEST SWAP1 POP SWAP2 SWAP1 POP JUMP JUMPDEST PUSH32 0x4E6577207374617465206D75737420626520646966666572656E740000000000 PUSH0 DUP3 ADD MSTORE POP JUMP JUMPDEST PUSH0 PUSH2 0xBCB PUSH1 0x1B DUP4 PUSH2 0x753 JUMP JUMPDEST SWAP2 POP PUSH2 0xBD6 DUP3 PUSH2 0xB97 JUMP JUMPDEST PUSH1 0x20 DUP3 ADD SWAP1 POP SWAP2 SWAP1 POP JUMP JUMPDEST PUSH0 PUSH1 0x20 DUP3 ADD SWAP1 POP DUP2 DUP2 SUB PUSH0 DUP4 ADD MSTORE PUSH2 0xBF8 DUP2 PUSH2 0xBBF JUMP JUMPDEST SWAP1 POP SWAP2 SWAP1 POP JUMP INVALID LOG2 PUSH5 0x6970667358 0x22 SLT KECCAK256 0xBA ORIGIN 0x28 0xF 0xA6 0xC3 0xF ADDMOD TIMESTAMP STATICCALL 0xF6 COINBASE 0xE6 DUP8 OR 0xD9 0xC0 ADDRESS 0xB2 MLOAD EXP CALLDATASIZE CALLCODE 0xE5 SUB CALLDATALOAD STATICCALL 0xD1 SLOAD 0xCE 0xC3 0xD0 PUSH5 0x736F6C6343 STOP ADDMOD NOT STOP CALLER "
				},
				"gasEstimates": {
					"creation": {
						"codeDepositCost": "625000",
						"executionCost": "infinite",
						"totalCost": "infinite"
					},
					"external": {
						"FundProject()": "infinite",
						"changeProjectState(uint256,string)": "infinite",
						"crowfunding()": "infinite"
					}
				},
				"methodIdentifiers": {
					"FundProject()": "9073adb4",
					"changeProjectState(uint256,string)": "d8288aba",
					"crowfunding()": "e8dc41ad"
				}
			},
			"storageLayout": {
				"storage": [
					{
						"astId": 19,
						"contract": "contracts/Homework5.sol:Homework",
						"label": "crowfunding",
						"offset": 0,
						"slot": "0",
						"type": "t_struct(Crowfunding)16_storage"
					}
				],
				"types": {
					"t_address_payable": {
						"encoding": "inplace",
						"label": "address payable",
						"numberOfBytes": "20"
					},
					"t_string_storage": {
						"encoding": "bytes",
						"label": "string",
						"numberOfBytes": "32"
					},
					"t_struct(Crowfunding)16_storage": {
						"encoding": "inplace",
						"label": "struct Homework.Crowfunding",
						"members": [
							{
								"astId": 3,
								"contract": "contracts/Homework5.sol:Homework",
								"label": "id",
								"offset": 0,
								"slot": "0",
								"type": "t_string_storage"
							},
							{
								"astId": 5,
								"contract": "contracts/Homework5.sol:Homework",
								"label": "name",
								"offset": 0,
								"slot": "1",
								"type": "t_string_storage"
							},
							{
								"astId": 7,
								"contract": "contracts/Homework5.sol:Homework",
								"label": "description",
								"offset": 0,
								"slot": "2",
								"type": "t_string_storage"
							},
							{
								"astId": 9,
								"contract": "contracts/Homework5.sol:Homework",
								"label": "owner",
								"offset": 0,
								"slot": "3",
								"type": "t_address_payable"
							},
							{
								"astId": 11,
								"contract": "contracts/Homework5.sol:Homework",
								"label": "state",
								"offset": 0,
								"slot": "4",
								"type": "t_uint256"
							},
							{
								"astId": 13,
								"contract": "contracts/Homework5.sol:Homework",
								"label": "fund",
								"offset": 0,
								"slot": "5",
								"type": "t_uint256"
							},
							{
								"astId": 15,
								"contract": "contracts/Homework5.sol:Homework",
								"label": "fundrasingGoal",
								"offset": 0,
								"slot": "6",
								"type": "t_uint256"
							}
						],
						"numberOfBytes": "224"
					},
					"t_uint256": {
						"encoding": "inplace",
						"label": "uint256",
						"numberOfBytes": "32"
					}
				}
			},
			"userdoc": {
				"kind": "user",
				"methods": {},
				"version": 1
			}
		}
	}
}