{
	"contracts/Homework6.sol": {
		"Homework": {
			"abi": [
				{
					"inputs": [
						{
							"internalType": "string",
							"name": "_id",
							"type": "string"
						},
						{
							"internalType": "string",
							"name": "_name",
							"type": "string"
						},
						{
							"internalType": "string",
							"name": "_description",
							"type": "string"
						},
						{
							"internalType": "uint256",
							"name": "_fundrasingGoal",
							"type": "uint256"
						}
					],
					"stateMutability": "nonpayable",
					"type": "constructor"
				},
				{
					"anonymous": false,
					"inputs": [
						{
							"indexed": false,
							"internalType": "string",
							"name": "Id",
							"type": "string"
						},
						{
							"indexed": false,
							"internalType": "enum Homework.StateFun",
							"name": "Estado",
							"type": "uint8"
						}
					],
					"name": "CProject",
					"type": "event"
				},
				{
					"anonymous": false,
					"inputs": [
						{
							"indexed": false,
							"internalType": "string",
							"name": "ProjectId",
							"type": "string"
						},
						{
							"indexed": false,
							"internalType": "uint256",
							"name": "valor",
							"type": "uint256"
						}
					],
					"name": "FProject",
					"type": "event"
				},
				{
					"inputs": [],
					"name": "FundProject",
					"outputs": [],
					"stateMutability": "payable",
					"type": "function"
				},
				{
					"inputs": [
						{
							"internalType": "enum Homework.StateFun",
							"name": "newState",
							"type": "uint8"
						},
						{
							"internalType": "string",
							"name": "",
							"type": "string"
						}
					],
					"name": "changeProjectState",
					"outputs": [],
					"stateMutability": "nonpayable",
					"type": "function"
				},
				{
					"inputs": [],
					"name": "crowfunding",
					"outputs": [
						{
							"internalType": "string",
							"name": "id",
							"type": "string"
						},
						{
							"internalType": "string",
							"name": "name",
							"type": "string"
						},
						{
							"internalType": "string",
							"name": "description",
							"type": "string"
						},
						{
							"internalType": "address payable",
							"name": "owner",
							"type": "address"
						},
						{
							"internalType": "enum Homework.StateFun",
							"name": "state",
							"type": "uint8"
						},
						{
							"internalType": "uint256",
							"name": "fund",
							"type": "uint256"
						},
						{
							"internalType": "uint256",
							"name": "fundrasingGoal",
							"type": "uint256"
						}
					],
					"stateMutability": "view",
					"type": "function"
				}
			],
			"devdoc": {
				"kind": "dev",
				"methods": {},
				"version": 1
			},
			"evm": {
				"assembly": "    /* \"contracts/Homework6.sol\":74:1763  contract Homework {... */\n  mstore(0x40, 0x80)\n    /* \"contracts/Homework6.sol\":502:732  constructor (string memory _id, string memory _name, string memory _description, uint _fundrasingGoal){... */\n  callvalue\n  dup1\n  iszero\n  tag_1\n  jumpi\n  0x00\n  dup1\n  revert\ntag_1:\n  pop\n  mload(0x40)\n  sub(codesize, bytecodeSize)\n  dup1\n  bytecodeSize\n  dup4\n  codecopy\n  dup2\n  dup2\n  add\n  0x40\n  mstore\n  dup2\n  add\n  swap1\n  tag_2\n  swap2\n  swap1\n  tag_3\n  jump\t// in\ntag_2:\n    /* \"contracts/Homework6.sol\":629:724  Crowfunding(_id, _name, _description, payable(msg.sender), StateFun.Opened, 0, _fundrasingGoal) */\n  mload(0x40)\n  dup1\n  0xe0\n  add\n  0x40\n  mstore\n  dup1\n    /* \"contracts/Homework6.sol\":641:644  _id */\n  dup6\n    /* \"contracts/Homework6.sol\":629:724  Crowfunding(_id, _name, _description, payable(msg.sender), StateFun.Opened, 0, _fundrasingGoal) */\n  dup2\n  mstore\n  0x20\n  add\n    /* \"contracts/Homework6.sol\":646:651  _name */\n  dup5\n    /* \"contracts/Homework6.sol\":629:724  Crowfunding(_id, _name, _description, payable(msg.sender), StateFun.Opened, 0, _fundrasingGoal) */\n  dup2\n  mstore\n  0x20\n  add\n    /* \"contracts/Homework6.sol\":653:665  _description */\n  dup4\n    /* \"contracts/Homework6.sol\":629:724  Crowfunding(_id, _name, _description, payable(msg.sender), StateFun.Opened, 0, _fundrasingGoal) */\n  dup2\n  mstore\n  0x20\n  add\n    /* \"contracts/Homework6.sol\":675:685  msg.sender */\n  caller\n    /* \"contracts/Homework6.sol\":629:724  Crowfunding(_id, _name, _description, payable(msg.sender), StateFun.Opened, 0, _fundrasingGoal) */\n  0xffffffffffffffffffffffffffffffffffffffff\n  and\n  dup2\n  mstore\n  0x20\n  add\n    /* \"contracts/Homework6.sol\":688:703  StateFun.Opened */\n  0x00\n    /* \"contracts/Homework6.sol\":629:724  Crowfunding(_id, _name, _description, payable(msg.sender), StateFun.Opened, 0, _fundrasingGoal) */\n  0x01\n  dup2\n  gt\n  iszero\n  tag_6\n  jumpi\n  tag_7\n  tag_8\n  jump\t// in\ntag_7:\ntag_6:\n  dup2\n  mstore\n  0x20\n  add\n    /* \"contracts/Homework6.sol\":705:706  0 */\n  0x00\n    /* \"contracts/Homework6.sol\":629:724  Crowfunding(_id, _name, _description, payable(msg.sender), StateFun.Opened, 0, _fundrasingGoal) */\n  dup2\n  mstore\n  0x20\n  add\n    /* \"contracts/Homework6.sol\":708:723  _fundrasingGoal */\n  dup3\n    /* \"contracts/Homework6.sol\":629:724  Crowfunding(_id, _name, _description, payable(msg.sender), StateFun.Opened, 0, _fundrasingGoal) */\n  dup2\n  mstore\n  pop\n    /* \"contracts/Homework6.sol\":615:626  crowfunding */\n  0x00\n    /* \"contracts/Homework6.sol\":615:724  crowfunding = Crowfunding(_id, _name, _description, payable(msg.sender), StateFun.Opened, 0, _fundrasingGoal) */\n  dup1\n  dup3\n  add\n  mload\n  dup2\n  0x00\n  add\n  swap1\n  dup2\n  tag_9\n  swap2\n  swap1\n  tag_10\n  jump\t// in\ntag_9:\n  pop\n  0x20\n  dup3\n  add\n  mload\n  dup2\n  0x01\n  add\n  swap1\n  dup2\n  tag_11\n  swap2\n  swap1\n  tag_10\n  jump\t// in\ntag_11:\n  pop\n  0x40\n  dup3\n  add\n  mload\n  dup2\n  0x02\n  add\n  swap1\n  dup2\n  tag_12\n  swap2\n  swap1\n  tag_10\n  jump\t// in\ntag_12:\n  pop\n  0x60\n  dup3\n  add\n  mload\n  dup2\n  0x03\n  add\n  exp(0x0100, 0x00)\n  dup2\n  sload\n  dup2\n  0xffffffffffffffffffffffffffffffffffffffff\n  mul\n  not\n  and\n  swap1\n  dup4\n  0xffffffffffffffffffffffffffffffffffffffff\n  and\n  mul\n  or\n  swap1\n  sstore\n  pop\n  0x80\n  dup3\n  add\n  mload\n  dup2\n  0x03\n  add\n  exp(0x0100, 0x14)\n  dup2\n  sload\n  dup2\n  0xff\n  mul\n  not\n  and\n  swap1\n  dup4\n  0x01\n  dup2\n  gt\n  iszero\n  tag_13\n  jumpi\n  tag_14\n  tag_8\n  jump\t// in\ntag_14:\ntag_13:\n  mul\n  or\n  swap1\n  sstore\n  pop\n  0xa0\n  dup3\n  add\n  mload\n  dup2\n  0x04\n  add\n  sstore\n  0xc0\n  dup3\n  add\n  mload\n  dup2\n  0x05\n  add\n  sstore\n  swap1\n  pop\n  pop\n    /* \"contracts/Homework6.sol\":502:732  constructor (string memory _id, string memory _name, string memory _description, uint _fundrasingGoal){... */\n  pop\n  pop\n  pop\n  pop\n    /* \"contracts/Homework6.sol\":74:1763  contract Homework {... */\n  jump(tag_15)\n    /* \"#utility.yul\":7:82   */\ntag_16:\n    /* \"#utility.yul\":40:46   */\n  0x00\n    /* \"#utility.yul\":73:75   */\n  0x40\n    /* \"#utility.yul\":67:76   */\n  mload\n    /* \"#utility.yul\":57:76   */\n  swap1\n  pop\n    /* \"#utility.yul\":7:82   */\n  swap1\n  jump\t// out\n    /* \"#utility.yul\":88:205   */\ntag_17:\n    /* \"#utility.yul\":197:198   */\n  0x00\n    /* \"#utility.yul\":194:195   */\n  dup1\n    /* \"#utility.yul\":187:199   */\n  revert\n    /* \"#utility.yul\":211:328   */\ntag_18:\n    /* \"#utility.yul\":320:321   */\n  0x00\n    /* \"#utility.yul\":317:318   */\n  dup1\n    /* \"#utility.yul\":310:322   */\n  revert\n    /* \"#utility.yul\":334:451   */\ntag_19:\n    /* \"#utility.yul\":443:444   */\n  0x00\n    /* \"#utility.yul\":440:441   */\n  dup1\n    /* \"#utility.yul\":433:445   */\n  revert\n    /* \"#utility.yul\":457:574   */\ntag_20:\n    /* \"#utility.yul\":566:567   */\n  0x00\n    /* \"#utility.yul\":563:564   */\n  dup1\n    /* \"#utility.yul\":556:568   */\n  revert\n    /* \"#utility.yul\":580:682   */\ntag_21:\n    /* \"#utility.yul\":621:627   */\n  0x00\n    /* \"#utility.yul\":672:674   */\n  0x1f\n    /* \"#utility.yul\":668:675   */\n  not\n    /* \"#utility.yul\":663:665   */\n  0x1f\n    /* \"#utility.yul\":656:661   */\n  dup4\n    /* \"#utility.yul\":652:666   */\n  add\n    /* \"#utility.yul\":648:676   */\n  and\n    /* \"#utility.yul\":638:676   */\n  swap1\n  pop\n    /* \"#utility.yul\":580:682   */\n  swap2\n  swap1\n  pop\n  jump\t// out\n    /* \"#utility.yul\":688:868   */\ntag_22:\n    /* \"#utility.yul\":736:813   */\n  0x4e487b7100000000000000000000000000000000000000000000000000000000\n    /* \"#utility.yul\":733:734   */\n  0x00\n    /* \"#utility.yul\":726:814   */\n  mstore\n    /* \"#utility.yul\":833:837   */\n  0x41\n    /* \"#utility.yul\":830:831   */\n  0x04\n    /* \"#utility.yul\":823:838   */\n  mstore\n    /* \"#utility.yul\":857:861   */\n  0x24\n    /* \"#utility.yul\":854:855   */\n  0x00\n    /* \"#utility.yul\":847:862   */\n  revert\n    /* \"#utility.yul\":874:1155   */\ntag_23:\n    /* \"#utility.yul\":957:984   */\n  tag_59\n    /* \"#utility.yul\":979:983   */\n  dup3\n    /* \"#utility.yul\":957:984   */\n  tag_21\n  jump\t// in\ntag_59:\n    /* \"#utility.yul\":949:955   */\n  dup2\n    /* \"#utility.yul\":945:985   */\n  add\n    /* \"#utility.yul\":1087:1093   */\n  dup2\n    /* \"#utility.yul\":1075:1085   */\n  dup2\n    /* \"#utility.yul\":1072:1094   */\n  lt\n    /* \"#utility.yul\":1051:1069   */\n  0xffffffffffffffff\n    /* \"#utility.yul\":1039:1049   */\n  dup3\n    /* \"#utility.yul\":1036:1070   */\n  gt\n    /* \"#utility.yul\":1033:1095   */\n  or\n    /* \"#utility.yul\":1030:1118   */\n  iszero\n  tag_60\n  jumpi\n    /* \"#utility.yul\":1098:1116   */\n  tag_61\n  tag_22\n  jump\t// in\ntag_61:\n    /* \"#utility.yul\":1030:1118   */\ntag_60:\n    /* \"#utility.yul\":1138:1148   */\n  dup1\n    /* \"#utility.yul\":1134:1136   */\n  0x40\n    /* \"#utility.yul\":1127:1149   */\n  mstore\n    /* \"#utility.yul\":917:1155   */\n  pop\n    /* \"#utility.yul\":874:1155   */\n  pop\n  pop\n  jump\t// out\n    /* \"#utility.yul\":1161:1290   */\ntag_24:\n    /* \"#utility.yul\":1195:1201   */\n  0x00\n    /* \"#utility.yul\":1222:1242   */\n  tag_63\n  tag_16\n  jump\t// in\ntag_63:\n    /* \"#utility.yul\":1212:1242   */\n  swap1\n  pop\n    /* \"#utility.yul\":1251:1284   */\n  tag_64\n    /* \"#utility.yul\":1279:1283   */\n  dup3\n    /* \"#utility.yul\":1271:1277   */\n  dup3\n    /* \"#utility.yul\":1251:1284   */\n  tag_23\n  jump\t// in\ntag_64:\n    /* \"#utility.yul\":1161:1290   */\n  swap2\n  swap1\n  pop\n  jump\t// out\n    /* \"#utility.yul\":1296:1604   */\ntag_25:\n    /* \"#utility.yul\":1358:1362   */\n  0x00\n    /* \"#utility.yul\":1448:1466   */\n  0xffffffffffffffff\n    /* \"#utility.yul\":1440:1446   */\n  dup3\n    /* \"#utility.yul\":1437:1467   */\n  gt\n    /* \"#utility.yul\":1434:1490   */\n  iszero\n  tag_66\n  jumpi\n    /* \"#utility.yul\":1470:1488   */\n  tag_67\n  tag_22\n  jump\t// in\ntag_67:\n    /* \"#utility.yul\":1434:1490   */\ntag_66:\n    /* \"#utility.yul\":1508:1537   */\n  tag_68\n    /* \"#utility.yul\":1530:1536   */\n  dup3\n    /* \"#utility.yul\":1508:1537   */\n  tag_21\n  jump\t// in\ntag_68:\n    /* \"#utility.yul\":1500:1537   */\n  swap1\n  pop\n    /* \"#utility.yul\":1592:1596   */\n  0x20\n    /* \"#utility.yul\":1586:1590   */\n  dup2\n    /* \"#utility.yul\":1582:1597   */\n  add\n    /* \"#utility.yul\":1574:1597   */\n  swap1\n  pop\n    /* \"#utility.yul\":1296:1604   */\n  swap2\n  swap1\n  pop\n  jump\t// out\n    /* \"#utility.yul\":1610:1749   */\ntag_26:\n    /* \"#utility.yul\":1699:1705   */\n  dup3\n    /* \"#utility.yul\":1694:1697   */\n  dup2\n    /* \"#utility.yul\":1689:1692   */\n  dup4\n    /* \"#utility.yul\":1683:1706   */\n  mcopy\n    /* \"#utility.yul\":1740:1741   */\n  0x00\n    /* \"#utility.yul\":1731:1737   */\n  dup4\n    /* \"#utility.yul\":1726:1729   */\n  dup4\n    /* \"#utility.yul\":1722:1738   */\n  add\n    /* \"#utility.yul\":1715:1742   */\n  mstore\n    /* \"#utility.yul\":1610:1749   */\n  pop\n  pop\n  pop\n  jump\t// out\n    /* \"#utility.yul\":1755:2189   */\ntag_27:\n    /* \"#utility.yul\":1844:1849   */\n  0x00\n    /* \"#utility.yul\":1869:1935   */\n  tag_71\n    /* \"#utility.yul\":1885:1934   */\n  tag_72\n    /* \"#utility.yul\":1927:1933   */\n  dup5\n    /* \"#utility.yul\":1885:1934   */\n  tag_25\n  jump\t// in\ntag_72:\n    /* \"#utility.yul\":1869:1935   */\n  tag_24\n  jump\t// in\ntag_71:\n    /* \"#utility.yul\":1860:1935   */\n  swap1\n  pop\n    /* \"#utility.yul\":1958:1964   */\n  dup3\n    /* \"#utility.yul\":1951:1956   */\n  dup2\n    /* \"#utility.yul\":1944:1965   */\n  mstore\n    /* \"#utility.yul\":1996:2000   */\n  0x20\n    /* \"#utility.yul\":1989:1994   */\n  dup2\n    /* \"#utility.yul\":1985:2001   */\n  add\n    /* \"#utility.yul\":2034:2037   */\n  dup5\n    /* \"#utility.yul\":2025:2031   */\n  dup5\n    /* \"#utility.yul\":2020:2023   */\n  dup5\n    /* \"#utility.yul\":2016:2032   */\n  add\n    /* \"#utility.yul\":2013:2038   */\n  gt\n    /* \"#utility.yul\":2010:2122   */\n  iszero\n  tag_73\n  jumpi\n    /* \"#utility.yul\":2041:2120   */\n  tag_74\n  tag_20\n  jump\t// in\ntag_74:\n    /* \"#utility.yul\":2010:2122   */\ntag_73:\n    /* \"#utility.yul\":2131:2183   */\n  tag_75\n    /* \"#utility.yul\":2176:2182   */\n  dup5\n    /* \"#utility.yul\":2171:2174   */\n  dup3\n    /* \"#utility.yul\":2166:2169   */\n  dup6\n    /* \"#utility.yul\":2131:2183   */\n  tag_26\n  jump\t// in\ntag_75:\n    /* \"#utility.yul\":1850:2189   */\n  pop\n    /* \"#utility.yul\":1755:2189   */\n  swap4\n  swap3\n  pop\n  pop\n  pop\n  jump\t// out\n    /* \"#utility.yul\":2209:2564   */\ntag_28:\n    /* \"#utility.yul\":2276:2281   */\n  0x00\n    /* \"#utility.yul\":2325:2328   */\n  dup3\n    /* \"#utility.yul\":2318:2322   */\n  0x1f\n    /* \"#utility.yul\":2310:2316   */\n  dup4\n    /* \"#utility.yul\":2306:2323   */\n  add\n    /* \"#utility.yul\":2302:2329   */\n  slt\n    /* \"#utility.yul\":2292:2414   */\n  tag_77\n  jumpi\n    /* \"#utility.yul\":2333:2412   */\n  tag_78\n  tag_19\n  jump\t// in\ntag_78:\n    /* \"#utility.yul\":2292:2414   */\ntag_77:\n    /* \"#utility.yul\":2443:2449   */\n  dup2\n    /* \"#utility.yul\":2437:2450   */\n  mload\n    /* \"#utility.yul\":2468:2558   */\n  tag_79\n    /* \"#utility.yul\":2554:2557   */\n  dup5\n    /* \"#utility.yul\":2546:2552   */\n  dup3\n    /* \"#utility.yul\":2539:2543   */\n  0x20\n    /* \"#utility.yul\":2531:2537   */\n  dup7\n    /* \"#utility.yul\":2527:2544   */\n  add\n    /* \"#utility.yul\":2468:2558   */\n  tag_27\n  jump\t// in\ntag_79:\n    /* \"#utility.yul\":2459:2558   */\n  swap2\n  pop\n    /* \"#utility.yul\":2282:2564   */\n  pop\n    /* \"#utility.yul\":2209:2564   */\n  swap3\n  swap2\n  pop\n  pop\n  jump\t// out\n    /* \"#utility.yul\":2570:2647   */\ntag_29:\n    /* \"#utility.yul\":2607:2614   */\n  0x00\n    /* \"#utility.yul\":2636:2641   */\n  dup2\n    /* \"#utility.yul\":2625:2641   */\n  swap1\n  pop\n    /* \"#utility.yul\":2570:2647   */\n  swap2\n  swap1\n  pop\n  jump\t// out\n    /* \"#utility.yul\":2653:2775   */\ntag_30:\n    /* \"#utility.yul\":2726:2750   */\n  tag_82\n    /* \"#utility.yul\":2744:2749   */\n  dup2\n    /* \"#utility.yul\":2726:2750   */\n  tag_29\n  jump\t// in\ntag_82:\n    /* \"#utility.yul\":2719:2724   */\n  dup2\n    /* \"#utility.yul\":2716:2751   */\n  eq\n    /* \"#utility.yul\":2706:2769   */\n  tag_83\n  jumpi\n    /* \"#utility.yul\":2765:2766   */\n  0x00\n    /* \"#utility.yul\":2762:2763   */\n  dup1\n    /* \"#utility.yul\":2755:2767   */\n  revert\n    /* \"#utility.yul\":2706:2769   */\ntag_83:\n    /* \"#utility.yul\":2653:2775   */\n  pop\n  jump\t// out\n    /* \"#utility.yul\":2781:2924   */\ntag_31:\n    /* \"#utility.yul\":2838:2843   */\n  0x00\n    /* \"#utility.yul\":2869:2875   */\n  dup2\n    /* \"#utility.yul\":2863:2876   */\n  mload\n    /* \"#utility.yul\":2854:2876   */\n  swap1\n  pop\n    /* \"#utility.yul\":2885:2918   */\n  tag_85\n    /* \"#utility.yul\":2912:2917   */\n  dup2\n    /* \"#utility.yul\":2885:2918   */\n  tag_30\n  jump\t// in\ntag_85:\n    /* \"#utility.yul\":2781:2924   */\n  swap3\n  swap2\n  pop\n  pop\n  jump\t// out\n    /* \"#utility.yul\":2930:4269   */\ntag_3:\n    /* \"#utility.yul\":3057:3063   */\n  0x00\n    /* \"#utility.yul\":3065:3071   */\n  dup1\n    /* \"#utility.yul\":3073:3079   */\n  0x00\n    /* \"#utility.yul\":3081:3087   */\n  dup1\n    /* \"#utility.yul\":3130:3133   */\n  0x80\n    /* \"#utility.yul\":3118:3127   */\n  dup6\n    /* \"#utility.yul\":3109:3116   */\n  dup8\n    /* \"#utility.yul\":3105:3128   */\n  sub\n    /* \"#utility.yul\":3101:3134   */\n  slt\n    /* \"#utility.yul\":3098:3218   */\n  iszero\n  tag_87\n  jumpi\n    /* \"#utility.yul\":3137:3216   */\n  tag_88\n  tag_17\n  jump\t// in\ntag_88:\n    /* \"#utility.yul\":3098:3218   */\ntag_87:\n    /* \"#utility.yul\":3278:3279   */\n  0x00\n    /* \"#utility.yul\":3267:3276   */\n  dup6\n    /* \"#utility.yul\":3263:3280   */\n  add\n    /* \"#utility.yul\":3257:3281   */\n  mload\n    /* \"#utility.yul\":3308:3326   */\n  0xffffffffffffffff\n    /* \"#utility.yul\":3300:3306   */\n  dup2\n    /* \"#utility.yul\":3297:3327   */\n  gt\n    /* \"#utility.yul\":3294:3411   */\n  iszero\n  tag_89\n  jumpi\n    /* \"#utility.yul\":3330:3409   */\n  tag_90\n  tag_18\n  jump\t// in\ntag_90:\n    /* \"#utility.yul\":3294:3411   */\ntag_89:\n    /* \"#utility.yul\":3435:3509   */\n  tag_91\n    /* \"#utility.yul\":3501:3508   */\n  dup8\n    /* \"#utility.yul\":3492:3498   */\n  dup3\n    /* \"#utility.yul\":3481:3490   */\n  dup9\n    /* \"#utility.yul\":3477:3499   */\n  add\n    /* \"#utility.yul\":3435:3509   */\n  tag_28\n  jump\t// in\ntag_91:\n    /* \"#utility.yul\":3425:3509   */\n  swap5\n  pop\n    /* \"#utility.yul\":3228:3519   */\n  pop\n    /* \"#utility.yul\":3579:3581   */\n  0x20\n    /* \"#utility.yul\":3568:3577   */\n  dup6\n    /* \"#utility.yul\":3564:3582   */\n  add\n    /* \"#utility.yul\":3558:3583   */\n  mload\n    /* \"#utility.yul\":3610:3628   */\n  0xffffffffffffffff\n    /* \"#utility.yul\":3602:3608   */\n  dup2\n    /* \"#utility.yul\":3599:3629   */\n  gt\n    /* \"#utility.yul\":3596:3713   */\n  iszero\n  tag_92\n  jumpi\n    /* \"#utility.yul\":3632:3711   */\n  tag_93\n  tag_18\n  jump\t// in\ntag_93:\n    /* \"#utility.yul\":3596:3713   */\ntag_92:\n    /* \"#utility.yul\":3737:3811   */\n  tag_94\n    /* \"#utility.yul\":3803:3810   */\n  dup8\n    /* \"#utility.yul\":3794:3800   */\n  dup3\n    /* \"#utility.yul\":3783:3792   */\n  dup9\n    /* \"#utility.yul\":3779:3801   */\n  add\n    /* \"#utility.yul\":3737:3811   */\n  tag_28\n  jump\t// in\ntag_94:\n    /* \"#utility.yul\":3727:3811   */\n  swap4\n  pop\n    /* \"#utility.yul\":3529:3821   */\n  pop\n    /* \"#utility.yul\":3881:3883   */\n  0x40\n    /* \"#utility.yul\":3870:3879   */\n  dup6\n    /* \"#utility.yul\":3866:3884   */\n  add\n    /* \"#utility.yul\":3860:3885   */\n  mload\n    /* \"#utility.yul\":3912:3930   */\n  0xffffffffffffffff\n    /* \"#utility.yul\":3904:3910   */\n  dup2\n    /* \"#utility.yul\":3901:3931   */\n  gt\n    /* \"#utility.yul\":3898:4015   */\n  iszero\n  tag_95\n  jumpi\n    /* \"#utility.yul\":3934:4013   */\n  tag_96\n  tag_18\n  jump\t// in\ntag_96:\n    /* \"#utility.yul\":3898:4015   */\ntag_95:\n    /* \"#utility.yul\":4039:4113   */\n  tag_97\n    /* \"#utility.yul\":4105:4112   */\n  dup8\n    /* \"#utility.yul\":4096:4102   */\n  dup3\n    /* \"#utility.yul\":4085:4094   */\n  dup9\n    /* \"#utility.yul\":4081:4103   */\n  add\n    /* \"#utility.yul\":4039:4113   */\n  tag_28\n  jump\t// in\ntag_97:\n    /* \"#utility.yul\":4029:4113   */\n  swap3\n  pop\n    /* \"#utility.yul\":3831:4123   */\n  pop\n    /* \"#utility.yul\":4162:4164   */\n  0x60\n    /* \"#utility.yul\":4188:4252   */\n  tag_98\n    /* \"#utility.yul\":4244:4251   */\n  dup8\n    /* \"#utility.yul\":4235:4241   */\n  dup3\n    /* \"#utility.yul\":4224:4233   */\n  dup9\n    /* \"#utility.yul\":4220:4242   */\n  add\n    /* \"#utility.yul\":4188:4252   */\n  tag_31\n  jump\t// in\ntag_98:\n    /* \"#utility.yul\":4178:4252   */\n  swap2\n  pop\n    /* \"#utility.yul\":4133:4262   */\n  pop\n    /* \"#utility.yul\":2930:4269   */\n  swap3\n  swap6\n  swap2\n  swap5\n  pop\n  swap3\n  pop\n  jump\t// out\n    /* \"#utility.yul\":4275:4455   */\ntag_8:\n    /* \"#utility.yul\":4323:4400   */\n  0x4e487b7100000000000000000000000000000000000000000000000000000000\n    /* \"#utility.yul\":4320:4321   */\n  0x00\n    /* \"#utility.yul\":4313:4401   */\n  mstore\n    /* \"#utility.yul\":4420:4424   */\n  0x21\n    /* \"#utility.yul\":4417:4418   */\n  0x04\n    /* \"#utility.yul\":4410:4425   */\n  mstore\n    /* \"#utility.yul\":4444:4448   */\n  0x24\n    /* \"#utility.yul\":4441:4442   */\n  0x00\n    /* \"#utility.yul\":4434:4449   */\n  revert\n    /* \"#utility.yul\":4461:4560   */\ntag_32:\n    /* \"#utility.yul\":4513:4519   */\n  0x00\n    /* \"#utility.yul\":4547:4552   */\n  dup2\n    /* \"#utility.yul\":4541:4553   */\n  mload\n    /* \"#utility.yul\":4531:4553   */\n  swap1\n  pop\n    /* \"#utility.yul\":4461:4560   */\n  swap2\n  swap1\n  pop\n  jump\t// out\n    /* \"#utility.yul\":4566:4746   */\ntag_33:\n    /* \"#utility.yul\":4614:4691   */\n  0x4e487b7100000000000000000000000000000000000000000000000000000000\n    /* \"#utility.yul\":4611:4612   */\n  0x00\n    /* \"#utility.yul\":4604:4692   */\n  mstore\n    /* \"#utility.yul\":4711:4715   */\n  0x22\n    /* \"#utility.yul\":4708:4709   */\n  0x04\n    /* \"#utility.yul\":4701:4716   */\n  mstore\n    /* \"#utility.yul\":4735:4739   */\n  0x24\n    /* \"#utility.yul\":4732:4733   */\n  0x00\n    /* \"#utility.yul\":4725:4740   */\n  revert\n    /* \"#utility.yul\":4752:5072   */\ntag_34:\n    /* \"#utility.yul\":4796:4802   */\n  0x00\n    /* \"#utility.yul\":4833:4834   */\n  0x02\n    /* \"#utility.yul\":4827:4831   */\n  dup3\n    /* \"#utility.yul\":4823:4835   */\n  div\n    /* \"#utility.yul\":4813:4835   */\n  swap1\n  pop\n    /* \"#utility.yul\":4880:4881   */\n  0x01\n    /* \"#utility.yul\":4874:4878   */\n  dup3\n    /* \"#utility.yul\":4870:4882   */\n  and\n    /* \"#utility.yul\":4901:4919   */\n  dup1\n    /* \"#utility.yul\":4891:4972   */\n  tag_103\n  jumpi\n    /* \"#utility.yul\":4957:4961   */\n  0x7f\n    /* \"#utility.yul\":4949:4955   */\n  dup3\n    /* \"#utility.yul\":4945:4962   */\n  and\n    /* \"#utility.yul\":4935:4962   */\n  swap2\n  pop\n    /* \"#utility.yul\":4891:4972   */\ntag_103:\n    /* \"#utility.yul\":5019:5021   */\n  0x20\n    /* \"#utility.yul\":5011:5017   */\n  dup3\n    /* \"#utility.yul\":5008:5022   */\n  lt\n    /* \"#utility.yul\":4988:5006   */\n  dup2\n    /* \"#utility.yul\":4985:5023   */\n  sub\n    /* \"#utility.yul\":4982:5066   */\n  tag_104\n  jumpi\n    /* \"#utility.yul\":5038:5056   */\n  tag_105\n  tag_33\n  jump\t// in\ntag_105:\n    /* \"#utility.yul\":4982:5066   */\ntag_104:\n    /* \"#utility.yul\":4803:5072   */\n  pop\n    /* \"#utility.yul\":4752:5072   */\n  swap2\n  swap1\n  pop\n  jump\t// out\n    /* \"#utility.yul\":5078:5219   */\ntag_35:\n    /* \"#utility.yul\":5127:5131   */\n  0x00\n    /* \"#utility.yul\":5150:5153   */\n  dup2\n    /* \"#utility.yul\":5142:5153   */\n  swap1\n  pop\n    /* \"#utility.yul\":5173:5176   */\n  dup2\n    /* \"#utility.yul\":5170:5171   */\n  0x00\n    /* \"#utility.yul\":5163:5177   */\n  mstore\n    /* \"#utility.yul\":5207:5211   */\n  0x20\n    /* \"#utility.yul\":5204:5205   */\n  0x00\n    /* \"#utility.yul\":5194:5212   */\n  keccak256\n    /* \"#utility.yul\":5186:5212   */\n  swap1\n  pop\n    /* \"#utility.yul\":5078:5219   */\n  swap2\n  swap1\n  pop\n  jump\t// out\n    /* \"#utility.yul\":5225:5318   */\ntag_36:\n    /* \"#utility.yul\":5262:5268   */\n  0x00\n    /* \"#utility.yul\":5309:5311   */\n  0x20\n    /* \"#utility.yul\":5304:5306   */\n  0x1f\n    /* \"#utility.yul\":5297:5302   */\n  dup4\n    /* \"#utility.yul\":5293:5307   */\n  add\n    /* \"#utility.yul\":5289:5312   */\n  div\n    /* \"#utility.yul\":5279:5312   */\n  swap1\n  pop\n    /* \"#utility.yul\":5225:5318   */\n  swap2\n  swap1\n  pop\n  jump\t// out\n    /* \"#utility.yul\":5324:5431   */\ntag_37:\n    /* \"#utility.yul\":5368:5376   */\n  0x00\n    /* \"#utility.yul\":5418:5423   */\n  dup3\n    /* \"#utility.yul\":5412:5416   */\n  dup3\n    /* \"#utility.yul\":5408:5424   */\n  shl\n    /* \"#utility.yul\":5387:5424   */\n  swap1\n  pop\n    /* \"#utility.yul\":5324:5431   */\n  swap3\n  swap2\n  pop\n  pop\n  jump\t// out\n    /* \"#utility.yul\":5437:5830   */\ntag_38:\n    /* \"#utility.yul\":5506:5512   */\n  0x00\n    /* \"#utility.yul\":5556:5557   */\n  0x08\n    /* \"#utility.yul\":5544:5554   */\n  dup4\n    /* \"#utility.yul\":5540:5558   */\n  mul\n    /* \"#utility.yul\":5579:5676   */\n  tag_110\n    /* \"#utility.yul\":5609:5675   */\n  0xffffffffffffffffffffffffffffffffffffffffffffffffffffffffffffffff\n    /* \"#utility.yul\":5598:5607   */\n  dup3\n    /* \"#utility.yul\":5579:5676   */\n  tag_37\n  jump\t// in\ntag_110:\n    /* \"#utility.yul\":5697:5736   */\n  tag_111\n    /* \"#utility.yul\":5727:5735   */\n  dup7\n    /* \"#utility.yul\":5716:5725   */\n  dup4\n    /* \"#utility.yul\":5697:5736   */\n  tag_37\n  jump\t// in\ntag_111:\n    /* \"#utility.yul\":5685:5736   */\n  swap6\n  pop\n    /* \"#utility.yul\":5769:5773   */\n  dup1\n    /* \"#utility.yul\":5765:5774   */\n  not\n    /* \"#utility.yul\":5758:5763   */\n  dup5\n    /* \"#utility.yul\":5754:5775   */\n  and\n    /* \"#utility.yul\":5745:5775   */\n  swap4\n  pop\n    /* \"#utility.yul\":5818:5822   */\n  dup1\n    /* \"#utility.yul\":5808:5816   */\n  dup7\n    /* \"#utility.yul\":5804:5823   */\n  and\n    /* \"#utility.yul\":5797:5802   */\n  dup5\n    /* \"#utility.yul\":5794:5824   */\n  or\n    /* \"#utility.yul\":5784:5824   */\n  swap3\n  pop\n    /* \"#utility.yul\":5513:5830   */\n  pop\n  pop\n    /* \"#utility.yul\":5437:5830   */\n  swap4\n  swap3\n  pop\n  pop\n  pop\n  jump\t// out\n    /* \"#utility.yul\":5836:5896   */\ntag_39:\n    /* \"#utility.yul\":5864:5867   */\n  0x00\n    /* \"#utility.yul\":5885:5890   */\n  dup2\n    /* \"#utility.yul\":5878:5890   */\n  swap1\n  pop\n    /* \"#utility.yul\":5836:5896   */\n  swap2\n  swap1\n  pop\n  jump\t// out\n    /* \"#utility.yul\":5902:6044   */\ntag_40:\n    /* \"#utility.yul\":5952:5961   */\n  0x00\n    /* \"#utility.yul\":5985:6038   */\n  tag_114\n    /* \"#utility.yul\":6003:6037   */\n  tag_115\n    /* \"#utility.yul\":6012:6036   */\n  tag_116\n    /* \"#utility.yul\":6030:6035   */\n  dup5\n    /* \"#utility.yul\":6012:6036   */\n  tag_29\n  jump\t// in\ntag_116:\n    /* \"#utility.yul\":6003:6037   */\n  tag_39\n  jump\t// in\ntag_115:\n    /* \"#utility.yul\":5985:6038   */\n  tag_29\n  jump\t// in\ntag_114:\n    /* \"#utility.yul\":5972:6038   */\n  swap1\n  pop\n    /* \"#utility.yul\":5902:6044   */\n  swap2\n  swap1\n  pop\n  jump\t// out\n    /* \"#utility.yul\":6050:6125   */\ntag_41:\n    /* \"#utility.yul\":6093:6096   */\n  0x00\n    /* \"#utility.yul\":6114:6119   */\n  dup2\n    /* \"#utility.yul\":6107:6119   */\n  swap1\n  pop\n    /* \"#utility.yul\":6050:6125   */\n  swap2\n  swap1\n  pop\n  jump\t// out\n    /* \"#utility.yul\":6131:6400   */\ntag_42:\n    /* \"#utility.yul\":6241:6280   */\n  tag_119\n    /* \"#utility.yul\":6272:6279   */\n  dup4\n    /* \"#utility.yul\":6241:6280   */\n  tag_40\n  jump\t// in\ntag_119:\n    /* \"#utility.yul\":6302:6393   */\n  tag_120\n    /* \"#utility.yul\":6351:6392   */\n  tag_121\n    /* \"#utility.yul\":6375:6391   */\n  dup3\n    /* \"#utility.yul\":6351:6392   */\n  tag_41\n  jump\t// in\ntag_121:\n    /* \"#utility.yul\":6343:6349   */\n  dup5\n    /* \"#utility.yul\":6336:6340   */\n  dup5\n    /* \"#utility.yul\":6330:6341   */\n  sload\n    /* \"#utility.yul\":6302:6393   */\n  tag_38\n  jump\t// in\ntag_120:\n    /* \"#utility.yul\":6296:6300   */\n  dup3\n    /* \"#utility.yul\":6289:6394   */\n  sstore\n    /* \"#utility.yul\":6207:6400   */\n  pop\n    /* \"#utility.yul\":6131:6400   */\n  pop\n  pop\n  pop\n  jump\t// out\n    /* \"#utility.yul\":6406:6479   */\ntag_43:\n    /* \"#utility.yul\":6451:6454   */\n  0x00\n    /* \"#utility.yul\":6406:6479   */\n  swap1\n  jump\t// out\n    /* \"#utility.yul\":6485:6674   */\ntag_44:\n    /* \"#utility.yul\":6562:6594   */\n  tag_124\n  tag_43\n  jump\t// in\ntag_124:\n    /* \"#utility.yul\":6603:6668   */\n  tag_125\n    /* \"#utility.yul\":6661:6667   */\n  dup2\n    /* \"#utility.yul\":6653:6659   */\n  dup5\n    /* \"#utility.yul\":6647:6651   */\n  dup5\n    /* \"#utility.yul\":6603:6668   */\n  tag_42\n  jump\t// in\ntag_125:\n    /* \"#utility.yul\":6538:6674   */\n  pop\n    /* \"#utility.yul\":6485:6674   */\n  pop\n  pop\n  jump\t// out\n    /* \"#utility.yul\":6680:6866   */\ntag_45:\n    /* \"#utility.yul\":6740:6860   */\ntag_127:\n    /* \"#utility.yul\":6757:6760   */\n  dup2\n    /* \"#utility.yul\":6750:6755   */\n  dup2\n    /* \"#utility.yul\":6747:6761   */\n  lt\n    /* \"#utility.yul\":6740:6860   */\n  iszero\n  tag_129\n  jumpi\n    /* \"#utility.yul\":6811:6850   */\n  tag_130\n    /* \"#utility.yul\":6848:6849   */\n  0x00\n    /* \"#utility.yul\":6841:6846   */\n  dup3\n    /* \"#utility.yul\":6811:6850   */\n  tag_44\n  jump\t// in\ntag_130:\n    /* \"#utility.yul\":6784:6785   */\n  0x01\n    /* \"#utility.yul\":6777:6782   */\n  dup2\n    /* \"#utility.yul\":6773:6786   */\n  add\n    /* \"#utility.yul\":6764:6786   */\n  swap1\n  pop\n    /* \"#utility.yul\":6740:6860   */\n  jump(tag_127)\ntag_129:\n    /* \"#utility.yul\":6680:6866   */\n  pop\n  pop\n  jump\t// out\n    /* \"#utility.yul\":6872:7415   */\ntag_46:\n    /* \"#utility.yul\":6973:6975   */\n  0x1f\n    /* \"#utility.yul\":6968:6971   */\n  dup3\n    /* \"#utility.yul\":6965:6976   */\n  gt\n    /* \"#utility.yul\":6962:7408   */\n  iszero\n  tag_132\n  jumpi\n    /* \"#utility.yul\":7007:7045   */\n  tag_133\n    /* \"#utility.yul\":7039:7044   */\n  dup2\n    /* \"#utility.yul\":7007:7045   */\n  tag_35\n  jump\t// in\ntag_133:\n    /* \"#utility.yul\":7091:7120   */\n  tag_134\n    /* \"#utility.yul\":7109:7119   */\n  dup5\n    /* \"#utility.yul\":7091:7120   */\n  tag_36\n  jump\t// in\ntag_134:\n    /* \"#utility.yul\":7081:7089   */\n  dup2\n    /* \"#utility.yul\":7077:7121   */\n  add\n    /* \"#utility.yul\":7274:7276   */\n  0x20\n    /* \"#utility.yul\":7262:7272   */\n  dup6\n    /* \"#utility.yul\":7259:7277   */\n  lt\n    /* \"#utility.yul\":7256:7305   */\n  iszero\n  tag_135\n  jumpi\n    /* \"#utility.yul\":7295:7303   */\n  dup2\n    /* \"#utility.yul\":7280:7303   */\n  swap1\n  pop\n    /* \"#utility.yul\":7256:7305   */\ntag_135:\n    /* \"#utility.yul\":7318:7398   */\n  tag_136\n    /* \"#utility.yul\":7374:7396   */\n  tag_137\n    /* \"#utility.yul\":7392:7395   */\n  dup6\n    /* \"#utility.yul\":7374:7396   */\n  tag_36\n  jump\t// in\ntag_137:\n    /* \"#utility.yul\":7364:7372   */\n  dup4\n    /* \"#utility.yul\":7360:7397   */\n  add\n    /* \"#utility.yul\":7347:7358   */\n  dup3\n    /* \"#utility.yul\":7318:7398   */\n  tag_45\n  jump\t// in\ntag_136:\n    /* \"#utility.yul\":6977:7408   */\n  pop\n  pop\n    /* \"#utility.yul\":6962:7408   */\ntag_132:\n    /* \"#utility.yul\":6872:7415   */\n  pop\n  pop\n  pop\n  jump\t// out\n    /* \"#utility.yul\":7421:7538   */\ntag_47:\n    /* \"#utility.yul\":7475:7483   */\n  0x00\n    /* \"#utility.yul\":7525:7530   */\n  dup3\n    /* \"#utility.yul\":7519:7523   */\n  dup3\n    /* \"#utility.yul\":7515:7531   */\n  shr\n    /* \"#utility.yul\":7494:7531   */\n  swap1\n  pop\n    /* \"#utility.yul\":7421:7538   */\n  swap3\n  swap2\n  pop\n  pop\n  jump\t// out\n    /* \"#utility.yul\":7544:7713   */\ntag_48:\n    /* \"#utility.yul\":7588:7594   */\n  0x00\n    /* \"#utility.yul\":7621:7672   */\n  tag_140\n    /* \"#utility.yul\":7669:7670   */\n  0x00\n    /* \"#utility.yul\":7665:7671   */\n  not\n    /* \"#utility.yul\":7657:7662   */\n  dup5\n    /* \"#utility.yul\":7654:7655   */\n  0x08\n    /* \"#utility.yul\":7650:7663   */\n  mul\n    /* \"#utility.yul\":7621:7672   */\n  tag_47\n  jump\t// in\ntag_140:\n    /* \"#utility.yul\":7617:7673   */\n  not\n    /* \"#utility.yul\":7702:7706   */\n  dup1\n    /* \"#utility.yul\":7696:7700   */\n  dup4\n    /* \"#utility.yul\":7692:7707   */\n  and\n    /* \"#utility.yul\":7682:7707   */\n  swap2\n  pop\n    /* \"#utility.yul\":7595:7713   */\n  pop\n    /* \"#utility.yul\":7544:7713   */\n  swap3\n  swap2\n  pop\n  pop\n  jump\t// out\n    /* \"#utility.yul\":7718:8013   */\ntag_49:\n    /* \"#utility.yul\":7794:7798   */\n  0x00\n    /* \"#utility.yul\":7940:7969   */\n  tag_142\n    /* \"#utility.yul\":7965:7968   */\n  dup4\n    /* \"#utility.yul\":7959:7963   */\n  dup4\n    /* \"#utility.yul\":7940:7969   */\n  tag_48\n  jump\t// in\ntag_142:\n    /* \"#utility.yul\":7932:7969   */\n  swap2\n  pop\n    /* \"#utility.yul\":8002:8005   */\n  dup3\n    /* \"#utility.yul\":7999:8000   */\n  0x02\n    /* \"#utility.yul\":7995:8006   */\n  mul\n    /* \"#utility.yul\":7989:7993   */\n  dup3\n    /* \"#utility.yul\":7986:8007   */\n  or\n    /* \"#utility.yul\":7978:8007   */\n  swap1\n  pop\n    /* \"#utility.yul\":7718:8013   */\n  swap3\n  swap2\n  pop\n  pop\n  jump\t// out\n    /* \"#utility.yul\":8018:9413   */\ntag_10:\n    /* \"#utility.yul\":8135:8172   */\n  tag_144\n    /* \"#utility.yul\":8168:8171   */\n  dup3\n    /* \"#utility.yul\":8135:8172   */\n  tag_32\n  jump\t// in\ntag_144:\n    /* \"#utility.yul\":8237:8255   */\n  0xffffffffffffffff\n    /* \"#utility.yul\":8229:8235   */\n  dup2\n    /* \"#utility.yul\":8226:8256   */\n  gt\n    /* \"#utility.yul\":8223:8279   */\n  iszero\n  tag_145\n  jumpi\n    /* \"#utility.yul\":8259:8277   */\n  tag_146\n  tag_22\n  jump\t// in\ntag_146:\n    /* \"#utility.yul\":8223:8279   */\ntag_145:\n    /* \"#utility.yul\":8303:8341   */\n  tag_147\n    /* \"#utility.yul\":8335:8339   */\n  dup3\n    /* \"#utility.yul\":8329:8340   */\n  sload\n    /* \"#utility.yul\":8303:8341   */\n  tag_34\n  jump\t// in\ntag_147:\n    /* \"#utility.yul\":8388:8455   */\n  tag_148\n    /* \"#utility.yul\":8448:8454   */\n  dup3\n    /* \"#utility.yul\":8440:8446   */\n  dup3\n    /* \"#utility.yul\":8434:8438   */\n  dup6\n    /* \"#utility.yul\":8388:8455   */\n  tag_46\n  jump\t// in\ntag_148:\n    /* \"#utility.yul\":8482:8483   */\n  0x00\n    /* \"#utility.yul\":8506:8510   */\n  0x20\n    /* \"#utility.yul\":8493:8510   */\n  swap1\n  pop\n    /* \"#utility.yul\":8538:8540   */\n  0x1f\n    /* \"#utility.yul\":8530:8536   */\n  dup4\n    /* \"#utility.yul\":8527:8541   */\n  gt\n    /* \"#utility.yul\":8555:8556   */\n  0x01\n    /* \"#utility.yul\":8550:9168   */\n  dup2\n  eq\n  tag_150\n  jumpi\n    /* \"#utility.yul\":9212:9213   */\n  0x00\n    /* \"#utility.yul\":9229:9235   */\n  dup5\n    /* \"#utility.yul\":9226:9303   */\n  iszero\n  tag_151\n  jumpi\n    /* \"#utility.yul\":9278:9287   */\n  dup3\n    /* \"#utility.yul\":9273:9276   */\n  dup8\n    /* \"#utility.yul\":9269:9288   */\n  add\n    /* \"#utility.yul\":9263:9289   */\n  mload\n    /* \"#utility.yul\":9254:9289   */\n  swap1\n  pop\n    /* \"#utility.yul\":9226:9303   */\ntag_151:\n    /* \"#utility.yul\":9329:9396   */\n  tag_152\n    /* \"#utility.yul\":9389:9395   */\n  dup6\n    /* \"#utility.yul\":9382:9387   */\n  dup3\n    /* \"#utility.yul\":9329:9396   */\n  tag_49\n  jump\t// in\ntag_152:\n    /* \"#utility.yul\":9323:9327   */\n  dup7\n    /* \"#utility.yul\":9316:9397   */\n  sstore\n    /* \"#utility.yul\":9185:9407   */\n  pop\n    /* \"#utility.yul\":8520:9407   */\n  jump(tag_149)\n    /* \"#utility.yul\":8550:9168   */\ntag_150:\n    /* \"#utility.yul\":8602:8606   */\n  0x1f\n    /* \"#utility.yul\":8598:8607   */\n  not\n    /* \"#utility.yul\":8590:8596   */\n  dup5\n    /* \"#utility.yul\":8586:8608   */\n  and\n    /* \"#utility.yul\":8636:8673   */\n  tag_153\n    /* \"#utility.yul\":8668:8672   */\n  dup7\n    /* \"#utility.yul\":8636:8673   */\n  tag_35\n  jump\t// in\ntag_153:\n    /* \"#utility.yul\":8695:8696   */\n  0x00\n    /* \"#utility.yul\":8709:8917   */\ntag_154:\n    /* \"#utility.yul\":8723:8730   */\n  dup3\n    /* \"#utility.yul\":8720:8721   */\n  dup2\n    /* \"#utility.yul\":8717:8731   */\n  lt\n    /* \"#utility.yul\":8709:8917   */\n  iszero\n  tag_156\n  jumpi\n    /* \"#utility.yul\":8802:8811   */\n  dup5\n    /* \"#utility.yul\":8797:8800   */\n  dup10\n    /* \"#utility.yul\":8793:8812   */\n  add\n    /* \"#utility.yul\":8787:8813   */\n  mload\n    /* \"#utility.yul\":8779:8785   */\n  dup3\n    /* \"#utility.yul\":8772:8814   */\n  sstore\n    /* \"#utility.yul\":8853:8854   */\n  0x01\n    /* \"#utility.yul\":8845:8851   */\n  dup3\n    /* \"#utility.yul\":8841:8855   */\n  add\n    /* \"#utility.yul\":8831:8855   */\n  swap2\n  pop\n    /* \"#utility.yul\":8900:8902   */\n  0x20\n    /* \"#utility.yul\":8889:8898   */\n  dup6\n    /* \"#utility.yul\":8885:8903   */\n  add\n    /* \"#utility.yul\":8872:8903   */\n  swap5\n  pop\n    /* \"#utility.yul\":8746:8750   */\n  0x20\n    /* \"#utility.yul\":8743:8744   */\n  dup2\n    /* \"#utility.yul\":8739:8751   */\n  add\n    /* \"#utility.yul\":8734:8751   */\n  swap1\n  pop\n    /* \"#utility.yul\":8709:8917   */\n  jump(tag_154)\ntag_156:\n    /* \"#utility.yul\":8945:8951   */\n  dup7\n    /* \"#utility.yul\":8936:8943   */\n  dup4\n    /* \"#utility.yul\":8933:8952   */\n  lt\n    /* \"#utility.yul\":8930:9109   */\n  iszero\n  tag_157\n  jumpi\n    /* \"#utility.yul\":9003:9012   */\n  dup5\n    /* \"#utility.yul\":8998:9001   */\n  dup10\n    /* \"#utility.yul\":8994:9013   */\n  add\n    /* \"#utility.yul\":8988:9014   */\n  mload\n    /* \"#utility.yul\":9046:9094   */\n  tag_158\n    /* \"#utility.yul\":9088:9092   */\n  0x1f\n    /* \"#utility.yul\":9080:9086   */\n  dup10\n    /* \"#utility.yul\":9076:9093   */\n  and\n    /* \"#utility.yul\":9065:9074   */\n  dup3\n    /* \"#utility.yul\":9046:9094   */\n  tag_48\n  jump\t// in\ntag_158:\n    /* \"#utility.yul\":9038:9044   */\n  dup4\n    /* \"#utility.yul\":9031:9095   */\n  sstore\n    /* \"#utility.yul\":8953:9109   */\n  pop\n    /* \"#utility.yul\":8930:9109   */\ntag_157:\n    /* \"#utility.yul\":9155:9156   */\n  0x01\n    /* \"#utility.yul\":9151:9152   */\n  0x02\n    /* \"#utility.yul\":9143:9149   */\n  dup9\n    /* \"#utility.yul\":9139:9153   */\n  mul\n    /* \"#utility.yul\":9135:9157   */\n  add\n    /* \"#utility.yul\":9129:9133   */\n  dup9\n    /* \"#utility.yul\":9122:9158   */\n  sstore\n    /* \"#utility.yul\":8557:9168   */\n  pop\n  pop\n  pop\n    /* \"#utility.yul\":8520:9407   */\ntag_149:\n  pop\n    /* \"#utility.yul\":8110:9413   */\n  pop\n  pop\n  pop\n    /* \"#utility.yul\":8018:9413   */\n  pop\n  pop\n  jump\t// out\n    /* \"contracts/Homework6.sol\":74:1763  contract Homework {... */\ntag_15:\n  dataSize(sub_0)\n  dup1\n  dataOffset(sub_0)\n  0x00\n  codecopy\n  0x00\n  return\nstop\n\nsub_0: assembly {\n        /* \"contracts/Homework6.sol\":74:1763  contract Homework {... */\n      mstore(0x40, 0x80)\n      jumpi(tag_1, lt(calldatasize, 0x04))\n      shr(0xe0, calldataload(0x00))\n      dup1\n      0x5c08a85b\n      eq\n      tag_2\n      jumpi\n      dup1\n      0x9073adb4\n      eq\n      tag_3\n      jumpi\n      dup1\n      0xe8dc41ad\n      eq\n      tag_4\n      jumpi\n    tag_1:\n      0x00\n      dup1\n      revert\n        /* \"contracts/Homework6.sol\":1500:1756  function changeProjectState(StateFun newState, string memory) public onlyOwner{... */\n    tag_2:\n      callvalue\n      dup1\n      iszero\n      tag_5\n      jumpi\n      0x00\n      dup1\n      revert\n    tag_5:\n      pop\n      tag_6\n      0x04\n      dup1\n      calldatasize\n      sub\n      dup2\n      add\n      swap1\n      tag_7\n      swap2\n      swap1\n      tag_8\n      jump\t// in\n    tag_7:\n      tag_9\n      jump\t// in\n    tag_6:\n      stop\n        /* \"contracts/Homework6.sol\":1139:1492  function FundProject() public payable NoOwnerFund{... */\n    tag_3:\n      tag_10\n      tag_11\n      jump\t// in\n    tag_10:\n      stop\n        /* \"contracts/Homework6.sol\":361:391  Crowfunding public crowfunding */\n    tag_4:\n      callvalue\n      dup1\n      iszero\n      tag_12\n      jumpi\n      0x00\n      dup1\n      revert\n    tag_12:\n      pop\n      tag_13\n      tag_14\n      jump\t// in\n    tag_13:\n      mload(0x40)\n      tag_15\n      swap8\n      swap7\n      swap6\n      swap5\n      swap4\n      swap3\n      swap2\n      swap1\n      tag_16\n      jump\t// in\n    tag_15:\n      mload(0x40)\n      dup1\n      swap2\n      sub\n      swap1\n      return\n        /* \"contracts/Homework6.sol\":1500:1756  function changeProjectState(StateFun newState, string memory) public onlyOwner{... */\n    tag_9:\n        /* \"contracts/Homework6.sol\":801:811  msg.sender */\n      caller\n        /* \"contracts/Homework6.sol\":780:811  crowfunding.owner == msg.sender */\n      0xffffffffffffffffffffffffffffffffffffffff\n      and\n        /* \"contracts/Homework6.sol\":780:791  crowfunding */\n      0x00\n        /* \"contracts/Homework6.sol\":780:797  crowfunding.owner */\n      0x03\n      add\n      0x00\n      swap1\n      sload\n      swap1\n      0x0100\n      exp\n      swap1\n      div\n      0xffffffffffffffffffffffffffffffffffffffff\n      and\n        /* \"contracts/Homework6.sol\":780:811  crowfunding.owner == msg.sender */\n      0xffffffffffffffffffffffffffffffffffffffff\n      and\n      eq\n        /* \"contracts/Homework6.sol\":772:848  require(crowfunding.owner == msg.sender , \"Only owner can change the state\") */\n      tag_18\n      jumpi\n      mload(0x40)\n      0x08c379a000000000000000000000000000000000000000000000000000000000\n      dup2\n      mstore\n      0x04\n      add\n      tag_19\n      swap1\n      tag_20\n      jump\t// in\n    tag_19:\n      mload(0x40)\n      dup1\n      swap2\n      sub\n      swap1\n      revert\n    tag_18:\n        /* \"contracts/Homework6.sol\":1619:1627  newState */\n      dup2\n        /* \"contracts/Homework6.sol\":1598:1627  crowfunding.state != newState */\n      0x01\n      dup2\n      gt\n      iszero\n      tag_22\n      jumpi\n      tag_23\n      tag_24\n      jump\t// in\n    tag_23:\n    tag_22:\n        /* \"contracts/Homework6.sol\":1598:1609  crowfunding */\n      0x00\n        /* \"contracts/Homework6.sol\":1598:1615  crowfunding.state */\n      0x03\n      add\n      0x14\n      swap1\n      sload\n      swap1\n      0x0100\n      exp\n      swap1\n      div\n      0xff\n      and\n        /* \"contracts/Homework6.sol\":1598:1627  crowfunding.state != newState */\n      0x01\n      dup2\n      gt\n      iszero\n      tag_25\n      jumpi\n      tag_26\n      tag_24\n      jump\t// in\n    tag_26:\n    tag_25:\n      sub\n        /* \"contracts/Homework6.sol\":1589:1659  require (crowfunding.state != newState, \"New state must be different\") */\n      tag_27\n      jumpi\n      mload(0x40)\n      0x08c379a000000000000000000000000000000000000000000000000000000000\n      dup2\n      mstore\n      0x04\n      add\n      tag_28\n      swap1\n      tag_29\n      jump\t// in\n    tag_28:\n      mload(0x40)\n      dup1\n      swap2\n      sub\n      swap1\n      revert\n    tag_27:\n        /* \"contracts/Homework6.sol\":1690:1698  newState */\n      dup2\n        /* \"contracts/Homework6.sol\":1670:1681  crowfunding */\n      0x00\n        /* \"contracts/Homework6.sol\":1670:1687  crowfunding.state */\n      0x03\n      add\n      0x14\n        /* \"contracts/Homework6.sol\":1670:1698  crowfunding.state = newState */\n      0x0100\n      exp\n      dup2\n      sload\n      dup2\n      0xff\n      mul\n      not\n      and\n      swap1\n      dup4\n      0x01\n      dup2\n      gt\n      iszero\n      tag_30\n      jumpi\n      tag_31\n      tag_24\n      jump\t// in\n    tag_31:\n    tag_30:\n      mul\n      or\n      swap1\n      sstore\n      pop\n        /* \"contracts/Homework6.sol\":1714:1748  CProject(crowfunding.id, newState) */\n      0x0db2f3a00e94e59583ff319cd1f93dc9fb19106b7c6ab1b7a90fc58b9d89c9df\n        /* \"contracts/Homework6.sol\":1723:1734  crowfunding */\n      0x00\n        /* \"contracts/Homework6.sol\":1723:1737  crowfunding.id */\n      dup1\n      add\n        /* \"contracts/Homework6.sol\":1739:1747  newState */\n      dup4\n        /* \"contracts/Homework6.sol\":1714:1748  CProject(crowfunding.id, newState) */\n      mload(0x40)\n      tag_32\n      swap3\n      swap2\n      swap1\n      tag_33\n      jump\t// in\n    tag_32:\n      mload(0x40)\n      dup1\n      swap2\n      sub\n      swap1\n      log1\n        /* \"contracts/Homework6.sol\":1500:1756  function changeProjectState(StateFun newState, string memory) public onlyOwner{... */\n      pop\n      pop\n      jump\t// out\n        /* \"contracts/Homework6.sol\":1139:1492  function FundProject() public payable NoOwnerFund{... */\n    tag_11:\n        /* \"contracts/Homework6.sol\":1002:1012  msg.sender */\n      caller\n        /* \"contracts/Homework6.sol\":981:1012  crowfunding.owner != msg.sender */\n      0xffffffffffffffffffffffffffffffffffffffff\n      and\n        /* \"contracts/Homework6.sol\":981:992  crowfunding */\n      0x00\n        /* \"contracts/Homework6.sol\":981:998  crowfunding.owner */\n      0x03\n      add\n      0x00\n      swap1\n      sload\n      swap1\n      0x0100\n      exp\n      swap1\n      div\n      0xffffffffffffffffffffffffffffffffffffffff\n      and\n        /* \"contracts/Homework6.sol\":981:1012  crowfunding.owner != msg.sender */\n      0xffffffffffffffffffffffffffffffffffffffff\n      and\n      sub\n        /* \"contracts/Homework6.sol\":973:1048  require(crowfunding.owner != msg.sender , \"As Owner can't fund ur account\") */\n      tag_35\n      jumpi\n      mload(0x40)\n      0x08c379a000000000000000000000000000000000000000000000000000000000\n      dup2\n      mstore\n      0x04\n      add\n      tag_36\n      swap1\n      tag_37\n      jump\t// in\n    tag_36:\n      mload(0x40)\n      dup1\n      swap2\n      sub\n      swap1\n      revert\n    tag_35:\n        /* \"contracts/Homework6.sol\":1229:1244  StateFun.Closed */\n      0x01\n        /* \"contracts/Homework6.sol\":1208:1244  crowfunding.state != StateFun.Closed */\n      dup1\n      dup2\n      gt\n      iszero\n      tag_39\n      jumpi\n      tag_40\n      tag_24\n      jump\t// in\n    tag_40:\n    tag_39:\n        /* \"contracts/Homework6.sol\":1208:1219  crowfunding */\n      0x00\n        /* \"contracts/Homework6.sol\":1208:1225  crowfunding.state */\n      0x03\n      add\n      0x14\n      swap1\n      sload\n      swap1\n      0x0100\n      exp\n      swap1\n      div\n      0xff\n      and\n        /* \"contracts/Homework6.sol\":1208:1244  crowfunding.state != StateFun.Closed */\n      0x01\n      dup2\n      gt\n      iszero\n      tag_41\n      jumpi\n      tag_42\n      tag_24\n      jump\t// in\n    tag_42:\n    tag_41:\n      sub\n        /* \"contracts/Homework6.sol\":1199:1277  require (crowfunding.state != StateFun.Closed, \"Te project cant recive funds\") */\n      tag_43\n      jumpi\n      mload(0x40)\n      0x08c379a000000000000000000000000000000000000000000000000000000000\n      dup2\n      mstore\n      0x04\n      add\n      tag_44\n      swap1\n      tag_45\n      jump\t// in\n    tag_44:\n      mload(0x40)\n      dup1\n      swap2\n      sub\n      swap1\n      revert\n    tag_43:\n        /* \"contracts/Homework6.sol\":1309:1310  0 */\n      0x00\n        /* \"contracts/Homework6.sol\":1297:1306  msg.value */\n      callvalue\n        /* \"contracts/Homework6.sol\":1297:1310  msg.value > 0 */\n      gt\n        /* \"contracts/Homework6.sol\":1288:1345  require (msg.value > 0, \"Fund value must be more than 0\") */\n      tag_46\n      jumpi\n      mload(0x40)\n      0x08c379a000000000000000000000000000000000000000000000000000000000\n      dup2\n      mstore\n      0x04\n      add\n      tag_47\n      swap1\n      tag_48\n      jump\t// in\n    tag_47:\n      mload(0x40)\n      dup1\n      swap2\n      sub\n      swap1\n      revert\n    tag_46:\n        /* \"contracts/Homework6.sol\":1356:1367  crowfunding */\n      0x00\n        /* \"contracts/Homework6.sol\":1356:1373  crowfunding.owner */\n      0x03\n      add\n      0x00\n      swap1\n      sload\n      swap1\n      0x0100\n      exp\n      swap1\n      div\n      0xffffffffffffffffffffffffffffffffffffffff\n      and\n        /* \"contracts/Homework6.sol\":1356:1382  crowfunding.owner.transfer */\n      0xffffffffffffffffffffffffffffffffffffffff\n      and\n        /* \"contracts/Homework6.sol\":1356:1393  crowfunding.owner.transfer(msg.value) */\n      0x08fc\n        /* \"contracts/Homework6.sol\":1383:1392  msg.value */\n      callvalue\n        /* \"contracts/Homework6.sol\":1356:1393  crowfunding.owner.transfer(msg.value) */\n      swap1\n      dup2\n      iszero\n      mul\n      swap1\n      mload(0x40)\n      0x00\n      mload(0x40)\n      dup1\n      dup4\n      sub\n      dup2\n      dup6\n      dup9\n      dup9\n      call\n      swap4\n      pop\n      pop\n      pop\n      pop\n      iszero\n      dup1\n      iszero\n      tag_50\n      jumpi\n      returndatasize\n      0x00\n      dup1\n      returndatacopy\n      revert(0x00, returndatasize)\n    tag_50:\n      pop\n        /* \"contracts/Homework6.sol\":1424:1433  msg.value */\n      callvalue\n        /* \"contracts/Homework6.sol\":1404:1415  crowfunding */\n      0x00\n        /* \"contracts/Homework6.sol\":1404:1420  crowfunding.fund */\n      0x04\n      add\n      0x00\n        /* \"contracts/Homework6.sol\":1404:1433  crowfunding.fund += msg.value */\n      dup3\n      dup3\n      sload\n      tag_51\n      swap2\n      swap1\n      tag_52\n      jump\t// in\n    tag_51:\n      swap3\n      pop\n      pop\n      dup2\n      swap1\n      sstore\n      pop\n        /* \"contracts/Homework6.sol\":1449:1484  FProject(crowfunding.id, msg.value) */\n      0x601a31682b808e0416479a182f80fd9f081c273ed67c10174341a615756c1e00\n        /* \"contracts/Homework6.sol\":1458:1469  crowfunding */\n      0x00\n        /* \"contracts/Homework6.sol\":1458:1472  crowfunding.id */\n      dup1\n      add\n        /* \"contracts/Homework6.sol\":1474:1483  msg.value */\n      callvalue\n        /* \"contracts/Homework6.sol\":1449:1484  FProject(crowfunding.id, msg.value) */\n      mload(0x40)\n      tag_53\n      swap3\n      swap2\n      swap1\n      tag_54\n      jump\t// in\n    tag_53:\n      mload(0x40)\n      dup1\n      swap2\n      sub\n      swap1\n      log1\n        /* \"contracts/Homework6.sol\":1139:1492  function FundProject() public payable NoOwnerFund{... */\n      jump\t// out\n        /* \"contracts/Homework6.sol\":361:391  Crowfunding public crowfunding */\n    tag_14:\n      0x00\n      dup1\n      0x00\n      add\n      dup1\n      sload\n      tag_55\n      swap1\n      tag_56\n      jump\t// in\n    tag_55:\n      dup1\n      0x1f\n      add\n      0x20\n      dup1\n      swap2\n      div\n      mul\n      0x20\n      add\n      mload(0x40)\n      swap1\n      dup2\n      add\n      0x40\n      mstore\n      dup1\n      swap3\n      swap2\n      swap1\n      dup2\n      dup2\n      mstore\n      0x20\n      add\n      dup3\n      dup1\n      sload\n      tag_57\n      swap1\n      tag_56\n      jump\t// in\n    tag_57:\n      dup1\n      iszero\n      tag_58\n      jumpi\n      dup1\n      0x1f\n      lt\n      tag_59\n      jumpi\n      0x0100\n      dup1\n      dup4\n      sload\n      div\n      mul\n      dup4\n      mstore\n      swap2\n      0x20\n      add\n      swap2\n      jump(tag_58)\n    tag_59:\n      dup3\n      add\n      swap2\n      swap1\n      0x00\n      mstore\n      keccak256(0x00, 0x20)\n      swap1\n    tag_60:\n      dup2\n      sload\n      dup2\n      mstore\n      swap1\n      0x01\n      add\n      swap1\n      0x20\n      add\n      dup1\n      dup4\n      gt\n      tag_60\n      jumpi\n      dup3\n      swap1\n      sub\n      0x1f\n      and\n      dup3\n      add\n      swap2\n    tag_58:\n      pop\n      pop\n      pop\n      pop\n      pop\n      swap1\n      dup1\n      0x01\n      add\n      dup1\n      sload\n      tag_61\n      swap1\n      tag_56\n      jump\t// in\n    tag_61:\n      dup1\n      0x1f\n      add\n      0x20\n      dup1\n      swap2\n      div\n      mul\n      0x20\n      add\n      mload(0x40)\n      swap1\n      dup2\n      add\n      0x40\n      mstore\n      dup1\n      swap3\n      swap2\n      swap1\n      dup2\n      dup2\n      mstore\n      0x20\n      add\n      dup3\n      dup1\n      sload\n      tag_62\n      swap1\n      tag_56\n      jump\t// in\n    tag_62:\n      dup1\n      iszero\n      tag_63\n      jumpi\n      dup1\n      0x1f\n      lt\n      tag_64\n      jumpi\n      0x0100\n      dup1\n      dup4\n      sload\n      div\n      mul\n      dup4\n      mstore\n      swap2\n      0x20\n      add\n      swap2\n      jump(tag_63)\n    tag_64:\n      dup3\n      add\n      swap2\n      swap1\n      0x00\n      mstore\n      keccak256(0x00, 0x20)\n      swap1\n    tag_65:\n      dup2\n      sload\n      dup2\n      mstore\n      swap1\n      0x01\n      add\n      swap1\n      0x20\n      add\n      dup1\n      dup4\n      gt\n      tag_65\n      jumpi\n      dup3\n      swap1\n      sub\n      0x1f\n      and\n      dup3\n      add\n      swap2\n    tag_63:\n      pop\n      pop\n      pop\n      pop\n      pop\n      swap1\n      dup1\n      0x02\n      add\n      dup1\n      sload\n      tag_66\n      swap1\n      tag_56\n      jump\t// in\n    tag_66:\n      dup1\n      0x1f\n      add\n      0x20\n      dup1\n      swap2\n      div\n      mul\n      0x20\n      add\n      mload(0x40)\n      swap1\n      dup2\n      add\n      0x40\n      mstore\n      dup1\n      swap3\n      swap2\n      swap1\n      dup2\n      dup2\n      mstore\n      0x20\n      add\n      dup3\n      dup1\n      sload\n      tag_67\n      swap1\n      tag_56\n      jump\t// in\n    tag_67:\n      dup1\n      iszero\n      tag_68\n      jumpi\n      dup1\n      0x1f\n      lt\n      tag_69\n      jumpi\n      0x0100\n      dup1\n      dup4\n      sload\n      div\n      mul\n      dup4\n      mstore\n      swap2\n      0x20\n      add\n      swap2\n      jump(tag_68)\n    tag_69:\n      dup3\n      add\n      swap2\n      swap1\n      0x00\n      mstore\n      keccak256(0x00, 0x20)\n      swap1\n    tag_70:\n      dup2\n      sload\n      dup2\n      mstore\n      swap1\n      0x01\n      add\n      swap1\n      0x20\n      add\n      dup1\n      dup4\n      gt\n      tag_70\n      jumpi\n      dup3\n      swap1\n      sub\n      0x1f\n      and\n      dup3\n      add\n      swap2\n    tag_68:\n      pop\n      pop\n      pop\n      pop\n      pop\n      swap1\n      dup1\n      0x03\n      add\n      0x00\n      swap1\n      sload\n      swap1\n      0x0100\n      exp\n      swap1\n      div\n      0xffffffffffffffffffffffffffffffffffffffff\n      and\n      swap1\n      dup1\n      0x03\n      add\n      0x14\n      swap1\n      sload\n      swap1\n      0x0100\n      exp\n      swap1\n      div\n      0xff\n      and\n      swap1\n      dup1\n      0x04\n      add\n      sload\n      swap1\n      dup1\n      0x05\n      add\n      sload\n      swap1\n      pop\n      dup8\n      jump\t// out\n        /* \"#utility.yul\":7:82   */\n    tag_71:\n        /* \"#utility.yul\":40:46   */\n      0x00\n        /* \"#utility.yul\":73:75   */\n      0x40\n        /* \"#utility.yul\":67:76   */\n      mload\n        /* \"#utility.yul\":57:76   */\n      swap1\n      pop\n        /* \"#utility.yul\":7:82   */\n      swap1\n      jump\t// out\n        /* \"#utility.yul\":88:205   */\n    tag_72:\n        /* \"#utility.yul\":197:198   */\n      0x00\n        /* \"#utility.yul\":194:195   */\n      dup1\n        /* \"#utility.yul\":187:199   */\n      revert\n        /* \"#utility.yul\":211:328   */\n    tag_73:\n        /* \"#utility.yul\":320:321   */\n      0x00\n        /* \"#utility.yul\":317:318   */\n      dup1\n        /* \"#utility.yul\":310:322   */\n      revert\n        /* \"#utility.yul\":334:443   */\n    tag_74:\n        /* \"#utility.yul\":417:418   */\n      0x02\n        /* \"#utility.yul\":410:415   */\n      dup2\n        /* \"#utility.yul\":407:419   */\n      lt\n        /* \"#utility.yul\":397:437   */\n      tag_118\n      jumpi\n        /* \"#utility.yul\":433:434   */\n      0x00\n        /* \"#utility.yul\":430:431   */\n      dup1\n        /* \"#utility.yul\":423:435   */\n      revert\n        /* \"#utility.yul\":397:437   */\n    tag_118:\n        /* \"#utility.yul\":334:443   */\n      pop\n      jump\t// out\n        /* \"#utility.yul\":449:608   */\n    tag_75:\n        /* \"#utility.yul\":505:510   */\n      0x00\n        /* \"#utility.yul\":543:549   */\n      dup2\n        /* \"#utility.yul\":530:550   */\n      calldataload\n        /* \"#utility.yul\":521:550   */\n      swap1\n      pop\n        /* \"#utility.yul\":559:602   */\n      tag_120\n        /* \"#utility.yul\":596:601   */\n      dup2\n        /* \"#utility.yul\":559:602   */\n      tag_74\n      jump\t// in\n    tag_120:\n        /* \"#utility.yul\":449:608   */\n      swap3\n      swap2\n      pop\n      pop\n      jump\t// out\n        /* \"#utility.yul\":614:731   */\n    tag_76:\n        /* \"#utility.yul\":723:724   */\n      0x00\n        /* \"#utility.yul\":720:721   */\n      dup1\n        /* \"#utility.yul\":713:725   */\n      revert\n        /* \"#utility.yul\":737:854   */\n    tag_77:\n        /* \"#utility.yul\":846:847   */\n      0x00\n        /* \"#utility.yul\":843:844   */\n      dup1\n        /* \"#utility.yul\":836:848   */\n      revert\n        /* \"#utility.yul\":860:962   */\n    tag_78:\n        /* \"#utility.yul\":901:907   */\n      0x00\n        /* \"#utility.yul\":952:954   */\n      0x1f\n        /* \"#utility.yul\":948:955   */\n      not\n        /* \"#utility.yul\":943:945   */\n      0x1f\n        /* \"#utility.yul\":936:941   */\n      dup4\n        /* \"#utility.yul\":932:946   */\n      add\n        /* \"#utility.yul\":928:956   */\n      and\n        /* \"#utility.yul\":918:956   */\n      swap1\n      pop\n        /* \"#utility.yul\":860:962   */\n      swap2\n      swap1\n      pop\n      jump\t// out\n        /* \"#utility.yul\":968:1148   */\n    tag_79:\n        /* \"#utility.yul\":1016:1093   */\n      0x4e487b7100000000000000000000000000000000000000000000000000000000\n        /* \"#utility.yul\":1013:1014   */\n      0x00\n        /* \"#utility.yul\":1006:1094   */\n      mstore\n        /* \"#utility.yul\":1113:1117   */\n      0x41\n        /* \"#utility.yul\":1110:1111   */\n      0x04\n        /* \"#utility.yul\":1103:1118   */\n      mstore\n        /* \"#utility.yul\":1137:1141   */\n      0x24\n        /* \"#utility.yul\":1134:1135   */\n      0x00\n        /* \"#utility.yul\":1127:1142   */\n      revert\n        /* \"#utility.yul\":1154:1435   */\n    tag_80:\n        /* \"#utility.yul\":1237:1264   */\n      tag_126\n        /* \"#utility.yul\":1259:1263   */\n      dup3\n        /* \"#utility.yul\":1237:1264   */\n      tag_78\n      jump\t// in\n    tag_126:\n        /* \"#utility.yul\":1229:1235   */\n      dup2\n        /* \"#utility.yul\":1225:1265   */\n      add\n        /* \"#utility.yul\":1367:1373   */\n      dup2\n        /* \"#utility.yul\":1355:1365   */\n      dup2\n        /* \"#utility.yul\":1352:1374   */\n      lt\n        /* \"#utility.yul\":1331:1349   */\n      0xffffffffffffffff\n        /* \"#utility.yul\":1319:1329   */\n      dup3\n        /* \"#utility.yul\":1316:1350   */\n      gt\n        /* \"#utility.yul\":1313:1375   */\n      or\n        /* \"#utility.yul\":1310:1398   */\n      iszero\n      tag_127\n      jumpi\n        /* \"#utility.yul\":1378:1396   */\n      tag_128\n      tag_79\n      jump\t// in\n    tag_128:\n        /* \"#utility.yul\":1310:1398   */\n    tag_127:\n        /* \"#utility.yul\":1418:1428   */\n      dup1\n        /* \"#utility.yul\":1414:1416   */\n      0x40\n        /* \"#utility.yul\":1407:1429   */\n      mstore\n        /* \"#utility.yul\":1197:1435   */\n      pop\n        /* \"#utility.yul\":1154:1435   */\n      pop\n      pop\n      jump\t// out\n        /* \"#utility.yul\":1441:1570   */\n    tag_81:\n        /* \"#utility.yul\":1475:1481   */\n      0x00\n        /* \"#utility.yul\":1502:1522   */\n      tag_130\n      tag_71\n      jump\t// in\n    tag_130:\n        /* \"#utility.yul\":1492:1522   */\n      swap1\n      pop\n        /* \"#utility.yul\":1531:1564   */\n      tag_131\n        /* \"#utility.yul\":1559:1563   */\n      dup3\n        /* \"#utility.yul\":1551:1557   */\n      dup3\n        /* \"#utility.yul\":1531:1564   */\n      tag_80\n      jump\t// in\n    tag_131:\n        /* \"#utility.yul\":1441:1570   */\n      swap2\n      swap1\n      pop\n      jump\t// out\n        /* \"#utility.yul\":1576:1884   */\n    tag_82:\n        /* \"#utility.yul\":1638:1642   */\n      0x00\n        /* \"#utility.yul\":1728:1746   */\n      0xffffffffffffffff\n        /* \"#utility.yul\":1720:1726   */\n      dup3\n        /* \"#utility.yul\":1717:1747   */\n      gt\n        /* \"#utility.yul\":1714:1770   */\n      iszero\n      tag_133\n      jumpi\n        /* \"#utility.yul\":1750:1768   */\n      tag_134\n      tag_79\n      jump\t// in\n    tag_134:\n        /* \"#utility.yul\":1714:1770   */\n    tag_133:\n        /* \"#utility.yul\":1788:1817   */\n      tag_135\n        /* \"#utility.yul\":1810:1816   */\n      dup3\n        /* \"#utility.yul\":1788:1817   */\n      tag_78\n      jump\t// in\n    tag_135:\n        /* \"#utility.yul\":1780:1817   */\n      swap1\n      pop\n        /* \"#utility.yul\":1872:1876   */\n      0x20\n        /* \"#utility.yul\":1866:1870   */\n      dup2\n        /* \"#utility.yul\":1862:1877   */\n      add\n        /* \"#utility.yul\":1854:1877   */\n      swap1\n      pop\n        /* \"#utility.yul\":1576:1884   */\n      swap2\n      swap1\n      pop\n      jump\t// out\n        /* \"#utility.yul\":1890:2038   */\n    tag_83:\n        /* \"#utility.yul\":1988:1994   */\n      dup3\n        /* \"#utility.yul\":1983:1986   */\n      dup2\n        /* \"#utility.yul\":1978:1981   */\n      dup4\n        /* \"#utility.yul\":1965:1995   */\n      calldatacopy\n        /* \"#utility.yul\":2029:2030   */\n      0x00\n        /* \"#utility.yul\":2020:2026   */\n      dup4\n        /* \"#utility.yul\":2015:2018   */\n      dup4\n        /* \"#utility.yul\":2011:2027   */\n      add\n        /* \"#utility.yul\":2004:2031   */\n      mstore\n        /* \"#utility.yul\":1890:2038   */\n      pop\n      pop\n      pop\n      jump\t// out\n        /* \"#utility.yul\":2044:2469   */\n    tag_84:\n        /* \"#utility.yul\":2122:2127   */\n      0x00\n        /* \"#utility.yul\":2147:2213   */\n      tag_138\n        /* \"#utility.yul\":2163:2212   */\n      tag_139\n        /* \"#utility.yul\":2205:2211   */\n      dup5\n        /* \"#utility.yul\":2163:2212   */\n      tag_82\n      jump\t// in\n    tag_139:\n        /* \"#utility.yul\":2147:2213   */\n      tag_81\n      jump\t// in\n    tag_138:\n        /* \"#utility.yul\":2138:2213   */\n      swap1\n      pop\n        /* \"#utility.yul\":2236:2242   */\n      dup3\n        /* \"#utility.yul\":2229:2234   */\n      dup2\n        /* \"#utility.yul\":2222:2243   */\n      mstore\n        /* \"#utility.yul\":2274:2278   */\n      0x20\n        /* \"#utility.yul\":2267:2272   */\n      dup2\n        /* \"#utility.yul\":2263:2279   */\n      add\n        /* \"#utility.yul\":2312:2315   */\n      dup5\n        /* \"#utility.yul\":2303:2309   */\n      dup5\n        /* \"#utility.yul\":2298:2301   */\n      dup5\n        /* \"#utility.yul\":2294:2310   */\n      add\n        /* \"#utility.yul\":2291:2316   */\n      gt\n        /* \"#utility.yul\":2288:2400   */\n      iszero\n      tag_140\n      jumpi\n        /* \"#utility.yul\":2319:2398   */\n      tag_141\n      tag_77\n      jump\t// in\n    tag_141:\n        /* \"#utility.yul\":2288:2400   */\n    tag_140:\n        /* \"#utility.yul\":2409:2463   */\n      tag_142\n        /* \"#utility.yul\":2456:2462   */\n      dup5\n        /* \"#utility.yul\":2451:2454   */\n      dup3\n        /* \"#utility.yul\":2446:2449   */\n      dup6\n        /* \"#utility.yul\":2409:2463   */\n      tag_83\n      jump\t// in\n    tag_142:\n        /* \"#utility.yul\":2128:2469   */\n      pop\n        /* \"#utility.yul\":2044:2469   */\n      swap4\n      swap3\n      pop\n      pop\n      pop\n      jump\t// out\n        /* \"#utility.yul\":2489:2829   */\n    tag_85:\n        /* \"#utility.yul\":2545:2550   */\n      0x00\n        /* \"#utility.yul\":2594:2597   */\n      dup3\n        /* \"#utility.yul\":2587:2591   */\n      0x1f\n        /* \"#utility.yul\":2579:2585   */\n      dup4\n        /* \"#utility.yul\":2575:2592   */\n      add\n        /* \"#utility.yul\":2571:2598   */\n      slt\n        /* \"#utility.yul\":2561:2683   */\n      tag_144\n      jumpi\n        /* \"#utility.yul\":2602:2681   */\n      tag_145\n      tag_76\n      jump\t// in\n    tag_145:\n        /* \"#utility.yul\":2561:2683   */\n    tag_144:\n        /* \"#utility.yul\":2719:2725   */\n      dup2\n        /* \"#utility.yul\":2706:2726   */\n      calldataload\n        /* \"#utility.yul\":2744:2823   */\n      tag_146\n        /* \"#utility.yul\":2819:2822   */\n      dup5\n        /* \"#utility.yul\":2811:2817   */\n      dup3\n        /* \"#utility.yul\":2804:2808   */\n      0x20\n        /* \"#utility.yul\":2796:2802   */\n      dup7\n        /* \"#utility.yul\":2792:2809   */\n      add\n        /* \"#utility.yul\":2744:2823   */\n      tag_84\n      jump\t// in\n    tag_146:\n        /* \"#utility.yul\":2735:2823   */\n      swap2\n      pop\n        /* \"#utility.yul\":2551:2829   */\n      pop\n        /* \"#utility.yul\":2489:2829   */\n      swap3\n      swap2\n      pop\n      pop\n      jump\t// out\n        /* \"#utility.yul\":2835:3509   */\n    tag_8:\n        /* \"#utility.yul\":2923:2929   */\n      0x00\n        /* \"#utility.yul\":2931:2937   */\n      dup1\n        /* \"#utility.yul\":2980:2982   */\n      0x40\n        /* \"#utility.yul\":2968:2977   */\n      dup4\n        /* \"#utility.yul\":2959:2966   */\n      dup6\n        /* \"#utility.yul\":2955:2978   */\n      sub\n        /* \"#utility.yul\":2951:2983   */\n      slt\n        /* \"#utility.yul\":2948:3067   */\n      iszero\n      tag_148\n      jumpi\n        /* \"#utility.yul\":2986:3065   */\n      tag_149\n      tag_72\n      jump\t// in\n    tag_149:\n        /* \"#utility.yul\":2948:3067   */\n    tag_148:\n        /* \"#utility.yul\":3106:3107   */\n      0x00\n        /* \"#utility.yul\":3131:3194   */\n      tag_150\n        /* \"#utility.yul\":3186:3193   */\n      dup6\n        /* \"#utility.yul\":3177:3183   */\n      dup3\n        /* \"#utility.yul\":3166:3175   */\n      dup7\n        /* \"#utility.yul\":3162:3184   */\n      add\n        /* \"#utility.yul\":3131:3194   */\n      tag_75\n      jump\t// in\n    tag_150:\n        /* \"#utility.yul\":3121:3194   */\n      swap3\n      pop\n        /* \"#utility.yul\":3077:3204   */\n      pop\n        /* \"#utility.yul\":3271:3273   */\n      0x20\n        /* \"#utility.yul\":3260:3269   */\n      dup4\n        /* \"#utility.yul\":3256:3274   */\n      add\n        /* \"#utility.yul\":3243:3275   */\n      calldataload\n        /* \"#utility.yul\":3302:3320   */\n      0xffffffffffffffff\n        /* \"#utility.yul\":3294:3300   */\n      dup2\n        /* \"#utility.yul\":3291:3321   */\n      gt\n        /* \"#utility.yul\":3288:3405   */\n      iszero\n      tag_151\n      jumpi\n        /* \"#utility.yul\":3324:3403   */\n      tag_152\n      tag_73\n      jump\t// in\n    tag_152:\n        /* \"#utility.yul\":3288:3405   */\n    tag_151:\n        /* \"#utility.yul\":3429:3492   */\n      tag_153\n        /* \"#utility.yul\":3484:3491   */\n      dup6\n        /* \"#utility.yul\":3475:3481   */\n      dup3\n        /* \"#utility.yul\":3464:3473   */\n      dup7\n        /* \"#utility.yul\":3460:3482   */\n      add\n        /* \"#utility.yul\":3429:3492   */\n      tag_85\n      jump\t// in\n    tag_153:\n        /* \"#utility.yul\":3419:3492   */\n      swap2\n      pop\n        /* \"#utility.yul\":3214:3502   */\n      pop\n        /* \"#utility.yul\":2835:3509   */\n      swap3\n      pop\n      swap3\n      swap1\n      pop\n      jump\t// out\n        /* \"#utility.yul\":3515:3614   */\n    tag_86:\n        /* \"#utility.yul\":3567:3573   */\n      0x00\n        /* \"#utility.yul\":3601:3606   */\n      dup2\n        /* \"#utility.yul\":3595:3607   */\n      mload\n        /* \"#utility.yul\":3585:3607   */\n      swap1\n      pop\n        /* \"#utility.yul\":3515:3614   */\n      swap2\n      swap1\n      pop\n      jump\t// out\n        /* \"#utility.yul\":3620:3789   */\n    tag_87:\n        /* \"#utility.yul\":3704:3715   */\n      0x00\n        /* \"#utility.yul\":3738:3744   */\n      dup3\n        /* \"#utility.yul\":3733:3736   */\n      dup3\n        /* \"#utility.yul\":3726:3745   */\n      mstore\n        /* \"#utility.yul\":3778:3782   */\n      0x20\n        /* \"#utility.yul\":3773:3776   */\n      dup3\n        /* \"#utility.yul\":3769:3783   */\n      add\n        /* \"#utility.yul\":3754:3783   */\n      swap1\n      pop\n        /* \"#utility.yul\":3620:3789   */\n      swap3\n      swap2\n      pop\n      pop\n      jump\t// out\n        /* \"#utility.yul\":3795:3934   */\n    tag_88:\n        /* \"#utility.yul\":3884:3890   */\n      dup3\n        /* \"#utility.yul\":3879:3882   */\n      dup2\n        /* \"#utility.yul\":3874:3877   */\n      dup4\n        /* \"#utility.yul\":3868:3891   */\n      mcopy\n        /* \"#utility.yul\":3925:3926   */\n      0x00\n        /* \"#utility.yul\":3916:3922   */\n      dup4\n        /* \"#utility.yul\":3911:3914   */\n      dup4\n        /* \"#utility.yul\":3907:3923   */\n      add\n        /* \"#utility.yul\":3900:3927   */\n      mstore\n        /* \"#utility.yul\":3795:3934   */\n      pop\n      pop\n      pop\n      jump\t// out\n        /* \"#utility.yul\":3940:4317   */\n    tag_89:\n        /* \"#utility.yul\":4028:4031   */\n      0x00\n        /* \"#utility.yul\":4056:4095   */\n      tag_158\n        /* \"#utility.yul\":4089:4094   */\n      dup3\n        /* \"#utility.yul\":4056:4095   */\n      tag_86\n      jump\t// in\n    tag_158:\n        /* \"#utility.yul\":4111:4182   */\n      tag_159\n        /* \"#utility.yul\":4175:4181   */\n      dup2\n        /* \"#utility.yul\":4170:4173   */\n      dup6\n        /* \"#utility.yul\":4111:4182   */\n      tag_87\n      jump\t// in\n    tag_159:\n        /* \"#utility.yul\":4104:4182   */\n      swap4\n      pop\n        /* \"#utility.yul\":4191:4256   */\n      tag_160\n        /* \"#utility.yul\":4249:4255   */\n      dup2\n        /* \"#utility.yul\":4244:4247   */\n      dup6\n        /* \"#utility.yul\":4237:4241   */\n      0x20\n        /* \"#utility.yul\":4230:4235   */\n      dup7\n        /* \"#utility.yul\":4226:4242   */\n      add\n        /* \"#utility.yul\":4191:4256   */\n      tag_88\n      jump\t// in\n    tag_160:\n        /* \"#utility.yul\":4281:4310   */\n      tag_161\n        /* \"#utility.yul\":4303:4309   */\n      dup2\n        /* \"#utility.yul\":4281:4310   */\n      tag_78\n      jump\t// in\n    tag_161:\n        /* \"#utility.yul\":4276:4279   */\n      dup5\n        /* \"#utility.yul\":4272:4311   */\n      add\n        /* \"#utility.yul\":4265:4311   */\n      swap2\n      pop\n        /* \"#utility.yul\":4032:4317   */\n      pop\n        /* \"#utility.yul\":3940:4317   */\n      swap3\n      swap2\n      pop\n      pop\n      jump\t// out\n        /* \"#utility.yul\":4323:4449   */\n    tag_90:\n        /* \"#utility.yul\":4360:4367   */\n      0x00\n        /* \"#utility.yul\":4400:4442   */\n      0xffffffffffffffffffffffffffffffffffffffff\n        /* \"#utility.yul\":4393:4398   */\n      dup3\n        /* \"#utility.yul\":4389:4443   */\n      and\n        /* \"#utility.yul\":4378:4443   */\n      swap1\n      pop\n        /* \"#utility.yul\":4323:4449   */\n      swap2\n      swap1\n      pop\n      jump\t// out\n        /* \"#utility.yul\":4455:4559   */\n    tag_91:\n        /* \"#utility.yul\":4500:4507   */\n      0x00\n        /* \"#utility.yul\":4529:4553   */\n      tag_164\n        /* \"#utility.yul\":4547:4552   */\n      dup3\n        /* \"#utility.yul\":4529:4553   */\n      tag_90\n      jump\t// in\n    tag_164:\n        /* \"#utility.yul\":4518:4553   */\n      swap1\n      pop\n        /* \"#utility.yul\":4455:4559   */\n      swap2\n      swap1\n      pop\n      jump\t// out\n        /* \"#utility.yul\":4565:4707   */\n    tag_92:\n        /* \"#utility.yul\":4668:4700   */\n      tag_166\n        /* \"#utility.yul\":4694:4699   */\n      dup2\n        /* \"#utility.yul\":4668:4700   */\n      tag_91\n      jump\t// in\n    tag_166:\n        /* \"#utility.yul\":4663:4666   */\n      dup3\n        /* \"#utility.yul\":4656:4701   */\n      mstore\n        /* \"#utility.yul\":4565:4707   */\n      pop\n      pop\n      jump\t// out\n        /* \"#utility.yul\":4713:4893   */\n    tag_24:\n        /* \"#utility.yul\":4761:4838   */\n      0x4e487b7100000000000000000000000000000000000000000000000000000000\n        /* \"#utility.yul\":4758:4759   */\n      0x00\n        /* \"#utility.yul\":4751:4839   */\n      mstore\n        /* \"#utility.yul\":4858:4862   */\n      0x21\n        /* \"#utility.yul\":4855:4856   */\n      0x04\n        /* \"#utility.yul\":4848:4863   */\n      mstore\n        /* \"#utility.yul\":4882:4886   */\n      0x24\n        /* \"#utility.yul\":4879:4880   */\n      0x00\n        /* \"#utility.yul\":4872:4887   */\n      revert\n        /* \"#utility.yul\":4899:5014   */\n    tag_93:\n        /* \"#utility.yul\":4982:4983   */\n      0x02\n        /* \"#utility.yul\":4975:4980   */\n      dup2\n        /* \"#utility.yul\":4972:4984   */\n      lt\n        /* \"#utility.yul\":4962:5008   */\n      tag_169\n      jumpi\n        /* \"#utility.yul\":4988:5006   */\n      tag_170\n      tag_24\n      jump\t// in\n    tag_170:\n        /* \"#utility.yul\":4962:5008   */\n    tag_169:\n        /* \"#utility.yul\":4899:5014   */\n      pop\n      jump\t// out\n        /* \"#utility.yul\":5020:5151   */\n    tag_94:\n        /* \"#utility.yul\":5067:5074   */\n      0x00\n        /* \"#utility.yul\":5096:5101   */\n      dup2\n        /* \"#utility.yul\":5085:5101   */\n      swap1\n      pop\n        /* \"#utility.yul\":5102:5145   */\n      tag_172\n        /* \"#utility.yul\":5139:5144   */\n      dup3\n        /* \"#utility.yul\":5102:5145   */\n      tag_93\n      jump\t// in\n    tag_172:\n        /* \"#utility.yul\":5020:5151   */\n      swap2\n      swap1\n      pop\n      jump\t// out\n        /* \"#utility.yul\":5157:5288   */\n    tag_95:\n        /* \"#utility.yul\":5215:5224   */\n      0x00\n        /* \"#utility.yul\":5248:5282   */\n      tag_174\n        /* \"#utility.yul\":5276:5281   */\n      dup3\n        /* \"#utility.yul\":5248:5282   */\n      tag_94\n      jump\t// in\n    tag_174:\n        /* \"#utility.yul\":5235:5282   */\n      swap1\n      pop\n        /* \"#utility.yul\":5157:5288   */\n      swap2\n      swap1\n      pop\n      jump\t// out\n        /* \"#utility.yul\":5294:5441   */\n    tag_96:\n        /* \"#utility.yul\":5389:5434   */\n      tag_176\n        /* \"#utility.yul\":5428:5433   */\n      dup2\n        /* \"#utility.yul\":5389:5434   */\n      tag_95\n      jump\t// in\n    tag_176:\n        /* \"#utility.yul\":5384:5387   */\n      dup3\n        /* \"#utility.yul\":5377:5435   */\n      mstore\n        /* \"#utility.yul\":5294:5441   */\n      pop\n      pop\n      jump\t// out\n        /* \"#utility.yul\":5447:5524   */\n    tag_97:\n        /* \"#utility.yul\":5484:5491   */\n      0x00\n        /* \"#utility.yul\":5513:5518   */\n      dup2\n        /* \"#utility.yul\":5502:5518   */\n      swap1\n      pop\n        /* \"#utility.yul\":5447:5524   */\n      swap2\n      swap1\n      pop\n      jump\t// out\n        /* \"#utility.yul\":5530:5648   */\n    tag_98:\n        /* \"#utility.yul\":5617:5641   */\n      tag_179\n        /* \"#utility.yul\":5635:5640   */\n      dup2\n        /* \"#utility.yul\":5617:5641   */\n      tag_97\n      jump\t// in\n    tag_179:\n        /* \"#utility.yul\":5612:5615   */\n      dup3\n        /* \"#utility.yul\":5605:5642   */\n      mstore\n        /* \"#utility.yul\":5530:5648   */\n      pop\n      pop\n      jump\t// out\n        /* \"#utility.yul\":5654:6861   */\n    tag_16:\n        /* \"#utility.yul\":5999:6003   */\n      0x00\n        /* \"#utility.yul\":6037:6040   */\n      0xe0\n        /* \"#utility.yul\":6026:6035   */\n      dup3\n        /* \"#utility.yul\":6022:6041   */\n      add\n        /* \"#utility.yul\":6014:6041   */\n      swap1\n      pop\n        /* \"#utility.yul\":6087:6096   */\n      dup2\n        /* \"#utility.yul\":6081:6085   */\n      dup2\n        /* \"#utility.yul\":6077:6097   */\n      sub\n        /* \"#utility.yul\":6073:6074   */\n      0x00\n        /* \"#utility.yul\":6062:6071   */\n      dup4\n        /* \"#utility.yul\":6058:6075   */\n      add\n        /* \"#utility.yul\":6051:6098   */\n      mstore\n        /* \"#utility.yul\":6115:6193   */\n      tag_181\n        /* \"#utility.yul\":6188:6192   */\n      dup2\n        /* \"#utility.yul\":6179:6185   */\n      dup11\n        /* \"#utility.yul\":6115:6193   */\n      tag_89\n      jump\t// in\n    tag_181:\n        /* \"#utility.yul\":6107:6193   */\n      swap1\n      pop\n        /* \"#utility.yul\":6240:6249   */\n      dup2\n        /* \"#utility.yul\":6234:6238   */\n      dup2\n        /* \"#utility.yul\":6230:6250   */\n      sub\n        /* \"#utility.yul\":6225:6227   */\n      0x20\n        /* \"#utility.yul\":6214:6223   */\n      dup4\n        /* \"#utility.yul\":6210:6228   */\n      add\n        /* \"#utility.yul\":6203:6251   */\n      mstore\n        /* \"#utility.yul\":6268:6346   */\n      tag_182\n        /* \"#utility.yul\":6341:6345   */\n      dup2\n        /* \"#utility.yul\":6332:6338   */\n      dup10\n        /* \"#utility.yul\":6268:6346   */\n      tag_89\n      jump\t// in\n    tag_182:\n        /* \"#utility.yul\":6260:6346   */\n      swap1\n      pop\n        /* \"#utility.yul\":6393:6402   */\n      dup2\n        /* \"#utility.yul\":6387:6391   */\n      dup2\n        /* \"#utility.yul\":6383:6403   */\n      sub\n        /* \"#utility.yul\":6378:6380   */\n      0x40\n        /* \"#utility.yul\":6367:6376   */\n      dup4\n        /* \"#utility.yul\":6363:6381   */\n      add\n        /* \"#utility.yul\":6356:6404   */\n      mstore\n        /* \"#utility.yul\":6421:6499   */\n      tag_183\n        /* \"#utility.yul\":6494:6498   */\n      dup2\n        /* \"#utility.yul\":6485:6491   */\n      dup9\n        /* \"#utility.yul\":6421:6499   */\n      tag_89\n      jump\t// in\n    tag_183:\n        /* \"#utility.yul\":6413:6499   */\n      swap1\n      pop\n        /* \"#utility.yul\":6509:6597   */\n      tag_184\n        /* \"#utility.yul\":6593:6595   */\n      0x60\n        /* \"#utility.yul\":6582:6591   */\n      dup4\n        /* \"#utility.yul\":6578:6596   */\n      add\n        /* \"#utility.yul\":6569:6575   */\n      dup8\n        /* \"#utility.yul\":6509:6597   */\n      tag_92\n      jump\t// in\n    tag_184:\n        /* \"#utility.yul\":6607:6688   */\n      tag_185\n        /* \"#utility.yul\":6683:6686   */\n      0x80\n        /* \"#utility.yul\":6672:6681   */\n      dup4\n        /* \"#utility.yul\":6668:6687   */\n      add\n        /* \"#utility.yul\":6659:6665   */\n      dup7\n        /* \"#utility.yul\":6607:6688   */\n      tag_96\n      jump\t// in\n    tag_185:\n        /* \"#utility.yul\":6698:6771   */\n      tag_186\n        /* \"#utility.yul\":6766:6769   */\n      0xa0\n        /* \"#utility.yul\":6755:6764   */\n      dup4\n        /* \"#utility.yul\":6751:6770   */\n      add\n        /* \"#utility.yul\":6742:6748   */\n      dup6\n        /* \"#utility.yul\":6698:6771   */\n      tag_98\n      jump\t// in\n    tag_186:\n        /* \"#utility.yul\":6781:6854   */\n      tag_187\n        /* \"#utility.yul\":6849:6852   */\n      0xc0\n        /* \"#utility.yul\":6838:6847   */\n      dup4\n        /* \"#utility.yul\":6834:6853   */\n      add\n        /* \"#utility.yul\":6825:6831   */\n      dup5\n        /* \"#utility.yul\":6781:6854   */\n      tag_98\n      jump\t// in\n    tag_187:\n        /* \"#utility.yul\":5654:6861   */\n      swap9\n      swap8\n      pop\n      pop\n      pop\n      pop\n      pop\n      pop\n      pop\n      pop\n      jump\t// out\n        /* \"#utility.yul\":6867:7048   */\n    tag_99:\n        /* \"#utility.yul\":7007:7040   */\n      0x4f6e6c79206f776e65722063616e206368616e67652074686520737461746500\n        /* \"#utility.yul\":7003:7004   */\n      0x00\n        /* \"#utility.yul\":6995:7001   */\n      dup3\n        /* \"#utility.yul\":6991:7005   */\n      add\n        /* \"#utility.yul\":6984:7041   */\n      mstore\n        /* \"#utility.yul\":6867:7048   */\n      pop\n      jump\t// out\n        /* \"#utility.yul\":7054:7420   */\n    tag_100:\n        /* \"#utility.yul\":7196:7199   */\n      0x00\n        /* \"#utility.yul\":7217:7284   */\n      tag_190\n        /* \"#utility.yul\":7281:7283   */\n      0x1f\n        /* \"#utility.yul\":7276:7279   */\n      dup4\n        /* \"#utility.yul\":7217:7284   */\n      tag_87\n      jump\t// in\n    tag_190:\n        /* \"#utility.yul\":7210:7284   */\n      swap2\n      pop\n        /* \"#utility.yul\":7293:7386   */\n      tag_191\n        /* \"#utility.yul\":7382:7385   */\n      dup3\n        /* \"#utility.yul\":7293:7386   */\n      tag_99\n      jump\t// in\n    tag_191:\n        /* \"#utility.yul\":7411:7413   */\n      0x20\n        /* \"#utility.yul\":7406:7409   */\n      dup3\n        /* \"#utility.yul\":7402:7414   */\n      add\n        /* \"#utility.yul\":7395:7414   */\n      swap1\n      pop\n        /* \"#utility.yul\":7054:7420   */\n      swap2\n      swap1\n      pop\n      jump\t// out\n        /* \"#utility.yul\":7426:7845   */\n    tag_20:\n        /* \"#utility.yul\":7592:7596   */\n      0x00\n        /* \"#utility.yul\":7630:7632   */\n      0x20\n        /* \"#utility.yul\":7619:7628   */\n      dup3\n        /* \"#utility.yul\":7615:7633   */\n      add\n        /* \"#utility.yul\":7607:7633   */\n      swap1\n      pop\n        /* \"#utility.yul\":7679:7688   */\n      dup2\n        /* \"#utility.yul\":7673:7677   */\n      dup2\n        /* \"#utility.yul\":7669:7689   */\n      sub\n        /* \"#utility.yul\":7665:7666   */\n      0x00\n        /* \"#utility.yul\":7654:7663   */\n      dup4\n        /* \"#utility.yul\":7650:7667   */\n      add\n        /* \"#utility.yul\":7643:7690   */\n      mstore\n        /* \"#utility.yul\":7707:7838   */\n      tag_193\n        /* \"#utility.yul\":7833:7837   */\n      dup2\n        /* \"#utility.yul\":7707:7838   */\n      tag_100\n      jump\t// in\n    tag_193:\n        /* \"#utility.yul\":7699:7838   */\n      swap1\n      pop\n        /* \"#utility.yul\":7426:7845   */\n      swap2\n      swap1\n      pop\n      jump\t// out\n        /* \"#utility.yul\":7851:8028   */\n    tag_101:\n        /* \"#utility.yul\":7991:8020   */\n      0x4e6577207374617465206d75737420626520646966666572656e740000000000\n        /* \"#utility.yul\":7987:7988   */\n      0x00\n        /* \"#utility.yul\":7979:7985   */\n      dup3\n        /* \"#utility.yul\":7975:7989   */\n      add\n        /* \"#utility.yul\":7968:8021   */\n      mstore\n        /* \"#utility.yul\":7851:8028   */\n      pop\n      jump\t// out\n        /* \"#utility.yul\":8034:8400   */\n    tag_102:\n        /* \"#utility.yul\":8176:8179   */\n      0x00\n        /* \"#utility.yul\":8197:8264   */\n      tag_196\n        /* \"#utility.yul\":8261:8263   */\n      0x1b\n        /* \"#utility.yul\":8256:8259   */\n      dup4\n        /* \"#utility.yul\":8197:8264   */\n      tag_87\n      jump\t// in\n    tag_196:\n        /* \"#utility.yul\":8190:8264   */\n      swap2\n      pop\n        /* \"#utility.yul\":8273:8366   */\n      tag_197\n        /* \"#utility.yul\":8362:8365   */\n      dup3\n        /* \"#utility.yul\":8273:8366   */\n      tag_101\n      jump\t// in\n    tag_197:\n        /* \"#utility.yul\":8391:8393   */\n      0x20\n        /* \"#utility.yul\":8386:8389   */\n      dup3\n        /* \"#utility.yul\":8382:8394   */\n      add\n        /* \"#utility.yul\":8375:8394   */\n      swap1\n      pop\n        /* \"#utility.yul\":8034:8400   */\n      swap2\n      swap1\n      pop\n      jump\t// out\n        /* \"#utility.yul\":8406:8825   */\n    tag_29:\n        /* \"#utility.yul\":8572:8576   */\n      0x00\n        /* \"#utility.yul\":8610:8612   */\n      0x20\n        /* \"#utility.yul\":8599:8608   */\n      dup3\n        /* \"#utility.yul\":8595:8613   */\n      add\n        /* \"#utility.yul\":8587:8613   */\n      swap1\n      pop\n        /* \"#utility.yul\":8659:8668   */\n      dup2\n        /* \"#utility.yul\":8653:8657   */\n      dup2\n        /* \"#utility.yul\":8649:8669   */\n      sub\n        /* \"#utility.yul\":8645:8646   */\n      0x00\n        /* \"#utility.yul\":8634:8643   */\n      dup4\n        /* \"#utility.yul\":8630:8647   */\n      add\n        /* \"#utility.yul\":8623:8670   */\n      mstore\n        /* \"#utility.yul\":8687:8818   */\n      tag_199\n        /* \"#utility.yul\":8813:8817   */\n      dup2\n        /* \"#utility.yul\":8687:8818   */\n      tag_102\n      jump\t// in\n    tag_199:\n        /* \"#utility.yul\":8679:8818   */\n      swap1\n      pop\n        /* \"#utility.yul\":8406:8825   */\n      swap2\n      swap1\n      pop\n      jump\t// out\n        /* \"#utility.yul\":8831:9011   */\n    tag_103:\n        /* \"#utility.yul\":8879:8956   */\n      0x4e487b7100000000000000000000000000000000000000000000000000000000\n        /* \"#utility.yul\":8876:8877   */\n      0x00\n        /* \"#utility.yul\":8869:8957   */\n      mstore\n        /* \"#utility.yul\":8976:8980   */\n      0x22\n        /* \"#utility.yul\":8973:8974   */\n      0x04\n        /* \"#utility.yul\":8966:8981   */\n      mstore\n        /* \"#utility.yul\":9000:9004   */\n      0x24\n        /* \"#utility.yul\":8997:8998   */\n      0x00\n        /* \"#utility.yul\":8990:9005   */\n      revert\n        /* \"#utility.yul\":9017:9337   */\n    tag_56:\n        /* \"#utility.yul\":9061:9067   */\n      0x00\n        /* \"#utility.yul\":9098:9099   */\n      0x02\n        /* \"#utility.yul\":9092:9096   */\n      dup3\n        /* \"#utility.yul\":9088:9100   */\n      div\n        /* \"#utility.yul\":9078:9100   */\n      swap1\n      pop\n        /* \"#utility.yul\":9145:9146   */\n      0x01\n        /* \"#utility.yul\":9139:9143   */\n      dup3\n        /* \"#utility.yul\":9135:9147   */\n      and\n        /* \"#utility.yul\":9166:9184   */\n      dup1\n        /* \"#utility.yul\":9156:9237   */\n      tag_202\n      jumpi\n        /* \"#utility.yul\":9222:9226   */\n      0x7f\n        /* \"#utility.yul\":9214:9220   */\n      dup3\n        /* \"#utility.yul\":9210:9227   */\n      and\n        /* \"#utility.yul\":9200:9227   */\n      swap2\n      pop\n        /* \"#utility.yul\":9156:9237   */\n    tag_202:\n        /* \"#utility.yul\":9284:9286   */\n      0x20\n        /* \"#utility.yul\":9276:9282   */\n      dup3\n        /* \"#utility.yul\":9273:9287   */\n      lt\n        /* \"#utility.yul\":9253:9271   */\n      dup2\n        /* \"#utility.yul\":9250:9288   */\n      sub\n        /* \"#utility.yul\":9247:9331   */\n      tag_203\n      jumpi\n        /* \"#utility.yul\":9303:9321   */\n      tag_204\n      tag_103\n      jump\t// in\n    tag_204:\n        /* \"#utility.yul\":9247:9331   */\n    tag_203:\n        /* \"#utility.yul\":9068:9337   */\n      pop\n        /* \"#utility.yul\":9017:9337   */\n      swap2\n      swap1\n      pop\n      jump\t// out\n        /* \"#utility.yul\":9343:9484   */\n    tag_104:\n        /* \"#utility.yul\":9392:9396   */\n      0x00\n        /* \"#utility.yul\":9415:9418   */\n      dup2\n        /* \"#utility.yul\":9407:9418   */\n      swap1\n      pop\n        /* \"#utility.yul\":9438:9441   */\n      dup2\n        /* \"#utility.yul\":9435:9436   */\n      0x00\n        /* \"#utility.yul\":9428:9442   */\n      mstore\n        /* \"#utility.yul\":9472:9476   */\n      0x20\n        /* \"#utility.yul\":9469:9470   */\n      0x00\n        /* \"#utility.yul\":9459:9477   */\n      keccak256\n        /* \"#utility.yul\":9451:9477   */\n      swap1\n      pop\n        /* \"#utility.yul\":9343:9484   */\n      swap2\n      swap1\n      pop\n      jump\t// out\n        /* \"#utility.yul\":9514:10345   */\n    tag_105:\n        /* \"#utility.yul\":9599:9602   */\n      0x00\n        /* \"#utility.yul\":9636:9641   */\n      dup2\n        /* \"#utility.yul\":9630:9642   */\n      sload\n        /* \"#utility.yul\":9665:9701   */\n      tag_207\n        /* \"#utility.yul\":9691:9700   */\n      dup2\n        /* \"#utility.yul\":9665:9701   */\n      tag_56\n      jump\t// in\n    tag_207:\n        /* \"#utility.yul\":9717:9788   */\n      tag_208\n        /* \"#utility.yul\":9781:9787   */\n      dup2\n        /* \"#utility.yul\":9776:9779   */\n      dup7\n        /* \"#utility.yul\":9717:9788   */\n      tag_87\n      jump\t// in\n    tag_208:\n        /* \"#utility.yul\":9710:9788   */\n      swap5\n      pop\n        /* \"#utility.yul\":9819:9820   */\n      0x01\n        /* \"#utility.yul\":9808:9817   */\n      dup3\n        /* \"#utility.yul\":9804:9821   */\n      and\n        /* \"#utility.yul\":9835:9836   */\n      0x00\n        /* \"#utility.yul\":9830:9994   */\n      dup2\n      eq\n      tag_210\n      jumpi\n        /* \"#utility.yul\":10008:10009   */\n      0x01\n        /* \"#utility.yul\":10003:10339   */\n      dup2\n      eq\n      tag_211\n      jumpi\n        /* \"#utility.yul\":9797:10339   */\n      jump(tag_209)\n        /* \"#utility.yul\":9830:9994   */\n    tag_210:\n        /* \"#utility.yul\":9914:9918   */\n      0xff\n        /* \"#utility.yul\":9910:9919   */\n      not\n        /* \"#utility.yul\":9899:9908   */\n      dup4\n        /* \"#utility.yul\":9895:9920   */\n      and\n        /* \"#utility.yul\":9890:9893   */\n      dup7\n        /* \"#utility.yul\":9883:9921   */\n      mstore\n        /* \"#utility.yul\":9974:9980   */\n      dup2\n        /* \"#utility.yul\":9967:9981   */\n      iszero\n        /* \"#utility.yul\":9960:9982   */\n      iszero\n        /* \"#utility.yul\":9954:9958   */\n      0x20\n        /* \"#utility.yul\":9950:9983   */\n      mul\n        /* \"#utility.yul\":9945:9948   */\n      dup7\n        /* \"#utility.yul\":9941:9984   */\n      add\n        /* \"#utility.yul\":9934:9984   */\n      swap4\n      pop\n        /* \"#utility.yul\":9830:9994   */\n      jump(tag_209)\n        /* \"#utility.yul\":10003:10339   */\n    tag_211:\n        /* \"#utility.yul\":10070:10108   */\n      tag_212\n        /* \"#utility.yul\":10102:10107   */\n      dup6\n        /* \"#utility.yul\":10070:10108   */\n      tag_104\n      jump\t// in\n    tag_212:\n        /* \"#utility.yul\":10130:10131   */\n      0x00\n        /* \"#utility.yul\":10144:10298   */\n    tag_213:\n        /* \"#utility.yul\":10158:10164   */\n      dup4\n        /* \"#utility.yul\":10155:10156   */\n      dup2\n        /* \"#utility.yul\":10152:10165   */\n      lt\n        /* \"#utility.yul\":10144:10298   */\n      iszero\n      tag_215\n      jumpi\n        /* \"#utility.yul\":10232:10239   */\n      dup2\n        /* \"#utility.yul\":10226:10240   */\n      sload\n        /* \"#utility.yul\":10222:10223   */\n      dup2\n        /* \"#utility.yul\":10217:10220   */\n      dup10\n        /* \"#utility.yul\":10213:10224   */\n      add\n        /* \"#utility.yul\":10206:10241   */\n      mstore\n        /* \"#utility.yul\":10282:10283   */\n      0x01\n        /* \"#utility.yul\":10273:10280   */\n      dup3\n        /* \"#utility.yul\":10269:10284   */\n      add\n        /* \"#utility.yul\":10258:10284   */\n      swap2\n      pop\n        /* \"#utility.yul\":10180:10184   */\n      0x20\n        /* \"#utility.yul\":10177:10178   */\n      dup2\n        /* \"#utility.yul\":10173:10185   */\n      add\n        /* \"#utility.yul\":10168:10185   */\n      swap1\n      pop\n        /* \"#utility.yul\":10144:10298   */\n      jump(tag_213)\n    tag_215:\n        /* \"#utility.yul\":10327:10328   */\n      dup1\n        /* \"#utility.yul\":10322:10325   */\n      dup9\n        /* \"#utility.yul\":10318:10329   */\n      add\n        /* \"#utility.yul\":10311:10329   */\n      swap6\n      pop\n        /* \"#utility.yul\":10010:10339   */\n      pop\n      pop\n        /* \"#utility.yul\":9797:10339   */\n    tag_209:\n      pop\n        /* \"#utility.yul\":9603:10345   */\n      pop\n      pop\n        /* \"#utility.yul\":9514:10345   */\n      swap3\n      swap2\n      pop\n      pop\n      jump\t// out\n        /* \"#utility.yul\":10351:10784   */\n    tag_33:\n        /* \"#utility.yul\":10497:10501   */\n      0x00\n        /* \"#utility.yul\":10535:10537   */\n      0x40\n        /* \"#utility.yul\":10524:10533   */\n      dup3\n        /* \"#utility.yul\":10520:10538   */\n      add\n        /* \"#utility.yul\":10512:10538   */\n      swap1\n      pop\n        /* \"#utility.yul\":10584:10593   */\n      dup2\n        /* \"#utility.yul\":10578:10582   */\n      dup2\n        /* \"#utility.yul\":10574:10594   */\n      sub\n        /* \"#utility.yul\":10570:10571   */\n      0x00\n        /* \"#utility.yul\":10559:10568   */\n      dup4\n        /* \"#utility.yul\":10555:10572   */\n      add\n        /* \"#utility.yul\":10548:10595   */\n      mstore\n        /* \"#utility.yul\":10612:10687   */\n      tag_217\n        /* \"#utility.yul\":10682:10686   */\n      dup2\n        /* \"#utility.yul\":10673:10679   */\n      dup6\n        /* \"#utility.yul\":10612:10687   */\n      tag_105\n      jump\t// in\n    tag_217:\n        /* \"#utility.yul\":10604:10687   */\n      swap1\n      pop\n        /* \"#utility.yul\":10697:10777   */\n      tag_218\n        /* \"#utility.yul\":10773:10775   */\n      0x20\n        /* \"#utility.yul\":10762:10771   */\n      dup4\n        /* \"#utility.yul\":10758:10776   */\n      add\n        /* \"#utility.yul\":10749:10755   */\n      dup5\n        /* \"#utility.yul\":10697:10777   */\n      tag_96\n      jump\t// in\n    tag_218:\n        /* \"#utility.yul\":10351:10784   */\n      swap4\n      swap3\n      pop\n      pop\n      pop\n      jump\t// out\n        /* \"#utility.yul\":10790:10970   */\n    tag_106:\n        /* \"#utility.yul\":10930:10962   */\n      0x4173204f776e65722063616e27742066756e64207572206163636f756e740000\n        /* \"#utility.yul\":10926:10927   */\n      0x00\n        /* \"#utility.yul\":10918:10924   */\n      dup3\n        /* \"#utility.yul\":10914:10928   */\n      add\n        /* \"#utility.yul\":10907:10963   */\n      mstore\n        /* \"#utility.yul\":10790:10970   */\n      pop\n      jump\t// out\n        /* \"#utility.yul\":10976:11342   */\n    tag_107:\n        /* \"#utility.yul\":11118:11121   */\n      0x00\n        /* \"#utility.yul\":11139:11206   */\n      tag_221\n        /* \"#utility.yul\":11203:11205   */\n      0x1e\n        /* \"#utility.yul\":11198:11201   */\n      dup4\n        /* \"#utility.yul\":11139:11206   */\n      tag_87\n      jump\t// in\n    tag_221:\n        /* \"#utility.yul\":11132:11206   */\n      swap2\n      pop\n        /* \"#utility.yul\":11215:11308   */\n      tag_222\n        /* \"#utility.yul\":11304:11307   */\n      dup3\n        /* \"#utility.yul\":11215:11308   */\n      tag_106\n      jump\t// in\n    tag_222:\n        /* \"#utility.yul\":11333:11335   */\n      0x20\n        /* \"#utility.yul\":11328:11331   */\n      dup3\n        /* \"#utility.yul\":11324:11336   */\n      add\n        /* \"#utility.yul\":11317:11336   */\n      swap1\n      pop\n        /* \"#utility.yul\":10976:11342   */\n      swap2\n      swap1\n      pop\n      jump\t// out\n        /* \"#utility.yul\":11348:11767   */\n    tag_37:\n        /* \"#utility.yul\":11514:11518   */\n      0x00\n        /* \"#utility.yul\":11552:11554   */\n      0x20\n        /* \"#utility.yul\":11541:11550   */\n      dup3\n        /* \"#utility.yul\":11537:11555   */\n      add\n        /* \"#utility.yul\":11529:11555   */\n      swap1\n      pop\n        /* \"#utility.yul\":11601:11610   */\n      dup2\n        /* \"#utility.yul\":11595:11599   */\n      dup2\n        /* \"#utility.yul\":11591:11611   */\n      sub\n        /* \"#utility.yul\":11587:11588   */\n      0x00\n        /* \"#utility.yul\":11576:11585   */\n      dup4\n        /* \"#utility.yul\":11572:11589   */\n      add\n        /* \"#utility.yul\":11565:11612   */\n      mstore\n        /* \"#utility.yul\":11629:11760   */\n      tag_224\n        /* \"#utility.yul\":11755:11759   */\n      dup2\n        /* \"#utility.yul\":11629:11760   */\n      tag_107\n      jump\t// in\n    tag_224:\n        /* \"#utility.yul\":11621:11760   */\n      swap1\n      pop\n        /* \"#utility.yul\":11348:11767   */\n      swap2\n      swap1\n      pop\n      jump\t// out\n        /* \"#utility.yul\":11773:11951   */\n    tag_108:\n        /* \"#utility.yul\":11913:11943   */\n      0x54652070726f6a6563742063616e74207265636976652066756e647300000000\n        /* \"#utility.yul\":11909:11910   */\n      0x00\n        /* \"#utility.yul\":11901:11907   */\n      dup3\n        /* \"#utility.yul\":11897:11911   */\n      add\n        /* \"#utility.yul\":11890:11944   */\n      mstore\n        /* \"#utility.yul\":11773:11951   */\n      pop\n      jump\t// out\n        /* \"#utility.yul\":11957:12323   */\n    tag_109:\n        /* \"#utility.yul\":12099:12102   */\n      0x00\n        /* \"#utility.yul\":12120:12187   */\n      tag_227\n        /* \"#utility.yul\":12184:12186   */\n      0x1c\n        /* \"#utility.yul\":12179:12182   */\n      dup4\n        /* \"#utility.yul\":12120:12187   */\n      tag_87\n      jump\t// in\n    tag_227:\n        /* \"#utility.yul\":12113:12187   */\n      swap2\n      pop\n        /* \"#utility.yul\":12196:12289   */\n      tag_228\n        /* \"#utility.yul\":12285:12288   */\n      dup3\n        /* \"#utility.yul\":12196:12289   */\n      tag_108\n      jump\t// in\n    tag_228:\n        /* \"#utility.yul\":12314:12316   */\n      0x20\n        /* \"#utility.yul\":12309:12312   */\n      dup3\n        /* \"#utility.yul\":12305:12317   */\n      add\n        /* \"#utility.yul\":12298:12317   */\n      swap1\n      pop\n        /* \"#utility.yul\":11957:12323   */\n      swap2\n      swap1\n      pop\n      jump\t// out\n        /* \"#utility.yul\":12329:12748   */\n    tag_45:\n        /* \"#utility.yul\":12495:12499   */\n      0x00\n        /* \"#utility.yul\":12533:12535   */\n      0x20\n        /* \"#utility.yul\":12522:12531   */\n      dup3\n        /* \"#utility.yul\":12518:12536   */\n      add\n        /* \"#utility.yul\":12510:12536   */\n      swap1\n      pop\n        /* \"#utility.yul\":12582:12591   */\n      dup2\n        /* \"#utility.yul\":12576:12580   */\n      dup2\n        /* \"#utility.yul\":12572:12592   */\n      sub\n        /* \"#utility.yul\":12568:12569   */\n      0x00\n        /* \"#utility.yul\":12557:12566   */\n      dup4\n        /* \"#utility.yul\":12553:12570   */\n      add\n        /* \"#utility.yul\":12546:12593   */\n      mstore\n        /* \"#utility.yul\":12610:12741   */\n      tag_230\n        /* \"#utility.yul\":12736:12740   */\n      dup2\n        /* \"#utility.yul\":12610:12741   */\n      tag_109\n      jump\t// in\n    tag_230:\n        /* \"#utility.yul\":12602:12741   */\n      swap1\n      pop\n        /* \"#utility.yul\":12329:12748   */\n      swap2\n      swap1\n      pop\n      jump\t// out\n        /* \"#utility.yul\":12754:12934   */\n    tag_110:\n        /* \"#utility.yul\":12894:12926   */\n      0x46756e642076616c7565206d757374206265206d6f7265207468616e20300000\n        /* \"#utility.yul\":12890:12891   */\n      0x00\n        /* \"#utility.yul\":12882:12888   */\n      dup3\n        /* \"#utility.yul\":12878:12892   */\n      add\n        /* \"#utility.yul\":12871:12927   */\n      mstore\n        /* \"#utility.yul\":12754:12934   */\n      pop\n      jump\t// out\n        /* \"#utility.yul\":12940:13306   */\n    tag_111:\n        /* \"#utility.yul\":13082:13085   */\n      0x00\n        /* \"#utility.yul\":13103:13170   */\n      tag_233\n        /* \"#utility.yul\":13167:13169   */\n      0x1e\n        /* \"#utility.yul\":13162:13165   */\n      dup4\n        /* \"#utility.yul\":13103:13170   */\n      tag_87\n      jump\t// in\n    tag_233:\n        /* \"#utility.yul\":13096:13170   */\n      swap2\n      pop\n        /* \"#utility.yul\":13179:13272   */\n      tag_234\n        /* \"#utility.yul\":13268:13271   */\n      dup3\n        /* \"#utility.yul\":13179:13272   */\n      tag_110\n      jump\t// in\n    tag_234:\n        /* \"#utility.yul\":13297:13299   */\n      0x20\n        /* \"#utility.yul\":13292:13295   */\n      dup3\n        /* \"#utility.yul\":13288:13300   */\n      add\n        /* \"#utility.yul\":13281:13300   */\n      swap1\n      pop\n        /* \"#utility.yul\":12940:13306   */\n      swap2\n      swap1\n      pop\n      jump\t// out\n        /* \"#utility.yul\":13312:13731   */\n    tag_48:\n        /* \"#utility.yul\":13478:13482   */\n      0x00\n        /* \"#utility.yul\":13516:13518   */\n      0x20\n        /* \"#utility.yul\":13505:13514   */\n      dup3\n        /* \"#utility.yul\":13501:13519   */\n      add\n        /* \"#utility.yul\":13493:13519   */\n      swap1\n      pop\n        /* \"#utility.yul\":13565:13574   */\n      dup2\n        /* \"#utility.yul\":13559:13563   */\n      dup2\n        /* \"#utility.yul\":13555:13575   */\n      sub\n        /* \"#utility.yul\":13551:13552   */\n      0x00\n        /* \"#utility.yul\":13540:13549   */\n      dup4\n        /* \"#utility.yul\":13536:13553   */\n      add\n        /* \"#utility.yul\":13529:13576   */\n      mstore\n        /* \"#utility.yul\":13593:13724   */\n      tag_236\n        /* \"#utility.yul\":13719:13723   */\n      dup2\n        /* \"#utility.yul\":13593:13724   */\n      tag_111\n      jump\t// in\n    tag_236:\n        /* \"#utility.yul\":13585:13724   */\n      swap1\n      pop\n        /* \"#utility.yul\":13312:13731   */\n      swap2\n      swap1\n      pop\n      jump\t// out\n        /* \"#utility.yul\":13737:13917   */\n    tag_112:\n        /* \"#utility.yul\":13785:13862   */\n      0x4e487b7100000000000000000000000000000000000000000000000000000000\n        /* \"#utility.yul\":13782:13783   */\n      0x00\n        /* \"#utility.yul\":13775:13863   */\n      mstore\n        /* \"#utility.yul\":13882:13886   */\n      0x11\n        /* \"#utility.yul\":13879:13880   */\n      0x04\n        /* \"#utility.yul\":13872:13887   */\n      mstore\n        /* \"#utility.yul\":13906:13910   */\n      0x24\n        /* \"#utility.yul\":13903:13904   */\n      0x00\n        /* \"#utility.yul\":13896:13911   */\n      revert\n        /* \"#utility.yul\":13923:14114   */\n    tag_52:\n        /* \"#utility.yul\":13963:13966   */\n      0x00\n        /* \"#utility.yul\":13982:14002   */\n      tag_239\n        /* \"#utility.yul\":14000:14001   */\n      dup3\n        /* \"#utility.yul\":13982:14002   */\n      tag_97\n      jump\t// in\n    tag_239:\n        /* \"#utility.yul\":13977:14002   */\n      swap2\n      pop\n        /* \"#utility.yul\":14016:14036   */\n      tag_240\n        /* \"#utility.yul\":14034:14035   */\n      dup4\n        /* \"#utility.yul\":14016:14036   */\n      tag_97\n      jump\t// in\n    tag_240:\n        /* \"#utility.yul\":14011:14036   */\n      swap3\n      pop\n        /* \"#utility.yul\":14059:14060   */\n      dup3\n        /* \"#utility.yul\":14056:14057   */\n      dup3\n        /* \"#utility.yul\":14052:14061   */\n      add\n        /* \"#utility.yul\":14045:14061   */\n      swap1\n      pop\n        /* \"#utility.yul\":14080:14083   */\n      dup1\n        /* \"#utility.yul\":14077:14078   */\n      dup3\n        /* \"#utility.yul\":14074:14084   */\n      gt\n        /* \"#utility.yul\":14071:14107   */\n      iszero\n      tag_241\n      jumpi\n        /* \"#utility.yul\":14087:14105   */\n      tag_242\n      tag_112\n      jump\t// in\n    tag_242:\n        /* \"#utility.yul\":14071:14107   */\n    tag_241:\n        /* \"#utility.yul\":13923:14114   */\n      swap3\n      swap2\n      pop\n      pop\n      jump\t// out\n        /* \"#utility.yul\":14120:14537   */\n    tag_54:\n        /* \"#utility.yul\":14258:14262   */\n      0x00\n        /* \"#utility.yul\":14296:14298   */\n      0x40\n        /* \"#utility.yul\":14285:14294   */\n      dup3\n        /* \"#utility.yul\":14281:14299   */\n      add\n        /* \"#utility.yul\":14273:14299   */\n      swap1\n      pop\n        /* \"#utility.yul\":14345:14354   */\n      dup2\n        /* \"#utility.yul\":14339:14343   */\n      dup2\n        /* \"#utility.yul\":14335:14355   */\n      sub\n        /* \"#utility.yul\":14331:14332   */\n      0x00\n        /* \"#utility.yul\":14320:14329   */\n      dup4\n        /* \"#utility.yul\":14316:14333   */\n      add\n        /* \"#utility.yul\":14309:14356   */\n      mstore\n        /* \"#utility.yul\":14373:14448   */\n      tag_244\n        /* \"#utility.yul\":14443:14447   */\n      dup2\n        /* \"#utility.yul\":14434:14440   */\n      dup6\n        /* \"#utility.yul\":14373:14448   */\n      tag_105\n      jump\t// in\n    tag_244:\n        /* \"#utility.yul\":14365:14448   */\n      swap1\n      pop\n        /* \"#utility.yul\":14458:14530   */\n      tag_245\n        /* \"#utility.yul\":14526:14528   */\n      0x20\n        /* \"#utility.yul\":14515:14524   */\n      dup4\n        /* \"#utility.yul\":14511:14529   */\n      add\n        /* \"#utility.yul\":14502:14508   */\n      dup5\n        /* \"#utility.yul\":14458:14530   */\n      tag_98\n      jump\t// in\n    tag_245:\n        /* \"#utility.yul\":14120:14537   */\n      swap4\n      swap3\n      pop\n      pop\n      pop\n      jump\t// out\n\n    auxdata: 0xa2646970667358221220c6abcbadb3ac8a4965481842d238a7faa189655a1bb6e4e3f128dc1da6f31a3664736f6c63430008190033\n}\n",
				"bytecode": {
					"linkReferences": {},
					"object": "608060405234801561000f575f80fd5b50604051611408380380611408833981810160405281019061003191906102e3565b6040518060e001604052808581526020018481526020018381526020013373ffffffffffffffffffffffffffffffffffffffff1681526020015f600181111561007d5761007c61039b565b5b81526020015f8152602001828152505f80820151815f0190816100a091906105cc565b5060208201518160010190816100b691906105cc565b5060408201518160020190816100cc91906105cc565b506060820151816003015f6101000a81548173ffffffffffffffffffffffffffffffffffffffff021916908373ffffffffffffffffffffffffffffffffffffffff16021790555060808201518160030160146101000a81548160ff0219169083600181111561013e5761013d61039b565b5b021790555060a0820151816004015560c082015181600501559050505050505061069b565b5f604051905090565b5f80fd5b5f80fd5b5f80fd5b5f80fd5b5f601f19601f8301169050919050565b7f4e487b71000000000000000000000000000000000000000000000000000000005f52604160045260245ffd5b6101c28261017c565b810181811067ffffffffffffffff821117156101e1576101e061018c565b5b80604052505050565b5f6101f3610163565b90506101ff82826101b9565b919050565b5f67ffffffffffffffff82111561021e5761021d61018c565b5b6102278261017c565b9050602081019050919050565b8281835e5f83830152505050565b5f61025461024f84610204565b6101ea565b9050828152602081018484840111156102705761026f610178565b5b61027b848285610234565b509392505050565b5f82601f83011261029757610296610174565b5b81516102a7848260208601610242565b91505092915050565b5f819050919050565b6102c2816102b0565b81146102cc575f80fd5b50565b5f815190506102dd816102b9565b92915050565b5f805f80608085870312156102fb576102fa61016c565b5b5f85015167ffffffffffffffff81111561031857610317610170565b5b61032487828801610283565b945050602085015167ffffffffffffffff81111561034557610344610170565b5b61035187828801610283565b935050604085015167ffffffffffffffff81111561037257610371610170565b5b61037e87828801610283565b925050606061038f878288016102cf565b91505092959194509250565b7f4e487b71000000000000000000000000000000000000000000000000000000005f52602160045260245ffd5b5f81519050919050565b7f4e487b71000000000000000000000000000000000000000000000000000000005f52602260045260245ffd5b5f600282049050600182168061041657607f821691505b602082108103610429576104286103d2565b5b50919050565b5f819050815f5260205f209050919050565b5f6020601f8301049050919050565b5f82821b905092915050565b5f6008830261048b7fffffffffffffffffffffffffffffffffffffffffffffffffffffffffffffffff82610450565b6104958683610450565b95508019841693508086168417925050509392505050565b5f819050919050565b5f6104d06104cb6104c6846102b0565b6104ad565b6102b0565b9050919050565b5f819050919050565b6104e9836104b6565b6104fd6104f5826104d7565b84845461045c565b825550505050565b5f90565b610511610505565b61051c8184846104e0565b505050565b5b8181101561053f576105345f82610509565b600181019050610522565b5050565b601f821115610584576105558161042f565b61055e84610441565b8101602085101561056d578190505b61058161057985610441565b830182610521565b50505b505050565b5f82821c905092915050565b5f6105a45f1984600802610589565b1980831691505092915050565b5f6105bc8383610595565b9150826002028217905092915050565b6105d5826103c8565b67ffffffffffffffff8111156105ee576105ed61018c565b5b6105f882546103ff565b610603828285610543565b5f60209050601f831160018114610634575f8415610622578287015190505b61062c85826105b1565b865550610693565b601f1984166106428661042f565b5f5b8281101561066957848901518255600182019150602085019450602081019050610644565b868310156106865784890151610682601f891682610595565b8355505b6001600288020188555050505b505050505050565b610d60806106a85f395ff3fe608060405260043610610033575f3560e01c80635c08a85b146100375780639073adb41461005f578063e8dc41ad14610069575b5f80fd5b348015610042575f80fd5b5061005d60048036038101906100589190610770565b610099565b005b61006761020c565b005b348015610074575f80fd5b5061007d610414565b60405161009097969594939291906108f4565b60405180910390f35b3373ffffffffffffffffffffffffffffffffffffffff165f6003015f9054906101000a900473ffffffffffffffffffffffffffffffffffffffff1673ffffffffffffffffffffffffffffffffffffffff161461012a576040517f08c379a0000000000000000000000000000000000000000000000000000000008152600401610121906109c0565b60405180910390fd5b81600181111561013d5761013c610869565b5b5f60030160149054906101000a900460ff16600181111561016157610160610869565b5b036101a1576040517f08c379a000000000000000000000000000000000000000000000000000000000815260040161019890610a28565b60405180910390fd5b815f60030160146101000a81548160ff021916908360018111156101c8576101c7610869565b5b02179055507f0db2f3a00e94e59583ff319cd1f93dc9fb19106b7c6ab1b7a90fc58b9d89c9df5f800183604051610200929190610b36565b60405180910390a15050565b3373ffffffffffffffffffffffffffffffffffffffff165f6003015f9054906101000a900473ffffffffffffffffffffffffffffffffffffffff1673ffffffffffffffffffffffffffffffffffffffff160361029d576040517f08c379a000000000000000000000000000000000000000000000000000000000815260040161029490610bae565b60405180910390fd5b6001808111156102b0576102af610869565b5b5f60030160149054906101000a900460ff1660018111156102d4576102d3610869565b5b03610314576040517f08c379a000000000000000000000000000000000000000000000000000000000815260040161030b90610c16565b60405180910390fd5b5f3411610356576040517f08c379a000000000000000000000000000000000000000000000000000000000815260040161034d90610c7e565b60405180910390fd5b5f6003015f9054906101000a900473ffffffffffffffffffffffffffffffffffffffff1673ffffffffffffffffffffffffffffffffffffffff166108fc3490811502906040515f60405180830381858888f193505050501580156103bc573d5f803e3d5ffd5b50345f6004015f8282546103d09190610cc9565b925050819055507f601a31682b808e0416479a182f80fd9f081c273ed67c10174341a615756c1e005f80013460405161040a929190610cfc565b60405180910390a1565b5f805f01805461042390610a73565b80601f016020809104026020016040519081016040528092919081815260200182805461044f90610a73565b801561049a5780601f106104715761010080835404028352916020019161049a565b820191905f5260205f20905b81548152906001019060200180831161047d57829003601f168201915b5050505050908060010180546104af90610a73565b80601f01602080910402602001604051908101604052809291908181526020018280546104db90610a73565b80156105265780601f106104fd57610100808354040283529160200191610526565b820191905f5260205f20905b81548152906001019060200180831161050957829003601f168201915b50505050509080600201805461053b90610a73565b80601f016020809104026020016040519081016040528092919081815260200182805461056790610a73565b80156105b25780601f10610589576101008083540402835291602001916105b2565b820191905f5260205f20905b81548152906001019060200180831161059557829003601f168201915b505050505090806003015f9054906101000a900473ffffffffffffffffffffffffffffffffffffffff16908060030160149054906101000a900460ff16908060040154908060050154905087565b5f604051905090565b5f80fd5b5f80fd5b6002811061061d575f80fd5b50565b5f8135905061062e81610611565b92915050565b5f80fd5b5f80fd5b5f601f19601f8301169050919050565b7f4e487b71000000000000000000000000000000000000000000000000000000005f52604160045260245ffd5b6106828261063c565b810181811067ffffffffffffffff821117156106a1576106a061064c565b5b80604052505050565b5f6106b3610600565b90506106bf8282610679565b919050565b5f67ffffffffffffffff8211156106de576106dd61064c565b5b6106e78261063c565b9050602081019050919050565b828183375f83830152505050565b5f61071461070f846106c4565b6106aa565b9050828152602081018484840111156107305761072f610638565b5b61073b8482856106f4565b509392505050565b5f82601f83011261075757610756610634565b5b8135610767848260208601610702565b91505092915050565b5f806040838503121561078657610785610609565b5b5f61079385828601610620565b925050602083013567ffffffffffffffff8111156107b4576107b361060d565b5b6107c085828601610743565b9150509250929050565b5f81519050919050565b5f82825260208201905092915050565b8281835e5f83830152505050565b5f6107fc826107ca565b61080681856107d4565b93506108168185602086016107e4565b61081f8161063c565b840191505092915050565b5f73ffffffffffffffffffffffffffffffffffffffff82169050919050565b5f6108538261082a565b9050919050565b61086381610849565b82525050565b7f4e487b71000000000000000000000000000000000000000000000000000000005f52602160045260245ffd5b600281106108a7576108a6610869565b5b50565b5f8190506108b782610896565b919050565b5f6108c6826108aa565b9050919050565b6108d6816108bc565b82525050565b5f819050919050565b6108ee816108dc565b82525050565b5f60e0820190508181035f83015261090c818a6107f2565b9050818103602083015261092081896107f2565b9050818103604083015261093481886107f2565b9050610943606083018761085a565b61095060808301866108cd565b61095d60a08301856108e5565b61096a60c08301846108e5565b98975050505050505050565b7f4f6e6c79206f776e65722063616e206368616e676520746865207374617465005f82015250565b5f6109aa601f836107d4565b91506109b582610976565b602082019050919050565b5f6020820190508181035f8301526109d78161099e565b9050919050565b7f4e6577207374617465206d75737420626520646966666572656e7400000000005f82015250565b5f610a12601b836107d4565b9150610a1d826109de565b602082019050919050565b5f6020820190508181035f830152610a3f81610a06565b9050919050565b7f4e487b71000000000000000000000000000000000000000000000000000000005f52602260045260245ffd5b5f6002820490506001821680610a8a57607f821691505b602082108103610a9d57610a9c610a46565b5b50919050565b5f819050815f5260205f209050919050565b5f8154610ac181610a73565b610acb81866107d4565b9450600182165f8114610ae55760018114610afb57610b2d565b60ff198316865281151560200286019350610b2d565b610b0485610aa3565b5f5b83811015610b2557815481890152600182019150602081019050610b06565b808801955050505b50505092915050565b5f6040820190508181035f830152610b4e8185610ab5565b9050610b5d60208301846108cd565b9392505050565b7f4173204f776e65722063616e27742066756e64207572206163636f756e7400005f82015250565b5f610b98601e836107d4565b9150610ba382610b64565b602082019050919050565b5f6020820190508181035f830152610bc581610b8c565b9050919050565b7f54652070726f6a6563742063616e74207265636976652066756e6473000000005f82015250565b5f610c00601c836107d4565b9150610c0b82610bcc565b602082019050919050565b5f6020820190508181035f830152610c2d81610bf4565b9050919050565b7f46756e642076616c7565206d757374206265206d6f7265207468616e203000005f82015250565b5f610c68601e836107d4565b9150610c7382610c34565b602082019050919050565b5f6020820190508181035f830152610c9581610c5c565b9050919050565b7f4e487b71000000000000000000000000000000000000000000000000000000005f52601160045260245ffd5b5f610cd3826108dc565b9150610cde836108dc565b9250828201905080821115610cf657610cf5610c9c565b5b92915050565b5f6040820190508181035f830152610d148185610ab5565b9050610d2360208301846108e5565b939250505056fea2646970667358221220c6abcbadb3ac8a4965481842d238a7faa189655a1bb6e4e3f128dc1da6f31a3664736f6c63430008190033",
					"opcodes": "PUSH1 0x80 PUSH1 0x40 MSTORE CALLVALUE DUP1 ISZERO PUSH2 0xF JUMPI PUSH0 DUP1 REVERT JUMPDEST POP PUSH1 0x40 MLOAD PUSH2 0x1408 CODESIZE SUB DUP1 PUSH2 0x1408 DUP4 CODECOPY DUP2 DUP2 ADD PUSH1 0x40 MSTORE DUP2 ADD SWAP1 PUSH2 0x31 SWAP2 SWAP1 PUSH2 0x2E3 JUMP JUMPDEST PUSH1 0x40 MLOAD DUP1 PUSH1 0xE0 ADD PUSH1 0x40 MSTORE DUP1 DUP6 DUP2 MSTORE PUSH1 0x20 ADD DUP5 DUP2 MSTORE PUSH1 0x20 ADD DUP4 DUP2 MSTORE PUSH1 0x20 ADD CALLER PUSH20 0xFFFFFFFFFFFFFFFFFFFFFFFFFFFFFFFFFFFFFFFF AND DUP2 MSTORE PUSH1 0x20 ADD PUSH0 PUSH1 0x1 DUP2 GT ISZERO PUSH2 0x7D JUMPI PUSH2 0x7C PUSH2 0x39B JUMP JUMPDEST JUMPDEST DUP2 MSTORE PUSH1 0x20 ADD PUSH0 DUP2 MSTORE PUSH1 0x20 ADD DUP3 DUP2 MSTORE POP PUSH0 DUP1 DUP3 ADD MLOAD DUP2 PUSH0 ADD SWAP1 DUP2 PUSH2 0xA0 SWAP2 SWAP1 PUSH2 0x5CC JUMP JUMPDEST POP PUSH1 0x20 DUP3 ADD MLOAD DUP2 PUSH1 0x1 ADD SWAP1 DUP2 PUSH2 0xB6 SWAP2 SWAP1 PUSH2 0x5CC JUMP JUMPDEST POP PUSH1 0x40 DUP3 ADD MLOAD DUP2 PUSH1 0x2 ADD SWAP1 DUP2 PUSH2 0xCC SWAP2 SWAP1 PUSH2 0x5CC JUMP JUMPDEST POP PUSH1 0x60 DUP3 ADD MLOAD DUP2 PUSH1 0x3 ADD PUSH0 PUSH2 0x100 EXP DUP2 SLOAD DUP2 PUSH20 0xFFFFFFFFFFFFFFFFFFFFFFFFFFFFFFFFFFFFFFFF MUL NOT AND SWAP1 DUP4 PUSH20 0xFFFFFFFFFFFFFFFFFFFFFFFFFFFFFFFFFFFFFFFF AND MUL OR SWAP1 SSTORE POP PUSH1 0x80 DUP3 ADD MLOAD DUP2 PUSH1 0x3 ADD PUSH1 0x14 PUSH2 0x100 EXP DUP2 SLOAD DUP2 PUSH1 0xFF MUL NOT AND SWAP1 DUP4 PUSH1 0x1 DUP2 GT ISZERO PUSH2 0x13E JUMPI PUSH2 0x13D PUSH2 0x39B JUMP JUMPDEST JUMPDEST MUL OR SWAP1 SSTORE POP PUSH1 0xA0 DUP3 ADD MLOAD DUP2 PUSH1 0x4 ADD SSTORE PUSH1 0xC0 DUP3 ADD MLOAD DUP2 PUSH1 0x5 ADD SSTORE SWAP1 POP POP POP POP POP POP PUSH2 0x69B JUMP JUMPDEST PUSH0 PUSH1 0x40 MLOAD SWAP1 POP SWAP1 JUMP JUMPDEST PUSH0 DUP1 REVERT JUMPDEST PUSH0 DUP1 REVERT JUMPDEST PUSH0 DUP1 REVERT JUMPDEST PUSH0 DUP1 REVERT JUMPDEST PUSH0 PUSH1 0x1F NOT PUSH1 0x1F DUP4 ADD AND SWAP1 POP SWAP2 SWAP1 POP JUMP JUMPDEST PUSH32 0x4E487B7100000000000000000000000000000000000000000000000000000000 PUSH0 MSTORE PUSH1 0x41 PUSH1 0x4 MSTORE PUSH1 0x24 PUSH0 REVERT JUMPDEST PUSH2 0x1C2 DUP3 PUSH2 0x17C JUMP JUMPDEST DUP2 ADD DUP2 DUP2 LT PUSH8 0xFFFFFFFFFFFFFFFF DUP3 GT OR ISZERO PUSH2 0x1E1 JUMPI PUSH2 0x1E0 PUSH2 0x18C JUMP JUMPDEST JUMPDEST DUP1 PUSH1 0x40 MSTORE POP POP POP JUMP JUMPDEST PUSH0 PUSH2 0x1F3 PUSH2 0x163 JUMP JUMPDEST SWAP1 POP PUSH2 0x1FF DUP3 DUP3 PUSH2 0x1B9 JUMP JUMPDEST SWAP2 SWAP1 POP JUMP JUMPDEST PUSH0 PUSH8 0xFFFFFFFFFFFFFFFF DUP3 GT ISZERO PUSH2 0x21E JUMPI PUSH2 0x21D PUSH2 0x18C JUMP JUMPDEST JUMPDEST PUSH2 0x227 DUP3 PUSH2 0x17C JUMP JUMPDEST SWAP1 POP PUSH1 0x20 DUP2 ADD SWAP1 POP SWAP2 SWAP1 POP JUMP JUMPDEST DUP3 DUP2 DUP4 MCOPY PUSH0 DUP4 DUP4 ADD MSTORE POP POP POP JUMP JUMPDEST PUSH0 PUSH2 0x254 PUSH2 0x24F DUP5 PUSH2 0x204 JUMP JUMPDEST PUSH2 0x1EA JUMP JUMPDEST SWAP1 POP DUP3 DUP2 MSTORE PUSH1 0x20 DUP2 ADD DUP5 DUP5 DUP5 ADD GT ISZERO PUSH2 0x270 JUMPI PUSH2 0x26F PUSH2 0x178 JUMP JUMPDEST JUMPDEST PUSH2 0x27B DUP5 DUP3 DUP6 PUSH2 0x234 JUMP JUMPDEST POP SWAP4 SWAP3 POP POP POP JUMP JUMPDEST PUSH0 DUP3 PUSH1 0x1F DUP4 ADD SLT PUSH2 0x297 JUMPI PUSH2 0x296 PUSH2 0x174 JUMP JUMPDEST JUMPDEST DUP2 MLOAD PUSH2 0x2A7 DUP5 DUP3 PUSH1 0x20 DUP7 ADD PUSH2 0x242 JUMP JUMPDEST SWAP2 POP POP SWAP3 SWAP2 POP POP JUMP JUMPDEST PUSH0 DUP2 SWAP1 POP SWAP2 SWAP1 POP JUMP JUMPDEST PUSH2 0x2C2 DUP2 PUSH2 0x2B0 JUMP JUMPDEST DUP2 EQ PUSH2 0x2CC JUMPI PUSH0 DUP1 REVERT JUMPDEST POP JUMP JUMPDEST PUSH0 DUP2 MLOAD SWAP1 POP PUSH2 0x2DD DUP2 PUSH2 0x2B9 JUMP JUMPDEST SWAP3 SWAP2 POP POP JUMP JUMPDEST PUSH0 DUP1 PUSH0 DUP1 PUSH1 0x80 DUP6 DUP8 SUB SLT ISZERO PUSH2 0x2FB JUMPI PUSH2 0x2FA PUSH2 0x16C JUMP JUMPDEST JUMPDEST PUSH0 DUP6 ADD MLOAD PUSH8 0xFFFFFFFFFFFFFFFF DUP2 GT ISZERO PUSH2 0x318 JUMPI PUSH2 0x317 PUSH2 0x170 JUMP JUMPDEST JUMPDEST PUSH2 0x324 DUP8 DUP3 DUP9 ADD PUSH2 0x283 JUMP JUMPDEST SWAP5 POP POP PUSH1 0x20 DUP6 ADD MLOAD PUSH8 0xFFFFFFFFFFFFFFFF DUP2 GT ISZERO PUSH2 0x345 JUMPI PUSH2 0x344 PUSH2 0x170 JUMP JUMPDEST JUMPDEST PUSH2 0x351 DUP8 DUP3 DUP9 ADD PUSH2 0x283 JUMP JUMPDEST SWAP4 POP POP PUSH1 0x40 DUP6 ADD MLOAD PUSH8 0xFFFFFFFFFFFFFFFF DUP2 GT ISZERO PUSH2 0x372 JUMPI PUSH2 0x371 PUSH2 0x170 JUMP JUMPDEST JUMPDEST PUSH2 0x37E DUP8 DUP3 DUP9 ADD PUSH2 0x283 JUMP JUMPDEST SWAP3 POP POP PUSH1 0x60 PUSH2 0x38F DUP8 DUP3 DUP9 ADD PUSH2 0x2CF JUMP JUMPDEST SWAP2 POP POP SWAP3 SWAP6 SWAP2 SWAP5 POP SWAP3 POP JUMP JUMPDEST PUSH32 0x4E487B7100000000000000000000000000000000000000000000000000000000 PUSH0 MSTORE PUSH1 0x21 PUSH1 0x4 MSTORE PUSH1 0x24 PUSH0 REVERT JUMPDEST PUSH0 DUP2 MLOAD SWAP1 POP SWAP2 SWAP1 POP JUMP JUMPDEST PUSH32 0x4E487B7100000000000000000000000000000000000000000000000000000000 PUSH0 MSTORE PUSH1 0x22 PUSH1 0x4 MSTORE PUSH1 0x24 PUSH0 REVERT JUMPDEST PUSH0 PUSH1 0x2 DUP3 DIV SWAP1 POP PUSH1 0x1 DUP3 AND DUP1 PUSH2 0x416 JUMPI PUSH1 0x7F DUP3 AND SWAP2 POP JUMPDEST PUSH1 0x20 DUP3 LT DUP2 SUB PUSH2 0x429 JUMPI PUSH2 0x428 PUSH2 0x3D2 JUMP JUMPDEST JUMPDEST POP SWAP2 SWAP1 POP JUMP JUMPDEST PUSH0 DUP2 SWAP1 POP DUP2 PUSH0 MSTORE PUSH1 0x20 PUSH0 KECCAK256 SWAP1 POP SWAP2 SWAP1 POP JUMP JUMPDEST PUSH0 PUSH1 0x20 PUSH1 0x1F DUP4 ADD DIV SWAP1 POP SWAP2 SWAP1 POP JUMP JUMPDEST PUSH0 DUP3 DUP3 SHL SWAP1 POP SWAP3 SWAP2 POP POP JUMP JUMPDEST PUSH0 PUSH1 0x8 DUP4 MUL PUSH2 0x48B PUSH32 0xFFFFFFFFFFFFFFFFFFFFFFFFFFFFFFFFFFFFFFFFFFFFFFFFFFFFFFFFFFFFFFFF DUP3 PUSH2 0x450 JUMP JUMPDEST PUSH2 0x495 DUP7 DUP4 PUSH2 0x450 JUMP JUMPDEST SWAP6 POP DUP1 NOT DUP5 AND SWAP4 POP DUP1 DUP7 AND DUP5 OR SWAP3 POP POP POP SWAP4 SWAP3 POP POP POP JUMP JUMPDEST PUSH0 DUP2 SWAP1 POP SWAP2 SWAP1 POP JUMP JUMPDEST PUSH0 PUSH2 0x4D0 PUSH2 0x4CB PUSH2 0x4C6 DUP5 PUSH2 0x2B0 JUMP JUMPDEST PUSH2 0x4AD JUMP JUMPDEST PUSH2 0x2B0 JUMP JUMPDEST SWAP1 POP SWAP2 SWAP1 POP JUMP JUMPDEST PUSH0 DUP2 SWAP1 POP SWAP2 SWAP1 POP JUMP JUMPDEST PUSH2 0x4E9 DUP4 PUSH2 0x4B6 JUMP JUMPDEST PUSH2 0x4FD PUSH2 0x4F5 DUP3 PUSH2 0x4D7 JUMP JUMPDEST DUP5 DUP5 SLOAD PUSH2 0x45C JUMP JUMPDEST DUP3 SSTORE POP POP POP POP JUMP JUMPDEST PUSH0 SWAP1 JUMP JUMPDEST PUSH2 0x511 PUSH2 0x505 JUMP JUMPDEST PUSH2 0x51C DUP2 DUP5 DUP5 PUSH2 0x4E0 JUMP JUMPDEST POP POP POP JUMP JUMPDEST JUMPDEST DUP2 DUP2 LT ISZERO PUSH2 0x53F JUMPI PUSH2 0x534 PUSH0 DUP3 PUSH2 0x509 JUMP JUMPDEST PUSH1 0x1 DUP2 ADD SWAP1 POP PUSH2 0x522 JUMP JUMPDEST POP POP JUMP JUMPDEST PUSH1 0x1F DUP3 GT ISZERO PUSH2 0x584 JUMPI PUSH2 0x555 DUP2 PUSH2 0x42F JUMP JUMPDEST PUSH2 0x55E DUP5 PUSH2 0x441 JUMP JUMPDEST DUP2 ADD PUSH1 0x20 DUP6 LT ISZERO PUSH2 0x56D JUMPI DUP2 SWAP1 POP JUMPDEST PUSH2 0x581 PUSH2 0x579 DUP6 PUSH2 0x441 JUMP JUMPDEST DUP4 ADD DUP3 PUSH2 0x521 JUMP JUMPDEST POP POP JUMPDEST POP POP POP JUMP JUMPDEST PUSH0 DUP3 DUP3 SHR SWAP1 POP SWAP3 SWAP2 POP POP JUMP JUMPDEST PUSH0 PUSH2 0x5A4 PUSH0 NOT DUP5 PUSH1 0x8 MUL PUSH2 0x589 JUMP JUMPDEST NOT DUP1 DUP4 AND SWAP2 POP POP SWAP3 SWAP2 POP POP JUMP JUMPDEST PUSH0 PUSH2 0x5BC DUP4 DUP4 PUSH2 0x595 JUMP JUMPDEST SWAP2 POP DUP3 PUSH1 0x2 MUL DUP3 OR SWAP1 POP SWAP3 SWAP2 POP POP JUMP JUMPDEST PUSH2 0x5D5 DUP3 PUSH2 0x3C8 JUMP JUMPDEST PUSH8 0xFFFFFFFFFFFFFFFF DUP2 GT ISZERO PUSH2 0x5EE JUMPI PUSH2 0x5ED PUSH2 0x18C JUMP JUMPDEST JUMPDEST PUSH2 0x5F8 DUP3 SLOAD PUSH2 0x3FF JUMP JUMPDEST PUSH2 0x603 DUP3 DUP3 DUP6 PUSH2 0x543 JUMP JUMPDEST PUSH0 PUSH1 0x20 SWAP1 POP PUSH1 0x1F DUP4 GT PUSH1 0x1 DUP2 EQ PUSH2 0x634 JUMPI PUSH0 DUP5 ISZERO PUSH2 0x622 JUMPI DUP3 DUP8 ADD MLOAD SWAP1 POP JUMPDEST PUSH2 0x62C DUP6 DUP3 PUSH2 0x5B1 JUMP JUMPDEST DUP7 SSTORE POP PUSH2 0x693 JUMP JUMPDEST PUSH1 0x1F NOT DUP5 AND PUSH2 0x642 DUP7 PUSH2 0x42F JUMP JUMPDEST PUSH0 JUMPDEST DUP3 DUP2 LT ISZERO PUSH2 0x669 JUMPI DUP5 DUP10 ADD MLOAD DUP3 SSTORE PUSH1 0x1 DUP3 ADD SWAP2 POP PUSH1 0x20 DUP6 ADD SWAP5 POP PUSH1 0x20 DUP2 ADD SWAP1 POP PUSH2 0x644 JUMP JUMPDEST DUP7 DUP4 LT ISZERO PUSH2 0x686 JUMPI DUP5 DUP10 ADD MLOAD PUSH2 0x682 PUSH1 0x1F DUP10 AND DUP3 PUSH2 0x595 JUMP JUMPDEST DUP4 SSTORE POP JUMPDEST PUSH1 0x1 PUSH1 0x2 DUP9 MUL ADD DUP9 SSTORE POP POP POP JUMPDEST POP POP POP POP POP POP JUMP JUMPDEST PUSH2 0xD60 DUP1 PUSH2 0x6A8 PUSH0 CODECOPY PUSH0 RETURN INVALID PUSH1 0x80 PUSH1 0x40 MSTORE PUSH1 0x4 CALLDATASIZE LT PUSH2 0x33 JUMPI PUSH0 CALLDATALOAD PUSH1 0xE0 SHR DUP1 PUSH4 0x5C08A85B EQ PUSH2 0x37 JUMPI DUP1 PUSH4 0x9073ADB4 EQ PUSH2 0x5F JUMPI DUP1 PUSH4 0xE8DC41AD EQ PUSH2 0x69 JUMPI JUMPDEST PUSH0 DUP1 REVERT JUMPDEST CALLVALUE DUP1 ISZERO PUSH2 0x42 JUMPI PUSH0 DUP1 REVERT JUMPDEST POP PUSH2 0x5D PUSH1 0x4 DUP1 CALLDATASIZE SUB DUP2 ADD SWAP1 PUSH2 0x58 SWAP2 SWAP1 PUSH2 0x770 JUMP JUMPDEST PUSH2 0x99 JUMP JUMPDEST STOP JUMPDEST PUSH2 0x67 PUSH2 0x20C JUMP JUMPDEST STOP JUMPDEST CALLVALUE DUP1 ISZERO PUSH2 0x74 JUMPI PUSH0 DUP1 REVERT JUMPDEST POP PUSH2 0x7D PUSH2 0x414 JUMP JUMPDEST PUSH1 0x40 MLOAD PUSH2 0x90 SWAP8 SWAP7 SWAP6 SWAP5 SWAP4 SWAP3 SWAP2 SWAP1 PUSH2 0x8F4 JUMP JUMPDEST PUSH1 0x40 MLOAD DUP1 SWAP2 SUB SWAP1 RETURN JUMPDEST CALLER PUSH20 0xFFFFFFFFFFFFFFFFFFFFFFFFFFFFFFFFFFFFFFFF AND PUSH0 PUSH1 0x3 ADD PUSH0 SWAP1 SLOAD SWAP1 PUSH2 0x100 EXP SWAP1 DIV PUSH20 0xFFFFFFFFFFFFFFFFFFFFFFFFFFFFFFFFFFFFFFFF AND PUSH20 0xFFFFFFFFFFFFFFFFFFFFFFFFFFFFFFFFFFFFFFFF AND EQ PUSH2 0x12A JUMPI PUSH1 0x40 MLOAD PUSH32 0x8C379A000000000000000000000000000000000000000000000000000000000 DUP2 MSTORE PUSH1 0x4 ADD PUSH2 0x121 SWAP1 PUSH2 0x9C0 JUMP JUMPDEST PUSH1 0x40 MLOAD DUP1 SWAP2 SUB SWAP1 REVERT JUMPDEST DUP2 PUSH1 0x1 DUP2 GT ISZERO PUSH2 0x13D JUMPI PUSH2 0x13C PUSH2 0x869 JUMP JUMPDEST JUMPDEST PUSH0 PUSH1 0x3 ADD PUSH1 0x14 SWAP1 SLOAD SWAP1 PUSH2 0x100 EXP SWAP1 DIV PUSH1 0xFF AND PUSH1 0x1 DUP2 GT ISZERO PUSH2 0x161 JUMPI PUSH2 0x160 PUSH2 0x869 JUMP JUMPDEST JUMPDEST SUB PUSH2 0x1A1 JUMPI PUSH1 0x40 MLOAD PUSH32 0x8C379A000000000000000000000000000000000000000000000000000000000 DUP2 MSTORE PUSH1 0x4 ADD PUSH2 0x198 SWAP1 PUSH2 0xA28 JUMP JUMPDEST PUSH1 0x40 MLOAD DUP1 SWAP2 SUB SWAP1 REVERT JUMPDEST DUP2 PUSH0 PUSH1 0x3 ADD PUSH1 0x14 PUSH2 0x100 EXP DUP2 SLOAD DUP2 PUSH1 0xFF MUL NOT AND SWAP1 DUP4 PUSH1 0x1 DUP2 GT ISZERO PUSH2 0x1C8 JUMPI PUSH2 0x1C7 PUSH2 0x869 JUMP JUMPDEST JUMPDEST MUL OR SWAP1 SSTORE POP PUSH32 0xDB2F3A00E94E59583FF319CD1F93DC9FB19106B7C6AB1B7A90FC58B9D89C9DF PUSH0 DUP1 ADD DUP4 PUSH1 0x40 MLOAD PUSH2 0x200 SWAP3 SWAP2 SWAP1 PUSH2 0xB36 JUMP JUMPDEST PUSH1 0x40 MLOAD DUP1 SWAP2 SUB SWAP1 LOG1 POP POP JUMP JUMPDEST CALLER PUSH20 0xFFFFFFFFFFFFFFFFFFFFFFFFFFFFFFFFFFFFFFFF AND PUSH0 PUSH1 0x3 ADD PUSH0 SWAP1 SLOAD SWAP1 PUSH2 0x100 EXP SWAP1 DIV PUSH20 0xFFFFFFFFFFFFFFFFFFFFFFFFFFFFFFFFFFFFFFFF AND PUSH20 0xFFFFFFFFFFFFFFFFFFFFFFFFFFFFFFFFFFFFFFFF AND SUB PUSH2 0x29D JUMPI PUSH1 0x40 MLOAD PUSH32 0x8C379A000000000000000000000000000000000000000000000000000000000 DUP2 MSTORE PUSH1 0x4 ADD PUSH2 0x294 SWAP1 PUSH2 0xBAE JUMP JUMPDEST PUSH1 0x40 MLOAD DUP1 SWAP2 SUB SWAP1 REVERT JUMPDEST PUSH1 0x1 DUP1 DUP2 GT ISZERO PUSH2 0x2B0 JUMPI PUSH2 0x2AF PUSH2 0x869 JUMP JUMPDEST JUMPDEST PUSH0 PUSH1 0x3 ADD PUSH1 0x14 SWAP1 SLOAD SWAP1 PUSH2 0x100 EXP SWAP1 DIV PUSH1 0xFF AND PUSH1 0x1 DUP2 GT ISZERO PUSH2 0x2D4 JUMPI PUSH2 0x2D3 PUSH2 0x869 JUMP JUMPDEST JUMPDEST SUB PUSH2 0x314 JUMPI PUSH1 0x40 MLOAD PUSH32 0x8C379A000000000000000000000000000000000000000000000000000000000 DUP2 MSTORE PUSH1 0x4 ADD PUSH2 0x30B SWAP1 PUSH2 0xC16 JUMP JUMPDEST PUSH1 0x40 MLOAD DUP1 SWAP2 SUB SWAP1 REVERT JUMPDEST PUSH0 CALLVALUE GT PUSH2 0x356 JUMPI PUSH1 0x40 MLOAD PUSH32 0x8C379A000000000000000000000000000000000000000000000000000000000 DUP2 MSTORE PUSH1 0x4 ADD PUSH2 0x34D SWAP1 PUSH2 0xC7E JUMP JUMPDEST PUSH1 0x40 MLOAD DUP1 SWAP2 SUB SWAP1 REVERT JUMPDEST PUSH0 PUSH1 0x3 ADD PUSH0 SWAP1 SLOAD SWAP1 PUSH2 0x100 EXP SWAP1 DIV PUSH20 0xFFFFFFFFFFFFFFFFFFFFFFFFFFFFFFFFFFFFFFFF AND PUSH20 0xFFFFFFFFFFFFFFFFFFFFFFFFFFFFFFFFFFFFFFFF AND PUSH2 0x8FC CALLVALUE SWAP1 DUP2 ISZERO MUL SWAP1 PUSH1 0x40 MLOAD PUSH0 PUSH1 0x40 MLOAD DUP1 DUP4 SUB DUP2 DUP6 DUP9 DUP9 CALL SWAP4 POP POP POP POP ISZERO DUP1 ISZERO PUSH2 0x3BC JUMPI RETURNDATASIZE PUSH0 DUP1 RETURNDATACOPY RETURNDATASIZE PUSH0 REVERT JUMPDEST POP CALLVALUE PUSH0 PUSH1 0x4 ADD PUSH0 DUP3 DUP3 SLOAD PUSH2 0x3D0 SWAP2 SWAP1 PUSH2 0xCC9 JUMP JUMPDEST SWAP3 POP POP DUP2 SWAP1 SSTORE POP PUSH32 0x601A31682B808E0416479A182F80FD9F081C273ED67C10174341A615756C1E00 PUSH0 DUP1 ADD CALLVALUE PUSH1 0x40 MLOAD PUSH2 0x40A SWAP3 SWAP2 SWAP1 PUSH2 0xCFC JUMP JUMPDEST PUSH1 0x40 MLOAD DUP1 SWAP2 SUB SWAP1 LOG1 JUMP JUMPDEST PUSH0 DUP1 PUSH0 ADD DUP1 SLOAD PUSH2 0x423 SWAP1 PUSH2 0xA73 JUMP JUMPDEST DUP1 PUSH1 0x1F ADD PUSH1 0x20 DUP1 SWAP2 DIV MUL PUSH1 0x20 ADD PUSH1 0x40 MLOAD SWAP1 DUP2 ADD PUSH1 0x40 MSTORE DUP1 SWAP3 SWAP2 SWAP1 DUP2 DUP2 MSTORE PUSH1 0x20 ADD DUP3 DUP1 SLOAD PUSH2 0x44F SWAP1 PUSH2 0xA73 JUMP JUMPDEST DUP1 ISZERO PUSH2 0x49A JUMPI DUP1 PUSH1 0x1F LT PUSH2 0x471 JUMPI PUSH2 0x100 DUP1 DUP4 SLOAD DIV MUL DUP4 MSTORE SWAP2 PUSH1 0x20 ADD SWAP2 PUSH2 0x49A JUMP JUMPDEST DUP3 ADD SWAP2 SWAP1 PUSH0 MSTORE PUSH1 0x20 PUSH0 KECCAK256 SWAP1 JUMPDEST DUP2 SLOAD DUP2 MSTORE SWAP1 PUSH1 0x1 ADD SWAP1 PUSH1 0x20 ADD DUP1 DUP4 GT PUSH2 0x47D JUMPI DUP3 SWAP1 SUB PUSH1 0x1F AND DUP3 ADD SWAP2 JUMPDEST POP POP POP POP POP SWAP1 DUP1 PUSH1 0x1 ADD DUP1 SLOAD PUSH2 0x4AF SWAP1 PUSH2 0xA73 JUMP JUMPDEST DUP1 PUSH1 0x1F ADD PUSH1 0x20 DUP1 SWAP2 DIV MUL PUSH1 0x20 ADD PUSH1 0x40 MLOAD SWAP1 DUP2 ADD PUSH1 0x40 MSTORE DUP1 SWAP3 SWAP2 SWAP1 DUP2 DUP2 MSTORE PUSH1 0x20 ADD DUP3 DUP1 SLOAD PUSH2 0x4DB SWAP1 PUSH2 0xA73 JUMP JUMPDEST DUP1 ISZERO PUSH2 0x526 JUMPI DUP1 PUSH1 0x1F LT PUSH2 0x4FD JUMPI PUSH2 0x100 DUP1 DUP4 SLOAD DIV MUL DUP4 MSTORE SWAP2 PUSH1 0x20 ADD SWAP2 PUSH2 0x526 JUMP JUMPDEST DUP3 ADD SWAP2 SWAP1 PUSH0 MSTORE PUSH1 0x20 PUSH0 KECCAK256 SWAP1 JUMPDEST DUP2 SLOAD DUP2 MSTORE SWAP1 PUSH1 0x1 ADD SWAP1 PUSH1 0x20 ADD DUP1 DUP4 GT PUSH2 0x509 JUMPI DUP3 SWAP1 SUB PUSH1 0x1F AND DUP3 ADD SWAP2 JUMPDEST POP POP POP POP POP SWAP1 DUP1 PUSH1 0x2 ADD DUP1 SLOAD PUSH2 0x53B SWAP1 PUSH2 0xA73 JUMP JUMPDEST DUP1 PUSH1 0x1F ADD PUSH1 0x20 DUP1 SWAP2 DIV MUL PUSH1 0x20 ADD PUSH1 0x40 MLOAD SWAP1 DUP2 ADD PUSH1 0x40 MSTORE DUP1 SWAP3 SWAP2 SWAP1 DUP2 DUP2 MSTORE PUSH1 0x20 ADD DUP3 DUP1 SLOAD PUSH2 0x567 SWAP1 PUSH2 0xA73 JUMP JUMPDEST DUP1 ISZERO PUSH2 0x5B2 JUMPI DUP1 PUSH1 0x1F LT PUSH2 0x589 JUMPI PUSH2 0x100 DUP1 DUP4 SLOAD DIV MUL DUP4 MSTORE SWAP2 PUSH1 0x20 ADD SWAP2 PUSH2 0x5B2 JUMP JUMPDEST DUP3 ADD SWAP2 SWAP1 PUSH0 MSTORE PUSH1 0x20 PUSH0 KECCAK256 SWAP1 JUMPDEST DUP2 SLOAD DUP2 MSTORE SWAP1 PUSH1 0x1 ADD SWAP1 PUSH1 0x20 ADD DUP1 DUP4 GT PUSH2 0x595 JUMPI DUP3 SWAP1 SUB PUSH1 0x1F AND DUP3 ADD SWAP2 JUMPDEST POP POP POP POP POP SWAP1 DUP1 PUSH1 0x3 ADD PUSH0 SWAP1 SLOAD SWAP1 PUSH2 0x100 EXP SWAP1 DIV PUSH20 0xFFFFFFFFFFFFFFFFFFFFFFFFFFFFFFFFFFFFFFFF AND SWAP1 DUP1 PUSH1 0x3 ADD PUSH1 0x14 SWAP1 SLOAD SWAP1 PUSH2 0x100 EXP SWAP1 DIV PUSH1 0xFF AND SWAP1 DUP1 PUSH1 0x4 ADD SLOAD SWAP1 DUP1 PUSH1 0x5 ADD SLOAD SWAP1 POP DUP8 JUMP JUMPDEST PUSH0 PUSH1 0x40 MLOAD SWAP1 POP SWAP1 JUMP JUMPDEST PUSH0 DUP1 REVERT JUMPDEST PUSH0 DUP1 REVERT JUMPDEST PUSH1 0x2 DUP2 LT PUSH2 0x61D JUMPI PUSH0 DUP1 REVERT JUMPDEST POP JUMP JUMPDEST PUSH0 DUP2 CALLDATALOAD SWAP1 POP PUSH2 0x62E DUP2 PUSH2 0x611 JUMP JUMPDEST SWAP3 SWAP2 POP POP JUMP JUMPDEST PUSH0 DUP1 REVERT JUMPDEST PUSH0 DUP1 REVERT JUMPDEST PUSH0 PUSH1 0x1F NOT PUSH1 0x1F DUP4 ADD AND SWAP1 POP SWAP2 SWAP1 POP JUMP JUMPDEST PUSH32 0x4E487B7100000000000000000000000000000000000000000000000000000000 PUSH0 MSTORE PUSH1 0x41 PUSH1 0x4 MSTORE PUSH1 0x24 PUSH0 REVERT JUMPDEST PUSH2 0x682 DUP3 PUSH2 0x63C JUMP JUMPDEST DUP2 ADD DUP2 DUP2 LT PUSH8 0xFFFFFFFFFFFFFFFF DUP3 GT OR ISZERO PUSH2 0x6A1 JUMPI PUSH2 0x6A0 PUSH2 0x64C JUMP JUMPDEST JUMPDEST DUP1 PUSH1 0x40 MSTORE POP POP POP JUMP JUMPDEST PUSH0 PUSH2 0x6B3 PUSH2 0x600 JUMP JUMPDEST SWAP1 POP PUSH2 0x6BF DUP3 DUP3 PUSH2 0x679 JUMP JUMPDEST SWAP2 SWAP1 POP JUMP JUMPDEST PUSH0 PUSH8 0xFFFFFFFFFFFFFFFF DUP3 GT ISZERO PUSH2 0x6DE JUMPI PUSH2 0x6DD PUSH2 0x64C JUMP JUMPDEST JUMPDEST PUSH2 0x6E7 DUP3 PUSH2 0x63C JUMP JUMPDEST SWAP1 POP PUSH1 0x20 DUP2 ADD SWAP1 POP SWAP2 SWAP1 POP JUMP JUMPDEST DUP3 DUP2 DUP4 CALLDATACOPY PUSH0 DUP4 DUP4 ADD MSTORE POP POP POP JUMP JUMPDEST PUSH0 PUSH2 0x714 PUSH2 0x70F DUP5 PUSH2 0x6C4 JUMP JUMPDEST PUSH2 0x6AA JUMP JUMPDEST SWAP1 POP DUP3 DUP2 MSTORE PUSH1 0x20 DUP2 ADD DUP5 DUP5 DUP5 ADD GT ISZERO PUSH2 0x730 JUMPI PUSH2 0x72F PUSH2 0x638 JUMP JUMPDEST JUMPDEST PUSH2 0x73B DUP5 DUP3 DUP6 PUSH2 0x6F4 JUMP JUMPDEST POP SWAP4 SWAP3 POP POP POP JUMP JUMPDEST PUSH0 DUP3 PUSH1 0x1F DUP4 ADD SLT PUSH2 0x757 JUMPI PUSH2 0x756 PUSH2 0x634 JUMP JUMPDEST JUMPDEST DUP2 CALLDATALOAD PUSH2 0x767 DUP5 DUP3 PUSH1 0x20 DUP7 ADD PUSH2 0x702 JUMP JUMPDEST SWAP2 POP POP SWAP3 SWAP2 POP POP JUMP JUMPDEST PUSH0 DUP1 PUSH1 0x40 DUP4 DUP6 SUB SLT ISZERO PUSH2 0x786 JUMPI PUSH2 0x785 PUSH2 0x609 JUMP JUMPDEST JUMPDEST PUSH0 PUSH2 0x793 DUP6 DUP3 DUP7 ADD PUSH2 0x620 JUMP JUMPDEST SWAP3 POP POP PUSH1 0x20 DUP4 ADD CALLDATALOAD PUSH8 0xFFFFFFFFFFFFFFFF DUP2 GT ISZERO PUSH2 0x7B4 JUMPI PUSH2 0x7B3 PUSH2 0x60D JUMP JUMPDEST JUMPDEST PUSH2 0x7C0 DUP6 DUP3 DUP7 ADD PUSH2 0x743 JUMP JUMPDEST SWAP2 POP POP SWAP3 POP SWAP3 SWAP1 POP JUMP JUMPDEST PUSH0 DUP2 MLOAD SWAP1 POP SWAP2 SWAP1 POP JUMP JUMPDEST PUSH0 DUP3 DUP3 MSTORE PUSH1 0x20 DUP3 ADD SWAP1 POP SWAP3 SWAP2 POP POP JUMP JUMPDEST DUP3 DUP2 DUP4 MCOPY PUSH0 DUP4 DUP4 ADD MSTORE POP POP POP JUMP JUMPDEST PUSH0 PUSH2 0x7FC DUP3 PUSH2 0x7CA JUMP JUMPDEST PUSH2 0x806 DUP2 DUP6 PUSH2 0x7D4 JUMP JUMPDEST SWAP4 POP PUSH2 0x816 DUP2 DUP6 PUSH1 0x20 DUP7 ADD PUSH2 0x7E4 JUMP JUMPDEST PUSH2 0x81F DUP2 PUSH2 0x63C JUMP JUMPDEST DUP5 ADD SWAP2 POP POP SWAP3 SWAP2 POP POP JUMP JUMPDEST PUSH0 PUSH20 0xFFFFFFFFFFFFFFFFFFFFFFFFFFFFFFFFFFFFFFFF DUP3 AND SWAP1 POP SWAP2 SWAP1 POP JUMP JUMPDEST PUSH0 PUSH2 0x853 DUP3 PUSH2 0x82A JUMP JUMPDEST SWAP1 POP SWAP2 SWAP1 POP JUMP JUMPDEST PUSH2 0x863 DUP2 PUSH2 0x849 JUMP JUMPDEST DUP3 MSTORE POP POP JUMP JUMPDEST PUSH32 0x4E487B7100000000000000000000000000000000000000000000000000000000 PUSH0 MSTORE PUSH1 0x21 PUSH1 0x4 MSTORE PUSH1 0x24 PUSH0 REVERT JUMPDEST PUSH1 0x2 DUP2 LT PUSH2 0x8A7 JUMPI PUSH2 0x8A6 PUSH2 0x869 JUMP JUMPDEST JUMPDEST POP JUMP JUMPDEST PUSH0 DUP2 SWAP1 POP PUSH2 0x8B7 DUP3 PUSH2 0x896 JUMP JUMPDEST SWAP2 SWAP1 POP JUMP JUMPDEST PUSH0 PUSH2 0x8C6 DUP3 PUSH2 0x8AA JUMP JUMPDEST SWAP1 POP SWAP2 SWAP1 POP JUMP JUMPDEST PUSH2 0x8D6 DUP2 PUSH2 0x8BC JUMP JUMPDEST DUP3 MSTORE POP POP JUMP JUMPDEST PUSH0 DUP2 SWAP1 POP SWAP2 SWAP1 POP JUMP JUMPDEST PUSH2 0x8EE DUP2 PUSH2 0x8DC JUMP JUMPDEST DUP3 MSTORE POP POP JUMP JUMPDEST PUSH0 PUSH1 0xE0 DUP3 ADD SWAP1 POP DUP2 DUP2 SUB PUSH0 DUP4 ADD MSTORE PUSH2 0x90C DUP2 DUP11 PUSH2 0x7F2 JUMP JUMPDEST SWAP1 POP DUP2 DUP2 SUB PUSH1 0x20 DUP4 ADD MSTORE PUSH2 0x920 DUP2 DUP10 PUSH2 0x7F2 JUMP JUMPDEST SWAP1 POP DUP2 DUP2 SUB PUSH1 0x40 DUP4 ADD MSTORE PUSH2 0x934 DUP2 DUP9 PUSH2 0x7F2 JUMP JUMPDEST SWAP1 POP PUSH2 0x943 PUSH1 0x60 DUP4 ADD DUP8 PUSH2 0x85A JUMP JUMPDEST PUSH2 0x950 PUSH1 0x80 DUP4 ADD DUP7 PUSH2 0x8CD JUMP JUMPDEST PUSH2 0x95D PUSH1 0xA0 DUP4 ADD DUP6 PUSH2 0x8E5 JUMP JUMPDEST PUSH2 0x96A PUSH1 0xC0 DUP4 ADD DUP5 PUSH2 0x8E5 JUMP JUMPDEST SWAP9 SWAP8 POP POP POP POP POP POP POP POP JUMP JUMPDEST PUSH32 0x4F6E6C79206F776E65722063616E206368616E67652074686520737461746500 PUSH0 DUP3 ADD MSTORE POP JUMP JUMPDEST PUSH0 PUSH2 0x9AA PUSH1 0x1F DUP4 PUSH2 0x7D4 JUMP JUMPDEST SWAP2 POP PUSH2 0x9B5 DUP3 PUSH2 0x976 JUMP JUMPDEST PUSH1 0x20 DUP3 ADD SWAP1 POP SWAP2 SWAP1 POP JUMP JUMPDEST PUSH0 PUSH1 0x20 DUP3 ADD SWAP1 POP DUP2 DUP2 SUB PUSH0 DUP4 ADD MSTORE PUSH2 0x9D7 DUP2 PUSH2 0x99E JUMP JUMPDEST SWAP1 POP SWAP2 SWAP1 POP JUMP JUMPDEST PUSH32 0x4E6577207374617465206D75737420626520646966666572656E740000000000 PUSH0 DUP3 ADD MSTORE POP JUMP JUMPDEST PUSH0 PUSH2 0xA12 PUSH1 0x1B DUP4 PUSH2 0x7D4 JUMP JUMPDEST SWAP2 POP PUSH2 0xA1D DUP3 PUSH2 0x9DE JUMP JUMPDEST PUSH1 0x20 DUP3 ADD SWAP1 POP SWAP2 SWAP1 POP JUMP JUMPDEST PUSH0 PUSH1 0x20 DUP3 ADD SWAP1 POP DUP2 DUP2 SUB PUSH0 DUP4 ADD MSTORE PUSH2 0xA3F DUP2 PUSH2 0xA06 JUMP JUMPDEST SWAP1 POP SWAP2 SWAP1 POP JUMP JUMPDEST PUSH32 0x4E487B7100000000000000000000000000000000000000000000000000000000 PUSH0 MSTORE PUSH1 0x22 PUSH1 0x4 MSTORE PUSH1 0x24 PUSH0 REVERT JUMPDEST PUSH0 PUSH1 0x2 DUP3 DIV SWAP1 POP PUSH1 0x1 DUP3 AND DUP1 PUSH2 0xA8A JUMPI PUSH1 0x7F DUP3 AND SWAP2 POP JUMPDEST PUSH1 0x20 DUP3 LT DUP2 SUB PUSH2 0xA9D JUMPI PUSH2 0xA9C PUSH2 0xA46 JUMP JUMPDEST JUMPDEST POP SWAP2 SWAP1 POP JUMP JUMPDEST PUSH0 DUP2 SWAP1 POP DUP2 PUSH0 MSTORE PUSH1 0x20 PUSH0 KECCAK256 SWAP1 POP SWAP2 SWAP1 POP JUMP JUMPDEST PUSH0 DUP2 SLOAD PUSH2 0xAC1 DUP2 PUSH2 0xA73 JUMP JUMPDEST PUSH2 0xACB DUP2 DUP7 PUSH2 0x7D4 JUMP JUMPDEST SWAP5 POP PUSH1 0x1 DUP3 AND PUSH0 DUP2 EQ PUSH2 0xAE5 JUMPI PUSH1 0x1 DUP2 EQ PUSH2 0xAFB JUMPI PUSH2 0xB2D JUMP JUMPDEST PUSH1 0xFF NOT DUP4 AND DUP7 MSTORE DUP2 ISZERO ISZERO PUSH1 0x20 MUL DUP7 ADD SWAP4 POP PUSH2 0xB2D JUMP JUMPDEST PUSH2 0xB04 DUP6 PUSH2 0xAA3 JUMP JUMPDEST PUSH0 JUMPDEST DUP4 DUP2 LT ISZERO PUSH2 0xB25 JUMPI DUP2 SLOAD DUP2 DUP10 ADD MSTORE PUSH1 0x1 DUP3 ADD SWAP2 POP PUSH1 0x20 DUP2 ADD SWAP1 POP PUSH2 0xB06 JUMP JUMPDEST DUP1 DUP9 ADD SWAP6 POP POP POP JUMPDEST POP POP POP SWAP3 SWAP2 POP POP JUMP JUMPDEST PUSH0 PUSH1 0x40 DUP3 ADD SWAP1 POP DUP2 DUP2 SUB PUSH0 DUP4 ADD MSTORE PUSH2 0xB4E DUP2 DUP6 PUSH2 0xAB5 JUMP JUMPDEST SWAP1 POP PUSH2 0xB5D PUSH1 0x20 DUP4 ADD DUP5 PUSH2 0x8CD JUMP JUMPDEST SWAP4 SWAP3 POP POP POP JUMP JUMPDEST PUSH32 0x4173204F776E65722063616E27742066756E64207572206163636F756E740000 PUSH0 DUP3 ADD MSTORE POP JUMP JUMPDEST PUSH0 PUSH2 0xB98 PUSH1 0x1E DUP4 PUSH2 0x7D4 JUMP JUMPDEST SWAP2 POP PUSH2 0xBA3 DUP3 PUSH2 0xB64 JUMP JUMPDEST PUSH1 0x20 DUP3 ADD SWAP1 POP SWAP2 SWAP1 POP JUMP JUMPDEST PUSH0 PUSH1 0x20 DUP3 ADD SWAP1 POP DUP2 DUP2 SUB PUSH0 DUP4 ADD MSTORE PUSH2 0xBC5 DUP2 PUSH2 0xB8C JUMP JUMPDEST SWAP1 POP SWAP2 SWAP1 POP JUMP JUMPDEST PUSH32 0x54652070726F6A6563742063616E74207265636976652066756E647300000000 PUSH0 DUP3 ADD MSTORE POP JUMP JUMPDEST PUSH0 PUSH2 0xC00 PUSH1 0x1C DUP4 PUSH2 0x7D4 JUMP JUMPDEST SWAP2 POP PUSH2 0xC0B DUP3 PUSH2 0xBCC JUMP JUMPDEST PUSH1 0x20 DUP3 ADD SWAP1 POP SWAP2 SWAP1 POP JUMP JUMPDEST PUSH0 PUSH1 0x20 DUP3 ADD SWAP1 POP DUP2 DUP2 SUB PUSH0 DUP4 ADD MSTORE PUSH2 0xC2D DUP2 PUSH2 0xBF4 JUMP JUMPDEST SWAP1 POP SWAP2 SWAP1 POP JUMP JUMPDEST PUSH32 0x46756E642076616C7565206D757374206265206D6F7265207468616E20300000 PUSH0 DUP3 ADD MSTORE POP JUMP JUMPDEST PUSH0 PUSH2 0xC68 PUSH1 0x1E DUP4 PUSH2 0x7D4 JUMP JUMPDEST SWAP2 POP PUSH2 0xC73 DUP3 PUSH2 0xC34 JUMP JUMPDEST PUSH1 0x20 DUP3 ADD SWAP1 POP SWAP2 SWAP1 POP JUMP JUMPDEST PUSH0 PUSH1 0x20 DUP3 ADD SWAP1 POP DUP2 DUP2 SUB PUSH0 DUP4 ADD MSTORE PUSH2 0xC95 DUP2 PUSH2 0xC5C JUMP JUMPDEST SWAP1 POP SWAP2 SWAP1 POP JUMP JUMPDEST PUSH32 0x4E487B7100000000000000000000000000000000000000000000000000000000 PUSH0 MSTORE PUSH1 0x11 PUSH1 0x4 MSTORE PUSH1 0x24 PUSH0 REVERT JUMPDEST PUSH0 PUSH2 0xCD3 DUP3 PUSH2 0x8DC JUMP JUMPDEST SWAP2 POP PUSH2 0xCDE DUP4 PUSH2 0x8DC JUMP JUMPDEST SWAP3 POP DUP3 DUP3 ADD SWAP1 POP DUP1 DUP3 GT ISZERO PUSH2 0xCF6 JUMPI PUSH2 0xCF5 PUSH2 0xC9C JUMP JUMPDEST JUMPDEST SWAP3 SWAP2 POP POP JUMP JUMPDEST PUSH0 PUSH1 0x40 DUP3 ADD SWAP1 POP DUP2 DUP2 SUB PUSH0 DUP4 ADD MSTORE PUSH2 0xD14 DUP2 DUP6 PUSH2 0xAB5 JUMP JUMPDEST SWAP1 POP PUSH2 0xD23 PUSH1 0x20 DUP4 ADD DUP5 PUSH2 0x8E5 JUMP JUMPDEST SWAP4 SWAP3 POP POP POP JUMP INVALID LOG2 PUSH5 0x6970667358 0x22 SLT KECCAK256 0xC6 0xAB 0xCB 0xAD 0xB3 0xAC DUP11 BLOBHASH PUSH6 0x481842D238A7 STATICCALL LOG1 DUP10 PUSH6 0x5A1BB6E4E3F1 0x28 0xDC SAR 0xA6 RETURN BYTE CALLDATASIZE PUSH5 0x736F6C6343 STOP ADDMOD NOT STOP CALLER "
				},
				"gasEstimates": {
					"creation": {
						"codeDepositCost": "684800",
						"executionCost": "infinite",
						"totalCost": "infinite"
					},
					"external": {
						"FundProject()": "infinite",
						"changeProjectState(uint8,string)": "infinite",
						"crowfunding()": "infinite"
					}
				},
				"methodIdentifiers": {
					"FundProject()": "9073adb4",
					"changeProjectState(uint8,string)": "5c08a85b",
					"crowfunding()": "e8dc41ad"
				}
			},
			"storageLayout": {
				"storage": [
					{
						"astId": 23,
						"contract": "contracts/Homework6.sol:Homework",
						"label": "crowfunding",
						"offset": 0,
						"slot": "0",
						"type": "t_struct(Crowfunding)20_storage"
					}
				],
				"types": {
					"t_address_payable": {
						"encoding": "inplace",
						"label": "address payable",
						"numberOfBytes": "20"
					},
					"t_enum(StateFun)4": {
						"encoding": "inplace",
						"label": "enum Homework.StateFun",
						"numberOfBytes": "1"
					},
					"t_string_storage": {
						"encoding": "bytes",
						"label": "string",
						"numberOfBytes": "32"
					},
					"t_struct(Crowfunding)20_storage": {
						"encoding": "inplace",
						"label": "struct Homework.Crowfunding",
						"members": [
							{
								"astId": 6,
								"contract": "contracts/Homework6.sol:Homework",
								"label": "id",
								"offset": 0,
								"slot": "0",
								"type": "t_string_storage"
							},
							{
								"astId": 8,
								"contract": "contracts/Homework6.sol:Homework",
								"label": "name",
								"offset": 0,
								"slot": "1",
								"type": "t_string_storage"
							},
							{
								"astId": 10,
								"contract": "contracts/Homework6.sol:Homework",
								"label": "description",
								"offset": 0,
								"slot": "2",
								"type": "t_string_storage"
							},
							{
								"astId": 12,
								"contract": "contracts/Homework6.sol:Homework",
								"label": "owner",
								"offset": 0,
								"slot": "3",
								"type": "t_address_payable"
							},
							{
								"astId": 15,
								"contract": "contracts/Homework6.sol:Homework",
								"label": "state",
								"offset": 20,
								"slot": "3",
								"type": "t_enum(StateFun)4"
							},
							{
								"astId": 17,
								"contract": "contracts/Homework6.sol:Homework",
								"label": "fund",
								"offset": 0,
								"slot": "4",
								"type": "t_uint256"
							},
							{
								"astId": 19,
								"contract": "contracts/Homework6.sol:Homework",
								"label": "fundrasingGoal",
								"offset": 0,
								"slot": "5",
								"type": "t_uint256"
							}
						],
						"numberOfBytes": "192"
					},
					"t_uint256": {
						"encoding": "inplace",
						"label": "uint256",
						"numberOfBytes": "32"
					}
				}
			},
			"userdoc": {
				"kind": "user",
				"methods": {},
				"version": 1
			}
		}
	}
}