{
	"contracts/Homework3.sol": {
		"Homework": {
			"abi": [
				{
					"inputs": [
						{
							"internalType": "string",
							"name": "_id",
							"type": "string"
						},
						{
							"internalType": "string",
							"name": "_name",
							"type": "string"
						},
						{
							"internalType": "string",
							"name": "_description",
							"type": "string"
						},
						{
							"internalType": "uint256",
							"name": "_fundrasingGoal",
							"type": "uint256"
						}
					],
					"stateMutability": "nonpayable",
					"type": "constructor"
				},
				{
					"anonymous": false,
					"inputs": [
						{
							"indexed": false,
							"internalType": "string",
							"name": "idr",
							"type": "string"
						},
						{
							"indexed": false,
							"internalType": "string",
							"name": "Estado",
							"type": "string"
						}
					],
					"name": "CProject",
					"type": "event"
				},
				{
					"anonymous": false,
					"inputs": [
						{
							"indexed": false,
							"internalType": "string",
							"name": "id",
							"type": "string"
						},
						{
							"indexed": false,
							"internalType": "uint256",
							"name": "valor",
							"type": "uint256"
						}
					],
					"name": "FProject",
					"type": "event"
				},
				{
					"inputs": [],
					"name": "FundProject",
					"outputs": [],
					"stateMutability": "payable",
					"type": "function"
				},
				{
					"inputs": [
						{
							"internalType": "string",
							"name": "newState",
							"type": "string"
						}
					],
					"name": "changeProjectState",
					"outputs": [],
					"stateMutability": "nonpayable",
					"type": "function"
				},
				{
					"inputs": [],
					"name": "description",
					"outputs": [
						{
							"internalType": "string",
							"name": "",
							"type": "string"
						}
					],
					"stateMutability": "view",
					"type": "function"
				},
				{
					"inputs": [],
					"name": "fund",
					"outputs": [
						{
							"internalType": "uint256",
							"name": "",
							"type": "uint256"
						}
					],
					"stateMutability": "view",
					"type": "function"
				},
				{
					"inputs": [],
					"name": "fundrasingGoal",
					"outputs": [
						{
							"internalType": "uint256",
							"name": "",
							"type": "uint256"
						}
					],
					"stateMutability": "view",
					"type": "function"
				},
				{
					"inputs": [],
					"name": "id",
					"outputs": [
						{
							"internalType": "string",
							"name": "",
							"type": "string"
						}
					],
					"stateMutability": "view",
					"type": "function"
				},
				{
					"inputs": [],
					"name": "name",
					"outputs": [
						{
							"internalType": "string",
							"name": "",
							"type": "string"
						}
					],
					"stateMutability": "view",
					"type": "function"
				},
				{
					"inputs": [],
					"name": "owner",
					"outputs": [
						{
							"internalType": "address payable",
							"name": "",
							"type": "address"
						}
					],
					"stateMutability": "view",
					"type": "function"
				},
				{
					"inputs": [],
					"name": "state",
					"outputs": [
						{
							"internalType": "string",
							"name": "",
							"type": "string"
						}
					],
					"stateMutability": "view",
					"type": "function"
				}
			],
			"devdoc": {
				"kind": "dev",
				"methods": {},
				"version": 1
			},
			"evm": {
				"assembly": "    /* \"contracts/Homework3.sol\":74:1371  contract Homework {... */\n  mstore(0x40, 0x80)\n    /* \"contracts/Homework3.sol\":216:246  string public state = \"Opened\" */\n  mload(0x40)\n  dup1\n  0x40\n  add\n  0x40\n  mstore\n  dup1\n  0x06\n  dup2\n  mstore\n  0x20\n  add\n  0x4f70656e65640000000000000000000000000000000000000000000000000000\n  dup2\n  mstore\n  pop\n  0x04\n  swap1\n  dup2\n  tag_1\n  swap2\n  swap1\n  tag_2\n  jump\t// in\ntag_1:\n  pop\n    /* \"contracts/Homework3.sol\":405:675  constructor (string memory _id, string memory _name, string memory _description, uint _fundrasingGoal){... */\n  callvalue\n  dup1\n  iszero\n  tag_3\n  jumpi\n  0x00\n  dup1\n  revert\ntag_3:\n  pop\n  mload(0x40)\n  sub(codesize, bytecodeSize)\n  dup1\n  bytecodeSize\n  dup4\n  codecopy\n  dup2\n  dup2\n  add\n  0x40\n  mstore\n  dup2\n  add\n  swap1\n  tag_4\n  swap2\n  swap1\n  tag_5\n  jump\t// in\ntag_4:\n    /* \"contracts/Homework3.sol\":523:526  _id */\n  dup4\n    /* \"contracts/Homework3.sol\":518:520  id */\n  0x00\n    /* \"contracts/Homework3.sol\":518:526  id = _id */\n  swap1\n  dup2\n  tag_8\n  swap2\n  swap1\n  tag_2\n  jump\t// in\ntag_8:\n  pop\n    /* \"contracts/Homework3.sol\":544:549  _name */\n  dup3\n    /* \"contracts/Homework3.sol\":537:541  name */\n  0x01\n    /* \"contracts/Homework3.sol\":537:549  name = _name */\n  swap1\n  dup2\n  tag_9\n  swap2\n  swap1\n  tag_2\n  jump\t// in\ntag_9:\n  pop\n    /* \"contracts/Homework3.sol\":574:586  _description */\n  dup2\n    /* \"contracts/Homework3.sol\":560:571  description */\n  0x03\n    /* \"contracts/Homework3.sol\":560:586  description = _description */\n  swap1\n  dup2\n  tag_10\n  swap2\n  swap1\n  tag_2\n  jump\t// in\ntag_10:\n  pop\n    /* \"contracts/Homework3.sol\":614:629  _fundrasingGoal */\n  dup1\n    /* \"contracts/Homework3.sol\":597:611  fundrasingGoal */\n  0x06\n    /* \"contracts/Homework3.sol\":597:629  fundrasingGoal = _fundrasingGoal */\n  dup2\n  swap1\n  sstore\n  pop\n    /* \"contracts/Homework3.sol\":656:666  msg.sender */\n  caller\n    /* \"contracts/Homework3.sol\":640:645  owner */\n  0x02\n  0x00\n    /* \"contracts/Homework3.sol\":640:667  owner = payable(msg.sender) */\n  0x0100\n  exp\n  dup2\n  sload\n  dup2\n  0xffffffffffffffffffffffffffffffffffffffff\n  mul\n  not\n  and\n  swap1\n  dup4\n  0xffffffffffffffffffffffffffffffffffffffff\n  and\n  mul\n  or\n  swap1\n  sstore\n  pop\n    /* \"contracts/Homework3.sol\":405:675  constructor (string memory _id, string memory _name, string memory _description, uint _fundrasingGoal){... */\n  pop\n  pop\n  pop\n  pop\n    /* \"contracts/Homework3.sol\":74:1371  contract Homework {... */\n  jump(tag_11)\n    /* \"#utility.yul\":7:106   */\ntag_12:\n    /* \"#utility.yul\":59:65   */\n  0x00\n    /* \"#utility.yul\":93:98   */\n  dup2\n    /* \"#utility.yul\":87:99   */\n  mload\n    /* \"#utility.yul\":77:99   */\n  swap1\n  pop\n    /* \"#utility.yul\":7:106   */\n  swap2\n  swap1\n  pop\n  jump\t// out\n    /* \"#utility.yul\":112:292   */\ntag_13:\n    /* \"#utility.yul\":160:237   */\n  0x4e487b7100000000000000000000000000000000000000000000000000000000\n    /* \"#utility.yul\":157:158   */\n  0x00\n    /* \"#utility.yul\":150:238   */\n  mstore\n    /* \"#utility.yul\":257:261   */\n  0x41\n    /* \"#utility.yul\":254:255   */\n  0x04\n    /* \"#utility.yul\":247:262   */\n  mstore\n    /* \"#utility.yul\":281:285   */\n  0x24\n    /* \"#utility.yul\":278:279   */\n  0x00\n    /* \"#utility.yul\":271:286   */\n  revert\n    /* \"#utility.yul\":298:478   */\ntag_14:\n    /* \"#utility.yul\":346:423   */\n  0x4e487b7100000000000000000000000000000000000000000000000000000000\n    /* \"#utility.yul\":343:344   */\n  0x00\n    /* \"#utility.yul\":336:424   */\n  mstore\n    /* \"#utility.yul\":443:447   */\n  0x22\n    /* \"#utility.yul\":440:441   */\n  0x04\n    /* \"#utility.yul\":433:448   */\n  mstore\n    /* \"#utility.yul\":467:471   */\n  0x24\n    /* \"#utility.yul\":464:465   */\n  0x00\n    /* \"#utility.yul\":457:472   */\n  revert\n    /* \"#utility.yul\":484:804   */\ntag_15:\n    /* \"#utility.yul\":528:534   */\n  0x00\n    /* \"#utility.yul\":565:566   */\n  0x02\n    /* \"#utility.yul\":559:563   */\n  dup3\n    /* \"#utility.yul\":555:567   */\n  div\n    /* \"#utility.yul\":545:567   */\n  swap1\n  pop\n    /* \"#utility.yul\":612:613   */\n  0x01\n    /* \"#utility.yul\":606:610   */\n  dup3\n    /* \"#utility.yul\":602:614   */\n  and\n    /* \"#utility.yul\":633:651   */\n  dup1\n    /* \"#utility.yul\":623:704   */\n  tag_51\n  jumpi\n    /* \"#utility.yul\":689:693   */\n  0x7f\n    /* \"#utility.yul\":681:687   */\n  dup3\n    /* \"#utility.yul\":677:694   */\n  and\n    /* \"#utility.yul\":667:694   */\n  swap2\n  pop\n    /* \"#utility.yul\":623:704   */\ntag_51:\n    /* \"#utility.yul\":751:753   */\n  0x20\n    /* \"#utility.yul\":743:749   */\n  dup3\n    /* \"#utility.yul\":740:754   */\n  lt\n    /* \"#utility.yul\":720:738   */\n  dup2\n    /* \"#utility.yul\":717:755   */\n  sub\n    /* \"#utility.yul\":714:798   */\n  tag_52\n  jumpi\n    /* \"#utility.yul\":770:788   */\n  tag_53\n  tag_14\n  jump\t// in\ntag_53:\n    /* \"#utility.yul\":714:798   */\ntag_52:\n    /* \"#utility.yul\":535:804   */\n  pop\n    /* \"#utility.yul\":484:804   */\n  swap2\n  swap1\n  pop\n  jump\t// out\n    /* \"#utility.yul\":810:951   */\ntag_16:\n    /* \"#utility.yul\":859:863   */\n  0x00\n    /* \"#utility.yul\":882:885   */\n  dup2\n    /* \"#utility.yul\":874:885   */\n  swap1\n  pop\n    /* \"#utility.yul\":905:908   */\n  dup2\n    /* \"#utility.yul\":902:903   */\n  0x00\n    /* \"#utility.yul\":895:909   */\n  mstore\n    /* \"#utility.yul\":939:943   */\n  0x20\n    /* \"#utility.yul\":936:937   */\n  0x00\n    /* \"#utility.yul\":926:944   */\n  keccak256\n    /* \"#utility.yul\":918:944   */\n  swap1\n  pop\n    /* \"#utility.yul\":810:951   */\n  swap2\n  swap1\n  pop\n  jump\t// out\n    /* \"#utility.yul\":957:1050   */\ntag_17:\n    /* \"#utility.yul\":994:1000   */\n  0x00\n    /* \"#utility.yul\":1041:1043   */\n  0x20\n    /* \"#utility.yul\":1036:1038   */\n  0x1f\n    /* \"#utility.yul\":1029:1034   */\n  dup4\n    /* \"#utility.yul\":1025:1039   */\n  add\n    /* \"#utility.yul\":1021:1044   */\n  div\n    /* \"#utility.yul\":1011:1044   */\n  swap1\n  pop\n    /* \"#utility.yul\":957:1050   */\n  swap2\n  swap1\n  pop\n  jump\t// out\n    /* \"#utility.yul\":1056:1163   */\ntag_18:\n    /* \"#utility.yul\":1100:1108   */\n  0x00\n    /* \"#utility.yul\":1150:1155   */\n  dup3\n    /* \"#utility.yul\":1144:1148   */\n  dup3\n    /* \"#utility.yul\":1140:1156   */\n  shl\n    /* \"#utility.yul\":1119:1156   */\n  swap1\n  pop\n    /* \"#utility.yul\":1056:1163   */\n  swap3\n  swap2\n  pop\n  pop\n  jump\t// out\n    /* \"#utility.yul\":1169:1562   */\ntag_19:\n    /* \"#utility.yul\":1238:1244   */\n  0x00\n    /* \"#utility.yul\":1288:1289   */\n  0x08\n    /* \"#utility.yul\":1276:1286   */\n  dup4\n    /* \"#utility.yul\":1272:1290   */\n  mul\n    /* \"#utility.yul\":1311:1408   */\n  tag_58\n    /* \"#utility.yul\":1341:1407   */\n  0xffffffffffffffffffffffffffffffffffffffffffffffffffffffffffffffff\n    /* \"#utility.yul\":1330:1339   */\n  dup3\n    /* \"#utility.yul\":1311:1408   */\n  tag_18\n  jump\t// in\ntag_58:\n    /* \"#utility.yul\":1429:1468   */\n  tag_59\n    /* \"#utility.yul\":1459:1467   */\n  dup7\n    /* \"#utility.yul\":1448:1457   */\n  dup4\n    /* \"#utility.yul\":1429:1468   */\n  tag_18\n  jump\t// in\ntag_59:\n    /* \"#utility.yul\":1417:1468   */\n  swap6\n  pop\n    /* \"#utility.yul\":1501:1505   */\n  dup1\n    /* \"#utility.yul\":1497:1506   */\n  not\n    /* \"#utility.yul\":1490:1495   */\n  dup5\n    /* \"#utility.yul\":1486:1507   */\n  and\n    /* \"#utility.yul\":1477:1507   */\n  swap4\n  pop\n    /* \"#utility.yul\":1550:1554   */\n  dup1\n    /* \"#utility.yul\":1540:1548   */\n  dup7\n    /* \"#utility.yul\":1536:1555   */\n  and\n    /* \"#utility.yul\":1529:1534   */\n  dup5\n    /* \"#utility.yul\":1526:1556   */\n  or\n    /* \"#utility.yul\":1516:1556   */\n  swap3\n  pop\n    /* \"#utility.yul\":1245:1562   */\n  pop\n  pop\n    /* \"#utility.yul\":1169:1562   */\n  swap4\n  swap3\n  pop\n  pop\n  pop\n  jump\t// out\n    /* \"#utility.yul\":1568:1645   */\ntag_20:\n    /* \"#utility.yul\":1605:1612   */\n  0x00\n    /* \"#utility.yul\":1634:1639   */\n  dup2\n    /* \"#utility.yul\":1623:1639   */\n  swap1\n  pop\n    /* \"#utility.yul\":1568:1645   */\n  swap2\n  swap1\n  pop\n  jump\t// out\n    /* \"#utility.yul\":1651:1711   */\ntag_21:\n    /* \"#utility.yul\":1679:1682   */\n  0x00\n    /* \"#utility.yul\":1700:1705   */\n  dup2\n    /* \"#utility.yul\":1693:1705   */\n  swap1\n  pop\n    /* \"#utility.yul\":1651:1711   */\n  swap2\n  swap1\n  pop\n  jump\t// out\n    /* \"#utility.yul\":1717:1859   */\ntag_22:\n    /* \"#utility.yul\":1767:1776   */\n  0x00\n    /* \"#utility.yul\":1800:1853   */\n  tag_63\n    /* \"#utility.yul\":1818:1852   */\n  tag_64\n    /* \"#utility.yul\":1827:1851   */\n  tag_65\n    /* \"#utility.yul\":1845:1850   */\n  dup5\n    /* \"#utility.yul\":1827:1851   */\n  tag_20\n  jump\t// in\ntag_65:\n    /* \"#utility.yul\":1818:1852   */\n  tag_21\n  jump\t// in\ntag_64:\n    /* \"#utility.yul\":1800:1853   */\n  tag_20\n  jump\t// in\ntag_63:\n    /* \"#utility.yul\":1787:1853   */\n  swap1\n  pop\n    /* \"#utility.yul\":1717:1859   */\n  swap2\n  swap1\n  pop\n  jump\t// out\n    /* \"#utility.yul\":1865:1940   */\ntag_23:\n    /* \"#utility.yul\":1908:1911   */\n  0x00\n    /* \"#utility.yul\":1929:1934   */\n  dup2\n    /* \"#utility.yul\":1922:1934   */\n  swap1\n  pop\n    /* \"#utility.yul\":1865:1940   */\n  swap2\n  swap1\n  pop\n  jump\t// out\n    /* \"#utility.yul\":1946:2215   */\ntag_24:\n    /* \"#utility.yul\":2056:2095   */\n  tag_68\n    /* \"#utility.yul\":2087:2094   */\n  dup4\n    /* \"#utility.yul\":2056:2095   */\n  tag_22\n  jump\t// in\ntag_68:\n    /* \"#utility.yul\":2117:2208   */\n  tag_69\n    /* \"#utility.yul\":2166:2207   */\n  tag_70\n    /* \"#utility.yul\":2190:2206   */\n  dup3\n    /* \"#utility.yul\":2166:2207   */\n  tag_23\n  jump\t// in\ntag_70:\n    /* \"#utility.yul\":2158:2164   */\n  dup5\n    /* \"#utility.yul\":2151:2155   */\n  dup5\n    /* \"#utility.yul\":2145:2156   */\n  sload\n    /* \"#utility.yul\":2117:2208   */\n  tag_19\n  jump\t// in\ntag_69:\n    /* \"#utility.yul\":2111:2115   */\n  dup3\n    /* \"#utility.yul\":2104:2209   */\n  sstore\n    /* \"#utility.yul\":2022:2215   */\n  pop\n    /* \"#utility.yul\":1946:2215   */\n  pop\n  pop\n  pop\n  jump\t// out\n    /* \"#utility.yul\":2221:2294   */\ntag_25:\n    /* \"#utility.yul\":2266:2269   */\n  0x00\n    /* \"#utility.yul\":2221:2294   */\n  swap1\n  jump\t// out\n    /* \"#utility.yul\":2300:2489   */\ntag_26:\n    /* \"#utility.yul\":2377:2409   */\n  tag_73\n  tag_25\n  jump\t// in\ntag_73:\n    /* \"#utility.yul\":2418:2483   */\n  tag_74\n    /* \"#utility.yul\":2476:2482   */\n  dup2\n    /* \"#utility.yul\":2468:2474   */\n  dup5\n    /* \"#utility.yul\":2462:2466   */\n  dup5\n    /* \"#utility.yul\":2418:2483   */\n  tag_24\n  jump\t// in\ntag_74:\n    /* \"#utility.yul\":2353:2489   */\n  pop\n    /* \"#utility.yul\":2300:2489   */\n  pop\n  pop\n  jump\t// out\n    /* \"#utility.yul\":2495:2681   */\ntag_27:\n    /* \"#utility.yul\":2555:2675   */\ntag_76:\n    /* \"#utility.yul\":2572:2575   */\n  dup2\n    /* \"#utility.yul\":2565:2570   */\n  dup2\n    /* \"#utility.yul\":2562:2576   */\n  lt\n    /* \"#utility.yul\":2555:2675   */\n  iszero\n  tag_78\n  jumpi\n    /* \"#utility.yul\":2626:2665   */\n  tag_79\n    /* \"#utility.yul\":2663:2664   */\n  0x00\n    /* \"#utility.yul\":2656:2661   */\n  dup3\n    /* \"#utility.yul\":2626:2665   */\n  tag_26\n  jump\t// in\ntag_79:\n    /* \"#utility.yul\":2599:2600   */\n  0x01\n    /* \"#utility.yul\":2592:2597   */\n  dup2\n    /* \"#utility.yul\":2588:2601   */\n  add\n    /* \"#utility.yul\":2579:2601   */\n  swap1\n  pop\n    /* \"#utility.yul\":2555:2675   */\n  jump(tag_76)\ntag_78:\n    /* \"#utility.yul\":2495:2681   */\n  pop\n  pop\n  jump\t// out\n    /* \"#utility.yul\":2687:3230   */\ntag_28:\n    /* \"#utility.yul\":2788:2790   */\n  0x1f\n    /* \"#utility.yul\":2783:2786   */\n  dup3\n    /* \"#utility.yul\":2780:2791   */\n  gt\n    /* \"#utility.yul\":2777:3223   */\n  iszero\n  tag_81\n  jumpi\n    /* \"#utility.yul\":2822:2860   */\n  tag_82\n    /* \"#utility.yul\":2854:2859   */\n  dup2\n    /* \"#utility.yul\":2822:2860   */\n  tag_16\n  jump\t// in\ntag_82:\n    /* \"#utility.yul\":2906:2935   */\n  tag_83\n    /* \"#utility.yul\":2924:2934   */\n  dup5\n    /* \"#utility.yul\":2906:2935   */\n  tag_17\n  jump\t// in\ntag_83:\n    /* \"#utility.yul\":2896:2904   */\n  dup2\n    /* \"#utility.yul\":2892:2936   */\n  add\n    /* \"#utility.yul\":3089:3091   */\n  0x20\n    /* \"#utility.yul\":3077:3087   */\n  dup6\n    /* \"#utility.yul\":3074:3092   */\n  lt\n    /* \"#utility.yul\":3071:3120   */\n  iszero\n  tag_84\n  jumpi\n    /* \"#utility.yul\":3110:3118   */\n  dup2\n    /* \"#utility.yul\":3095:3118   */\n  swap1\n  pop\n    /* \"#utility.yul\":3071:3120   */\ntag_84:\n    /* \"#utility.yul\":3133:3213   */\n  tag_85\n    /* \"#utility.yul\":3189:3211   */\n  tag_86\n    /* \"#utility.yul\":3207:3210   */\n  dup6\n    /* \"#utility.yul\":3189:3211   */\n  tag_17\n  jump\t// in\ntag_86:\n    /* \"#utility.yul\":3179:3187   */\n  dup4\n    /* \"#utility.yul\":3175:3212   */\n  add\n    /* \"#utility.yul\":3162:3173   */\n  dup3\n    /* \"#utility.yul\":3133:3213   */\n  tag_27\n  jump\t// in\ntag_85:\n    /* \"#utility.yul\":2792:3223   */\n  pop\n  pop\n    /* \"#utility.yul\":2777:3223   */\ntag_81:\n    /* \"#utility.yul\":2687:3230   */\n  pop\n  pop\n  pop\n  jump\t// out\n    /* \"#utility.yul\":3236:3353   */\ntag_29:\n    /* \"#utility.yul\":3290:3298   */\n  0x00\n    /* \"#utility.yul\":3340:3345   */\n  dup3\n    /* \"#utility.yul\":3334:3338   */\n  dup3\n    /* \"#utility.yul\":3330:3346   */\n  shr\n    /* \"#utility.yul\":3309:3346   */\n  swap1\n  pop\n    /* \"#utility.yul\":3236:3353   */\n  swap3\n  swap2\n  pop\n  pop\n  jump\t// out\n    /* \"#utility.yul\":3359:3528   */\ntag_30:\n    /* \"#utility.yul\":3403:3409   */\n  0x00\n    /* \"#utility.yul\":3436:3487   */\n  tag_89\n    /* \"#utility.yul\":3484:3485   */\n  0x00\n    /* \"#utility.yul\":3480:3486   */\n  not\n    /* \"#utility.yul\":3472:3477   */\n  dup5\n    /* \"#utility.yul\":3469:3470   */\n  0x08\n    /* \"#utility.yul\":3465:3478   */\n  mul\n    /* \"#utility.yul\":3436:3487   */\n  tag_29\n  jump\t// in\ntag_89:\n    /* \"#utility.yul\":3432:3488   */\n  not\n    /* \"#utility.yul\":3517:3521   */\n  dup1\n    /* \"#utility.yul\":3511:3515   */\n  dup4\n    /* \"#utility.yul\":3507:3522   */\n  and\n    /* \"#utility.yul\":3497:3522   */\n  swap2\n  pop\n    /* \"#utility.yul\":3410:3528   */\n  pop\n    /* \"#utility.yul\":3359:3528   */\n  swap3\n  swap2\n  pop\n  pop\n  jump\t// out\n    /* \"#utility.yul\":3533:3828   */\ntag_31:\n    /* \"#utility.yul\":3609:3613   */\n  0x00\n    /* \"#utility.yul\":3755:3784   */\n  tag_91\n    /* \"#utility.yul\":3780:3783   */\n  dup4\n    /* \"#utility.yul\":3774:3778   */\n  dup4\n    /* \"#utility.yul\":3755:3784   */\n  tag_30\n  jump\t// in\ntag_91:\n    /* \"#utility.yul\":3747:3784   */\n  swap2\n  pop\n    /* \"#utility.yul\":3817:3820   */\n  dup3\n    /* \"#utility.yul\":3814:3815   */\n  0x02\n    /* \"#utility.yul\":3810:3821   */\n  mul\n    /* \"#utility.yul\":3804:3808   */\n  dup3\n    /* \"#utility.yul\":3801:3822   */\n  or\n    /* \"#utility.yul\":3793:3822   */\n  swap1\n  pop\n    /* \"#utility.yul\":3533:3828   */\n  swap3\n  swap2\n  pop\n  pop\n  jump\t// out\n    /* \"#utility.yul\":3833:5228   */\ntag_2:\n    /* \"#utility.yul\":3950:3987   */\n  tag_93\n    /* \"#utility.yul\":3983:3986   */\n  dup3\n    /* \"#utility.yul\":3950:3987   */\n  tag_12\n  jump\t// in\ntag_93:\n    /* \"#utility.yul\":4052:4070   */\n  0xffffffffffffffff\n    /* \"#utility.yul\":4044:4050   */\n  dup2\n    /* \"#utility.yul\":4041:4071   */\n  gt\n    /* \"#utility.yul\":4038:4094   */\n  iszero\n  tag_94\n  jumpi\n    /* \"#utility.yul\":4074:4092   */\n  tag_95\n  tag_13\n  jump\t// in\ntag_95:\n    /* \"#utility.yul\":4038:4094   */\ntag_94:\n    /* \"#utility.yul\":4118:4156   */\n  tag_96\n    /* \"#utility.yul\":4150:4154   */\n  dup3\n    /* \"#utility.yul\":4144:4155   */\n  sload\n    /* \"#utility.yul\":4118:4156   */\n  tag_15\n  jump\t// in\ntag_96:\n    /* \"#utility.yul\":4203:4270   */\n  tag_97\n    /* \"#utility.yul\":4263:4269   */\n  dup3\n    /* \"#utility.yul\":4255:4261   */\n  dup3\n    /* \"#utility.yul\":4249:4253   */\n  dup6\n    /* \"#utility.yul\":4203:4270   */\n  tag_28\n  jump\t// in\ntag_97:\n    /* \"#utility.yul\":4297:4298   */\n  0x00\n    /* \"#utility.yul\":4321:4325   */\n  0x20\n    /* \"#utility.yul\":4308:4325   */\n  swap1\n  pop\n    /* \"#utility.yul\":4353:4355   */\n  0x1f\n    /* \"#utility.yul\":4345:4351   */\n  dup4\n    /* \"#utility.yul\":4342:4356   */\n  gt\n    /* \"#utility.yul\":4370:4371   */\n  0x01\n    /* \"#utility.yul\":4365:4983   */\n  dup2\n  eq\n  tag_99\n  jumpi\n    /* \"#utility.yul\":5027:5028   */\n  0x00\n    /* \"#utility.yul\":5044:5050   */\n  dup5\n    /* \"#utility.yul\":5041:5118   */\n  iszero\n  tag_100\n  jumpi\n    /* \"#utility.yul\":5093:5102   */\n  dup3\n    /* \"#utility.yul\":5088:5091   */\n  dup8\n    /* \"#utility.yul\":5084:5103   */\n  add\n    /* \"#utility.yul\":5078:5104   */\n  mload\n    /* \"#utility.yul\":5069:5104   */\n  swap1\n  pop\n    /* \"#utility.yul\":5041:5118   */\ntag_100:\n    /* \"#utility.yul\":5144:5211   */\n  tag_101\n    /* \"#utility.yul\":5204:5210   */\n  dup6\n    /* \"#utility.yul\":5197:5202   */\n  dup3\n    /* \"#utility.yul\":5144:5211   */\n  tag_31\n  jump\t// in\ntag_101:\n    /* \"#utility.yul\":5138:5142   */\n  dup7\n    /* \"#utility.yul\":5131:5212   */\n  sstore\n    /* \"#utility.yul\":5000:5222   */\n  pop\n    /* \"#utility.yul\":4335:5222   */\n  jump(tag_98)\n    /* \"#utility.yul\":4365:4983   */\ntag_99:\n    /* \"#utility.yul\":4417:4421   */\n  0x1f\n    /* \"#utility.yul\":4413:4422   */\n  not\n    /* \"#utility.yul\":4405:4411   */\n  dup5\n    /* \"#utility.yul\":4401:4423   */\n  and\n    /* \"#utility.yul\":4451:4488   */\n  tag_102\n    /* \"#utility.yul\":4483:4487   */\n  dup7\n    /* \"#utility.yul\":4451:4488   */\n  tag_16\n  jump\t// in\ntag_102:\n    /* \"#utility.yul\":4510:4511   */\n  0x00\n    /* \"#utility.yul\":4524:4732   */\ntag_103:\n    /* \"#utility.yul\":4538:4545   */\n  dup3\n    /* \"#utility.yul\":4535:4536   */\n  dup2\n    /* \"#utility.yul\":4532:4546   */\n  lt\n    /* \"#utility.yul\":4524:4732   */\n  iszero\n  tag_105\n  jumpi\n    /* \"#utility.yul\":4617:4626   */\n  dup5\n    /* \"#utility.yul\":4612:4615   */\n  dup10\n    /* \"#utility.yul\":4608:4627   */\n  add\n    /* \"#utility.yul\":4602:4628   */\n  mload\n    /* \"#utility.yul\":4594:4600   */\n  dup3\n    /* \"#utility.yul\":4587:4629   */\n  sstore\n    /* \"#utility.yul\":4668:4669   */\n  0x01\n    /* \"#utility.yul\":4660:4666   */\n  dup3\n    /* \"#utility.yul\":4656:4670   */\n  add\n    /* \"#utility.yul\":4646:4670   */\n  swap2\n  pop\n    /* \"#utility.yul\":4715:4717   */\n  0x20\n    /* \"#utility.yul\":4704:4713   */\n  dup6\n    /* \"#utility.yul\":4700:4718   */\n  add\n    /* \"#utility.yul\":4687:4718   */\n  swap5\n  pop\n    /* \"#utility.yul\":4561:4565   */\n  0x20\n    /* \"#utility.yul\":4558:4559   */\n  dup2\n    /* \"#utility.yul\":4554:4566   */\n  add\n    /* \"#utility.yul\":4549:4566   */\n  swap1\n  pop\n    /* \"#utility.yul\":4524:4732   */\n  jump(tag_103)\ntag_105:\n    /* \"#utility.yul\":4760:4766   */\n  dup7\n    /* \"#utility.yul\":4751:4758   */\n  dup4\n    /* \"#utility.yul\":4748:4767   */\n  lt\n    /* \"#utility.yul\":4745:4924   */\n  iszero\n  tag_106\n  jumpi\n    /* \"#utility.yul\":4818:4827   */\n  dup5\n    /* \"#utility.yul\":4813:4816   */\n  dup10\n    /* \"#utility.yul\":4809:4828   */\n  add\n    /* \"#utility.yul\":4803:4829   */\n  mload\n    /* \"#utility.yul\":4861:4909   */\n  tag_107\n    /* \"#utility.yul\":4903:4907   */\n  0x1f\n    /* \"#utility.yul\":4895:4901   */\n  dup10\n    /* \"#utility.yul\":4891:4908   */\n  and\n    /* \"#utility.yul\":4880:4889   */\n  dup3\n    /* \"#utility.yul\":4861:4909   */\n  tag_30\n  jump\t// in\ntag_107:\n    /* \"#utility.yul\":4853:4859   */\n  dup4\n    /* \"#utility.yul\":4846:4910   */\n  sstore\n    /* \"#utility.yul\":4768:4924   */\n  pop\n    /* \"#utility.yul\":4745:4924   */\ntag_106:\n    /* \"#utility.yul\":4970:4971   */\n  0x01\n    /* \"#utility.yul\":4966:4967   */\n  0x02\n    /* \"#utility.yul\":4958:4964   */\n  dup9\n    /* \"#utility.yul\":4954:4968   */\n  mul\n    /* \"#utility.yul\":4950:4972   */\n  add\n    /* \"#utility.yul\":4944:4948   */\n  dup9\n    /* \"#utility.yul\":4937:4973   */\n  sstore\n    /* \"#utility.yul\":4372:4983   */\n  pop\n  pop\n  pop\n    /* \"#utility.yul\":4335:5222   */\ntag_98:\n  pop\n    /* \"#utility.yul\":3925:5228   */\n  pop\n  pop\n  pop\n    /* \"#utility.yul\":3833:5228   */\n  pop\n  pop\n  jump\t// out\n    /* \"#utility.yul\":5234:5309   */\ntag_32:\n    /* \"#utility.yul\":5267:5273   */\n  0x00\n    /* \"#utility.yul\":5300:5302   */\n  0x40\n    /* \"#utility.yul\":5294:5303   */\n  mload\n    /* \"#utility.yul\":5284:5303   */\n  swap1\n  pop\n    /* \"#utility.yul\":5234:5309   */\n  swap1\n  jump\t// out\n    /* \"#utility.yul\":5315:5432   */\ntag_33:\n    /* \"#utility.yul\":5424:5425   */\n  0x00\n    /* \"#utility.yul\":5421:5422   */\n  dup1\n    /* \"#utility.yul\":5414:5426   */\n  revert\n    /* \"#utility.yul\":5438:5555   */\ntag_34:\n    /* \"#utility.yul\":5547:5548   */\n  0x00\n    /* \"#utility.yul\":5544:5545   */\n  dup1\n    /* \"#utility.yul\":5537:5549   */\n  revert\n    /* \"#utility.yul\":5561:5678   */\ntag_35:\n    /* \"#utility.yul\":5670:5671   */\n  0x00\n    /* \"#utility.yul\":5667:5668   */\n  dup1\n    /* \"#utility.yul\":5660:5672   */\n  revert\n    /* \"#utility.yul\":5684:5801   */\ntag_36:\n    /* \"#utility.yul\":5793:5794   */\n  0x00\n    /* \"#utility.yul\":5790:5791   */\n  dup1\n    /* \"#utility.yul\":5783:5795   */\n  revert\n    /* \"#utility.yul\":5807:5909   */\ntag_37:\n    /* \"#utility.yul\":5848:5854   */\n  0x00\n    /* \"#utility.yul\":5899:5901   */\n  0x1f\n    /* \"#utility.yul\":5895:5902   */\n  not\n    /* \"#utility.yul\":5890:5892   */\n  0x1f\n    /* \"#utility.yul\":5883:5888   */\n  dup4\n    /* \"#utility.yul\":5879:5893   */\n  add\n    /* \"#utility.yul\":5875:5903   */\n  and\n    /* \"#utility.yul\":5865:5903   */\n  swap1\n  pop\n    /* \"#utility.yul\":5807:5909   */\n  swap2\n  swap1\n  pop\n  jump\t// out\n    /* \"#utility.yul\":5915:6196   */\ntag_38:\n    /* \"#utility.yul\":5998:6025   */\n  tag_115\n    /* \"#utility.yul\":6020:6024   */\n  dup3\n    /* \"#utility.yul\":5998:6025   */\n  tag_37\n  jump\t// in\ntag_115:\n    /* \"#utility.yul\":5990:5996   */\n  dup2\n    /* \"#utility.yul\":5986:6026   */\n  add\n    /* \"#utility.yul\":6128:6134   */\n  dup2\n    /* \"#utility.yul\":6116:6126   */\n  dup2\n    /* \"#utility.yul\":6113:6135   */\n  lt\n    /* \"#utility.yul\":6092:6110   */\n  0xffffffffffffffff\n    /* \"#utility.yul\":6080:6090   */\n  dup3\n    /* \"#utility.yul\":6077:6111   */\n  gt\n    /* \"#utility.yul\":6074:6136   */\n  or\n    /* \"#utility.yul\":6071:6159   */\n  iszero\n  tag_116\n  jumpi\n    /* \"#utility.yul\":6139:6157   */\n  tag_117\n  tag_13\n  jump\t// in\ntag_117:\n    /* \"#utility.yul\":6071:6159   */\ntag_116:\n    /* \"#utility.yul\":6179:6189   */\n  dup1\n    /* \"#utility.yul\":6175:6177   */\n  0x40\n    /* \"#utility.yul\":6168:6190   */\n  mstore\n    /* \"#utility.yul\":5958:6196   */\n  pop\n    /* \"#utility.yul\":5915:6196   */\n  pop\n  pop\n  jump\t// out\n    /* \"#utility.yul\":6202:6331   */\ntag_39:\n    /* \"#utility.yul\":6236:6242   */\n  0x00\n    /* \"#utility.yul\":6263:6283   */\n  tag_119\n  tag_32\n  jump\t// in\ntag_119:\n    /* \"#utility.yul\":6253:6283   */\n  swap1\n  pop\n    /* \"#utility.yul\":6292:6325   */\n  tag_120\n    /* \"#utility.yul\":6320:6324   */\n  dup3\n    /* \"#utility.yul\":6312:6318   */\n  dup3\n    /* \"#utility.yul\":6292:6325   */\n  tag_38\n  jump\t// in\ntag_120:\n    /* \"#utility.yul\":6202:6331   */\n  swap2\n  swap1\n  pop\n  jump\t// out\n    /* \"#utility.yul\":6337:6645   */\ntag_40:\n    /* \"#utility.yul\":6399:6403   */\n  0x00\n    /* \"#utility.yul\":6489:6507   */\n  0xffffffffffffffff\n    /* \"#utility.yul\":6481:6487   */\n  dup3\n    /* \"#utility.yul\":6478:6508   */\n  gt\n    /* \"#utility.yul\":6475:6531   */\n  iszero\n  tag_122\n  jumpi\n    /* \"#utility.yul\":6511:6529   */\n  tag_123\n  tag_13\n  jump\t// in\ntag_123:\n    /* \"#utility.yul\":6475:6531   */\ntag_122:\n    /* \"#utility.yul\":6549:6578   */\n  tag_124\n    /* \"#utility.yul\":6571:6577   */\n  dup3\n    /* \"#utility.yul\":6549:6578   */\n  tag_37\n  jump\t// in\ntag_124:\n    /* \"#utility.yul\":6541:6578   */\n  swap1\n  pop\n    /* \"#utility.yul\":6633:6637   */\n  0x20\n    /* \"#utility.yul\":6627:6631   */\n  dup2\n    /* \"#utility.yul\":6623:6638   */\n  add\n    /* \"#utility.yul\":6615:6638   */\n  swap1\n  pop\n    /* \"#utility.yul\":6337:6645   */\n  swap2\n  swap1\n  pop\n  jump\t// out\n    /* \"#utility.yul\":6651:6790   */\ntag_41:\n    /* \"#utility.yul\":6740:6746   */\n  dup3\n    /* \"#utility.yul\":6735:6738   */\n  dup2\n    /* \"#utility.yul\":6730:6733   */\n  dup4\n    /* \"#utility.yul\":6724:6747   */\n  mcopy\n    /* \"#utility.yul\":6781:6782   */\n  0x00\n    /* \"#utility.yul\":6772:6778   */\n  dup4\n    /* \"#utility.yul\":6767:6770   */\n  dup4\n    /* \"#utility.yul\":6763:6779   */\n  add\n    /* \"#utility.yul\":6756:6783   */\n  mstore\n    /* \"#utility.yul\":6651:6790   */\n  pop\n  pop\n  pop\n  jump\t// out\n    /* \"#utility.yul\":6796:7230   */\ntag_42:\n    /* \"#utility.yul\":6885:6890   */\n  0x00\n    /* \"#utility.yul\":6910:6976   */\n  tag_127\n    /* \"#utility.yul\":6926:6975   */\n  tag_128\n    /* \"#utility.yul\":6968:6974   */\n  dup5\n    /* \"#utility.yul\":6926:6975   */\n  tag_40\n  jump\t// in\ntag_128:\n    /* \"#utility.yul\":6910:6976   */\n  tag_39\n  jump\t// in\ntag_127:\n    /* \"#utility.yul\":6901:6976   */\n  swap1\n  pop\n    /* \"#utility.yul\":6999:7005   */\n  dup3\n    /* \"#utility.yul\":6992:6997   */\n  dup2\n    /* \"#utility.yul\":6985:7006   */\n  mstore\n    /* \"#utility.yul\":7037:7041   */\n  0x20\n    /* \"#utility.yul\":7030:7035   */\n  dup2\n    /* \"#utility.yul\":7026:7042   */\n  add\n    /* \"#utility.yul\":7075:7078   */\n  dup5\n    /* \"#utility.yul\":7066:7072   */\n  dup5\n    /* \"#utility.yul\":7061:7064   */\n  dup5\n    /* \"#utility.yul\":7057:7073   */\n  add\n    /* \"#utility.yul\":7054:7079   */\n  gt\n    /* \"#utility.yul\":7051:7163   */\n  iszero\n  tag_129\n  jumpi\n    /* \"#utility.yul\":7082:7161   */\n  tag_130\n  tag_36\n  jump\t// in\ntag_130:\n    /* \"#utility.yul\":7051:7163   */\ntag_129:\n    /* \"#utility.yul\":7172:7224   */\n  tag_131\n    /* \"#utility.yul\":7217:7223   */\n  dup5\n    /* \"#utility.yul\":7212:7215   */\n  dup3\n    /* \"#utility.yul\":7207:7210   */\n  dup6\n    /* \"#utility.yul\":7172:7224   */\n  tag_41\n  jump\t// in\ntag_131:\n    /* \"#utility.yul\":6891:7230   */\n  pop\n    /* \"#utility.yul\":6796:7230   */\n  swap4\n  swap3\n  pop\n  pop\n  pop\n  jump\t// out\n    /* \"#utility.yul\":7250:7605   */\ntag_43:\n    /* \"#utility.yul\":7317:7322   */\n  0x00\n    /* \"#utility.yul\":7366:7369   */\n  dup3\n    /* \"#utility.yul\":7359:7363   */\n  0x1f\n    /* \"#utility.yul\":7351:7357   */\n  dup4\n    /* \"#utility.yul\":7347:7364   */\n  add\n    /* \"#utility.yul\":7343:7370   */\n  slt\n    /* \"#utility.yul\":7333:7455   */\n  tag_133\n  jumpi\n    /* \"#utility.yul\":7374:7453   */\n  tag_134\n  tag_35\n  jump\t// in\ntag_134:\n    /* \"#utility.yul\":7333:7455   */\ntag_133:\n    /* \"#utility.yul\":7484:7490   */\n  dup2\n    /* \"#utility.yul\":7478:7491   */\n  mload\n    /* \"#utility.yul\":7509:7599   */\n  tag_135\n    /* \"#utility.yul\":7595:7598   */\n  dup5\n    /* \"#utility.yul\":7587:7593   */\n  dup3\n    /* \"#utility.yul\":7580:7584   */\n  0x20\n    /* \"#utility.yul\":7572:7578   */\n  dup7\n    /* \"#utility.yul\":7568:7585   */\n  add\n    /* \"#utility.yul\":7509:7599   */\n  tag_42\n  jump\t// in\ntag_135:\n    /* \"#utility.yul\":7500:7599   */\n  swap2\n  pop\n    /* \"#utility.yul\":7323:7605   */\n  pop\n    /* \"#utility.yul\":7250:7605   */\n  swap3\n  swap2\n  pop\n  pop\n  jump\t// out\n    /* \"#utility.yul\":7611:7733   */\ntag_44:\n    /* \"#utility.yul\":7684:7708   */\n  tag_137\n    /* \"#utility.yul\":7702:7707   */\n  dup2\n    /* \"#utility.yul\":7684:7708   */\n  tag_20\n  jump\t// in\ntag_137:\n    /* \"#utility.yul\":7677:7682   */\n  dup2\n    /* \"#utility.yul\":7674:7709   */\n  eq\n    /* \"#utility.yul\":7664:7727   */\n  tag_138\n  jumpi\n    /* \"#utility.yul\":7723:7724   */\n  0x00\n    /* \"#utility.yul\":7720:7721   */\n  dup1\n    /* \"#utility.yul\":7713:7725   */\n  revert\n    /* \"#utility.yul\":7664:7727   */\ntag_138:\n    /* \"#utility.yul\":7611:7733   */\n  pop\n  jump\t// out\n    /* \"#utility.yul\":7739:7882   */\ntag_45:\n    /* \"#utility.yul\":7796:7801   */\n  0x00\n    /* \"#utility.yul\":7827:7833   */\n  dup2\n    /* \"#utility.yul\":7821:7834   */\n  mload\n    /* \"#utility.yul\":7812:7834   */\n  swap1\n  pop\n    /* \"#utility.yul\":7843:7876   */\n  tag_140\n    /* \"#utility.yul\":7870:7875   */\n  dup2\n    /* \"#utility.yul\":7843:7876   */\n  tag_44\n  jump\t// in\ntag_140:\n    /* \"#utility.yul\":7739:7882   */\n  swap3\n  swap2\n  pop\n  pop\n  jump\t// out\n    /* \"#utility.yul\":7888:9227   */\ntag_5:\n    /* \"#utility.yul\":8015:8021   */\n  0x00\n    /* \"#utility.yul\":8023:8029   */\n  dup1\n    /* \"#utility.yul\":8031:8037   */\n  0x00\n    /* \"#utility.yul\":8039:8045   */\n  dup1\n    /* \"#utility.yul\":8088:8091   */\n  0x80\n    /* \"#utility.yul\":8076:8085   */\n  dup6\n    /* \"#utility.yul\":8067:8074   */\n  dup8\n    /* \"#utility.yul\":8063:8086   */\n  sub\n    /* \"#utility.yul\":8059:8092   */\n  slt\n    /* \"#utility.yul\":8056:8176   */\n  iszero\n  tag_142\n  jumpi\n    /* \"#utility.yul\":8095:8174   */\n  tag_143\n  tag_33\n  jump\t// in\ntag_143:\n    /* \"#utility.yul\":8056:8176   */\ntag_142:\n    /* \"#utility.yul\":8236:8237   */\n  0x00\n    /* \"#utility.yul\":8225:8234   */\n  dup6\n    /* \"#utility.yul\":8221:8238   */\n  add\n    /* \"#utility.yul\":8215:8239   */\n  mload\n    /* \"#utility.yul\":8266:8284   */\n  0xffffffffffffffff\n    /* \"#utility.yul\":8258:8264   */\n  dup2\n    /* \"#utility.yul\":8255:8285   */\n  gt\n    /* \"#utility.yul\":8252:8369   */\n  iszero\n  tag_144\n  jumpi\n    /* \"#utility.yul\":8288:8367   */\n  tag_145\n  tag_34\n  jump\t// in\ntag_145:\n    /* \"#utility.yul\":8252:8369   */\ntag_144:\n    /* \"#utility.yul\":8393:8467   */\n  tag_146\n    /* \"#utility.yul\":8459:8466   */\n  dup8\n    /* \"#utility.yul\":8450:8456   */\n  dup3\n    /* \"#utility.yul\":8439:8448   */\n  dup9\n    /* \"#utility.yul\":8435:8457   */\n  add\n    /* \"#utility.yul\":8393:8467   */\n  tag_43\n  jump\t// in\ntag_146:\n    /* \"#utility.yul\":8383:8467   */\n  swap5\n  pop\n    /* \"#utility.yul\":8186:8477   */\n  pop\n    /* \"#utility.yul\":8537:8539   */\n  0x20\n    /* \"#utility.yul\":8526:8535   */\n  dup6\n    /* \"#utility.yul\":8522:8540   */\n  add\n    /* \"#utility.yul\":8516:8541   */\n  mload\n    /* \"#utility.yul\":8568:8586   */\n  0xffffffffffffffff\n    /* \"#utility.yul\":8560:8566   */\n  dup2\n    /* \"#utility.yul\":8557:8587   */\n  gt\n    /* \"#utility.yul\":8554:8671   */\n  iszero\n  tag_147\n  jumpi\n    /* \"#utility.yul\":8590:8669   */\n  tag_148\n  tag_34\n  jump\t// in\ntag_148:\n    /* \"#utility.yul\":8554:8671   */\ntag_147:\n    /* \"#utility.yul\":8695:8769   */\n  tag_149\n    /* \"#utility.yul\":8761:8768   */\n  dup8\n    /* \"#utility.yul\":8752:8758   */\n  dup3\n    /* \"#utility.yul\":8741:8750   */\n  dup9\n    /* \"#utility.yul\":8737:8759   */\n  add\n    /* \"#utility.yul\":8695:8769   */\n  tag_43\n  jump\t// in\ntag_149:\n    /* \"#utility.yul\":8685:8769   */\n  swap4\n  pop\n    /* \"#utility.yul\":8487:8779   */\n  pop\n    /* \"#utility.yul\":8839:8841   */\n  0x40\n    /* \"#utility.yul\":8828:8837   */\n  dup6\n    /* \"#utility.yul\":8824:8842   */\n  add\n    /* \"#utility.yul\":8818:8843   */\n  mload\n    /* \"#utility.yul\":8870:8888   */\n  0xffffffffffffffff\n    /* \"#utility.yul\":8862:8868   */\n  dup2\n    /* \"#utility.yul\":8859:8889   */\n  gt\n    /* \"#utility.yul\":8856:8973   */\n  iszero\n  tag_150\n  jumpi\n    /* \"#utility.yul\":8892:8971   */\n  tag_151\n  tag_34\n  jump\t// in\ntag_151:\n    /* \"#utility.yul\":8856:8973   */\ntag_150:\n    /* \"#utility.yul\":8997:9071   */\n  tag_152\n    /* \"#utility.yul\":9063:9070   */\n  dup8\n    /* \"#utility.yul\":9054:9060   */\n  dup3\n    /* \"#utility.yul\":9043:9052   */\n  dup9\n    /* \"#utility.yul\":9039:9061   */\n  add\n    /* \"#utility.yul\":8997:9071   */\n  tag_43\n  jump\t// in\ntag_152:\n    /* \"#utility.yul\":8987:9071   */\n  swap3\n  pop\n    /* \"#utility.yul\":8789:9081   */\n  pop\n    /* \"#utility.yul\":9120:9122   */\n  0x60\n    /* \"#utility.yul\":9146:9210   */\n  tag_153\n    /* \"#utility.yul\":9202:9209   */\n  dup8\n    /* \"#utility.yul\":9193:9199   */\n  dup3\n    /* \"#utility.yul\":9182:9191   */\n  dup9\n    /* \"#utility.yul\":9178:9200   */\n  add\n    /* \"#utility.yul\":9146:9210   */\n  tag_45\n  jump\t// in\ntag_153:\n    /* \"#utility.yul\":9136:9210   */\n  swap2\n  pop\n    /* \"#utility.yul\":9091:9220   */\n  pop\n    /* \"#utility.yul\":7888:9227   */\n  swap3\n  swap6\n  swap2\n  swap5\n  pop\n  swap3\n  pop\n  jump\t// out\n    /* \"contracts/Homework3.sol\":74:1371  contract Homework {... */\ntag_11:\n  dataSize(sub_0)\n  dup1\n  dataOffset(sub_0)\n  0x00\n  codecopy\n  0x00\n  return\nstop\n\nsub_0: assembly {\n        /* \"contracts/Homework3.sol\":74:1371  contract Homework {... */\n      mstore(0x40, 0x80)\n      jumpi(tag_1, lt(calldatasize, 0x04))\n      shr(0xe0, calldataload(0x00))\n      dup1\n      0xaf640d0f\n      gt\n      tag_11\n      jumpi\n      dup1\n      0xaf640d0f\n      eq\n      tag_6\n      jumpi\n      dup1\n      0xb60d4288\n      eq\n      tag_7\n      jumpi\n      dup1\n      0xb767050d\n      eq\n      tag_8\n      jumpi\n      dup1\n      0xc19d93fb\n      eq\n      tag_9\n      jumpi\n      dup1\n      0xc6587957\n      eq\n      tag_10\n      jumpi\n      jump(tag_1)\n    tag_11:\n      dup1\n      0x06fdde03\n      eq\n      tag_2\n      jumpi\n      dup1\n      0x7284e416\n      eq\n      tag_3\n      jumpi\n      dup1\n      0x8da5cb5b\n      eq\n      tag_4\n      jumpi\n      dup1\n      0x9073adb4\n      eq\n      tag_5\n      jumpi\n    tag_1:\n      0x00\n      dup1\n      revert\n        /* \"contracts/Homework3.sol\":124:142  string public name */\n    tag_2:\n      callvalue\n      dup1\n      iszero\n      tag_12\n      jumpi\n      0x00\n      dup1\n      revert\n    tag_12:\n      pop\n      tag_13\n      tag_14\n      jump\t// in\n    tag_13:\n      mload(0x40)\n      tag_15\n      swap2\n      swap1\n      tag_16\n      jump\t// in\n    tag_15:\n      mload(0x40)\n      dup1\n      swap2\n      sub\n      swap1\n      return\n        /* \"contracts/Homework3.sol\":184:209  string public description */\n    tag_3:\n      callvalue\n      dup1\n      iszero\n      tag_17\n      jumpi\n      0x00\n      dup1\n      revert\n    tag_17:\n      pop\n      tag_18\n      tag_19\n      jump\t// in\n    tag_18:\n      mload(0x40)\n      tag_20\n      swap2\n      swap1\n      tag_16\n      jump\t// in\n    tag_20:\n      mload(0x40)\n      dup1\n      swap2\n      sub\n      swap1\n      return\n        /* \"contracts/Homework3.sol\":149:177  address payable public owner */\n    tag_4:\n      callvalue\n      dup1\n      iszero\n      tag_21\n      jumpi\n      0x00\n      dup1\n      revert\n    tag_21:\n      pop\n      tag_22\n      tag_23\n      jump\t// in\n    tag_22:\n      mload(0x40)\n      tag_24\n      swap2\n      swap1\n      tag_25\n      jump\t// in\n    tag_24:\n      mload(0x40)\n      dup1\n      swap2\n      sub\n      swap1\n      return\n        /* \"contracts/Homework3.sol\":1058:1215  function FundProject() public payable NoOwnerFund{... */\n    tag_5:\n      tag_26\n      tag_27\n      jump\t// in\n    tag_26:\n      stop\n        /* \"contracts/Homework3.sol\":101:117  string public id */\n    tag_6:\n      callvalue\n      dup1\n      iszero\n      tag_28\n      jumpi\n      0x00\n      dup1\n      revert\n    tag_28:\n      pop\n      tag_29\n      tag_30\n      jump\t// in\n    tag_29:\n      mload(0x40)\n      tag_31\n      swap2\n      swap1\n      tag_16\n      jump\t// in\n    tag_31:\n      mload(0x40)\n      dup1\n      swap2\n      sub\n      swap1\n      return\n        /* \"contracts/Homework3.sol\":253:269  uint public fund */\n    tag_7:\n      callvalue\n      dup1\n      iszero\n      tag_32\n      jumpi\n      0x00\n      dup1\n      revert\n    tag_32:\n      pop\n      tag_33\n      tag_34\n      jump\t// in\n    tag_33:\n      mload(0x40)\n      tag_35\n      swap2\n      swap1\n      tag_36\n      jump\t// in\n    tag_35:\n      mload(0x40)\n      dup1\n      swap2\n      sub\n      swap1\n      return\n        /* \"contracts/Homework3.sol\":1223:1364  function changeProjectState(string calldata newState) public onlyOwner{... */\n    tag_8:\n      callvalue\n      dup1\n      iszero\n      tag_37\n      jumpi\n      0x00\n      dup1\n      revert\n    tag_37:\n      pop\n      tag_38\n      0x04\n      dup1\n      calldatasize\n      sub\n      dup2\n      add\n      swap1\n      tag_39\n      swap2\n      swap1\n      tag_40\n      jump\t// in\n    tag_39:\n      tag_41\n      jump\t// in\n    tag_38:\n      stop\n        /* \"contracts/Homework3.sol\":216:246  string public state = \"Opened\" */\n    tag_9:\n      callvalue\n      dup1\n      iszero\n      tag_42\n      jumpi\n      0x00\n      dup1\n      revert\n    tag_42:\n      pop\n      tag_43\n      tag_44\n      jump\t// in\n    tag_43:\n      mload(0x40)\n      tag_45\n      swap2\n      swap1\n      tag_16\n      jump\t// in\n    tag_45:\n      mload(0x40)\n      dup1\n      swap2\n      sub\n      swap1\n      return\n        /* \"contracts/Homework3.sol\":276:302  uint public fundrasingGoal */\n    tag_10:\n      callvalue\n      dup1\n      iszero\n      tag_46\n      jumpi\n      0x00\n      dup1\n      revert\n    tag_46:\n      pop\n      tag_47\n      tag_48\n      jump\t// in\n    tag_47:\n      mload(0x40)\n      tag_49\n      swap2\n      swap1\n      tag_36\n      jump\t// in\n    tag_49:\n      mload(0x40)\n      dup1\n      swap2\n      sub\n      swap1\n      return\n        /* \"contracts/Homework3.sol\":124:142  string public name */\n    tag_14:\n      0x01\n      dup1\n      sload\n      tag_50\n      swap1\n      tag_51\n      jump\t// in\n    tag_50:\n      dup1\n      0x1f\n      add\n      0x20\n      dup1\n      swap2\n      div\n      mul\n      0x20\n      add\n      mload(0x40)\n      swap1\n      dup2\n      add\n      0x40\n      mstore\n      dup1\n      swap3\n      swap2\n      swap1\n      dup2\n      dup2\n      mstore\n      0x20\n      add\n      dup3\n      dup1\n      sload\n      tag_52\n      swap1\n      tag_51\n      jump\t// in\n    tag_52:\n      dup1\n      iszero\n      tag_53\n      jumpi\n      dup1\n      0x1f\n      lt\n      tag_54\n      jumpi\n      0x0100\n      dup1\n      dup4\n      sload\n      div\n      mul\n      dup4\n      mstore\n      swap2\n      0x20\n      add\n      swap2\n      jump(tag_53)\n    tag_54:\n      dup3\n      add\n      swap2\n      swap1\n      0x00\n      mstore\n      keccak256(0x00, 0x20)\n      swap1\n    tag_55:\n      dup2\n      sload\n      dup2\n      mstore\n      swap1\n      0x01\n      add\n      swap1\n      0x20\n      add\n      dup1\n      dup4\n      gt\n      tag_55\n      jumpi\n      dup3\n      swap1\n      sub\n      0x1f\n      and\n      dup3\n      add\n      swap2\n    tag_53:\n      pop\n      pop\n      pop\n      pop\n      pop\n      dup2\n      jump\t// out\n        /* \"contracts/Homework3.sol\":184:209  string public description */\n    tag_19:\n      0x03\n      dup1\n      sload\n      tag_56\n      swap1\n      tag_51\n      jump\t// in\n    tag_56:\n      dup1\n      0x1f\n      add\n      0x20\n      dup1\n      swap2\n      div\n      mul\n      0x20\n      add\n      mload(0x40)\n      swap1\n      dup2\n      add\n      0x40\n      mstore\n      dup1\n      swap3\n      swap2\n      swap1\n      dup2\n      dup2\n      mstore\n      0x20\n      add\n      dup3\n      dup1\n      sload\n      tag_57\n      swap1\n      tag_51\n      jump\t// in\n    tag_57:\n      dup1\n      iszero\n      tag_58\n      jumpi\n      dup1\n      0x1f\n      lt\n      tag_59\n      jumpi\n      0x0100\n      dup1\n      dup4\n      sload\n      div\n      mul\n      dup4\n      mstore\n      swap2\n      0x20\n      add\n      swap2\n      jump(tag_58)\n    tag_59:\n      dup3\n      add\n      swap2\n      swap1\n      0x00\n      mstore\n      keccak256(0x00, 0x20)\n      swap1\n    tag_60:\n      dup2\n      sload\n      dup2\n      mstore\n      swap1\n      0x01\n      add\n      swap1\n      0x20\n      add\n      dup1\n      dup4\n      gt\n      tag_60\n      jumpi\n      dup3\n      swap1\n      sub\n      0x1f\n      and\n      dup3\n      add\n      swap2\n    tag_58:\n      pop\n      pop\n      pop\n      pop\n      pop\n      dup2\n      jump\t// out\n        /* \"contracts/Homework3.sol\":149:177  address payable public owner */\n    tag_23:\n      0x02\n      0x00\n      swap1\n      sload\n      swap1\n      0x0100\n      exp\n      swap1\n      div\n      0xffffffffffffffffffffffffffffffffffffffff\n      and\n      dup2\n      jump\t// out\n        /* \"contracts/Homework3.sol\":1058:1215  function FundProject() public payable NoOwnerFund{... */\n    tag_27:\n        /* \"contracts/Homework3.sol\":921:931  msg.sender */\n      caller\n        /* \"contracts/Homework3.sol\":912:931  owner != msg.sender */\n      0xffffffffffffffffffffffffffffffffffffffff\n      and\n        /* \"contracts/Homework3.sol\":912:917  owner */\n      0x02\n      0x00\n      swap1\n      sload\n      swap1\n      0x0100\n      exp\n      swap1\n      div\n      0xffffffffffffffffffffffffffffffffffffffff\n      and\n        /* \"contracts/Homework3.sol\":912:931  owner != msg.sender */\n      0xffffffffffffffffffffffffffffffffffffffff\n      and\n      sub\n        /* \"contracts/Homework3.sol\":904:967  require(owner != msg.sender , \"As Owner can't fund ur account\") */\n      tag_62\n      jumpi\n      mload(0x40)\n      0x08c379a000000000000000000000000000000000000000000000000000000000\n      dup2\n      mstore\n      0x04\n      add\n      tag_63\n      swap1\n      tag_64\n      jump\t// in\n    tag_63:\n      mload(0x40)\n      dup1\n      swap2\n      sub\n      swap1\n      revert\n    tag_62:\n        /* \"contracts/Homework3.sol\":1117:1122  owner */\n      0x02\n      0x00\n      swap1\n      sload\n      swap1\n      0x0100\n      exp\n      swap1\n      div\n      0xffffffffffffffffffffffffffffffffffffffff\n      and\n        /* \"contracts/Homework3.sol\":1117:1131  owner.transfer */\n      0xffffffffffffffffffffffffffffffffffffffff\n      and\n        /* \"contracts/Homework3.sol\":1117:1142  owner.transfer(msg.value) */\n      0x08fc\n        /* \"contracts/Homework3.sol\":1132:1141  msg.value */\n      callvalue\n        /* \"contracts/Homework3.sol\":1117:1142  owner.transfer(msg.value) */\n      swap1\n      dup2\n      iszero\n      mul\n      swap1\n      mload(0x40)\n      0x00\n      mload(0x40)\n      dup1\n      dup4\n      sub\n      dup2\n      dup6\n      dup9\n      dup9\n      call\n      swap4\n      pop\n      pop\n      pop\n      pop\n      iszero\n      dup1\n      iszero\n      tag_67\n      jumpi\n      returndatasize\n      0x00\n      dup1\n      returndatacopy\n      revert(0x00, returndatasize)\n    tag_67:\n      pop\n        /* \"contracts/Homework3.sol\":1160:1169  msg.value */\n      callvalue\n        /* \"contracts/Homework3.sol\":1152:1156  fund */\n      0x05\n      0x00\n        /* \"contracts/Homework3.sol\":1152:1169  fund += msg.value */\n      dup3\n      dup3\n      sload\n      tag_68\n      swap2\n      swap1\n      tag_69\n      jump\t// in\n    tag_68:\n      swap3\n      pop\n      pop\n      dup2\n      swap1\n      sstore\n      pop\n        /* \"contracts/Homework3.sol\":1184:1207  FProject(id, msg.value) */\n      0x601a31682b808e0416479a182f80fd9f081c273ed67c10174341a615756c1e00\n        /* \"contracts/Homework3.sol\":1193:1195  id */\n      0x00\n        /* \"contracts/Homework3.sol\":1197:1206  msg.value */\n      callvalue\n        /* \"contracts/Homework3.sol\":1184:1207  FProject(id, msg.value) */\n      mload(0x40)\n      tag_70\n      swap3\n      swap2\n      swap1\n      tag_71\n      jump\t// in\n    tag_70:\n      mload(0x40)\n      dup1\n      swap2\n      sub\n      swap1\n      log1\n        /* \"contracts/Homework3.sol\":1058:1215  function FundProject() public payable NoOwnerFund{... */\n      jump\t// out\n        /* \"contracts/Homework3.sol\":101:117  string public id */\n    tag_30:\n      0x00\n      dup1\n      sload\n      tag_72\n      swap1\n      tag_51\n      jump\t// in\n    tag_72:\n      dup1\n      0x1f\n      add\n      0x20\n      dup1\n      swap2\n      div\n      mul\n      0x20\n      add\n      mload(0x40)\n      swap1\n      dup2\n      add\n      0x40\n      mstore\n      dup1\n      swap3\n      swap2\n      swap1\n      dup2\n      dup2\n      mstore\n      0x20\n      add\n      dup3\n      dup1\n      sload\n      tag_73\n      swap1\n      tag_51\n      jump\t// in\n    tag_73:\n      dup1\n      iszero\n      tag_74\n      jumpi\n      dup1\n      0x1f\n      lt\n      tag_75\n      jumpi\n      0x0100\n      dup1\n      dup4\n      sload\n      div\n      mul\n      dup4\n      mstore\n      swap2\n      0x20\n      add\n      swap2\n      jump(tag_74)\n    tag_75:\n      dup3\n      add\n      swap2\n      swap1\n      0x00\n      mstore\n      keccak256(0x00, 0x20)\n      swap1\n    tag_76:\n      dup2\n      sload\n      dup2\n      mstore\n      swap1\n      0x01\n      add\n      swap1\n      0x20\n      add\n      dup1\n      dup4\n      gt\n      tag_76\n      jumpi\n      dup3\n      swap1\n      sub\n      0x1f\n      and\n      dup3\n      add\n      swap2\n    tag_74:\n      pop\n      pop\n      pop\n      pop\n      pop\n      dup2\n      jump\t// out\n        /* \"contracts/Homework3.sol\":253:269  uint public fund */\n    tag_34:\n      sload(0x05)\n      dup2\n      jump\t// out\n        /* \"contracts/Homework3.sol\":1223:1364  function changeProjectState(string calldata newState) public onlyOwner{... */\n    tag_41:\n        /* \"contracts/Homework3.sol\":732:742  msg.sender */\n      caller\n        /* \"contracts/Homework3.sol\":723:742  owner == msg.sender */\n      0xffffffffffffffffffffffffffffffffffffffff\n      and\n        /* \"contracts/Homework3.sol\":723:728  owner */\n      0x02\n      0x00\n      swap1\n      sload\n      swap1\n      0x0100\n      exp\n      swap1\n      div\n      0xffffffffffffffffffffffffffffffffffffffff\n      and\n        /* \"contracts/Homework3.sol\":723:742  owner == msg.sender */\n      0xffffffffffffffffffffffffffffffffffffffff\n      and\n      eq\n        /* \"contracts/Homework3.sol\":715:779  require(owner == msg.sender , \"Only owner can change the state\") */\n      tag_78\n      jumpi\n      mload(0x40)\n      0x08c379a000000000000000000000000000000000000000000000000000000000\n      dup2\n      mstore\n      0x04\n      add\n      tag_79\n      swap1\n      tag_80\n      jump\t// in\n    tag_79:\n      mload(0x40)\n      dup1\n      swap2\n      sub\n      swap1\n      revert\n    tag_78:\n        /* \"contracts/Homework3.sol\":1311:1319  newState */\n      dup2\n      dup2\n        /* \"contracts/Homework3.sol\":1303:1308  state */\n      0x04\n        /* \"contracts/Homework3.sol\":1303:1319  state = newState */\n      swap2\n      dup3\n      tag_82\n      swap3\n      swap2\n      swap1\n      tag_83\n      jump\t// in\n    tag_82:\n      pop\n        /* \"contracts/Homework3.sol\":1334:1356  CProject(id, newState) */\n      0x7e3b493ebdb7415fb4d272f18fd83814608078bb8dcd8bbcb4b633d502d1eb3f\n        /* \"contracts/Homework3.sol\":1343:1345  id */\n      0x00\n        /* \"contracts/Homework3.sol\":1347:1355  newState */\n      dup4\n      dup4\n        /* \"contracts/Homework3.sol\":1334:1356  CProject(id, newState) */\n      mload(0x40)\n      tag_84\n      swap4\n      swap3\n      swap2\n      swap1\n      tag_85\n      jump\t// in\n    tag_84:\n      mload(0x40)\n      dup1\n      swap2\n      sub\n      swap1\n      log1\n        /* \"contracts/Homework3.sol\":1223:1364  function changeProjectState(string calldata newState) public onlyOwner{... */\n      pop\n      pop\n      jump\t// out\n        /* \"contracts/Homework3.sol\":216:246  string public state = \"Opened\" */\n    tag_44:\n      0x04\n      dup1\n      sload\n      tag_86\n      swap1\n      tag_51\n      jump\t// in\n    tag_86:\n      dup1\n      0x1f\n      add\n      0x20\n      dup1\n      swap2\n      div\n      mul\n      0x20\n      add\n      mload(0x40)\n      swap1\n      dup2\n      add\n      0x40\n      mstore\n      dup1\n      swap3\n      swap2\n      swap1\n      dup2\n      dup2\n      mstore\n      0x20\n      add\n      dup3\n      dup1\n      sload\n      tag_87\n      swap1\n      tag_51\n      jump\t// in\n    tag_87:\n      dup1\n      iszero\n      tag_88\n      jumpi\n      dup1\n      0x1f\n      lt\n      tag_89\n      jumpi\n      0x0100\n      dup1\n      dup4\n      sload\n      div\n      mul\n      dup4\n      mstore\n      swap2\n      0x20\n      add\n      swap2\n      jump(tag_88)\n    tag_89:\n      dup3\n      add\n      swap2\n      swap1\n      0x00\n      mstore\n      keccak256(0x00, 0x20)\n      swap1\n    tag_90:\n      dup2\n      sload\n      dup2\n      mstore\n      swap1\n      0x01\n      add\n      swap1\n      0x20\n      add\n      dup1\n      dup4\n      gt\n      tag_90\n      jumpi\n      dup3\n      swap1\n      sub\n      0x1f\n      and\n      dup3\n      add\n      swap2\n    tag_88:\n      pop\n      pop\n      pop\n      pop\n      pop\n      dup2\n      jump\t// out\n        /* \"contracts/Homework3.sol\":276:302  uint public fundrasingGoal */\n    tag_48:\n      sload(0x06)\n      dup2\n      jump\t// out\n        /* \"#utility.yul\":7:106   */\n    tag_91:\n        /* \"#utility.yul\":59:65   */\n      0x00\n        /* \"#utility.yul\":93:98   */\n      dup2\n        /* \"#utility.yul\":87:99   */\n      mload\n        /* \"#utility.yul\":77:99   */\n      swap1\n      pop\n        /* \"#utility.yul\":7:106   */\n      swap2\n      swap1\n      pop\n      jump\t// out\n        /* \"#utility.yul\":112:281   */\n    tag_92:\n        /* \"#utility.yul\":196:207   */\n      0x00\n        /* \"#utility.yul\":230:236   */\n      dup3\n        /* \"#utility.yul\":225:228   */\n      dup3\n        /* \"#utility.yul\":218:237   */\n      mstore\n        /* \"#utility.yul\":270:274   */\n      0x20\n        /* \"#utility.yul\":265:268   */\n      dup3\n        /* \"#utility.yul\":261:275   */\n      add\n        /* \"#utility.yul\":246:275   */\n      swap1\n      pop\n        /* \"#utility.yul\":112:281   */\n      swap3\n      swap2\n      pop\n      pop\n      jump\t// out\n        /* \"#utility.yul\":287:426   */\n    tag_93:\n        /* \"#utility.yul\":376:382   */\n      dup3\n        /* \"#utility.yul\":371:374   */\n      dup2\n        /* \"#utility.yul\":366:369   */\n      dup4\n        /* \"#utility.yul\":360:383   */\n      mcopy\n        /* \"#utility.yul\":417:418   */\n      0x00\n        /* \"#utility.yul\":408:414   */\n      dup4\n        /* \"#utility.yul\":403:406   */\n      dup4\n        /* \"#utility.yul\":399:415   */\n      add\n        /* \"#utility.yul\":392:419   */\n      mstore\n        /* \"#utility.yul\":287:426   */\n      pop\n      pop\n      pop\n      jump\t// out\n        /* \"#utility.yul\":432:534   */\n    tag_94:\n        /* \"#utility.yul\":473:479   */\n      0x00\n        /* \"#utility.yul\":524:526   */\n      0x1f\n        /* \"#utility.yul\":520:527   */\n      not\n        /* \"#utility.yul\":515:517   */\n      0x1f\n        /* \"#utility.yul\":508:513   */\n      dup4\n        /* \"#utility.yul\":504:518   */\n      add\n        /* \"#utility.yul\":500:528   */\n      and\n        /* \"#utility.yul\":490:528   */\n      swap1\n      pop\n        /* \"#utility.yul\":432:534   */\n      swap2\n      swap1\n      pop\n      jump\t// out\n        /* \"#utility.yul\":540:917   */\n    tag_95:\n        /* \"#utility.yul\":628:631   */\n      0x00\n        /* \"#utility.yul\":656:695   */\n      tag_140\n        /* \"#utility.yul\":689:694   */\n      dup3\n        /* \"#utility.yul\":656:695   */\n      tag_91\n      jump\t// in\n    tag_140:\n        /* \"#utility.yul\":711:782   */\n      tag_141\n        /* \"#utility.yul\":775:781   */\n      dup2\n        /* \"#utility.yul\":770:773   */\n      dup6\n        /* \"#utility.yul\":711:782   */\n      tag_92\n      jump\t// in\n    tag_141:\n        /* \"#utility.yul\":704:782   */\n      swap4\n      pop\n        /* \"#utility.yul\":791:856   */\n      tag_142\n        /* \"#utility.yul\":849:855   */\n      dup2\n        /* \"#utility.yul\":844:847   */\n      dup6\n        /* \"#utility.yul\":837:841   */\n      0x20\n        /* \"#utility.yul\":830:835   */\n      dup7\n        /* \"#utility.yul\":826:842   */\n      add\n        /* \"#utility.yul\":791:856   */\n      tag_93\n      jump\t// in\n    tag_142:\n        /* \"#utility.yul\":881:910   */\n      tag_143\n        /* \"#utility.yul\":903:909   */\n      dup2\n        /* \"#utility.yul\":881:910   */\n      tag_94\n      jump\t// in\n    tag_143:\n        /* \"#utility.yul\":876:879   */\n      dup5\n        /* \"#utility.yul\":872:911   */\n      add\n        /* \"#utility.yul\":865:911   */\n      swap2\n      pop\n        /* \"#utility.yul\":632:917   */\n      pop\n        /* \"#utility.yul\":540:917   */\n      swap3\n      swap2\n      pop\n      pop\n      jump\t// out\n        /* \"#utility.yul\":923:1236   */\n    tag_16:\n        /* \"#utility.yul\":1036:1040   */\n      0x00\n        /* \"#utility.yul\":1074:1076   */\n      0x20\n        /* \"#utility.yul\":1063:1072   */\n      dup3\n        /* \"#utility.yul\":1059:1077   */\n      add\n        /* \"#utility.yul\":1051:1077   */\n      swap1\n      pop\n        /* \"#utility.yul\":1123:1132   */\n      dup2\n        /* \"#utility.yul\":1117:1121   */\n      dup2\n        /* \"#utility.yul\":1113:1133   */\n      sub\n        /* \"#utility.yul\":1109:1110   */\n      0x00\n        /* \"#utility.yul\":1098:1107   */\n      dup4\n        /* \"#utility.yul\":1094:1111   */\n      add\n        /* \"#utility.yul\":1087:1134   */\n      mstore\n        /* \"#utility.yul\":1151:1229   */\n      tag_145\n        /* \"#utility.yul\":1224:1228   */\n      dup2\n        /* \"#utility.yul\":1215:1221   */\n      dup5\n        /* \"#utility.yul\":1151:1229   */\n      tag_95\n      jump\t// in\n    tag_145:\n        /* \"#utility.yul\":1143:1229   */\n      swap1\n      pop\n        /* \"#utility.yul\":923:1236   */\n      swap3\n      swap2\n      pop\n      pop\n      jump\t// out\n        /* \"#utility.yul\":1242:1368   */\n    tag_96:\n        /* \"#utility.yul\":1279:1286   */\n      0x00\n        /* \"#utility.yul\":1319:1361   */\n      0xffffffffffffffffffffffffffffffffffffffff\n        /* \"#utility.yul\":1312:1317   */\n      dup3\n        /* \"#utility.yul\":1308:1362   */\n      and\n        /* \"#utility.yul\":1297:1362   */\n      swap1\n      pop\n        /* \"#utility.yul\":1242:1368   */\n      swap2\n      swap1\n      pop\n      jump\t// out\n        /* \"#utility.yul\":1374:1478   */\n    tag_97:\n        /* \"#utility.yul\":1419:1426   */\n      0x00\n        /* \"#utility.yul\":1448:1472   */\n      tag_148\n        /* \"#utility.yul\":1466:1471   */\n      dup3\n        /* \"#utility.yul\":1448:1472   */\n      tag_96\n      jump\t// in\n    tag_148:\n        /* \"#utility.yul\":1437:1472   */\n      swap1\n      pop\n        /* \"#utility.yul\":1374:1478   */\n      swap2\n      swap1\n      pop\n      jump\t// out\n        /* \"#utility.yul\":1484:1626   */\n    tag_98:\n        /* \"#utility.yul\":1587:1619   */\n      tag_150\n        /* \"#utility.yul\":1613:1618   */\n      dup2\n        /* \"#utility.yul\":1587:1619   */\n      tag_97\n      jump\t// in\n    tag_150:\n        /* \"#utility.yul\":1582:1585   */\n      dup3\n        /* \"#utility.yul\":1575:1620   */\n      mstore\n        /* \"#utility.yul\":1484:1626   */\n      pop\n      pop\n      jump\t// out\n        /* \"#utility.yul\":1632:1886   */\n    tag_25:\n        /* \"#utility.yul\":1741:1745   */\n      0x00\n        /* \"#utility.yul\":1779:1781   */\n      0x20\n        /* \"#utility.yul\":1768:1777   */\n      dup3\n        /* \"#utility.yul\":1764:1782   */\n      add\n        /* \"#utility.yul\":1756:1782   */\n      swap1\n      pop\n        /* \"#utility.yul\":1792:1879   */\n      tag_152\n        /* \"#utility.yul\":1876:1877   */\n      0x00\n        /* \"#utility.yul\":1865:1874   */\n      dup4\n        /* \"#utility.yul\":1861:1878   */\n      add\n        /* \"#utility.yul\":1852:1858   */\n      dup5\n        /* \"#utility.yul\":1792:1879   */\n      tag_98\n      jump\t// in\n    tag_152:\n        /* \"#utility.yul\":1632:1886   */\n      swap3\n      swap2\n      pop\n      pop\n      jump\t// out\n        /* \"#utility.yul\":1892:1969   */\n    tag_99:\n        /* \"#utility.yul\":1929:1936   */\n      0x00\n        /* \"#utility.yul\":1958:1963   */\n      dup2\n        /* \"#utility.yul\":1947:1963   */\n      swap1\n      pop\n        /* \"#utility.yul\":1892:1969   */\n      swap2\n      swap1\n      pop\n      jump\t// out\n        /* \"#utility.yul\":1975:2093   */\n    tag_100:\n        /* \"#utility.yul\":2062:2086   */\n      tag_155\n        /* \"#utility.yul\":2080:2085   */\n      dup2\n        /* \"#utility.yul\":2062:2086   */\n      tag_99\n      jump\t// in\n    tag_155:\n        /* \"#utility.yul\":2057:2060   */\n      dup3\n        /* \"#utility.yul\":2050:2087   */\n      mstore\n        /* \"#utility.yul\":1975:2093   */\n      pop\n      pop\n      jump\t// out\n        /* \"#utility.yul\":2099:2321   */\n    tag_36:\n        /* \"#utility.yul\":2192:2196   */\n      0x00\n        /* \"#utility.yul\":2230:2232   */\n      0x20\n        /* \"#utility.yul\":2219:2228   */\n      dup3\n        /* \"#utility.yul\":2215:2233   */\n      add\n        /* \"#utility.yul\":2207:2233   */\n      swap1\n      pop\n        /* \"#utility.yul\":2243:2314   */\n      tag_157\n        /* \"#utility.yul\":2311:2312   */\n      0x00\n        /* \"#utility.yul\":2300:2309   */\n      dup4\n        /* \"#utility.yul\":2296:2313   */\n      add\n        /* \"#utility.yul\":2287:2293   */\n      dup5\n        /* \"#utility.yul\":2243:2314   */\n      tag_100\n      jump\t// in\n    tag_157:\n        /* \"#utility.yul\":2099:2321   */\n      swap3\n      swap2\n      pop\n      pop\n      jump\t// out\n        /* \"#utility.yul\":2408:2525   */\n    tag_102:\n        /* \"#utility.yul\":2517:2518   */\n      0x00\n        /* \"#utility.yul\":2514:2515   */\n      dup1\n        /* \"#utility.yul\":2507:2519   */\n      revert\n        /* \"#utility.yul\":2531:2648   */\n    tag_103:\n        /* \"#utility.yul\":2640:2641   */\n      0x00\n        /* \"#utility.yul\":2637:2638   */\n      dup1\n        /* \"#utility.yul\":2630:2642   */\n      revert\n        /* \"#utility.yul\":2654:2771   */\n    tag_104:\n        /* \"#utility.yul\":2763:2764   */\n      0x00\n        /* \"#utility.yul\":2760:2761   */\n      dup1\n        /* \"#utility.yul\":2753:2765   */\n      revert\n        /* \"#utility.yul\":2777:2894   */\n    tag_105:\n        /* \"#utility.yul\":2886:2887   */\n      0x00\n        /* \"#utility.yul\":2883:2884   */\n      dup1\n        /* \"#utility.yul\":2876:2888   */\n      revert\n        /* \"#utility.yul\":2900:3017   */\n    tag_106:\n        /* \"#utility.yul\":3009:3010   */\n      0x00\n        /* \"#utility.yul\":3006:3007   */\n      dup1\n        /* \"#utility.yul\":2999:3011   */\n      revert\n        /* \"#utility.yul\":3037:3590   */\n    tag_107:\n        /* \"#utility.yul\":3095:3103   */\n      0x00\n        /* \"#utility.yul\":3105:3111   */\n      dup1\n        /* \"#utility.yul\":3155:3158   */\n      dup4\n        /* \"#utility.yul\":3148:3152   */\n      0x1f\n        /* \"#utility.yul\":3140:3146   */\n      dup5\n        /* \"#utility.yul\":3136:3153   */\n      add\n        /* \"#utility.yul\":3132:3159   */\n      slt\n        /* \"#utility.yul\":3122:3244   */\n      tag_165\n      jumpi\n        /* \"#utility.yul\":3163:3242   */\n      tag_166\n      tag_104\n      jump\t// in\n    tag_166:\n        /* \"#utility.yul\":3122:3244   */\n    tag_165:\n        /* \"#utility.yul\":3276:3282   */\n      dup3\n        /* \"#utility.yul\":3263:3283   */\n      calldataload\n        /* \"#utility.yul\":3253:3283   */\n      swap1\n      pop\n        /* \"#utility.yul\":3306:3324   */\n      0xffffffffffffffff\n        /* \"#utility.yul\":3298:3304   */\n      dup2\n        /* \"#utility.yul\":3295:3325   */\n      gt\n        /* \"#utility.yul\":3292:3409   */\n      iszero\n      tag_167\n      jumpi\n        /* \"#utility.yul\":3328:3407   */\n      tag_168\n      tag_105\n      jump\t// in\n    tag_168:\n        /* \"#utility.yul\":3292:3409   */\n    tag_167:\n        /* \"#utility.yul\":3442:3446   */\n      0x20\n        /* \"#utility.yul\":3434:3440   */\n      dup4\n        /* \"#utility.yul\":3430:3447   */\n      add\n        /* \"#utility.yul\":3418:3447   */\n      swap2\n      pop\n        /* \"#utility.yul\":3496:3499   */\n      dup4\n        /* \"#utility.yul\":3488:3492   */\n      0x01\n        /* \"#utility.yul\":3480:3486   */\n      dup3\n        /* \"#utility.yul\":3476:3493   */\n      mul\n        /* \"#utility.yul\":3466:3474   */\n      dup4\n        /* \"#utility.yul\":3462:3494   */\n      add\n        /* \"#utility.yul\":3459:3500   */\n      gt\n        /* \"#utility.yul\":3456:3584   */\n      iszero\n      tag_169\n      jumpi\n        /* \"#utility.yul\":3503:3582   */\n      tag_170\n      tag_106\n      jump\t// in\n    tag_170:\n        /* \"#utility.yul\":3456:3584   */\n    tag_169:\n        /* \"#utility.yul\":3037:3590   */\n      swap3\n      pop\n      swap3\n      swap1\n      pop\n      jump\t// out\n        /* \"#utility.yul\":3596:4125   */\n    tag_40:\n        /* \"#utility.yul\":3667:3673   */\n      0x00\n        /* \"#utility.yul\":3675:3681   */\n      dup1\n        /* \"#utility.yul\":3724:3726   */\n      0x20\n        /* \"#utility.yul\":3712:3721   */\n      dup4\n        /* \"#utility.yul\":3703:3710   */\n      dup6\n        /* \"#utility.yul\":3699:3722   */\n      sub\n        /* \"#utility.yul\":3695:3727   */\n      slt\n        /* \"#utility.yul\":3692:3811   */\n      iszero\n      tag_172\n      jumpi\n        /* \"#utility.yul\":3730:3809   */\n      tag_173\n      tag_102\n      jump\t// in\n    tag_173:\n        /* \"#utility.yul\":3692:3811   */\n    tag_172:\n        /* \"#utility.yul\":3878:3879   */\n      0x00\n        /* \"#utility.yul\":3867:3876   */\n      dup4\n        /* \"#utility.yul\":3863:3880   */\n      add\n        /* \"#utility.yul\":3850:3881   */\n      calldataload\n        /* \"#utility.yul\":3908:3926   */\n      0xffffffffffffffff\n        /* \"#utility.yul\":3900:3906   */\n      dup2\n        /* \"#utility.yul\":3897:3927   */\n      gt\n        /* \"#utility.yul\":3894:4011   */\n      iszero\n      tag_174\n      jumpi\n        /* \"#utility.yul\":3930:4009   */\n      tag_175\n      tag_103\n      jump\t// in\n    tag_175:\n        /* \"#utility.yul\":3894:4011   */\n    tag_174:\n        /* \"#utility.yul\":4043:4108   */\n      tag_176\n        /* \"#utility.yul\":4100:4107   */\n      dup6\n        /* \"#utility.yul\":4091:4097   */\n      dup3\n        /* \"#utility.yul\":4080:4089   */\n      dup7\n        /* \"#utility.yul\":4076:4098   */\n      add\n        /* \"#utility.yul\":4043:4108   */\n      tag_107\n      jump\t// in\n    tag_176:\n        /* \"#utility.yul\":4025:4108   */\n      swap3\n      pop\n      swap3\n      pop\n        /* \"#utility.yul\":3821:4118   */\n      pop\n        /* \"#utility.yul\":3596:4125   */\n      swap3\n      pop\n      swap3\n      swap1\n      pop\n      jump\t// out\n        /* \"#utility.yul\":4131:4311   */\n    tag_108:\n        /* \"#utility.yul\":4179:4256   */\n      0x4e487b7100000000000000000000000000000000000000000000000000000000\n        /* \"#utility.yul\":4176:4177   */\n      0x00\n        /* \"#utility.yul\":4169:4257   */\n      mstore\n        /* \"#utility.yul\":4276:4280   */\n      0x22\n        /* \"#utility.yul\":4273:4274   */\n      0x04\n        /* \"#utility.yul\":4266:4281   */\n      mstore\n        /* \"#utility.yul\":4300:4304   */\n      0x24\n        /* \"#utility.yul\":4297:4298   */\n      0x00\n        /* \"#utility.yul\":4290:4305   */\n      revert\n        /* \"#utility.yul\":4317:4637   */\n    tag_51:\n        /* \"#utility.yul\":4361:4367   */\n      0x00\n        /* \"#utility.yul\":4398:4399   */\n      0x02\n        /* \"#utility.yul\":4392:4396   */\n      dup3\n        /* \"#utility.yul\":4388:4400   */\n      div\n        /* \"#utility.yul\":4378:4400   */\n      swap1\n      pop\n        /* \"#utility.yul\":4445:4446   */\n      0x01\n        /* \"#utility.yul\":4439:4443   */\n      dup3\n        /* \"#utility.yul\":4435:4447   */\n      and\n        /* \"#utility.yul\":4466:4484   */\n      dup1\n        /* \"#utility.yul\":4456:4537   */\n      tag_179\n      jumpi\n        /* \"#utility.yul\":4522:4526   */\n      0x7f\n        /* \"#utility.yul\":4514:4520   */\n      dup3\n        /* \"#utility.yul\":4510:4527   */\n      and\n        /* \"#utility.yul\":4500:4527   */\n      swap2\n      pop\n        /* \"#utility.yul\":4456:4537   */\n    tag_179:\n        /* \"#utility.yul\":4584:4586   */\n      0x20\n        /* \"#utility.yul\":4576:4582   */\n      dup3\n        /* \"#utility.yul\":4573:4587   */\n      lt\n        /* \"#utility.yul\":4553:4571   */\n      dup2\n        /* \"#utility.yul\":4550:4588   */\n      sub\n        /* \"#utility.yul\":4547:4631   */\n      tag_180\n      jumpi\n        /* \"#utility.yul\":4603:4621   */\n      tag_181\n      tag_108\n      jump\t// in\n    tag_181:\n        /* \"#utility.yul\":4547:4631   */\n    tag_180:\n        /* \"#utility.yul\":4368:4637   */\n      pop\n        /* \"#utility.yul\":4317:4637   */\n      swap2\n      swap1\n      pop\n      jump\t// out\n        /* \"#utility.yul\":4643:4823   */\n    tag_109:\n        /* \"#utility.yul\":4783:4815   */\n      0x4173204f776e65722063616e27742066756e64207572206163636f756e740000\n        /* \"#utility.yul\":4779:4780   */\n      0x00\n        /* \"#utility.yul\":4771:4777   */\n      dup3\n        /* \"#utility.yul\":4767:4781   */\n      add\n        /* \"#utility.yul\":4760:4816   */\n      mstore\n        /* \"#utility.yul\":4643:4823   */\n      pop\n      jump\t// out\n        /* \"#utility.yul\":4829:5195   */\n    tag_110:\n        /* \"#utility.yul\":4971:4974   */\n      0x00\n        /* \"#utility.yul\":4992:5059   */\n      tag_184\n        /* \"#utility.yul\":5056:5058   */\n      0x1e\n        /* \"#utility.yul\":5051:5054   */\n      dup4\n        /* \"#utility.yul\":4992:5059   */\n      tag_92\n      jump\t// in\n    tag_184:\n        /* \"#utility.yul\":4985:5059   */\n      swap2\n      pop\n        /* \"#utility.yul\":5068:5161   */\n      tag_185\n        /* \"#utility.yul\":5157:5160   */\n      dup3\n        /* \"#utility.yul\":5068:5161   */\n      tag_109\n      jump\t// in\n    tag_185:\n        /* \"#utility.yul\":5186:5188   */\n      0x20\n        /* \"#utility.yul\":5181:5184   */\n      dup3\n        /* \"#utility.yul\":5177:5189   */\n      add\n        /* \"#utility.yul\":5170:5189   */\n      swap1\n      pop\n        /* \"#utility.yul\":4829:5195   */\n      swap2\n      swap1\n      pop\n      jump\t// out\n        /* \"#utility.yul\":5201:5620   */\n    tag_64:\n        /* \"#utility.yul\":5367:5371   */\n      0x00\n        /* \"#utility.yul\":5405:5407   */\n      0x20\n        /* \"#utility.yul\":5394:5403   */\n      dup3\n        /* \"#utility.yul\":5390:5408   */\n      add\n        /* \"#utility.yul\":5382:5408   */\n      swap1\n      pop\n        /* \"#utility.yul\":5454:5463   */\n      dup2\n        /* \"#utility.yul\":5448:5452   */\n      dup2\n        /* \"#utility.yul\":5444:5464   */\n      sub\n        /* \"#utility.yul\":5440:5441   */\n      0x00\n        /* \"#utility.yul\":5429:5438   */\n      dup4\n        /* \"#utility.yul\":5425:5442   */\n      add\n        /* \"#utility.yul\":5418:5465   */\n      mstore\n        /* \"#utility.yul\":5482:5613   */\n      tag_187\n        /* \"#utility.yul\":5608:5612   */\n      dup2\n        /* \"#utility.yul\":5482:5613   */\n      tag_110\n      jump\t// in\n    tag_187:\n        /* \"#utility.yul\":5474:5613   */\n      swap1\n      pop\n        /* \"#utility.yul\":5201:5620   */\n      swap2\n      swap1\n      pop\n      jump\t// out\n        /* \"#utility.yul\":5626:5806   */\n    tag_111:\n        /* \"#utility.yul\":5674:5751   */\n      0x4e487b7100000000000000000000000000000000000000000000000000000000\n        /* \"#utility.yul\":5671:5672   */\n      0x00\n        /* \"#utility.yul\":5664:5752   */\n      mstore\n        /* \"#utility.yul\":5771:5775   */\n      0x11\n        /* \"#utility.yul\":5768:5769   */\n      0x04\n        /* \"#utility.yul\":5761:5776   */\n      mstore\n        /* \"#utility.yul\":5795:5799   */\n      0x24\n        /* \"#utility.yul\":5792:5793   */\n      0x00\n        /* \"#utility.yul\":5785:5800   */\n      revert\n        /* \"#utility.yul\":5812:6003   */\n    tag_69:\n        /* \"#utility.yul\":5852:5855   */\n      0x00\n        /* \"#utility.yul\":5871:5891   */\n      tag_190\n        /* \"#utility.yul\":5889:5890   */\n      dup3\n        /* \"#utility.yul\":5871:5891   */\n      tag_99\n      jump\t// in\n    tag_190:\n        /* \"#utility.yul\":5866:5891   */\n      swap2\n      pop\n        /* \"#utility.yul\":5905:5925   */\n      tag_191\n        /* \"#utility.yul\":5923:5924   */\n      dup4\n        /* \"#utility.yul\":5905:5925   */\n      tag_99\n      jump\t// in\n    tag_191:\n        /* \"#utility.yul\":5900:5925   */\n      swap3\n      pop\n        /* \"#utility.yul\":5948:5949   */\n      dup3\n        /* \"#utility.yul\":5945:5946   */\n      dup3\n        /* \"#utility.yul\":5941:5950   */\n      add\n        /* \"#utility.yul\":5934:5950   */\n      swap1\n      pop\n        /* \"#utility.yul\":5969:5972   */\n      dup1\n        /* \"#utility.yul\":5966:5967   */\n      dup3\n        /* \"#utility.yul\":5963:5973   */\n      gt\n        /* \"#utility.yul\":5960:5996   */\n      iszero\n      tag_192\n      jumpi\n        /* \"#utility.yul\":5976:5994   */\n      tag_193\n      tag_111\n      jump\t// in\n    tag_193:\n        /* \"#utility.yul\":5960:5996   */\n    tag_192:\n        /* \"#utility.yul\":5812:6003   */\n      swap3\n      swap2\n      pop\n      pop\n      jump\t// out\n        /* \"#utility.yul\":6009:6150   */\n    tag_112:\n        /* \"#utility.yul\":6058:6062   */\n      0x00\n        /* \"#utility.yul\":6081:6084   */\n      dup2\n        /* \"#utility.yul\":6073:6084   */\n      swap1\n      pop\n        /* \"#utility.yul\":6104:6107   */\n      dup2\n        /* \"#utility.yul\":6101:6102   */\n      0x00\n        /* \"#utility.yul\":6094:6108   */\n      mstore\n        /* \"#utility.yul\":6138:6142   */\n      0x20\n        /* \"#utility.yul\":6135:6136   */\n      0x00\n        /* \"#utility.yul\":6125:6143   */\n      keccak256\n        /* \"#utility.yul\":6117:6143   */\n      swap1\n      pop\n        /* \"#utility.yul\":6009:6150   */\n      swap2\n      swap1\n      pop\n      jump\t// out\n        /* \"#utility.yul\":6180:7011   */\n    tag_113:\n        /* \"#utility.yul\":6265:6268   */\n      0x00\n        /* \"#utility.yul\":6302:6307   */\n      dup2\n        /* \"#utility.yul\":6296:6308   */\n      sload\n        /* \"#utility.yul\":6331:6367   */\n      tag_196\n        /* \"#utility.yul\":6357:6366   */\n      dup2\n        /* \"#utility.yul\":6331:6367   */\n      tag_51\n      jump\t// in\n    tag_196:\n        /* \"#utility.yul\":6383:6454   */\n      tag_197\n        /* \"#utility.yul\":6447:6453   */\n      dup2\n        /* \"#utility.yul\":6442:6445   */\n      dup7\n        /* \"#utility.yul\":6383:6454   */\n      tag_92\n      jump\t// in\n    tag_197:\n        /* \"#utility.yul\":6376:6454   */\n      swap5\n      pop\n        /* \"#utility.yul\":6485:6486   */\n      0x01\n        /* \"#utility.yul\":6474:6483   */\n      dup3\n        /* \"#utility.yul\":6470:6487   */\n      and\n        /* \"#utility.yul\":6501:6502   */\n      0x00\n        /* \"#utility.yul\":6496:6660   */\n      dup2\n      eq\n      tag_199\n      jumpi\n        /* \"#utility.yul\":6674:6675   */\n      0x01\n        /* \"#utility.yul\":6669:7005   */\n      dup2\n      eq\n      tag_200\n      jumpi\n        /* \"#utility.yul\":6463:7005   */\n      jump(tag_198)\n        /* \"#utility.yul\":6496:6660   */\n    tag_199:\n        /* \"#utility.yul\":6580:6584   */\n      0xff\n        /* \"#utility.yul\":6576:6585   */\n      not\n        /* \"#utility.yul\":6565:6574   */\n      dup4\n        /* \"#utility.yul\":6561:6586   */\n      and\n        /* \"#utility.yul\":6556:6559   */\n      dup7\n        /* \"#utility.yul\":6549:6587   */\n      mstore\n        /* \"#utility.yul\":6640:6646   */\n      dup2\n        /* \"#utility.yul\":6633:6647   */\n      iszero\n        /* \"#utility.yul\":6626:6648   */\n      iszero\n        /* \"#utility.yul\":6620:6624   */\n      0x20\n        /* \"#utility.yul\":6616:6649   */\n      mul\n        /* \"#utility.yul\":6611:6614   */\n      dup7\n        /* \"#utility.yul\":6607:6650   */\n      add\n        /* \"#utility.yul\":6600:6650   */\n      swap4\n      pop\n        /* \"#utility.yul\":6496:6660   */\n      jump(tag_198)\n        /* \"#utility.yul\":6669:7005   */\n    tag_200:\n        /* \"#utility.yul\":6736:6774   */\n      tag_201\n        /* \"#utility.yul\":6768:6773   */\n      dup6\n        /* \"#utility.yul\":6736:6774   */\n      tag_112\n      jump\t// in\n    tag_201:\n        /* \"#utility.yul\":6796:6797   */\n      0x00\n        /* \"#utility.yul\":6810:6964   */\n    tag_202:\n        /* \"#utility.yul\":6824:6830   */\n      dup4\n        /* \"#utility.yul\":6821:6822   */\n      dup2\n        /* \"#utility.yul\":6818:6831   */\n      lt\n        /* \"#utility.yul\":6810:6964   */\n      iszero\n      tag_204\n      jumpi\n        /* \"#utility.yul\":6898:6905   */\n      dup2\n        /* \"#utility.yul\":6892:6906   */\n      sload\n        /* \"#utility.yul\":6888:6889   */\n      dup2\n        /* \"#utility.yul\":6883:6886   */\n      dup10\n        /* \"#utility.yul\":6879:6890   */\n      add\n        /* \"#utility.yul\":6872:6907   */\n      mstore\n        /* \"#utility.yul\":6948:6949   */\n      0x01\n        /* \"#utility.yul\":6939:6946   */\n      dup3\n        /* \"#utility.yul\":6935:6950   */\n      add\n        /* \"#utility.yul\":6924:6950   */\n      swap2\n      pop\n        /* \"#utility.yul\":6846:6850   */\n      0x20\n        /* \"#utility.yul\":6843:6844   */\n      dup2\n        /* \"#utility.yul\":6839:6851   */\n      add\n        /* \"#utility.yul\":6834:6851   */\n      swap1\n      pop\n        /* \"#utility.yul\":6810:6964   */\n      jump(tag_202)\n    tag_204:\n        /* \"#utility.yul\":6993:6994   */\n      dup1\n        /* \"#utility.yul\":6988:6991   */\n      dup9\n        /* \"#utility.yul\":6984:6995   */\n      add\n        /* \"#utility.yul\":6977:6995   */\n      swap6\n      pop\n        /* \"#utility.yul\":6676:7005   */\n      pop\n      pop\n        /* \"#utility.yul\":6463:7005   */\n    tag_198:\n      pop\n        /* \"#utility.yul\":6269:7011   */\n      pop\n      pop\n        /* \"#utility.yul\":6180:7011   */\n      swap3\n      swap2\n      pop\n      pop\n      jump\t// out\n        /* \"#utility.yul\":7017:7434   */\n    tag_71:\n        /* \"#utility.yul\":7155:7159   */\n      0x00\n        /* \"#utility.yul\":7193:7195   */\n      0x40\n        /* \"#utility.yul\":7182:7191   */\n      dup3\n        /* \"#utility.yul\":7178:7196   */\n      add\n        /* \"#utility.yul\":7170:7196   */\n      swap1\n      pop\n        /* \"#utility.yul\":7242:7251   */\n      dup2\n        /* \"#utility.yul\":7236:7240   */\n      dup2\n        /* \"#utility.yul\":7232:7252   */\n      sub\n        /* \"#utility.yul\":7228:7229   */\n      0x00\n        /* \"#utility.yul\":7217:7226   */\n      dup4\n        /* \"#utility.yul\":7213:7230   */\n      add\n        /* \"#utility.yul\":7206:7253   */\n      mstore\n        /* \"#utility.yul\":7270:7345   */\n      tag_206\n        /* \"#utility.yul\":7340:7344   */\n      dup2\n        /* \"#utility.yul\":7331:7337   */\n      dup6\n        /* \"#utility.yul\":7270:7345   */\n      tag_113\n      jump\t// in\n    tag_206:\n        /* \"#utility.yul\":7262:7345   */\n      swap1\n      pop\n        /* \"#utility.yul\":7355:7427   */\n      tag_207\n        /* \"#utility.yul\":7423:7425   */\n      0x20\n        /* \"#utility.yul\":7412:7421   */\n      dup4\n        /* \"#utility.yul\":7408:7426   */\n      add\n        /* \"#utility.yul\":7399:7405   */\n      dup5\n        /* \"#utility.yul\":7355:7427   */\n      tag_100\n      jump\t// in\n    tag_207:\n        /* \"#utility.yul\":7017:7434   */\n      swap4\n      swap3\n      pop\n      pop\n      pop\n      jump\t// out\n        /* \"#utility.yul\":7440:7621   */\n    tag_114:\n        /* \"#utility.yul\":7580:7613   */\n      0x4f6e6c79206f776e65722063616e206368616e67652074686520737461746500\n        /* \"#utility.yul\":7576:7577   */\n      0x00\n        /* \"#utility.yul\":7568:7574   */\n      dup3\n        /* \"#utility.yul\":7564:7578   */\n      add\n        /* \"#utility.yul\":7557:7614   */\n      mstore\n        /* \"#utility.yul\":7440:7621   */\n      pop\n      jump\t// out\n        /* \"#utility.yul\":7627:7993   */\n    tag_115:\n        /* \"#utility.yul\":7769:7772   */\n      0x00\n        /* \"#utility.yul\":7790:7857   */\n      tag_210\n        /* \"#utility.yul\":7854:7856   */\n      0x1f\n        /* \"#utility.yul\":7849:7852   */\n      dup4\n        /* \"#utility.yul\":7790:7857   */\n      tag_92\n      jump\t// in\n    tag_210:\n        /* \"#utility.yul\":7783:7857   */\n      swap2\n      pop\n        /* \"#utility.yul\":7866:7959   */\n      tag_211\n        /* \"#utility.yul\":7955:7958   */\n      dup3\n        /* \"#utility.yul\":7866:7959   */\n      tag_114\n      jump\t// in\n    tag_211:\n        /* \"#utility.yul\":7984:7986   */\n      0x20\n        /* \"#utility.yul\":7979:7982   */\n      dup3\n        /* \"#utility.yul\":7975:7987   */\n      add\n        /* \"#utility.yul\":7968:7987   */\n      swap1\n      pop\n        /* \"#utility.yul\":7627:7993   */\n      swap2\n      swap1\n      pop\n      jump\t// out\n        /* \"#utility.yul\":7999:8418   */\n    tag_80:\n        /* \"#utility.yul\":8165:8169   */\n      0x00\n        /* \"#utility.yul\":8203:8205   */\n      0x20\n        /* \"#utility.yul\":8192:8201   */\n      dup3\n        /* \"#utility.yul\":8188:8206   */\n      add\n        /* \"#utility.yul\":8180:8206   */\n      swap1\n      pop\n        /* \"#utility.yul\":8252:8261   */\n      dup2\n        /* \"#utility.yul\":8246:8250   */\n      dup2\n        /* \"#utility.yul\":8242:8262   */\n      sub\n        /* \"#utility.yul\":8238:8239   */\n      0x00\n        /* \"#utility.yul\":8227:8236   */\n      dup4\n        /* \"#utility.yul\":8223:8240   */\n      add\n        /* \"#utility.yul\":8216:8263   */\n      mstore\n        /* \"#utility.yul\":8280:8411   */\n      tag_213\n        /* \"#utility.yul\":8406:8410   */\n      dup2\n        /* \"#utility.yul\":8280:8411   */\n      tag_115\n      jump\t// in\n    tag_213:\n        /* \"#utility.yul\":8272:8411   */\n      swap1\n      pop\n        /* \"#utility.yul\":7999:8418   */\n      swap2\n      swap1\n      pop\n      jump\t// out\n        /* \"#utility.yul\":8424:8521   */\n    tag_116:\n        /* \"#utility.yul\":8483:8489   */\n      0x00\n        /* \"#utility.yul\":8511:8514   */\n      dup3\n        /* \"#utility.yul\":8501:8514   */\n      swap1\n      pop\n        /* \"#utility.yul\":8424:8521   */\n      swap3\n      swap2\n      pop\n      pop\n      jump\t// out\n        /* \"#utility.yul\":8527:8707   */\n    tag_117:\n        /* \"#utility.yul\":8575:8652   */\n      0x4e487b7100000000000000000000000000000000000000000000000000000000\n        /* \"#utility.yul\":8572:8573   */\n      0x00\n        /* \"#utility.yul\":8565:8653   */\n      mstore\n        /* \"#utility.yul\":8672:8676   */\n      0x41\n        /* \"#utility.yul\":8669:8670   */\n      0x04\n        /* \"#utility.yul\":8662:8677   */\n      mstore\n        /* \"#utility.yul\":8696:8700   */\n      0x24\n        /* \"#utility.yul\":8693:8694   */\n      0x00\n        /* \"#utility.yul\":8686:8701   */\n      revert\n        /* \"#utility.yul\":8713:8806   */\n    tag_118:\n        /* \"#utility.yul\":8750:8756   */\n      0x00\n        /* \"#utility.yul\":8797:8799   */\n      0x20\n        /* \"#utility.yul\":8792:8794   */\n      0x1f\n        /* \"#utility.yul\":8785:8790   */\n      dup4\n        /* \"#utility.yul\":8781:8795   */\n      add\n        /* \"#utility.yul\":8777:8800   */\n      div\n        /* \"#utility.yul\":8767:8800   */\n      swap1\n      pop\n        /* \"#utility.yul\":8713:8806   */\n      swap2\n      swap1\n      pop\n      jump\t// out\n        /* \"#utility.yul\":8812:8919   */\n    tag_119:\n        /* \"#utility.yul\":8856:8864   */\n      0x00\n        /* \"#utility.yul\":8906:8911   */\n      dup3\n        /* \"#utility.yul\":8900:8904   */\n      dup3\n        /* \"#utility.yul\":8896:8912   */\n      shl\n        /* \"#utility.yul\":8875:8912   */\n      swap1\n      pop\n        /* \"#utility.yul\":8812:8919   */\n      swap3\n      swap2\n      pop\n      pop\n      jump\t// out\n        /* \"#utility.yul\":8925:9318   */\n    tag_120:\n        /* \"#utility.yul\":8994:9000   */\n      0x00\n        /* \"#utility.yul\":9044:9045   */\n      0x08\n        /* \"#utility.yul\":9032:9042   */\n      dup4\n        /* \"#utility.yul\":9028:9046   */\n      mul\n        /* \"#utility.yul\":9067:9164   */\n      tag_219\n        /* \"#utility.yul\":9097:9163   */\n      0xffffffffffffffffffffffffffffffffffffffffffffffffffffffffffffffff\n        /* \"#utility.yul\":9086:9095   */\n      dup3\n        /* \"#utility.yul\":9067:9164   */\n      tag_119\n      jump\t// in\n    tag_219:\n        /* \"#utility.yul\":9185:9224   */\n      tag_220\n        /* \"#utility.yul\":9215:9223   */\n      dup7\n        /* \"#utility.yul\":9204:9213   */\n      dup4\n        /* \"#utility.yul\":9185:9224   */\n      tag_119\n      jump\t// in\n    tag_220:\n        /* \"#utility.yul\":9173:9224   */\n      swap6\n      pop\n        /* \"#utility.yul\":9257:9261   */\n      dup1\n        /* \"#utility.yul\":9253:9262   */\n      not\n        /* \"#utility.yul\":9246:9251   */\n      dup5\n        /* \"#utility.yul\":9242:9263   */\n      and\n        /* \"#utility.yul\":9233:9263   */\n      swap4\n      pop\n        /* \"#utility.yul\":9306:9310   */\n      dup1\n        /* \"#utility.yul\":9296:9304   */\n      dup7\n        /* \"#utility.yul\":9292:9311   */\n      and\n        /* \"#utility.yul\":9285:9290   */\n      dup5\n        /* \"#utility.yul\":9282:9312   */\n      or\n        /* \"#utility.yul\":9272:9312   */\n      swap3\n      pop\n        /* \"#utility.yul\":9001:9318   */\n      pop\n      pop\n        /* \"#utility.yul\":8925:9318   */\n      swap4\n      swap3\n      pop\n      pop\n      pop\n      jump\t// out\n        /* \"#utility.yul\":9324:9384   */\n    tag_121:\n        /* \"#utility.yul\":9352:9355   */\n      0x00\n        /* \"#utility.yul\":9373:9378   */\n      dup2\n        /* \"#utility.yul\":9366:9378   */\n      swap1\n      pop\n        /* \"#utility.yul\":9324:9384   */\n      swap2\n      swap1\n      pop\n      jump\t// out\n        /* \"#utility.yul\":9390:9532   */\n    tag_122:\n        /* \"#utility.yul\":9440:9449   */\n      0x00\n        /* \"#utility.yul\":9473:9526   */\n      tag_223\n        /* \"#utility.yul\":9491:9525   */\n      tag_224\n        /* \"#utility.yul\":9500:9524   */\n      tag_225\n        /* \"#utility.yul\":9518:9523   */\n      dup5\n        /* \"#utility.yul\":9500:9524   */\n      tag_99\n      jump\t// in\n    tag_225:\n        /* \"#utility.yul\":9491:9525   */\n      tag_121\n      jump\t// in\n    tag_224:\n        /* \"#utility.yul\":9473:9526   */\n      tag_99\n      jump\t// in\n    tag_223:\n        /* \"#utility.yul\":9460:9526   */\n      swap1\n      pop\n        /* \"#utility.yul\":9390:9532   */\n      swap2\n      swap1\n      pop\n      jump\t// out\n        /* \"#utility.yul\":9538:9613   */\n    tag_123:\n        /* \"#utility.yul\":9581:9584   */\n      0x00\n        /* \"#utility.yul\":9602:9607   */\n      dup2\n        /* \"#utility.yul\":9595:9607   */\n      swap1\n      pop\n        /* \"#utility.yul\":9538:9613   */\n      swap2\n      swap1\n      pop\n      jump\t// out\n        /* \"#utility.yul\":9619:9888   */\n    tag_124:\n        /* \"#utility.yul\":9729:9768   */\n      tag_228\n        /* \"#utility.yul\":9760:9767   */\n      dup4\n        /* \"#utility.yul\":9729:9768   */\n      tag_122\n      jump\t// in\n    tag_228:\n        /* \"#utility.yul\":9790:9881   */\n      tag_229\n        /* \"#utility.yul\":9839:9880   */\n      tag_230\n        /* \"#utility.yul\":9863:9879   */\n      dup3\n        /* \"#utility.yul\":9839:9880   */\n      tag_123\n      jump\t// in\n    tag_230:\n        /* \"#utility.yul\":9831:9837   */\n      dup5\n        /* \"#utility.yul\":9824:9828   */\n      dup5\n        /* \"#utility.yul\":9818:9829   */\n      sload\n        /* \"#utility.yul\":9790:9881   */\n      tag_120\n      jump\t// in\n    tag_229:\n        /* \"#utility.yul\":9784:9788   */\n      dup3\n        /* \"#utility.yul\":9777:9882   */\n      sstore\n        /* \"#utility.yul\":9695:9888   */\n      pop\n        /* \"#utility.yul\":9619:9888   */\n      pop\n      pop\n      pop\n      jump\t// out\n        /* \"#utility.yul\":9894:9967   */\n    tag_125:\n        /* \"#utility.yul\":9939:9942   */\n      0x00\n        /* \"#utility.yul\":9894:9967   */\n      swap1\n      jump\t// out\n        /* \"#utility.yul\":9973:10162   */\n    tag_126:\n        /* \"#utility.yul\":10050:10082   */\n      tag_233\n      tag_125\n      jump\t// in\n    tag_233:\n        /* \"#utility.yul\":10091:10156   */\n      tag_234\n        /* \"#utility.yul\":10149:10155   */\n      dup2\n        /* \"#utility.yul\":10141:10147   */\n      dup5\n        /* \"#utility.yul\":10135:10139   */\n      dup5\n        /* \"#utility.yul\":10091:10156   */\n      tag_124\n      jump\t// in\n    tag_234:\n        /* \"#utility.yul\":10026:10162   */\n      pop\n        /* \"#utility.yul\":9973:10162   */\n      pop\n      pop\n      jump\t// out\n        /* \"#utility.yul\":10168:10354   */\n    tag_127:\n        /* \"#utility.yul\":10228:10348   */\n    tag_236:\n        /* \"#utility.yul\":10245:10248   */\n      dup2\n        /* \"#utility.yul\":10238:10243   */\n      dup2\n        /* \"#utility.yul\":10235:10249   */\n      lt\n        /* \"#utility.yul\":10228:10348   */\n      iszero\n      tag_238\n      jumpi\n        /* \"#utility.yul\":10299:10338   */\n      tag_239\n        /* \"#utility.yul\":10336:10337   */\n      0x00\n        /* \"#utility.yul\":10329:10334   */\n      dup3\n        /* \"#utility.yul\":10299:10338   */\n      tag_126\n      jump\t// in\n    tag_239:\n        /* \"#utility.yul\":10272:10273   */\n      0x01\n        /* \"#utility.yul\":10265:10270   */\n      dup2\n        /* \"#utility.yul\":10261:10274   */\n      add\n        /* \"#utility.yul\":10252:10274   */\n      swap1\n      pop\n        /* \"#utility.yul\":10228:10348   */\n      jump(tag_236)\n    tag_238:\n        /* \"#utility.yul\":10168:10354   */\n      pop\n      pop\n      jump\t// out\n        /* \"#utility.yul\":10360:10903   */\n    tag_128:\n        /* \"#utility.yul\":10461:10463   */\n      0x1f\n        /* \"#utility.yul\":10456:10459   */\n      dup3\n        /* \"#utility.yul\":10453:10464   */\n      gt\n        /* \"#utility.yul\":10450:10896   */\n      iszero\n      tag_241\n      jumpi\n        /* \"#utility.yul\":10495:10533   */\n      tag_242\n        /* \"#utility.yul\":10527:10532   */\n      dup2\n        /* \"#utility.yul\":10495:10533   */\n      tag_112\n      jump\t// in\n    tag_242:\n        /* \"#utility.yul\":10579:10608   */\n      tag_243\n        /* \"#utility.yul\":10597:10607   */\n      dup5\n        /* \"#utility.yul\":10579:10608   */\n      tag_118\n      jump\t// in\n    tag_243:\n        /* \"#utility.yul\":10569:10577   */\n      dup2\n        /* \"#utility.yul\":10565:10609   */\n      add\n        /* \"#utility.yul\":10762:10764   */\n      0x20\n        /* \"#utility.yul\":10750:10760   */\n      dup6\n        /* \"#utility.yul\":10747:10765   */\n      lt\n        /* \"#utility.yul\":10744:10793   */\n      iszero\n      tag_244\n      jumpi\n        /* \"#utility.yul\":10783:10791   */\n      dup2\n        /* \"#utility.yul\":10768:10791   */\n      swap1\n      pop\n        /* \"#utility.yul\":10744:10793   */\n    tag_244:\n        /* \"#utility.yul\":10806:10886   */\n      tag_245\n        /* \"#utility.yul\":10862:10884   */\n      tag_246\n        /* \"#utility.yul\":10880:10883   */\n      dup6\n        /* \"#utility.yul\":10862:10884   */\n      tag_118\n      jump\t// in\n    tag_246:\n        /* \"#utility.yul\":10852:10860   */\n      dup4\n        /* \"#utility.yul\":10848:10885   */\n      add\n        /* \"#utility.yul\":10835:10846   */\n      dup3\n        /* \"#utility.yul\":10806:10886   */\n      tag_127\n      jump\t// in\n    tag_245:\n        /* \"#utility.yul\":10465:10896   */\n      pop\n      pop\n        /* \"#utility.yul\":10450:10896   */\n    tag_241:\n        /* \"#utility.yul\":10360:10903   */\n      pop\n      pop\n      pop\n      jump\t// out\n        /* \"#utility.yul\":10909:11026   */\n    tag_129:\n        /* \"#utility.yul\":10963:10971   */\n      0x00\n        /* \"#utility.yul\":11013:11018   */\n      dup3\n        /* \"#utility.yul\":11007:11011   */\n      dup3\n        /* \"#utility.yul\":11003:11019   */\n      shr\n        /* \"#utility.yul\":10982:11019   */\n      swap1\n      pop\n        /* \"#utility.yul\":10909:11026   */\n      swap3\n      swap2\n      pop\n      pop\n      jump\t// out\n        /* \"#utility.yul\":11032:11201   */\n    tag_130:\n        /* \"#utility.yul\":11076:11082   */\n      0x00\n        /* \"#utility.yul\":11109:11160   */\n      tag_249\n        /* \"#utility.yul\":11157:11158   */\n      0x00\n        /* \"#utility.yul\":11153:11159   */\n      not\n        /* \"#utility.yul\":11145:11150   */\n      dup5\n        /* \"#utility.yul\":11142:11143   */\n      0x08\n        /* \"#utility.yul\":11138:11151   */\n      mul\n        /* \"#utility.yul\":11109:11160   */\n      tag_129\n      jump\t// in\n    tag_249:\n        /* \"#utility.yul\":11105:11161   */\n      not\n        /* \"#utility.yul\":11190:11194   */\n      dup1\n        /* \"#utility.yul\":11184:11188   */\n      dup4\n        /* \"#utility.yul\":11180:11195   */\n      and\n        /* \"#utility.yul\":11170:11195   */\n      swap2\n      pop\n        /* \"#utility.yul\":11083:11201   */\n      pop\n        /* \"#utility.yul\":11032:11201   */\n      swap3\n      swap2\n      pop\n      pop\n      jump\t// out\n        /* \"#utility.yul\":11206:11501   */\n    tag_131:\n        /* \"#utility.yul\":11282:11286   */\n      0x00\n        /* \"#utility.yul\":11428:11457   */\n      tag_251\n        /* \"#utility.yul\":11453:11456   */\n      dup4\n        /* \"#utility.yul\":11447:11451   */\n      dup4\n        /* \"#utility.yul\":11428:11457   */\n      tag_130\n      jump\t// in\n    tag_251:\n        /* \"#utility.yul\":11420:11457   */\n      swap2\n      pop\n        /* \"#utility.yul\":11490:11493   */\n      dup3\n        /* \"#utility.yul\":11487:11488   */\n      0x02\n        /* \"#utility.yul\":11483:11494   */\n      mul\n        /* \"#utility.yul\":11477:11481   */\n      dup3\n        /* \"#utility.yul\":11474:11495   */\n      or\n        /* \"#utility.yul\":11466:11495   */\n      swap1\n      pop\n        /* \"#utility.yul\":11206:11501   */\n      swap3\n      swap2\n      pop\n      pop\n      jump\t// out\n        /* \"#utility.yul\":11506:12909   */\n    tag_83:\n        /* \"#utility.yul\":11630:11674   */\n      tag_253\n        /* \"#utility.yul\":11670:11673   */\n      dup4\n        /* \"#utility.yul\":11665:11668   */\n      dup4\n        /* \"#utility.yul\":11630:11674   */\n      tag_116\n      jump\t// in\n    tag_253:\n        /* \"#utility.yul\":11739:11757   */\n      0xffffffffffffffff\n        /* \"#utility.yul\":11731:11737   */\n      dup2\n        /* \"#utility.yul\":11728:11758   */\n      gt\n        /* \"#utility.yul\":11725:11781   */\n      iszero\n      tag_254\n      jumpi\n        /* \"#utility.yul\":11761:11779   */\n      tag_255\n      tag_117\n      jump\t// in\n    tag_255:\n        /* \"#utility.yul\":11725:11781   */\n    tag_254:\n        /* \"#utility.yul\":11805:11843   */\n      tag_256\n        /* \"#utility.yul\":11837:11841   */\n      dup3\n        /* \"#utility.yul\":11831:11842   */\n      sload\n        /* \"#utility.yul\":11805:11843   */\n      tag_51\n      jump\t// in\n    tag_256:\n        /* \"#utility.yul\":11890:11957   */\n      tag_257\n        /* \"#utility.yul\":11950:11956   */\n      dup3\n        /* \"#utility.yul\":11942:11948   */\n      dup3\n        /* \"#utility.yul\":11936:11940   */\n      dup6\n        /* \"#utility.yul\":11890:11957   */\n      tag_128\n      jump\t// in\n    tag_257:\n        /* \"#utility.yul\":11984:11985   */\n      0x00\n        /* \"#utility.yul\":12013:12015   */\n      0x1f\n        /* \"#utility.yul\":12005:12011   */\n      dup4\n        /* \"#utility.yul\":12002:12016   */\n      gt\n        /* \"#utility.yul\":12030:12031   */\n      0x01\n        /* \"#utility.yul\":12025:12657   */\n      dup2\n      eq\n      tag_259\n      jumpi\n        /* \"#utility.yul\":12701:12702   */\n      0x00\n        /* \"#utility.yul\":12718:12724   */\n      dup5\n        /* \"#utility.yul\":12715:12799   */\n      iszero\n      tag_260\n      jumpi\n        /* \"#utility.yul\":12774:12783   */\n      dup3\n        /* \"#utility.yul\":12769:12772   */\n      dup8\n        /* \"#utility.yul\":12765:12784   */\n      add\n        /* \"#utility.yul\":12752:12785   */\n      calldataload\n        /* \"#utility.yul\":12743:12785   */\n      swap1\n      pop\n        /* \"#utility.yul\":12715:12799   */\n    tag_260:\n        /* \"#utility.yul\":12825:12892   */\n      tag_261\n        /* \"#utility.yul\":12885:12891   */\n      dup6\n        /* \"#utility.yul\":12878:12883   */\n      dup3\n        /* \"#utility.yul\":12825:12892   */\n      tag_131\n      jump\t// in\n    tag_261:\n        /* \"#utility.yul\":12819:12823   */\n      dup7\n        /* \"#utility.yul\":12812:12893   */\n      sstore\n        /* \"#utility.yul\":12674:12903   */\n      pop\n        /* \"#utility.yul\":11995:12903   */\n      jump(tag_258)\n        /* \"#utility.yul\":12025:12657   */\n    tag_259:\n        /* \"#utility.yul\":12077:12081   */\n      0x1f\n        /* \"#utility.yul\":12073:12082   */\n      not\n        /* \"#utility.yul\":12065:12071   */\n      dup5\n        /* \"#utility.yul\":12061:12083   */\n      and\n        /* \"#utility.yul\":12111:12148   */\n      tag_262\n        /* \"#utility.yul\":12143:12147   */\n      dup7\n        /* \"#utility.yul\":12111:12148   */\n      tag_112\n      jump\t// in\n    tag_262:\n        /* \"#utility.yul\":12170:12171   */\n      0x00\n        /* \"#utility.yul\":12184:12399   */\n    tag_263:\n        /* \"#utility.yul\":12198:12205   */\n      dup3\n        /* \"#utility.yul\":12195:12196   */\n      dup2\n        /* \"#utility.yul\":12192:12206   */\n      lt\n        /* \"#utility.yul\":12184:12399   */\n      iszero\n      tag_265\n      jumpi\n        /* \"#utility.yul\":12284:12293   */\n      dup5\n        /* \"#utility.yul\":12279:12282   */\n      dup10\n        /* \"#utility.yul\":12275:12294   */\n      add\n        /* \"#utility.yul\":12262:12295   */\n      calldataload\n        /* \"#utility.yul\":12254:12260   */\n      dup3\n        /* \"#utility.yul\":12247:12296   */\n      sstore\n        /* \"#utility.yul\":12335:12336   */\n      0x01\n        /* \"#utility.yul\":12327:12333   */\n      dup3\n        /* \"#utility.yul\":12323:12337   */\n      add\n        /* \"#utility.yul\":12313:12337   */\n      swap2\n      pop\n        /* \"#utility.yul\":12382:12384   */\n      0x20\n        /* \"#utility.yul\":12371:12380   */\n      dup6\n        /* \"#utility.yul\":12367:12385   */\n      add\n        /* \"#utility.yul\":12354:12385   */\n      swap5\n      pop\n        /* \"#utility.yul\":12221:12225   */\n      0x20\n        /* \"#utility.yul\":12218:12219   */\n      dup2\n        /* \"#utility.yul\":12214:12226   */\n      add\n        /* \"#utility.yul\":12209:12226   */\n      swap1\n      pop\n        /* \"#utility.yul\":12184:12399   */\n      jump(tag_263)\n    tag_265:\n        /* \"#utility.yul\":12427:12433   */\n      dup7\n        /* \"#utility.yul\":12418:12425   */\n      dup4\n        /* \"#utility.yul\":12415:12434   */\n      lt\n        /* \"#utility.yul\":12412:12598   */\n      iszero\n      tag_266\n      jumpi\n        /* \"#utility.yul\":12492:12501   */\n      dup5\n        /* \"#utility.yul\":12487:12490   */\n      dup10\n        /* \"#utility.yul\":12483:12502   */\n      add\n        /* \"#utility.yul\":12470:12503   */\n      calldataload\n        /* \"#utility.yul\":12535:12583   */\n      tag_267\n        /* \"#utility.yul\":12577:12581   */\n      0x1f\n        /* \"#utility.yul\":12569:12575   */\n      dup10\n        /* \"#utility.yul\":12565:12582   */\n      and\n        /* \"#utility.yul\":12554:12563   */\n      dup3\n        /* \"#utility.yul\":12535:12583   */\n      tag_130\n      jump\t// in\n    tag_267:\n        /* \"#utility.yul\":12527:12533   */\n      dup4\n        /* \"#utility.yul\":12520:12584   */\n      sstore\n        /* \"#utility.yul\":12435:12598   */\n      pop\n        /* \"#utility.yul\":12412:12598   */\n    tag_266:\n        /* \"#utility.yul\":12644:12645   */\n      0x01\n        /* \"#utility.yul\":12640:12641   */\n      0x02\n        /* \"#utility.yul\":12632:12638   */\n      dup9\n        /* \"#utility.yul\":12628:12642   */\n      mul\n        /* \"#utility.yul\":12624:12646   */\n      add\n        /* \"#utility.yul\":12618:12622   */\n      dup9\n        /* \"#utility.yul\":12611:12647   */\n      sstore\n        /* \"#utility.yul\":12032:12657   */\n      pop\n      pop\n      pop\n        /* \"#utility.yul\":11995:12903   */\n    tag_258:\n      pop\n        /* \"#utility.yul\":11605:12909   */\n      pop\n      pop\n      pop\n        /* \"#utility.yul\":11506:12909   */\n      pop\n      pop\n      pop\n      jump\t// out\n        /* \"#utility.yul\":12915:13063   */\n    tag_132:\n        /* \"#utility.yul\":13013:13019   */\n      dup3\n        /* \"#utility.yul\":13008:13011   */\n      dup2\n        /* \"#utility.yul\":13003:13006   */\n      dup4\n        /* \"#utility.yul\":12990:13020   */\n      calldatacopy\n        /* \"#utility.yul\":13054:13055   */\n      0x00\n        /* \"#utility.yul\":13045:13051   */\n      dup4\n        /* \"#utility.yul\":13040:13043   */\n      dup4\n        /* \"#utility.yul\":13036:13052   */\n      add\n        /* \"#utility.yul\":13029:13056   */\n      mstore\n        /* \"#utility.yul\":12915:13063   */\n      pop\n      pop\n      pop\n      jump\t// out\n        /* \"#utility.yul\":13093:13410   */\n    tag_133:\n        /* \"#utility.yul\":13191:13194   */\n      0x00\n        /* \"#utility.yul\":13212:13283   */\n      tag_270\n        /* \"#utility.yul\":13276:13282   */\n      dup4\n        /* \"#utility.yul\":13271:13274   */\n      dup6\n        /* \"#utility.yul\":13212:13283   */\n      tag_92\n      jump\t// in\n    tag_270:\n        /* \"#utility.yul\":13205:13283   */\n      swap4\n      pop\n        /* \"#utility.yul\":13293:13349   */\n      tag_271\n        /* \"#utility.yul\":13342:13348   */\n      dup4\n        /* \"#utility.yul\":13337:13340   */\n      dup6\n        /* \"#utility.yul\":13330:13335   */\n      dup5\n        /* \"#utility.yul\":13293:13349   */\n      tag_132\n      jump\t// in\n    tag_271:\n        /* \"#utility.yul\":13374:13403   */\n      tag_272\n        /* \"#utility.yul\":13396:13402   */\n      dup4\n        /* \"#utility.yul\":13374:13403   */\n      tag_94\n      jump\t// in\n    tag_272:\n        /* \"#utility.yul\":13369:13372   */\n      dup5\n        /* \"#utility.yul\":13365:13404   */\n      add\n        /* \"#utility.yul\":13358:13404   */\n      swap1\n      pop\n        /* \"#utility.yul\":13093:13410   */\n      swap4\n      swap3\n      pop\n      pop\n      pop\n      jump\t// out\n        /* \"#utility.yul\":13416:13944   */\n    tag_85:\n        /* \"#utility.yul\":13584:13588   */\n      0x00\n        /* \"#utility.yul\":13622:13624   */\n      0x40\n        /* \"#utility.yul\":13611:13620   */\n      dup3\n        /* \"#utility.yul\":13607:13625   */\n      add\n        /* \"#utility.yul\":13599:13625   */\n      swap1\n      pop\n        /* \"#utility.yul\":13671:13680   */\n      dup2\n        /* \"#utility.yul\":13665:13669   */\n      dup2\n        /* \"#utility.yul\":13661:13681   */\n      sub\n        /* \"#utility.yul\":13657:13658   */\n      0x00\n        /* \"#utility.yul\":13646:13655   */\n      dup4\n        /* \"#utility.yul\":13642:13659   */\n      add\n        /* \"#utility.yul\":13635:13682   */\n      mstore\n        /* \"#utility.yul\":13699:13774   */\n      tag_274\n        /* \"#utility.yul\":13769:13773   */\n      dup2\n        /* \"#utility.yul\":13760:13766   */\n      dup7\n        /* \"#utility.yul\":13699:13774   */\n      tag_113\n      jump\t// in\n    tag_274:\n        /* \"#utility.yul\":13691:13774   */\n      swap1\n      pop\n        /* \"#utility.yul\":13821:13830   */\n      dup2\n        /* \"#utility.yul\":13815:13819   */\n      dup2\n        /* \"#utility.yul\":13811:13831   */\n      sub\n        /* \"#utility.yul\":13806:13808   */\n      0x20\n        /* \"#utility.yul\":13795:13804   */\n      dup4\n        /* \"#utility.yul\":13791:13809   */\n      add\n        /* \"#utility.yul\":13784:13832   */\n      mstore\n        /* \"#utility.yul\":13849:13937   */\n      tag_275\n        /* \"#utility.yul\":13932:13936   */\n      dup2\n        /* \"#utility.yul\":13923:13929   */\n      dup5\n        /* \"#utility.yul\":13915:13921   */\n      dup7\n        /* \"#utility.yul\":13849:13937   */\n      tag_133\n      jump\t// in\n    tag_275:\n        /* \"#utility.yul\":13841:13937   */\n      swap1\n      pop\n        /* \"#utility.yul\":13416:13944   */\n      swap5\n      swap4\n      pop\n      pop\n      pop\n      pop\n      jump\t// out\n\n    auxdata: 0xa26469706673582212209d68255ce6fa51da813f1a489f7b6e4863a18360e9f23dff71e5de344d04bb1364736f6c63430008190033\n}\n",
				"bytecode": {
					"linkReferences": {},
					"object": "60806040526040518060400160405280600681526020017f4f70656e6564000000000000000000000000000000000000000000000000000081525060049081610048919061032f565b50348015610054575f80fd5b506040516113c63803806113c683398181016040528101906100769190610548565b835f9081610084919061032f565b508260019081610094919061032f565b5081600390816100a4919061032f565b50806006819055503360025f6101000a81548173ffffffffffffffffffffffffffffffffffffffff021916908373ffffffffffffffffffffffffffffffffffffffff16021790555050505050610600565b5f81519050919050565b7f4e487b71000000000000000000000000000000000000000000000000000000005f52604160045260245ffd5b7f4e487b71000000000000000000000000000000000000000000000000000000005f52602260045260245ffd5b5f600282049050600182168061017057607f821691505b6020821081036101835761018261012c565b5b50919050565b5f819050815f5260205f209050919050565b5f6020601f8301049050919050565b5f82821b905092915050565b5f600883026101e57fffffffffffffffffffffffffffffffffffffffffffffffffffffffffffffffff826101aa565b6101ef86836101aa565b95508019841693508086168417925050509392505050565b5f819050919050565b5f819050919050565b5f61023361022e61022984610207565b610210565b610207565b9050919050565b5f819050919050565b61024c83610219565b6102606102588261023a565b8484546101b6565b825550505050565b5f90565b610274610268565b61027f818484610243565b505050565b5b818110156102a2576102975f8261026c565b600181019050610285565b5050565b601f8211156102e7576102b881610189565b6102c18461019b565b810160208510156102d0578190505b6102e46102dc8561019b565b830182610284565b50505b505050565b5f82821c905092915050565b5f6103075f19846008026102ec565b1980831691505092915050565b5f61031f83836102f8565b9150826002028217905092915050565b610338826100f5565b67ffffffffffffffff811115610351576103506100ff565b5b61035b8254610159565b6103668282856102a6565b5f60209050601f831160018114610397575f8415610385578287015190505b61038f8582610314565b8655506103f6565b601f1984166103a586610189565b5f5b828110156103cc578489015182556001820191506020850194506020810190506103a7565b868310156103e957848901516103e5601f8916826102f8565b8355505b6001600288020188555050505b505050505050565b5f604051905090565b5f80fd5b5f80fd5b5f80fd5b5f80fd5b5f601f19601f8301169050919050565b61043082610417565b810181811067ffffffffffffffff8211171561044f5761044e6100ff565b5b80604052505050565b5f6104616103fe565b905061046d8282610427565b919050565b5f67ffffffffffffffff82111561048c5761048b6100ff565b5b61049582610417565b9050602081019050919050565b8281835e5f83830152505050565b5f6104c26104bd84610472565b610458565b9050828152602081018484840111156104de576104dd610413565b5b6104e98482856104a2565b509392505050565b5f82601f8301126105055761050461040f565b5b81516105158482602086016104b0565b91505092915050565b61052781610207565b8114610531575f80fd5b50565b5f815190506105428161051e565b92915050565b5f805f80608085870312156105605761055f610407565b5b5f85015167ffffffffffffffff81111561057d5761057c61040b565b5b610589878288016104f1565b945050602085015167ffffffffffffffff8111156105aa576105a961040b565b5b6105b6878288016104f1565b935050604085015167ffffffffffffffff8111156105d7576105d661040b565b5b6105e3878288016104f1565b92505060606105f487828801610534565b91505092959194509250565b610db98061060d5f395ff3fe608060405260043610610085575f3560e01c8063af640d0f11610058578063af640d0f14610111578063b60d42881461013b578063b767050d14610165578063c19d93fb1461018d578063c6587957146101b757610085565b806306fdde03146100895780637284e416146100b35780638da5cb5b146100dd5780639073adb414610107575b5f80fd5b348015610094575f80fd5b5061009d6101e1565b6040516100aa91906106d8565b60405180910390f35b3480156100be575f80fd5b506100c761026d565b6040516100d491906106d8565b60405180910390f35b3480156100e8575f80fd5b506100f16102f9565b6040516100fe9190610737565b60405180910390f35b61010f61031e565b005b34801561011c575f80fd5b50610125610465565b60405161013291906106d8565b60405180910390f35b348015610146575f80fd5b5061014f6104f0565b60405161015c9190610768565b60405180910390f35b348015610170575f80fd5b5061018b600480360381019061018691906107ea565b6104f6565b005b348015610198575f80fd5b506101a16105d6565b6040516101ae91906106d8565b60405180910390f35b3480156101c2575f80fd5b506101cb610662565b6040516101d89190610768565b60405180910390f35b600180546101ee90610862565b80601f016020809104026020016040519081016040528092919081815260200182805461021a90610862565b80156102655780601f1061023c57610100808354040283529160200191610265565b820191905f5260205f20905b81548152906001019060200180831161024857829003601f168201915b505050505081565b6003805461027a90610862565b80601f01602080910402602001604051908101604052809291908181526020018280546102a690610862565b80156102f15780601f106102c8576101008083540402835291602001916102f1565b820191905f5260205f20905b8154815290600101906020018083116102d457829003601f168201915b505050505081565b60025f9054906101000a900473ffffffffffffffffffffffffffffffffffffffff1681565b3373ffffffffffffffffffffffffffffffffffffffff1660025f9054906101000a900473ffffffffffffffffffffffffffffffffffffffff1673ffffffffffffffffffffffffffffffffffffffff16036103ad576040517f08c379a00000000000000000000000000000000000000000000000000000000081526004016103a4906108dc565b60405180910390fd5b60025f9054906101000a900473ffffffffffffffffffffffffffffffffffffffff1673ffffffffffffffffffffffffffffffffffffffff166108fc3490811502906040515f60405180830381858888f19350505050158015610411573d5f803e3d5ffd5b503460055f8282546104239190610927565b925050819055507f601a31682b808e0416479a182f80fd9f081c273ed67c10174341a615756c1e005f3460405161045b9291906109ed565b60405180910390a1565b5f805461047190610862565b80601f016020809104026020016040519081016040528092919081815260200182805461049d90610862565b80156104e85780601f106104bf576101008083540402835291602001916104e8565b820191905f5260205f20905b8154815290600101906020018083116104cb57829003601f168201915b505050505081565b60055481565b3373ffffffffffffffffffffffffffffffffffffffff1660025f9054906101000a900473ffffffffffffffffffffffffffffffffffffffff1673ffffffffffffffffffffffffffffffffffffffff1614610585576040517f08c379a000000000000000000000000000000000000000000000000000000000815260040161057c90610a65565b60405180910390fd5b818160049182610596929190610c45565b507f7e3b493ebdb7415fb4d272f18fd83814608078bb8dcd8bbcb4b633d502d1eb3f5f83836040516105ca93929190610d4c565b60405180910390a15050565b600480546105e390610862565b80601f016020809104026020016040519081016040528092919081815260200182805461060f90610862565b801561065a5780601f106106315761010080835404028352916020019161065a565b820191905f5260205f20905b81548152906001019060200180831161063d57829003601f168201915b505050505081565b60065481565b5f81519050919050565b5f82825260208201905092915050565b8281835e5f83830152505050565b5f601f19601f8301169050919050565b5f6106aa82610668565b6106b48185610672565b93506106c4818560208601610682565b6106cd81610690565b840191505092915050565b5f6020820190508181035f8301526106f081846106a0565b905092915050565b5f73ffffffffffffffffffffffffffffffffffffffff82169050919050565b5f610721826106f8565b9050919050565b61073181610717565b82525050565b5f60208201905061074a5f830184610728565b92915050565b5f819050919050565b61076281610750565b82525050565b5f60208201905061077b5f830184610759565b92915050565b5f80fd5b5f80fd5b5f80fd5b5f80fd5b5f80fd5b5f8083601f8401126107aa576107a9610789565b5b8235905067ffffffffffffffff8111156107c7576107c661078d565b5b6020830191508360018202830111156107e3576107e2610791565b5b9250929050565b5f8060208385031215610800576107ff610781565b5b5f83013567ffffffffffffffff81111561081d5761081c610785565b5b61082985828601610795565b92509250509250929050565b7f4e487b71000000000000000000000000000000000000000000000000000000005f52602260045260245ffd5b5f600282049050600182168061087957607f821691505b60208210810361088c5761088b610835565b5b50919050565b7f4173204f776e65722063616e27742066756e64207572206163636f756e7400005f82015250565b5f6108c6601e83610672565b91506108d182610892565b602082019050919050565b5f6020820190508181035f8301526108f3816108ba565b9050919050565b7f4e487b71000000000000000000000000000000000000000000000000000000005f52601160045260245ffd5b5f61093182610750565b915061093c83610750565b9250828201905080821115610954576109536108fa565b5b92915050565b5f819050815f5260205f209050919050565b5f815461097881610862565b6109828186610672565b9450600182165f811461099c57600181146109b2576109e4565b60ff1983168652811515602002860193506109e4565b6109bb8561095a565b5f5b838110156109dc578154818901526001820191506020810190506109bd565b808801955050505b50505092915050565b5f6040820190508181035f830152610a05818561096c565b9050610a146020830184610759565b9392505050565b7f4f6e6c79206f776e65722063616e206368616e676520746865207374617465005f82015250565b5f610a4f601f83610672565b9150610a5a82610a1b565b602082019050919050565b5f6020820190508181035f830152610a7c81610a43565b9050919050565b5f82905092915050565b7f4e487b71000000000000000000000000000000000000000000000000000000005f52604160045260245ffd5b5f6020601f8301049050919050565b5f82821b905092915050565b5f60088302610b047fffffffffffffffffffffffffffffffffffffffffffffffffffffffffffffffff82610ac9565b610b0e8683610ac9565b95508019841693508086168417925050509392505050565b5f819050919050565b5f610b49610b44610b3f84610750565b610b26565b610750565b9050919050565b5f819050919050565b610b6283610b2f565b610b76610b6e82610b50565b848454610ad5565b825550505050565b5f90565b610b8a610b7e565b610b95818484610b59565b505050565b5b81811015610bb857610bad5f82610b82565b600181019050610b9b565b5050565b601f821115610bfd57610bce8161095a565b610bd784610aba565b81016020851015610be6578190505b610bfa610bf285610aba565b830182610b9a565b50505b505050565b5f82821c905092915050565b5f610c1d5f1984600802610c02565b1980831691505092915050565b5f610c358383610c0e565b9150826002028217905092915050565b610c4f8383610a83565b67ffffffffffffffff811115610c6857610c67610a8d565b5b610c728254610862565b610c7d828285610bbc565b5f601f831160018114610caa575f8415610c98578287013590505b610ca28582610c2a565b865550610d09565b601f198416610cb88661095a565b5f5b82811015610cdf57848901358255600182019150602085019450602081019050610cba565b86831015610cfc5784890135610cf8601f891682610c0e565b8355505b6001600288020188555050505b50505050505050565b828183375f83830152505050565b5f610d2b8385610672565b9350610d38838584610d12565b610d4183610690565b840190509392505050565b5f6040820190508181035f830152610d64818661096c565b90508181036020830152610d79818486610d20565b905094935050505056fea26469706673582212209d68255ce6fa51da813f1a489f7b6e4863a18360e9f23dff71e5de344d04bb1364736f6c63430008190033",
					"opcodes": "PUSH1 0x80 PUSH1 0x40 MSTORE PUSH1 0x40 MLOAD DUP1 PUSH1 0x40 ADD PUSH1 0x40 MSTORE DUP1 PUSH1 0x6 DUP2 MSTORE PUSH1 0x20 ADD PUSH32 0x4F70656E65640000000000000000000000000000000000000000000000000000 DUP2 MSTORE POP PUSH1 0x4 SWAP1 DUP2 PUSH2 0x48 SWAP2 SWAP1 PUSH2 0x32F JUMP JUMPDEST POP CALLVALUE DUP1 ISZERO PUSH2 0x54 JUMPI PUSH0 DUP1 REVERT JUMPDEST POP PUSH1 0x40 MLOAD PUSH2 0x13C6 CODESIZE SUB DUP1 PUSH2 0x13C6 DUP4 CODECOPY DUP2 DUP2 ADD PUSH1 0x40 MSTORE DUP2 ADD SWAP1 PUSH2 0x76 SWAP2 SWAP1 PUSH2 0x548 JUMP JUMPDEST DUP4 PUSH0 SWAP1 DUP2 PUSH2 0x84 SWAP2 SWAP1 PUSH2 0x32F JUMP JUMPDEST POP DUP3 PUSH1 0x1 SWAP1 DUP2 PUSH2 0x94 SWAP2 SWAP1 PUSH2 0x32F JUMP JUMPDEST POP DUP2 PUSH1 0x3 SWAP1 DUP2 PUSH2 0xA4 SWAP2 SWAP1 PUSH2 0x32F JUMP JUMPDEST POP DUP1 PUSH1 0x6 DUP2 SWAP1 SSTORE POP CALLER PUSH1 0x2 PUSH0 PUSH2 0x100 EXP DUP2 SLOAD DUP2 PUSH20 0xFFFFFFFFFFFFFFFFFFFFFFFFFFFFFFFFFFFFFFFF MUL NOT AND SWAP1 DUP4 PUSH20 0xFFFFFFFFFFFFFFFFFFFFFFFFFFFFFFFFFFFFFFFF AND MUL OR SWAP1 SSTORE POP POP POP POP POP PUSH2 0x600 JUMP JUMPDEST PUSH0 DUP2 MLOAD SWAP1 POP SWAP2 SWAP1 POP JUMP JUMPDEST PUSH32 0x4E487B7100000000000000000000000000000000000000000000000000000000 PUSH0 MSTORE PUSH1 0x41 PUSH1 0x4 MSTORE PUSH1 0x24 PUSH0 REVERT JUMPDEST PUSH32 0x4E487B7100000000000000000000000000000000000000000000000000000000 PUSH0 MSTORE PUSH1 0x22 PUSH1 0x4 MSTORE PUSH1 0x24 PUSH0 REVERT JUMPDEST PUSH0 PUSH1 0x2 DUP3 DIV SWAP1 POP PUSH1 0x1 DUP3 AND DUP1 PUSH2 0x170 JUMPI PUSH1 0x7F DUP3 AND SWAP2 POP JUMPDEST PUSH1 0x20 DUP3 LT DUP2 SUB PUSH2 0x183 JUMPI PUSH2 0x182 PUSH2 0x12C JUMP JUMPDEST JUMPDEST POP SWAP2 SWAP1 POP JUMP JUMPDEST PUSH0 DUP2 SWAP1 POP DUP2 PUSH0 MSTORE PUSH1 0x20 PUSH0 KECCAK256 SWAP1 POP SWAP2 SWAP1 POP JUMP JUMPDEST PUSH0 PUSH1 0x20 PUSH1 0x1F DUP4 ADD DIV SWAP1 POP SWAP2 SWAP1 POP JUMP JUMPDEST PUSH0 DUP3 DUP3 SHL SWAP1 POP SWAP3 SWAP2 POP POP JUMP JUMPDEST PUSH0 PUSH1 0x8 DUP4 MUL PUSH2 0x1E5 PUSH32 0xFFFFFFFFFFFFFFFFFFFFFFFFFFFFFFFFFFFFFFFFFFFFFFFFFFFFFFFFFFFFFFFF DUP3 PUSH2 0x1AA JUMP JUMPDEST PUSH2 0x1EF DUP7 DUP4 PUSH2 0x1AA JUMP JUMPDEST SWAP6 POP DUP1 NOT DUP5 AND SWAP4 POP DUP1 DUP7 AND DUP5 OR SWAP3 POP POP POP SWAP4 SWAP3 POP POP POP JUMP JUMPDEST PUSH0 DUP2 SWAP1 POP SWAP2 SWAP1 POP JUMP JUMPDEST PUSH0 DUP2 SWAP1 POP SWAP2 SWAP1 POP JUMP JUMPDEST PUSH0 PUSH2 0x233 PUSH2 0x22E PUSH2 0x229 DUP5 PUSH2 0x207 JUMP JUMPDEST PUSH2 0x210 JUMP JUMPDEST PUSH2 0x207 JUMP JUMPDEST SWAP1 POP SWAP2 SWAP1 POP JUMP JUMPDEST PUSH0 DUP2 SWAP1 POP SWAP2 SWAP1 POP JUMP JUMPDEST PUSH2 0x24C DUP4 PUSH2 0x219 JUMP JUMPDEST PUSH2 0x260 PUSH2 0x258 DUP3 PUSH2 0x23A JUMP JUMPDEST DUP5 DUP5 SLOAD PUSH2 0x1B6 JUMP JUMPDEST DUP3 SSTORE POP POP POP POP JUMP JUMPDEST PUSH0 SWAP1 JUMP JUMPDEST PUSH2 0x274 PUSH2 0x268 JUMP JUMPDEST PUSH2 0x27F DUP2 DUP5 DUP5 PUSH2 0x243 JUMP JUMPDEST POP POP POP JUMP JUMPDEST JUMPDEST DUP2 DUP2 LT ISZERO PUSH2 0x2A2 JUMPI PUSH2 0x297 PUSH0 DUP3 PUSH2 0x26C JUMP JUMPDEST PUSH1 0x1 DUP2 ADD SWAP1 POP PUSH2 0x285 JUMP JUMPDEST POP POP JUMP JUMPDEST PUSH1 0x1F DUP3 GT ISZERO PUSH2 0x2E7 JUMPI PUSH2 0x2B8 DUP2 PUSH2 0x189 JUMP JUMPDEST PUSH2 0x2C1 DUP5 PUSH2 0x19B JUMP JUMPDEST DUP2 ADD PUSH1 0x20 DUP6 LT ISZERO PUSH2 0x2D0 JUMPI DUP2 SWAP1 POP JUMPDEST PUSH2 0x2E4 PUSH2 0x2DC DUP6 PUSH2 0x19B JUMP JUMPDEST DUP4 ADD DUP3 PUSH2 0x284 JUMP JUMPDEST POP POP JUMPDEST POP POP POP JUMP JUMPDEST PUSH0 DUP3 DUP3 SHR SWAP1 POP SWAP3 SWAP2 POP POP JUMP JUMPDEST PUSH0 PUSH2 0x307 PUSH0 NOT DUP5 PUSH1 0x8 MUL PUSH2 0x2EC JUMP JUMPDEST NOT DUP1 DUP4 AND SWAP2 POP POP SWAP3 SWAP2 POP POP JUMP JUMPDEST PUSH0 PUSH2 0x31F DUP4 DUP4 PUSH2 0x2F8 JUMP JUMPDEST SWAP2 POP DUP3 PUSH1 0x2 MUL DUP3 OR SWAP1 POP SWAP3 SWAP2 POP POP JUMP JUMPDEST PUSH2 0x338 DUP3 PUSH2 0xF5 JUMP JUMPDEST PUSH8 0xFFFFFFFFFFFFFFFF DUP2 GT ISZERO PUSH2 0x351 JUMPI PUSH2 0x350 PUSH2 0xFF JUMP JUMPDEST JUMPDEST PUSH2 0x35B DUP3 SLOAD PUSH2 0x159 JUMP JUMPDEST PUSH2 0x366 DUP3 DUP3 DUP6 PUSH2 0x2A6 JUMP JUMPDEST PUSH0 PUSH1 0x20 SWAP1 POP PUSH1 0x1F DUP4 GT PUSH1 0x1 DUP2 EQ PUSH2 0x397 JUMPI PUSH0 DUP5 ISZERO PUSH2 0x385 JUMPI DUP3 DUP8 ADD MLOAD SWAP1 POP JUMPDEST PUSH2 0x38F DUP6 DUP3 PUSH2 0x314 JUMP JUMPDEST DUP7 SSTORE POP PUSH2 0x3F6 JUMP JUMPDEST PUSH1 0x1F NOT DUP5 AND PUSH2 0x3A5 DUP7 PUSH2 0x189 JUMP JUMPDEST PUSH0 JUMPDEST DUP3 DUP2 LT ISZERO PUSH2 0x3CC JUMPI DUP5 DUP10 ADD MLOAD DUP3 SSTORE PUSH1 0x1 DUP3 ADD SWAP2 POP PUSH1 0x20 DUP6 ADD SWAP5 POP PUSH1 0x20 DUP2 ADD SWAP1 POP PUSH2 0x3A7 JUMP JUMPDEST DUP7 DUP4 LT ISZERO PUSH2 0x3E9 JUMPI DUP5 DUP10 ADD MLOAD PUSH2 0x3E5 PUSH1 0x1F DUP10 AND DUP3 PUSH2 0x2F8 JUMP JUMPDEST DUP4 SSTORE POP JUMPDEST PUSH1 0x1 PUSH1 0x2 DUP9 MUL ADD DUP9 SSTORE POP POP POP JUMPDEST POP POP POP POP POP POP JUMP JUMPDEST PUSH0 PUSH1 0x40 MLOAD SWAP1 POP SWAP1 JUMP JUMPDEST PUSH0 DUP1 REVERT JUMPDEST PUSH0 DUP1 REVERT JUMPDEST PUSH0 DUP1 REVERT JUMPDEST PUSH0 DUP1 REVERT JUMPDEST PUSH0 PUSH1 0x1F NOT PUSH1 0x1F DUP4 ADD AND SWAP1 POP SWAP2 SWAP1 POP JUMP JUMPDEST PUSH2 0x430 DUP3 PUSH2 0x417 JUMP JUMPDEST DUP2 ADD DUP2 DUP2 LT PUSH8 0xFFFFFFFFFFFFFFFF DUP3 GT OR ISZERO PUSH2 0x44F JUMPI PUSH2 0x44E PUSH2 0xFF JUMP JUMPDEST JUMPDEST DUP1 PUSH1 0x40 MSTORE POP POP POP JUMP JUMPDEST PUSH0 PUSH2 0x461 PUSH2 0x3FE JUMP JUMPDEST SWAP1 POP PUSH2 0x46D DUP3 DUP3 PUSH2 0x427 JUMP JUMPDEST SWAP2 SWAP1 POP JUMP JUMPDEST PUSH0 PUSH8 0xFFFFFFFFFFFFFFFF DUP3 GT ISZERO PUSH2 0x48C JUMPI PUSH2 0x48B PUSH2 0xFF JUMP JUMPDEST JUMPDEST PUSH2 0x495 DUP3 PUSH2 0x417 JUMP JUMPDEST SWAP1 POP PUSH1 0x20 DUP2 ADD SWAP1 POP SWAP2 SWAP1 POP JUMP JUMPDEST DUP3 DUP2 DUP4 MCOPY PUSH0 DUP4 DUP4 ADD MSTORE POP POP POP JUMP JUMPDEST PUSH0 PUSH2 0x4C2 PUSH2 0x4BD DUP5 PUSH2 0x472 JUMP JUMPDEST PUSH2 0x458 JUMP JUMPDEST SWAP1 POP DUP3 DUP2 MSTORE PUSH1 0x20 DUP2 ADD DUP5 DUP5 DUP5 ADD GT ISZERO PUSH2 0x4DE JUMPI PUSH2 0x4DD PUSH2 0x413 JUMP JUMPDEST JUMPDEST PUSH2 0x4E9 DUP5 DUP3 DUP6 PUSH2 0x4A2 JUMP JUMPDEST POP SWAP4 SWAP3 POP POP POP JUMP JUMPDEST PUSH0 DUP3 PUSH1 0x1F DUP4 ADD SLT PUSH2 0x505 JUMPI PUSH2 0x504 PUSH2 0x40F JUMP JUMPDEST JUMPDEST DUP2 MLOAD PUSH2 0x515 DUP5 DUP3 PUSH1 0x20 DUP7 ADD PUSH2 0x4B0 JUMP JUMPDEST SWAP2 POP POP SWAP3 SWAP2 POP POP JUMP JUMPDEST PUSH2 0x527 DUP2 PUSH2 0x207 JUMP JUMPDEST DUP2 EQ PUSH2 0x531 JUMPI PUSH0 DUP1 REVERT JUMPDEST POP JUMP JUMPDEST PUSH0 DUP2 MLOAD SWAP1 POP PUSH2 0x542 DUP2 PUSH2 0x51E JUMP JUMPDEST SWAP3 SWAP2 POP POP JUMP JUMPDEST PUSH0 DUP1 PUSH0 DUP1 PUSH1 0x80 DUP6 DUP8 SUB SLT ISZERO PUSH2 0x560 JUMPI PUSH2 0x55F PUSH2 0x407 JUMP JUMPDEST JUMPDEST PUSH0 DUP6 ADD MLOAD PUSH8 0xFFFFFFFFFFFFFFFF DUP2 GT ISZERO PUSH2 0x57D JUMPI PUSH2 0x57C PUSH2 0x40B JUMP JUMPDEST JUMPDEST PUSH2 0x589 DUP8 DUP3 DUP9 ADD PUSH2 0x4F1 JUMP JUMPDEST SWAP5 POP POP PUSH1 0x20 DUP6 ADD MLOAD PUSH8 0xFFFFFFFFFFFFFFFF DUP2 GT ISZERO PUSH2 0x5AA JUMPI PUSH2 0x5A9 PUSH2 0x40B JUMP JUMPDEST JUMPDEST PUSH2 0x5B6 DUP8 DUP3 DUP9 ADD PUSH2 0x4F1 JUMP JUMPDEST SWAP4 POP POP PUSH1 0x40 DUP6 ADD MLOAD PUSH8 0xFFFFFFFFFFFFFFFF DUP2 GT ISZERO PUSH2 0x5D7 JUMPI PUSH2 0x5D6 PUSH2 0x40B JUMP JUMPDEST JUMPDEST PUSH2 0x5E3 DUP8 DUP3 DUP9 ADD PUSH2 0x4F1 JUMP JUMPDEST SWAP3 POP POP PUSH1 0x60 PUSH2 0x5F4 DUP8 DUP3 DUP9 ADD PUSH2 0x534 JUMP JUMPDEST SWAP2 POP POP SWAP3 SWAP6 SWAP2 SWAP5 POP SWAP3 POP JUMP JUMPDEST PUSH2 0xDB9 DUP1 PUSH2 0x60D PUSH0 CODECOPY PUSH0 RETURN INVALID PUSH1 0x80 PUSH1 0x40 MSTORE PUSH1 0x4 CALLDATASIZE LT PUSH2 0x85 JUMPI PUSH0 CALLDATALOAD PUSH1 0xE0 SHR DUP1 PUSH4 0xAF640D0F GT PUSH2 0x58 JUMPI DUP1 PUSH4 0xAF640D0F EQ PUSH2 0x111 JUMPI DUP1 PUSH4 0xB60D4288 EQ PUSH2 0x13B JUMPI DUP1 PUSH4 0xB767050D EQ PUSH2 0x165 JUMPI DUP1 PUSH4 0xC19D93FB EQ PUSH2 0x18D JUMPI DUP1 PUSH4 0xC6587957 EQ PUSH2 0x1B7 JUMPI PUSH2 0x85 JUMP JUMPDEST DUP1 PUSH4 0x6FDDE03 EQ PUSH2 0x89 JUMPI DUP1 PUSH4 0x7284E416 EQ PUSH2 0xB3 JUMPI DUP1 PUSH4 0x8DA5CB5B EQ PUSH2 0xDD JUMPI DUP1 PUSH4 0x9073ADB4 EQ PUSH2 0x107 JUMPI JUMPDEST PUSH0 DUP1 REVERT JUMPDEST CALLVALUE DUP1 ISZERO PUSH2 0x94 JUMPI PUSH0 DUP1 REVERT JUMPDEST POP PUSH2 0x9D PUSH2 0x1E1 JUMP JUMPDEST PUSH1 0x40 MLOAD PUSH2 0xAA SWAP2 SWAP1 PUSH2 0x6D8 JUMP JUMPDEST PUSH1 0x40 MLOAD DUP1 SWAP2 SUB SWAP1 RETURN JUMPDEST CALLVALUE DUP1 ISZERO PUSH2 0xBE JUMPI PUSH0 DUP1 REVERT JUMPDEST POP PUSH2 0xC7 PUSH2 0x26D JUMP JUMPDEST PUSH1 0x40 MLOAD PUSH2 0xD4 SWAP2 SWAP1 PUSH2 0x6D8 JUMP JUMPDEST PUSH1 0x40 MLOAD DUP1 SWAP2 SUB SWAP1 RETURN JUMPDEST CALLVALUE DUP1 ISZERO PUSH2 0xE8 JUMPI PUSH0 DUP1 REVERT JUMPDEST POP PUSH2 0xF1 PUSH2 0x2F9 JUMP JUMPDEST PUSH1 0x40 MLOAD PUSH2 0xFE SWAP2 SWAP1 PUSH2 0x737 JUMP JUMPDEST PUSH1 0x40 MLOAD DUP1 SWAP2 SUB SWAP1 RETURN JUMPDEST PUSH2 0x10F PUSH2 0x31E JUMP JUMPDEST STOP JUMPDEST CALLVALUE DUP1 ISZERO PUSH2 0x11C JUMPI PUSH0 DUP1 REVERT JUMPDEST POP PUSH2 0x125 PUSH2 0x465 JUMP JUMPDEST PUSH1 0x40 MLOAD PUSH2 0x132 SWAP2 SWAP1 PUSH2 0x6D8 JUMP JUMPDEST PUSH1 0x40 MLOAD DUP1 SWAP2 SUB SWAP1 RETURN JUMPDEST CALLVALUE DUP1 ISZERO PUSH2 0x146 JUMPI PUSH0 DUP1 REVERT JUMPDEST POP PUSH2 0x14F PUSH2 0x4F0 JUMP JUMPDEST PUSH1 0x40 MLOAD PUSH2 0x15C SWAP2 SWAP1 PUSH2 0x768 JUMP JUMPDEST PUSH1 0x40 MLOAD DUP1 SWAP2 SUB SWAP1 RETURN JUMPDEST CALLVALUE DUP1 ISZERO PUSH2 0x170 JUMPI PUSH0 DUP1 REVERT JUMPDEST POP PUSH2 0x18B PUSH1 0x4 DUP1 CALLDATASIZE SUB DUP2 ADD SWAP1 PUSH2 0x186 SWAP2 SWAP1 PUSH2 0x7EA JUMP JUMPDEST PUSH2 0x4F6 JUMP JUMPDEST STOP JUMPDEST CALLVALUE DUP1 ISZERO PUSH2 0x198 JUMPI PUSH0 DUP1 REVERT JUMPDEST POP PUSH2 0x1A1 PUSH2 0x5D6 JUMP JUMPDEST PUSH1 0x40 MLOAD PUSH2 0x1AE SWAP2 SWAP1 PUSH2 0x6D8 JUMP JUMPDEST PUSH1 0x40 MLOAD DUP1 SWAP2 SUB SWAP1 RETURN JUMPDEST CALLVALUE DUP1 ISZERO PUSH2 0x1C2 JUMPI PUSH0 DUP1 REVERT JUMPDEST POP PUSH2 0x1CB PUSH2 0x662 JUMP JUMPDEST PUSH1 0x40 MLOAD PUSH2 0x1D8 SWAP2 SWAP1 PUSH2 0x768 JUMP JUMPDEST PUSH1 0x40 MLOAD DUP1 SWAP2 SUB SWAP1 RETURN JUMPDEST PUSH1 0x1 DUP1 SLOAD PUSH2 0x1EE SWAP1 PUSH2 0x862 JUMP JUMPDEST DUP1 PUSH1 0x1F ADD PUSH1 0x20 DUP1 SWAP2 DIV MUL PUSH1 0x20 ADD PUSH1 0x40 MLOAD SWAP1 DUP2 ADD PUSH1 0x40 MSTORE DUP1 SWAP3 SWAP2 SWAP1 DUP2 DUP2 MSTORE PUSH1 0x20 ADD DUP3 DUP1 SLOAD PUSH2 0x21A SWAP1 PUSH2 0x862 JUMP JUMPDEST DUP1 ISZERO PUSH2 0x265 JUMPI DUP1 PUSH1 0x1F LT PUSH2 0x23C JUMPI PUSH2 0x100 DUP1 DUP4 SLOAD DIV MUL DUP4 MSTORE SWAP2 PUSH1 0x20 ADD SWAP2 PUSH2 0x265 JUMP JUMPDEST DUP3 ADD SWAP2 SWAP1 PUSH0 MSTORE PUSH1 0x20 PUSH0 KECCAK256 SWAP1 JUMPDEST DUP2 SLOAD DUP2 MSTORE SWAP1 PUSH1 0x1 ADD SWAP1 PUSH1 0x20 ADD DUP1 DUP4 GT PUSH2 0x248 JUMPI DUP3 SWAP1 SUB PUSH1 0x1F AND DUP3 ADD SWAP2 JUMPDEST POP POP POP POP POP DUP2 JUMP JUMPDEST PUSH1 0x3 DUP1 SLOAD PUSH2 0x27A SWAP1 PUSH2 0x862 JUMP JUMPDEST DUP1 PUSH1 0x1F ADD PUSH1 0x20 DUP1 SWAP2 DIV MUL PUSH1 0x20 ADD PUSH1 0x40 MLOAD SWAP1 DUP2 ADD PUSH1 0x40 MSTORE DUP1 SWAP3 SWAP2 SWAP1 DUP2 DUP2 MSTORE PUSH1 0x20 ADD DUP3 DUP1 SLOAD PUSH2 0x2A6 SWAP1 PUSH2 0x862 JUMP JUMPDEST DUP1 ISZERO PUSH2 0x2F1 JUMPI DUP1 PUSH1 0x1F LT PUSH2 0x2C8 JUMPI PUSH2 0x100 DUP1 DUP4 SLOAD DIV MUL DUP4 MSTORE SWAP2 PUSH1 0x20 ADD SWAP2 PUSH2 0x2F1 JUMP JUMPDEST DUP3 ADD SWAP2 SWAP1 PUSH0 MSTORE PUSH1 0x20 PUSH0 KECCAK256 SWAP1 JUMPDEST DUP2 SLOAD DUP2 MSTORE SWAP1 PUSH1 0x1 ADD SWAP1 PUSH1 0x20 ADD DUP1 DUP4 GT PUSH2 0x2D4 JUMPI DUP3 SWAP1 SUB PUSH1 0x1F AND DUP3 ADD SWAP2 JUMPDEST POP POP POP POP POP DUP2 JUMP JUMPDEST PUSH1 0x2 PUSH0 SWAP1 SLOAD SWAP1 PUSH2 0x100 EXP SWAP1 DIV PUSH20 0xFFFFFFFFFFFFFFFFFFFFFFFFFFFFFFFFFFFFFFFF AND DUP2 JUMP JUMPDEST CALLER PUSH20 0xFFFFFFFFFFFFFFFFFFFFFFFFFFFFFFFFFFFFFFFF AND PUSH1 0x2 PUSH0 SWAP1 SLOAD SWAP1 PUSH2 0x100 EXP SWAP1 DIV PUSH20 0xFFFFFFFFFFFFFFFFFFFFFFFFFFFFFFFFFFFFFFFF AND PUSH20 0xFFFFFFFFFFFFFFFFFFFFFFFFFFFFFFFFFFFFFFFF AND SUB PUSH2 0x3AD JUMPI PUSH1 0x40 MLOAD PUSH32 0x8C379A000000000000000000000000000000000000000000000000000000000 DUP2 MSTORE PUSH1 0x4 ADD PUSH2 0x3A4 SWAP1 PUSH2 0x8DC JUMP JUMPDEST PUSH1 0x40 MLOAD DUP1 SWAP2 SUB SWAP1 REVERT JUMPDEST PUSH1 0x2 PUSH0 SWAP1 SLOAD SWAP1 PUSH2 0x100 EXP SWAP1 DIV PUSH20 0xFFFFFFFFFFFFFFFFFFFFFFFFFFFFFFFFFFFFFFFF AND PUSH20 0xFFFFFFFFFFFFFFFFFFFFFFFFFFFFFFFFFFFFFFFF AND PUSH2 0x8FC CALLVALUE SWAP1 DUP2 ISZERO MUL SWAP1 PUSH1 0x40 MLOAD PUSH0 PUSH1 0x40 MLOAD DUP1 DUP4 SUB DUP2 DUP6 DUP9 DUP9 CALL SWAP4 POP POP POP POP ISZERO DUP1 ISZERO PUSH2 0x411 JUMPI RETURNDATASIZE PUSH0 DUP1 RETURNDATACOPY RETURNDATASIZE PUSH0 REVERT JUMPDEST POP CALLVALUE PUSH1 0x5 PUSH0 DUP3 DUP3 SLOAD PUSH2 0x423 SWAP2 SWAP1 PUSH2 0x927 JUMP JUMPDEST SWAP3 POP POP DUP2 SWAP1 SSTORE POP PUSH32 0x601A31682B808E0416479A182F80FD9F081C273ED67C10174341A615756C1E00 PUSH0 CALLVALUE PUSH1 0x40 MLOAD PUSH2 0x45B SWAP3 SWAP2 SWAP1 PUSH2 0x9ED JUMP JUMPDEST PUSH1 0x40 MLOAD DUP1 SWAP2 SUB SWAP1 LOG1 JUMP JUMPDEST PUSH0 DUP1 SLOAD PUSH2 0x471 SWAP1 PUSH2 0x862 JUMP JUMPDEST DUP1 PUSH1 0x1F ADD PUSH1 0x20 DUP1 SWAP2 DIV MUL PUSH1 0x20 ADD PUSH1 0x40 MLOAD SWAP1 DUP2 ADD PUSH1 0x40 MSTORE DUP1 SWAP3 SWAP2 SWAP1 DUP2 DUP2 MSTORE PUSH1 0x20 ADD DUP3 DUP1 SLOAD PUSH2 0x49D SWAP1 PUSH2 0x862 JUMP JUMPDEST DUP1 ISZERO PUSH2 0x4E8 JUMPI DUP1 PUSH1 0x1F LT PUSH2 0x4BF JUMPI PUSH2 0x100 DUP1 DUP4 SLOAD DIV MUL DUP4 MSTORE SWAP2 PUSH1 0x20 ADD SWAP2 PUSH2 0x4E8 JUMP JUMPDEST DUP3 ADD SWAP2 SWAP1 PUSH0 MSTORE PUSH1 0x20 PUSH0 KECCAK256 SWAP1 JUMPDEST DUP2 SLOAD DUP2 MSTORE SWAP1 PUSH1 0x1 ADD SWAP1 PUSH1 0x20 ADD DUP1 DUP4 GT PUSH2 0x4CB JUMPI DUP3 SWAP1 SUB PUSH1 0x1F AND DUP3 ADD SWAP2 JUMPDEST POP POP POP POP POP DUP2 JUMP JUMPDEST PUSH1 0x5 SLOAD DUP2 JUMP JUMPDEST CALLER PUSH20 0xFFFFFFFFFFFFFFFFFFFFFFFFFFFFFFFFFFFFFFFF AND PUSH1 0x2 PUSH0 SWAP1 SLOAD SWAP1 PUSH2 0x100 EXP SWAP1 DIV PUSH20 0xFFFFFFFFFFFFFFFFFFFFFFFFFFFFFFFFFFFFFFFF AND PUSH20 0xFFFFFFFFFFFFFFFFFFFFFFFFFFFFFFFFFFFFFFFF AND EQ PUSH2 0x585 JUMPI PUSH1 0x40 MLOAD PUSH32 0x8C379A000000000000000000000000000000000000000000000000000000000 DUP2 MSTORE PUSH1 0x4 ADD PUSH2 0x57C SWAP1 PUSH2 0xA65 JUMP JUMPDEST PUSH1 0x40 MLOAD DUP1 SWAP2 SUB SWAP1 REVERT JUMPDEST DUP2 DUP2 PUSH1 0x4 SWAP2 DUP3 PUSH2 0x596 SWAP3 SWAP2 SWAP1 PUSH2 0xC45 JUMP JUMPDEST POP PUSH32 0x7E3B493EBDB7415FB4D272F18FD83814608078BB8DCD8BBCB4B633D502D1EB3F PUSH0 DUP4 DUP4 PUSH1 0x40 MLOAD PUSH2 0x5CA SWAP4 SWAP3 SWAP2 SWAP1 PUSH2 0xD4C JUMP JUMPDEST PUSH1 0x40 MLOAD DUP1 SWAP2 SUB SWAP1 LOG1 POP POP JUMP JUMPDEST PUSH1 0x4 DUP1 SLOAD PUSH2 0x5E3 SWAP1 PUSH2 0x862 JUMP JUMPDEST DUP1 PUSH1 0x1F ADD PUSH1 0x20 DUP1 SWAP2 DIV MUL PUSH1 0x20 ADD PUSH1 0x40 MLOAD SWAP1 DUP2 ADD PUSH1 0x40 MSTORE DUP1 SWAP3 SWAP2 SWAP1 DUP2 DUP2 MSTORE PUSH1 0x20 ADD DUP3 DUP1 SLOAD PUSH2 0x60F SWAP1 PUSH2 0x862 JUMP JUMPDEST DUP1 ISZERO PUSH2 0x65A JUMPI DUP1 PUSH1 0x1F LT PUSH2 0x631 JUMPI PUSH2 0x100 DUP1 DUP4 SLOAD DIV MUL DUP4 MSTORE SWAP2 PUSH1 0x20 ADD SWAP2 PUSH2 0x65A JUMP JUMPDEST DUP3 ADD SWAP2 SWAP1 PUSH0 MSTORE PUSH1 0x20 PUSH0 KECCAK256 SWAP1 JUMPDEST DUP2 SLOAD DUP2 MSTORE SWAP1 PUSH1 0x1 ADD SWAP1 PUSH1 0x20 ADD DUP1 DUP4 GT PUSH2 0x63D JUMPI DUP3 SWAP1 SUB PUSH1 0x1F AND DUP3 ADD SWAP2 JUMPDEST POP POP POP POP POP DUP2 JUMP JUMPDEST PUSH1 0x6 SLOAD DUP2 JUMP JUMPDEST PUSH0 DUP2 MLOAD SWAP1 POP SWAP2 SWAP1 POP JUMP JUMPDEST PUSH0 DUP3 DUP3 MSTORE PUSH1 0x20 DUP3 ADD SWAP1 POP SWAP3 SWAP2 POP POP JUMP JUMPDEST DUP3 DUP2 DUP4 MCOPY PUSH0 DUP4 DUP4 ADD MSTORE POP POP POP JUMP JUMPDEST PUSH0 PUSH1 0x1F NOT PUSH1 0x1F DUP4 ADD AND SWAP1 POP SWAP2 SWAP1 POP JUMP JUMPDEST PUSH0 PUSH2 0x6AA DUP3 PUSH2 0x668 JUMP JUMPDEST PUSH2 0x6B4 DUP2 DUP6 PUSH2 0x672 JUMP JUMPDEST SWAP4 POP PUSH2 0x6C4 DUP2 DUP6 PUSH1 0x20 DUP7 ADD PUSH2 0x682 JUMP JUMPDEST PUSH2 0x6CD DUP2 PUSH2 0x690 JUMP JUMPDEST DUP5 ADD SWAP2 POP POP SWAP3 SWAP2 POP POP JUMP JUMPDEST PUSH0 PUSH1 0x20 DUP3 ADD SWAP1 POP DUP2 DUP2 SUB PUSH0 DUP4 ADD MSTORE PUSH2 0x6F0 DUP2 DUP5 PUSH2 0x6A0 JUMP JUMPDEST SWAP1 POP SWAP3 SWAP2 POP POP JUMP JUMPDEST PUSH0 PUSH20 0xFFFFFFFFFFFFFFFFFFFFFFFFFFFFFFFFFFFFFFFF DUP3 AND SWAP1 POP SWAP2 SWAP1 POP JUMP JUMPDEST PUSH0 PUSH2 0x721 DUP3 PUSH2 0x6F8 JUMP JUMPDEST SWAP1 POP SWAP2 SWAP1 POP JUMP JUMPDEST PUSH2 0x731 DUP2 PUSH2 0x717 JUMP JUMPDEST DUP3 MSTORE POP POP JUMP JUMPDEST PUSH0 PUSH1 0x20 DUP3 ADD SWAP1 POP PUSH2 0x74A PUSH0 DUP4 ADD DUP5 PUSH2 0x728 JUMP JUMPDEST SWAP3 SWAP2 POP POP JUMP JUMPDEST PUSH0 DUP2 SWAP1 POP SWAP2 SWAP1 POP JUMP JUMPDEST PUSH2 0x762 DUP2 PUSH2 0x750 JUMP JUMPDEST DUP3 MSTORE POP POP JUMP JUMPDEST PUSH0 PUSH1 0x20 DUP3 ADD SWAP1 POP PUSH2 0x77B PUSH0 DUP4 ADD DUP5 PUSH2 0x759 JUMP JUMPDEST SWAP3 SWAP2 POP POP JUMP JUMPDEST PUSH0 DUP1 REVERT JUMPDEST PUSH0 DUP1 REVERT JUMPDEST PUSH0 DUP1 REVERT JUMPDEST PUSH0 DUP1 REVERT JUMPDEST PUSH0 DUP1 REVERT JUMPDEST PUSH0 DUP1 DUP4 PUSH1 0x1F DUP5 ADD SLT PUSH2 0x7AA JUMPI PUSH2 0x7A9 PUSH2 0x789 JUMP JUMPDEST JUMPDEST DUP3 CALLDATALOAD SWAP1 POP PUSH8 0xFFFFFFFFFFFFFFFF DUP2 GT ISZERO PUSH2 0x7C7 JUMPI PUSH2 0x7C6 PUSH2 0x78D JUMP JUMPDEST JUMPDEST PUSH1 0x20 DUP4 ADD SWAP2 POP DUP4 PUSH1 0x1 DUP3 MUL DUP4 ADD GT ISZERO PUSH2 0x7E3 JUMPI PUSH2 0x7E2 PUSH2 0x791 JUMP JUMPDEST JUMPDEST SWAP3 POP SWAP3 SWAP1 POP JUMP JUMPDEST PUSH0 DUP1 PUSH1 0x20 DUP4 DUP6 SUB SLT ISZERO PUSH2 0x800 JUMPI PUSH2 0x7FF PUSH2 0x781 JUMP JUMPDEST JUMPDEST PUSH0 DUP4 ADD CALLDATALOAD PUSH8 0xFFFFFFFFFFFFFFFF DUP2 GT ISZERO PUSH2 0x81D JUMPI PUSH2 0x81C PUSH2 0x785 JUMP JUMPDEST JUMPDEST PUSH2 0x829 DUP6 DUP3 DUP7 ADD PUSH2 0x795 JUMP JUMPDEST SWAP3 POP SWAP3 POP POP SWAP3 POP SWAP3 SWAP1 POP JUMP JUMPDEST PUSH32 0x4E487B7100000000000000000000000000000000000000000000000000000000 PUSH0 MSTORE PUSH1 0x22 PUSH1 0x4 MSTORE PUSH1 0x24 PUSH0 REVERT JUMPDEST PUSH0 PUSH1 0x2 DUP3 DIV SWAP1 POP PUSH1 0x1 DUP3 AND DUP1 PUSH2 0x879 JUMPI PUSH1 0x7F DUP3 AND SWAP2 POP JUMPDEST PUSH1 0x20 DUP3 LT DUP2 SUB PUSH2 0x88C JUMPI PUSH2 0x88B PUSH2 0x835 JUMP JUMPDEST JUMPDEST POP SWAP2 SWAP1 POP JUMP JUMPDEST PUSH32 0x4173204F776E65722063616E27742066756E64207572206163636F756E740000 PUSH0 DUP3 ADD MSTORE POP JUMP JUMPDEST PUSH0 PUSH2 0x8C6 PUSH1 0x1E DUP4 PUSH2 0x672 JUMP JUMPDEST SWAP2 POP PUSH2 0x8D1 DUP3 PUSH2 0x892 JUMP JUMPDEST PUSH1 0x20 DUP3 ADD SWAP1 POP SWAP2 SWAP1 POP JUMP JUMPDEST PUSH0 PUSH1 0x20 DUP3 ADD SWAP1 POP DUP2 DUP2 SUB PUSH0 DUP4 ADD MSTORE PUSH2 0x8F3 DUP2 PUSH2 0x8BA JUMP JUMPDEST SWAP1 POP SWAP2 SWAP1 POP JUMP JUMPDEST PUSH32 0x4E487B7100000000000000000000000000000000000000000000000000000000 PUSH0 MSTORE PUSH1 0x11 PUSH1 0x4 MSTORE PUSH1 0x24 PUSH0 REVERT JUMPDEST PUSH0 PUSH2 0x931 DUP3 PUSH2 0x750 JUMP JUMPDEST SWAP2 POP PUSH2 0x93C DUP4 PUSH2 0x750 JUMP JUMPDEST SWAP3 POP DUP3 DUP3 ADD SWAP1 POP DUP1 DUP3 GT ISZERO PUSH2 0x954 JUMPI PUSH2 0x953 PUSH2 0x8FA JUMP JUMPDEST JUMPDEST SWAP3 SWAP2 POP POP JUMP JUMPDEST PUSH0 DUP2 SWAP1 POP DUP2 PUSH0 MSTORE PUSH1 0x20 PUSH0 KECCAK256 SWAP1 POP SWAP2 SWAP1 POP JUMP JUMPDEST PUSH0 DUP2 SLOAD PUSH2 0x978 DUP2 PUSH2 0x862 JUMP JUMPDEST PUSH2 0x982 DUP2 DUP7 PUSH2 0x672 JUMP JUMPDEST SWAP5 POP PUSH1 0x1 DUP3 AND PUSH0 DUP2 EQ PUSH2 0x99C JUMPI PUSH1 0x1 DUP2 EQ PUSH2 0x9B2 JUMPI PUSH2 0x9E4 JUMP JUMPDEST PUSH1 0xFF NOT DUP4 AND DUP7 MSTORE DUP2 ISZERO ISZERO PUSH1 0x20 MUL DUP7 ADD SWAP4 POP PUSH2 0x9E4 JUMP JUMPDEST PUSH2 0x9BB DUP6 PUSH2 0x95A JUMP JUMPDEST PUSH0 JUMPDEST DUP4 DUP2 LT ISZERO PUSH2 0x9DC JUMPI DUP2 SLOAD DUP2 DUP10 ADD MSTORE PUSH1 0x1 DUP3 ADD SWAP2 POP PUSH1 0x20 DUP2 ADD SWAP1 POP PUSH2 0x9BD JUMP JUMPDEST DUP1 DUP9 ADD SWAP6 POP POP POP JUMPDEST POP POP POP SWAP3 SWAP2 POP POP JUMP JUMPDEST PUSH0 PUSH1 0x40 DUP3 ADD SWAP1 POP DUP2 DUP2 SUB PUSH0 DUP4 ADD MSTORE PUSH2 0xA05 DUP2 DUP6 PUSH2 0x96C JUMP JUMPDEST SWAP1 POP PUSH2 0xA14 PUSH1 0x20 DUP4 ADD DUP5 PUSH2 0x759 JUMP JUMPDEST SWAP4 SWAP3 POP POP POP JUMP JUMPDEST PUSH32 0x4F6E6C79206F776E65722063616E206368616E67652074686520737461746500 PUSH0 DUP3 ADD MSTORE POP JUMP JUMPDEST PUSH0 PUSH2 0xA4F PUSH1 0x1F DUP4 PUSH2 0x672 JUMP JUMPDEST SWAP2 POP PUSH2 0xA5A DUP3 PUSH2 0xA1B JUMP JUMPDEST PUSH1 0x20 DUP3 ADD SWAP1 POP SWAP2 SWAP1 POP JUMP JUMPDEST PUSH0 PUSH1 0x20 DUP3 ADD SWAP1 POP DUP2 DUP2 SUB PUSH0 DUP4 ADD MSTORE PUSH2 0xA7C DUP2 PUSH2 0xA43 JUMP JUMPDEST SWAP1 POP SWAP2 SWAP1 POP JUMP JUMPDEST PUSH0 DUP3 SWAP1 POP SWAP3 SWAP2 POP POP JUMP JUMPDEST PUSH32 0x4E487B7100000000000000000000000000000000000000000000000000000000 PUSH0 MSTORE PUSH1 0x41 PUSH1 0x4 MSTORE PUSH1 0x24 PUSH0 REVERT JUMPDEST PUSH0 PUSH1 0x20 PUSH1 0x1F DUP4 ADD DIV SWAP1 POP SWAP2 SWAP1 POP JUMP JUMPDEST PUSH0 DUP3 DUP3 SHL SWAP1 POP SWAP3 SWAP2 POP POP JUMP JUMPDEST PUSH0 PUSH1 0x8 DUP4 MUL PUSH2 0xB04 PUSH32 0xFFFFFFFFFFFFFFFFFFFFFFFFFFFFFFFFFFFFFFFFFFFFFFFFFFFFFFFFFFFFFFFF DUP3 PUSH2 0xAC9 JUMP JUMPDEST PUSH2 0xB0E DUP7 DUP4 PUSH2 0xAC9 JUMP JUMPDEST SWAP6 POP DUP1 NOT DUP5 AND SWAP4 POP DUP1 DUP7 AND DUP5 OR SWAP3 POP POP POP SWAP4 SWAP3 POP POP POP JUMP JUMPDEST PUSH0 DUP2 SWAP1 POP SWAP2 SWAP1 POP JUMP JUMPDEST PUSH0 PUSH2 0xB49 PUSH2 0xB44 PUSH2 0xB3F DUP5 PUSH2 0x750 JUMP JUMPDEST PUSH2 0xB26 JUMP JUMPDEST PUSH2 0x750 JUMP JUMPDEST SWAP1 POP SWAP2 SWAP1 POP JUMP JUMPDEST PUSH0 DUP2 SWAP1 POP SWAP2 SWAP1 POP JUMP JUMPDEST PUSH2 0xB62 DUP4 PUSH2 0xB2F JUMP JUMPDEST PUSH2 0xB76 PUSH2 0xB6E DUP3 PUSH2 0xB50 JUMP JUMPDEST DUP5 DUP5 SLOAD PUSH2 0xAD5 JUMP JUMPDEST DUP3 SSTORE POP POP POP POP JUMP JUMPDEST PUSH0 SWAP1 JUMP JUMPDEST PUSH2 0xB8A PUSH2 0xB7E JUMP JUMPDEST PUSH2 0xB95 DUP2 DUP5 DUP5 PUSH2 0xB59 JUMP JUMPDEST POP POP POP JUMP JUMPDEST JUMPDEST DUP2 DUP2 LT ISZERO PUSH2 0xBB8 JUMPI PUSH2 0xBAD PUSH0 DUP3 PUSH2 0xB82 JUMP JUMPDEST PUSH1 0x1 DUP2 ADD SWAP1 POP PUSH2 0xB9B JUMP JUMPDEST POP POP JUMP JUMPDEST PUSH1 0x1F DUP3 GT ISZERO PUSH2 0xBFD JUMPI PUSH2 0xBCE DUP2 PUSH2 0x95A JUMP JUMPDEST PUSH2 0xBD7 DUP5 PUSH2 0xABA JUMP JUMPDEST DUP2 ADD PUSH1 0x20 DUP6 LT ISZERO PUSH2 0xBE6 JUMPI DUP2 SWAP1 POP JUMPDEST PUSH2 0xBFA PUSH2 0xBF2 DUP6 PUSH2 0xABA JUMP JUMPDEST DUP4 ADD DUP3 PUSH2 0xB9A JUMP JUMPDEST POP POP JUMPDEST POP POP POP JUMP JUMPDEST PUSH0 DUP3 DUP3 SHR SWAP1 POP SWAP3 SWAP2 POP POP JUMP JUMPDEST PUSH0 PUSH2 0xC1D PUSH0 NOT DUP5 PUSH1 0x8 MUL PUSH2 0xC02 JUMP JUMPDEST NOT DUP1 DUP4 AND SWAP2 POP POP SWAP3 SWAP2 POP POP JUMP JUMPDEST PUSH0 PUSH2 0xC35 DUP4 DUP4 PUSH2 0xC0E JUMP JUMPDEST SWAP2 POP DUP3 PUSH1 0x2 MUL DUP3 OR SWAP1 POP SWAP3 SWAP2 POP POP JUMP JUMPDEST PUSH2 0xC4F DUP4 DUP4 PUSH2 0xA83 JUMP JUMPDEST PUSH8 0xFFFFFFFFFFFFFFFF DUP2 GT ISZERO PUSH2 0xC68 JUMPI PUSH2 0xC67 PUSH2 0xA8D JUMP JUMPDEST JUMPDEST PUSH2 0xC72 DUP3 SLOAD PUSH2 0x862 JUMP JUMPDEST PUSH2 0xC7D DUP3 DUP3 DUP6 PUSH2 0xBBC JUMP JUMPDEST PUSH0 PUSH1 0x1F DUP4 GT PUSH1 0x1 DUP2 EQ PUSH2 0xCAA JUMPI PUSH0 DUP5 ISZERO PUSH2 0xC98 JUMPI DUP3 DUP8 ADD CALLDATALOAD SWAP1 POP JUMPDEST PUSH2 0xCA2 DUP6 DUP3 PUSH2 0xC2A JUMP JUMPDEST DUP7 SSTORE POP PUSH2 0xD09 JUMP JUMPDEST PUSH1 0x1F NOT DUP5 AND PUSH2 0xCB8 DUP7 PUSH2 0x95A JUMP JUMPDEST PUSH0 JUMPDEST DUP3 DUP2 LT ISZERO PUSH2 0xCDF JUMPI DUP5 DUP10 ADD CALLDATALOAD DUP3 SSTORE PUSH1 0x1 DUP3 ADD SWAP2 POP PUSH1 0x20 DUP6 ADD SWAP5 POP PUSH1 0x20 DUP2 ADD SWAP1 POP PUSH2 0xCBA JUMP JUMPDEST DUP7 DUP4 LT ISZERO PUSH2 0xCFC JUMPI DUP5 DUP10 ADD CALLDATALOAD PUSH2 0xCF8 PUSH1 0x1F DUP10 AND DUP3 PUSH2 0xC0E JUMP JUMPDEST DUP4 SSTORE POP JUMPDEST PUSH1 0x1 PUSH1 0x2 DUP9 MUL ADD DUP9 SSTORE POP POP POP JUMPDEST POP POP POP POP POP POP POP JUMP JUMPDEST DUP3 DUP2 DUP4 CALLDATACOPY PUSH0 DUP4 DUP4 ADD MSTORE POP POP POP JUMP JUMPDEST PUSH0 PUSH2 0xD2B DUP4 DUP6 PUSH2 0x672 JUMP JUMPDEST SWAP4 POP PUSH2 0xD38 DUP4 DUP6 DUP5 PUSH2 0xD12 JUMP JUMPDEST PUSH2 0xD41 DUP4 PUSH2 0x690 JUMP JUMPDEST DUP5 ADD SWAP1 POP SWAP4 SWAP3 POP POP POP JUMP JUMPDEST PUSH0 PUSH1 0x40 DUP3 ADD SWAP1 POP DUP2 DUP2 SUB PUSH0 DUP4 ADD MSTORE PUSH2 0xD64 DUP2 DUP7 PUSH2 0x96C JUMP JUMPDEST SWAP1 POP DUP2 DUP2 SUB PUSH1 0x20 DUP4 ADD MSTORE PUSH2 0xD79 DUP2 DUP5 DUP7 PUSH2 0xD20 JUMP JUMPDEST SWAP1 POP SWAP5 SWAP4 POP POP POP POP JUMP INVALID LOG2 PUSH5 0x6970667358 0x22 SLT KECCAK256 SWAP14 PUSH9 0x255CE6FA51DA813F1A BASEFEE SWAP16 PUSH28 0x6E4863A18360E9F23DFF71E5DE344D04BB1364736F6C634300081900 CALLER "
				},
				"gasEstimates": {
					"creation": {
						"codeDepositCost": "702600",
						"executionCost": "infinite",
						"totalCost": "infinite"
					},
					"external": {
						"FundProject()": "infinite",
						"changeProjectState(string)": "infinite",
						"description()": "infinite",
						"fund()": "2447",
						"fundrasingGoal()": "2513",
						"id()": "infinite",
						"name()": "infinite",
						"owner()": "2553",
						"state()": "infinite"
					}
				},
				"methodIdentifiers": {
					"FundProject()": "9073adb4",
					"changeProjectState(string)": "b767050d",
					"description()": "7284e416",
					"fund()": "b60d4288",
					"fundrasingGoal()": "c6587957",
					"id()": "af640d0f",
					"name()": "06fdde03",
					"owner()": "8da5cb5b",
					"state()": "c19d93fb"
				}
			},
			"storageLayout": {
				"storage": [
					{
						"astId": 3,
						"contract": "contracts/Homework3.sol:Homework",
						"label": "id",
						"offset": 0,
						"slot": "0",
						"type": "t_string_storage"
					},
					{
						"astId": 5,
						"contract": "contracts/Homework3.sol:Homework",
						"label": "name",
						"offset": 0,
						"slot": "1",
						"type": "t_string_storage"
					},
					{
						"astId": 7,
						"contract": "contracts/Homework3.sol:Homework",
						"label": "owner",
						"offset": 0,
						"slot": "2",
						"type": "t_address_payable"
					},
					{
						"astId": 9,
						"contract": "contracts/Homework3.sol:Homework",
						"label": "description",
						"offset": 0,
						"slot": "3",
						"type": "t_string_storage"
					},
					{
						"astId": 12,
						"contract": "contracts/Homework3.sol:Homework",
						"label": "state",
						"offset": 0,
						"slot": "4",
						"type": "t_string_storage"
					},
					{
						"astId": 14,
						"contract": "contracts/Homework3.sol:Homework",
						"label": "fund",
						"offset": 0,
						"slot": "5",
						"type": "t_uint256"
					},
					{
						"astId": 16,
						"contract": "contracts/Homework3.sol:Homework",
						"label": "fundrasingGoal",
						"offset": 0,
						"slot": "6",
						"type": "t_uint256"
					}
				],
				"types": {
					"t_address_payable": {
						"encoding": "inplace",
						"label": "address payable",
						"numberOfBytes": "20"
					},
					"t_string_storage": {
						"encoding": "bytes",
						"label": "string",
						"numberOfBytes": "32"
					},
					"t_uint256": {
						"encoding": "inplace",
						"label": "uint256",
						"numberOfBytes": "32"
					}
				}
			},
			"userdoc": {
				"kind": "user",
				"methods": {},
				"version": 1
			}
		}
	}
}