{
	"contracts/Number.sol": {
		"Number": {
			"abi": [
				{
					"inputs": [],
					"name": "changeNumber",
					"outputs": [
						{
							"internalType": "int256",
							"name": "number",
							"type": "int256"
						}
					],
					"stateMutability": "pure",
					"type": "function"
				}
			],
			"devdoc": {
				"kind": "dev",
				"methods": {},
				"version": 1
			},
			"evm": {
				"assembly": "    /* \"contracts/Number.sol\":74:300  contract Number {... */\n  mstore(0x40, 0x80)\n  callvalue\n  dup1\n  iszero\n  tag_1\n  jumpi\n  0x00\n  dup1\n  revert\ntag_1:\n  pop\n  dataSize(sub_0)\n  dup1\n  dataOffset(sub_0)\n  0x00\n  codecopy\n  0x00\n  return\nstop\n\nsub_0: assembly {\n        /* \"contracts/Number.sol\":74:300  contract Number {... */\n      mstore(0x40, 0x80)\n      callvalue\n      dup1\n      iszero\n      tag_1\n      jumpi\n      0x00\n      dup1\n      revert\n    tag_1:\n      pop\n      jumpi(tag_2, lt(calldatasize, 0x04))\n      shr(0xe0, calldataload(0x00))\n      dup1\n      0xc967aa5e\n      eq\n      tag_3\n      jumpi\n    tag_2:\n      0x00\n      dup1\n      revert\n        /* \"contracts/Number.sol\":195:297  function changeNumber () public pure returns (int number) {... */\n    tag_3:\n      tag_4\n      tag_5\n      jump\t// in\n    tag_4:\n      mload(0x40)\n      tag_6\n      swap2\n      swap1\n      tag_7\n      jump\t// in\n    tag_6:\n      mload(0x40)\n      dup1\n      swap2\n      sub\n      swap1\n      return\n    tag_5:\n        /* \"contracts/Number.sol\":241:251  int number */\n      0x00\n        /* \"contracts/Number.sol\":287:289  -1 */\n      0xffffffffffffffffffffffffffffffffffffffffffffffffffffffffffffffff\n        /* \"contracts/Number.sol\":273:284  getNumber() */\n      tag_9\n        /* \"contracts/Number.sol\":273:282  getNumber */\n      tag_10\n        /* \"contracts/Number.sol\":273:284  getNumber() */\n      jump\t// in\n    tag_9:\n        /* \"contracts/Number.sol\":273:289  getNumber() * -1 */\n      tag_11\n      swap2\n      swap1\n      tag_12\n      jump\t// in\n    tag_11:\n        /* \"contracts/Number.sol\":264:289  number = getNumber() * -1 */\n      swap1\n      pop\n        /* \"contracts/Number.sol\":195:297  function changeNumber () public pure returns (int number) {... */\n      swap1\n      jump\t// out\n        /* \"contracts/Number.sol\":99:187  function getNumber () private pure returns (int number) {... */\n    tag_10:\n        /* \"contracts/Number.sol\":143:153  int number */\n      0x00\n        /* \"contracts/Number.sol\":175:179  1948 */\n      0x079c\n        /* \"contracts/Number.sol\":166:179  number = 1948 */\n      swap1\n      pop\n        /* \"contracts/Number.sol\":99:187  function getNumber () private pure returns (int number) {... */\n      swap1\n      jump\t// out\n        /* \"#utility.yul\":7:83   */\n    tag_14:\n        /* \"#utility.yul\":43:50   */\n      0x00\n        /* \"#utility.yul\":72:77   */\n      dup2\n        /* \"#utility.yul\":61:77   */\n      swap1\n      pop\n        /* \"#utility.yul\":7:83   */\n      swap2\n      swap1\n      pop\n      jump\t// out\n        /* \"#utility.yul\":89:204   */\n    tag_15:\n        /* \"#utility.yul\":174:197   */\n      tag_20\n        /* \"#utility.yul\":191:196   */\n      dup2\n        /* \"#utility.yul\":174:197   */\n      tag_14\n      jump\t// in\n    tag_20:\n        /* \"#utility.yul\":169:172   */\n      dup3\n        /* \"#utility.yul\":162:198   */\n      mstore\n        /* \"#utility.yul\":89:204   */\n      pop\n      pop\n      jump\t// out\n        /* \"#utility.yul\":210:428   */\n    tag_7:\n        /* \"#utility.yul\":301:305   */\n      0x00\n        /* \"#utility.yul\":339:341   */\n      0x20\n        /* \"#utility.yul\":328:337   */\n      dup3\n        /* \"#utility.yul\":324:342   */\n      add\n        /* \"#utility.yul\":316:342   */\n      swap1\n      pop\n        /* \"#utility.yul\":352:421   */\n      tag_22\n        /* \"#utility.yul\":418:419   */\n      0x00\n        /* \"#utility.yul\":407:416   */\n      dup4\n        /* \"#utility.yul\":403:420   */\n      add\n        /* \"#utility.yul\":394:400   */\n      dup5\n        /* \"#utility.yul\":352:421   */\n      tag_15\n      jump\t// in\n    tag_22:\n        /* \"#utility.yul\":210:428   */\n      swap3\n      swap2\n      pop\n      pop\n      jump\t// out\n        /* \"#utility.yul\":434:614   */\n    tag_16:\n        /* \"#utility.yul\":482:559   */\n      0x4e487b7100000000000000000000000000000000000000000000000000000000\n        /* \"#utility.yul\":479:480   */\n      0x00\n        /* \"#utility.yul\":472:560   */\n      mstore\n        /* \"#utility.yul\":579:583   */\n      0x11\n        /* \"#utility.yul\":576:577   */\n      0x04\n        /* \"#utility.yul\":569:584   */\n      mstore\n        /* \"#utility.yul\":603:607   */\n      0x24\n        /* \"#utility.yul\":600:601   */\n      0x00\n        /* \"#utility.yul\":593:608   */\n      revert\n        /* \"#utility.yul\":620:1176   */\n    tag_12:\n        /* \"#utility.yul\":659:666   */\n      0x00\n        /* \"#utility.yul\":682:701   */\n      tag_25\n        /* \"#utility.yul\":699:700   */\n      dup3\n        /* \"#utility.yul\":682:701   */\n      tag_14\n      jump\t// in\n    tag_25:\n        /* \"#utility.yul\":677:701   */\n      swap2\n      pop\n        /* \"#utility.yul\":715:734   */\n      tag_26\n        /* \"#utility.yul\":732:733   */\n      dup4\n        /* \"#utility.yul\":715:734   */\n      tag_14\n      jump\t// in\n    tag_26:\n        /* \"#utility.yul\":710:734   */\n      swap3\n      pop\n        /* \"#utility.yul\":769:770   */\n      dup3\n        /* \"#utility.yul\":766:767   */\n      dup3\n        /* \"#utility.yul\":762:771   */\n      mul\n        /* \"#utility.yul\":791:820   */\n      tag_27\n        /* \"#utility.yul\":808:819   */\n      dup2\n        /* \"#utility.yul\":791:820   */\n      tag_14\n      jump\t// in\n    tag_27:\n        /* \"#utility.yul\":780:820   */\n      swap2\n      pop\n        /* \"#utility.yul\":878:944   */\n      0x8000000000000000000000000000000000000000000000000000000000000000\n        /* \"#utility.yul\":875:876   */\n      dup5\n        /* \"#utility.yul\":872:945   */\n      eq\n        /* \"#utility.yul\":868:869   */\n      0x00\n        /* \"#utility.yul\":865:866   */\n      dup5\n        /* \"#utility.yul\":861:870   */\n      slt\n        /* \"#utility.yul\":857:946   */\n      and\n        /* \"#utility.yul\":854:969   */\n      iszero\n      tag_28\n      jumpi\n        /* \"#utility.yul\":949:967   */\n      tag_29\n      tag_16\n      jump\t// in\n    tag_29:\n        /* \"#utility.yul\":854:969   */\n    tag_28:\n        /* \"#utility.yul\":1119:1120   */\n      dup3\n        /* \"#utility.yul\":1110:1117   */\n      dup3\n        /* \"#utility.yul\":1105:1121   */\n      sdiv\n        /* \"#utility.yul\":1102:1103   */\n      dup5\n        /* \"#utility.yul\":1099:1122   */\n      eq\n        /* \"#utility.yul\":1079:1080   */\n      dup4\n        /* \"#utility.yul\":1072:1081   */\n      iszero\n        /* \"#utility.yul\":1052:1136   */\n      or\n        /* \"#utility.yul\":1029:1169   */\n      tag_30\n      jumpi\n        /* \"#utility.yul\":1149:1167   */\n      tag_31\n      tag_16\n      jump\t// in\n    tag_31:\n        /* \"#utility.yul\":1029:1169   */\n    tag_30:\n        /* \"#utility.yul\":667:1176   */\n      pop\n        /* \"#utility.yul\":620:1176   */\n      swap3\n      swap2\n      pop\n      pop\n      jump\t// out\n\n    auxdata: 0xa2646970667358221220ad17401d7e4a7f78dd4770d9a5785e2530b9edc06294155aee064ac0db40ff5b64736f6c63430008190033\n}\n",
				"bytecode": {
					"linkReferences": {},
					"object": "6080604052348015600e575f80fd5b506101978061001c5f395ff3fe608060405234801561000f575f80fd5b5060043610610029575f3560e01c8063c967aa5e1461002d575b5f80fd5b61003561004b565b60405161004291906100a5565b60405180910390f35b5f7fffffffffffffffffffffffffffffffffffffffffffffffffffffffffffffffff610075610084565b61007f91906100eb565b905090565b5f61079c905090565b5f819050919050565b61009f8161008d565b82525050565b5f6020820190506100b85f830184610096565b92915050565b7f4e487b71000000000000000000000000000000000000000000000000000000005f52601160045260245ffd5b5f6100f58261008d565b91506101008361008d565b925082820261010e8161008d565b91507f800000000000000000000000000000000000000000000000000000000000000084145f84121615610145576101446100be565b5b828205841483151761015a576101596100be565b5b509291505056fea2646970667358221220ad17401d7e4a7f78dd4770d9a5785e2530b9edc06294155aee064ac0db40ff5b64736f6c63430008190033",
					"opcodes": "PUSH1 0x80 PUSH1 0x40 MSTORE CALLVALUE DUP1 ISZERO PUSH1 0xE JUMPI PUSH0 DUP1 REVERT JUMPDEST POP PUSH2 0x197 DUP1 PUSH2 0x1C PUSH0 CODECOPY PUSH0 RETURN INVALID PUSH1 0x80 PUSH1 0x40 MSTORE CALLVALUE DUP1 ISZERO PUSH2 0xF JUMPI PUSH0 DUP1 REVERT JUMPDEST POP PUSH1 0x4 CALLDATASIZE LT PUSH2 0x29 JUMPI PUSH0 CALLDATALOAD PUSH1 0xE0 SHR DUP1 PUSH4 0xC967AA5E EQ PUSH2 0x2D JUMPI JUMPDEST PUSH0 DUP1 REVERT JUMPDEST PUSH2 0x35 PUSH2 0x4B JUMP JUMPDEST PUSH1 0x40 MLOAD PUSH2 0x42 SWAP2 SWAP1 PUSH2 0xA5 JUMP JUMPDEST PUSH1 0x40 MLOAD DUP1 SWAP2 SUB SWAP1 RETURN JUMPDEST PUSH0 PUSH32 0xFFFFFFFFFFFFFFFFFFFFFFFFFFFFFFFFFFFFFFFFFFFFFFFFFFFFFFFFFFFFFFFF PUSH2 0x75 PUSH2 0x84 JUMP JUMPDEST PUSH2 0x7F SWAP2 SWAP1 PUSH2 0xEB JUMP JUMPDEST SWAP1 POP SWAP1 JUMP JUMPDEST PUSH0 PUSH2 0x79C SWAP1 POP SWAP1 JUMP JUMPDEST PUSH0 DUP2 SWAP1 POP SWAP2 SWAP1 POP JUMP JUMPDEST PUSH2 0x9F DUP2 PUSH2 0x8D JUMP JUMPDEST DUP3 MSTORE POP POP JUMP JUMPDEST PUSH0 PUSH1 0x20 DUP3 ADD SWAP1 POP PUSH2 0xB8 PUSH0 DUP4 ADD DUP5 PUSH2 0x96 JUMP JUMPDEST SWAP3 SWAP2 POP POP JUMP JUMPDEST PUSH32 0x4E487B7100000000000000000000000000000000000000000000000000000000 PUSH0 MSTORE PUSH1 0x11 PUSH1 0x4 MSTORE PUSH1 0x24 PUSH0 REVERT JUMPDEST PUSH0 PUSH2 0xF5 DUP3 PUSH2 0x8D JUMP JUMPDEST SWAP2 POP PUSH2 0x100 DUP4 PUSH2 0x8D JUMP JUMPDEST SWAP3 POP DUP3 DUP3 MUL PUSH2 0x10E DUP2 PUSH2 0x8D JUMP JUMPDEST SWAP2 POP PUSH32 0x8000000000000000000000000000000000000000000000000000000000000000 DUP5 EQ PUSH0 DUP5 SLT AND ISZERO PUSH2 0x145 JUMPI PUSH2 0x144 PUSH2 0xBE JUMP JUMPDEST JUMPDEST DUP3 DUP3 SDIV DUP5 EQ DUP4 ISZERO OR PUSH2 0x15A JUMPI PUSH2 0x159 PUSH2 0xBE JUMP JUMPDEST JUMPDEST POP SWAP3 SWAP2 POP POP JUMP INVALID LOG2 PUSH5 0x6970667358 0x22 SLT KECCAK256 0xAD OR BLOCKHASH SAR PUSH31 0x4A7F78DD4770D9A5785E2530B9EDC06294155AEE064AC0DB40FF5B64736F6C PUSH4 0x43000819 STOP CALLER "
				},
				"gasEstimates": {
					"creation": {
						"codeDepositCost": "81400",
						"executionCost": "127",
						"totalCost": "81527"
					},
					"external": {
						"changeNumber()": "infinite"
					},
					"internal": {
						"getNumber()": "22"
					}
				},
				"methodIdentifiers": {
					"changeNumber()": "c967aa5e"
				}
			},
			"storageLayout": {
				"storage": [],
				"types": null
			},
			"userdoc": {
				"kind": "user",
				"methods": {},
				"version": 1
			}
		}
	}
}